{"abi":[{"type":"function","name":"NFT_OWNABLE_STORAGE_LOCATION_V1","inputs":[],"outputs":[{"name":"","type":"bytes32","internalType":"bytes32"}],"stateMutability":"view"},{"type":"function","name":"REGISTERABLE_LOCATION_V1","inputs":[],"outputs":[{"name":"","type":"bytes32","internalType":"bytes32"}],"stateMutability":"view"},{"type":"function","name":"authority","inputs":[],"outputs":[{"name":"","type":"address","internalType":"address"}],"stateMutability":"view"},{"type":"function","name":"authorizeFunctions","inputs":[{"name":"target","type":"address","internalType":"address"},{"name":"roleId","type":"uint64","internalType":"RoleId"},{"name":"functions","type":"tuple[]","internalType":"struct IAccess.FunctionInfo[]","components":[{"name":"name","type":"bytes32","internalType":"Str"},{"name":"selector","type":"bytes4","internalType":"Selector"},{"name":"createdAt","type":"uint40","internalType":"Timestamp"},{"name":"lastUpdateIn","type":"uint40","internalType":"Blocknumber"}]}],"outputs":[],"stateMutability":"nonpayable"},{"type":"function","name":"createRole","inputs":[{"name":"roleName","type":"string","internalType":"string"},{"name":"adminRoleId","type":"uint64","internalType":"RoleId"},{"name":"maxMemberCount","type":"uint32","internalType":"uint32"}],"outputs":[{"name":"roleId","type":"uint64","internalType":"RoleId"}],"stateMutability":"nonpayable"},{"type":"function","name":"createTarget","inputs":[{"name":"target","type":"address","internalType":"address"},{"name":"name","type":"string","internalType":"string"}],"outputs":[{"name":"targetRoleId","type":"uint64","internalType":"RoleId"}],"stateMutability":"nonpayable"},{"type":"function","name":"getBundleSet","inputs":[],"outputs":[{"name":"","type":"address","internalType":"contract BundleSet"}],"stateMutability":"view"},{"type":"function","name":"getInitialInfo","inputs":[],"outputs":[{"name":"info","type":"tuple","internalType":"struct IRegistry.ObjectInfo","components":[{"name":"nftId","type":"uint96","internalType":"NftId"},{"name":"parentNftId","type":"uint96","internalType":"NftId"},{"name":"objectType","type":"uint8","internalType":"ObjectType"},{"name":"isInterceptor","type":"bool","internalType":"bool"},{"name":"objectAddress","type":"address","internalType":"address"},{"name":"initialOwner","type":"address","internalType":"address"},{"name":"data","type":"bytes","internalType":"bytes"}]}],"stateMutability":"view"},{"type":"function","name":"getInstanceAdmin","inputs":[],"outputs":[{"name":"","type":"address","internalType":"contract InstanceAdmin"}],"stateMutability":"view"},{"type":"function","name":"getInstanceReader","inputs":[],"outputs":[{"name":"","type":"address","internalType":"contract InstanceReader"}],"stateMutability":"view"},{"type":"function","name":"getInstanceStore","inputs":[],"outputs":[{"name":"","type":"address","internalType":"contract InstanceStore"}],"stateMutability":"view"},{"type":"function","name":"getNftId","inputs":[],"outputs":[{"name":"","type":"uint96","internalType":"NftId"}],"stateMutability":"view"},{"type":"function","name":"getOwner","inputs":[],"outputs":[{"name":"","type":"address","internalType":"address"}],"stateMutability":"view"},{"type":"function","name":"getProduct","inputs":[{"name":"idx","type":"uint256","internalType":"uint256"}],"outputs":[{"name":"productNftId","type":"uint96","internalType":"NftId"}],"stateMutability":"view"},{"type":"function","name":"getProductStore","inputs":[],"outputs":[{"name":"","type":"address","internalType":"contract ProductStore"}],"stateMutability":"view"},{"type":"function","name":"getRegistry","inputs":[],"outputs":[{"name":"","type":"address","internalType":"contract IRegistry"}],"stateMutability":"view"},{"type":"function","name":"getRelease","inputs":[],"outputs":[{"name":"release","type":"uint8","internalType":"VersionPart"}],"stateMutability":"view"},{"type":"function","name":"getRequestSet","inputs":[],"outputs":[{"name":"","type":"address","internalType":"contract RequestSet"}],"stateMutability":"view"},{"type":"function","name":"getRiskSet","inputs":[],"outputs":[{"name":"","type":"address","internalType":"contract RiskSet"}],"stateMutability":"view"},{"type":"function","name":"grantRole","inputs":[{"name":"roleId","type":"uint64","internalType":"RoleId"},{"name":"account","type":"address","internalType":"address"}],"outputs":[],"stateMutability":"nonpayable"},{"type":"function","name":"initialize","inputs":[{"name":"instanceContracts","type":"tuple","internalType":"struct IInstance.InstanceContracts","components":[{"name":"instanceAdmin","type":"address","internalType":"contract InstanceAdmin"},{"name":"instanceStore","type":"address","internalType":"contract InstanceStore"},{"name":"productStore","type":"address","internalType":"contract ProductStore"},{"name":"bundleSet","type":"address","internalType":"contract BundleSet"},{"name":"riskSet","type":"address","internalType":"contract RiskSet"},{"name":"requestSet","type":"address","internalType":"contract RequestSet"},{"name":"instanceReader","type":"address","internalType":"contract InstanceReader"}]},{"name":"registry","type":"address","internalType":"contract IRegistry"},{"name":"release","type":"uint8","internalType":"VersionPart"},{"name":"initialOwner","type":"address","internalType":"address"},{"name":"tokenRegistryDisabled","type":"bool","internalType":"bool"}],"outputs":[],"stateMutability":"nonpayable"},{"type":"function","name":"isActive","inputs":[],"outputs":[{"name":"active","type":"bool","internalType":"bool"}],"stateMutability":"view"},{"type":"function","name":"isConsumingScheduledOp","inputs":[],"outputs":[{"name":"","type":"bytes4","internalType":"bytes4"}],"stateMutability":"view"},{"type":"function","name":"isInstanceLocked","inputs":[],"outputs":[{"name":"","type":"bool","internalType":"bool"}],"stateMutability":"view"},{"type":"function","name":"isTargetLocked","inputs":[{"name":"target","type":"address","internalType":"address"}],"outputs":[{"name":"","type":"bool","internalType":"bool"}],"stateMutability":"view"},{"type":"function","name":"isTokenRegistryDisabled","inputs":[],"outputs":[{"name":"","type":"bool","internalType":"bool"}],"stateMutability":"view"},{"type":"function","name":"linkToRegisteredNftId","inputs":[],"outputs":[{"name":"nftId","type":"uint96","internalType":"NftId"}],"stateMutability":"nonpayable"},{"type":"function","name":"products","inputs":[],"outputs":[{"name":"productCount","type":"uint256","internalType":"uint256"}],"stateMutability":"view"},{"type":"function","name":"refillStakingRewardReserves","inputs":[{"name":"dipAmount","type":"uint96","internalType":"Amount"}],"outputs":[{"name":"newRewardReserveBalance","type":"uint96","internalType":"Amount"}],"stateMutability":"nonpayable"},{"type":"function","name":"registerProduct","inputs":[{"name":"product","type":"address","internalType":"address"},{"name":"token","type":"address","internalType":"address"}],"outputs":[{"name":"productNftId","type":"uint96","internalType":"NftId"}],"stateMutability":"nonpayable"},{"type":"function","name":"revokeRole","inputs":[{"name":"roleId","type":"uint64","internalType":"RoleId"},{"name":"account","type":"address","internalType":"address"}],"outputs":[],"stateMutability":"nonpayable"},{"type":"function","name":"setAuthority","inputs":[{"name":"newAuthority","type":"address","internalType":"address"}],"outputs":[],"stateMutability":"nonpayable"},{"type":"function","name":"setInstanceLocked","inputs":[{"name":"locked","type":"bool","internalType":"bool"}],"outputs":[],"stateMutability":"nonpayable"},{"type":"function","name":"setInstanceReader","inputs":[{"name":"instanceReader","type":"address","internalType":"contract InstanceReader"}],"outputs":[],"stateMutability":"nonpayable"},{"type":"function","name":"setRoleActive","inputs":[{"name":"roleId","type":"uint64","internalType":"RoleId"},{"name":"active","type":"bool","internalType":"bool"}],"outputs":[],"stateMutability":"nonpayable"},{"type":"function","name":"setStakingLockingPeriod","inputs":[{"name":"stakeLockingPeriod","type":"uint40","internalType":"Seconds"}],"outputs":[],"stateMutability":"nonpayable"},{"type":"function","name":"setStakingMaxAmount","inputs":[{"name":"maxStakedAmount","type":"uint96","internalType":"Amount"}],"outputs":[],"stateMutability":"nonpayable"},{"type":"function","name":"setStakingRewardRate","inputs":[{"name":"rewardRate","type":"uint160","internalType":"UFixed"}],"outputs":[],"stateMutability":"nonpayable"},{"type":"function","name":"setTargetLocked","inputs":[{"name":"target","type":"address","internalType":"address"},{"name":"locked","type":"bool","internalType":"bool"}],"outputs":[],"stateMutability":"nonpayable"},{"type":"function","name":"supportsInterface","inputs":[{"name":"interfaceId","type":"bytes4","internalType":"bytes4"}],"outputs":[{"name":"","type":"bool","internalType":"bool"}],"stateMutability":"view"},{"type":"function","name":"unauthorizeFunctions","inputs":[{"name":"target","type":"address","internalType":"address"},{"name":"functions","type":"tuple[]","internalType":"struct IAccess.FunctionInfo[]","components":[{"name":"name","type":"bytes32","internalType":"Str"},{"name":"selector","type":"bytes4","internalType":"Selector"},{"name":"createdAt","type":"uint40","internalType":"Timestamp"},{"name":"lastUpdateIn","type":"uint40","internalType":"Blocknumber"}]}],"outputs":[],"stateMutability":"nonpayable"},{"type":"function","name":"upgradeInstanceReader","inputs":[],"outputs":[],"stateMutability":"nonpayable"},{"type":"function","name":"withdrawStakingRewardReserves","inputs":[{"name":"dipAmount","type":"uint96","internalType":"Amount"}],"outputs":[{"name":"newRewardReserveBalance","type":"uint96","internalType":"Amount"}],"stateMutability":"nonpayable"},{"type":"event","name":"AuthorityUpdated","inputs":[{"name":"authority","type":"address","indexed":false,"internalType":"address"}],"anonymous":false},{"type":"event","name":"Initialized","inputs":[{"name":"version","type":"uint64","indexed":false,"internalType":"uint64"}],"anonymous":false},{"type":"event","name":"LogInstanceCustomRoleActiveSet","inputs":[{"name":"roleId","type":"uint64","indexed":true,"internalType":"RoleId"},{"name":"active","type":"bool","indexed":true,"internalType":"bool"},{"name":"caller","type":"address","indexed":true,"internalType":"address"}],"anonymous":false},{"type":"event","name":"LogInstanceCustomRoleCreated","inputs":[{"name":"roleId","type":"uint64","indexed":true,"internalType":"RoleId"},{"name":"roleName","type":"string","indexed":true,"internalType":"string"},{"name":"adminRoleId","type":"uint64","indexed":true,"internalType":"RoleId"},{"name":"maxMemberCount","type":"uint32","indexed":false,"internalType":"uint32"}],"anonymous":false},{"type":"event","name":"LogInstanceCustomRoleGranted","inputs":[{"name":"roleId","type":"uint64","indexed":true,"internalType":"RoleId"},{"name":"account","type":"address","indexed":true,"internalType":"address"},{"name":"caller","type":"address","indexed":true,"internalType":"address"}],"anonymous":false},{"type":"event","name":"LogInstanceCustomRoleRevoked","inputs":[{"name":"roleId","type":"uint64","indexed":true,"internalType":"RoleId"},{"name":"account","type":"address","indexed":true,"internalType":"address"},{"name":"caller","type":"address","indexed":true,"internalType":"address"}],"anonymous":false},{"type":"event","name":"LogInstanceCustomTargetCreated","inputs":[{"name":"target","type":"address","indexed":true,"internalType":"address"},{"name":"targetRoleId","type":"uint64","indexed":true,"internalType":"RoleId"},{"name":"name","type":"string","indexed":true,"internalType":"string"}],"anonymous":false},{"type":"event","name":"LogInstanceCustomTargetFunctionRoleSet","inputs":[{"name":"target","type":"address","indexed":true,"internalType":"address"},{"name":"selectors","type":"bytes4[]","indexed":false,"internalType":"bytes4[]"},{"name":"roleId","type":"uint64","indexed":true,"internalType":"RoleId"}],"anonymous":false},{"type":"event","name":"LogInstanceTargetLocked","inputs":[{"name":"target","type":"address","indexed":true,"internalType":"address"},{"name":"locked","type":"bool","indexed":true,"internalType":"bool"}],"anonymous":false},{"type":"event","name":"LogNftOwnableNftLinkedToAddress","inputs":[{"name":"nftId","type":"uint96","indexed":true,"internalType":"NftId"},{"name":"owner","type":"address","indexed":true,"internalType":"address"}],"anonymous":false},{"type":"error","name":"AccessManagedInvalidAuthority","inputs":[{"name":"authority","type":"address","internalType":"address"}]},{"type":"error","name":"AccessManagedRequiredDelay","inputs":[{"name":"caller","type":"address","internalType":"address"},{"name":"delay","type":"uint32","internalType":"uint32"}]},{"type":"error","name":"AccessManagedUnauthorized","inputs":[{"name":"caller","type":"address","internalType":"address"}]},{"type":"error","name":"ErrorAuthorityInvalid","inputs":[{"name":"authority","type":"address","internalType":"address"}]},{"type":"error","name":"ErrorInstanceBundleSetAlreadySet","inputs":[{"name":"instanceBundleSet","type":"address","internalType":"address"}]},{"type":"error","name":"ErrorInstanceBundleSetAuthorityMismatch","inputs":[{"name":"instanceAuthority","type":"address","internalType":"address"}]},{"type":"error","name":"ErrorInstanceBundleSetInstanceMismatch","inputs":[{"name":"instance","type":"address","internalType":"address"}]},{"type":"error","name":"ErrorInstanceInstanceAdminAlreadySet","inputs":[{"name":"instanceAdmin","type":"address","internalType":"address"}]},{"type":"error","name":"ErrorInstanceInstanceAdminAuthorityMismatch","inputs":[{"name":"instanceAuthority","type":"address","internalType":"address"}]},{"type":"error","name":"ErrorInstanceInstanceAdminZero","inputs":[]},{"type":"error","name":"ErrorInstanceInstanceReaderInstanceMismatch","inputs":[{"name":"instanceAuthority","type":"address","internalType":"address"}]},{"type":"error","name":"ErrorInstanceInstanceStoreAlreadySet","inputs":[{"name":"instanceStore","type":"address","internalType":"address"}]},{"type":"error","name":"ErrorInstanceInstanceStoreAuthorityMismatch","inputs":[{"name":"instanceAuthority","type":"address","internalType":"address"}]},{"type":"error","name":"ErrorInstanceNotCustomRole","inputs":[{"name":"roleId","type":"uint64","internalType":"RoleId"}]},{"type":"error","name":"ErrorInstanceNotRoleAdmin","inputs":[{"name":"roleId","type":"uint64","internalType":"RoleId"},{"name":"account","type":"address","internalType":"address"}]},{"type":"error","name":"ErrorInstanceRiskSetAlreadySet","inputs":[{"name":"instanceRiskSet","type":"address","internalType":"address"}]},{"type":"error","name":"ErrorInstanceRiskSetAuthorityMismatch","inputs":[{"name":"instanceAuthority","type":"address","internalType":"address"}]},{"type":"error","name":"ErrorInstanceRiskSetInstanceMismatch","inputs":[{"name":"instance","type":"address","internalType":"address"}]},{"type":"error","name":"ErrorNftOwnableAlreadyLinked","inputs":[{"name":"nftId","type":"uint96","internalType":"NftId"}]},{"type":"error","name":"ErrorNftOwnableContractNotRegistered","inputs":[{"name":"contractAddress","type":"address","internalType":"address"}]},{"type":"error","name":"ErrorNftOwnableInitialOwnerZero","inputs":[]},{"type":"error","name":"ErrorNftOwnableInvalidType","inputs":[{"name":"nftId","type":"uint96","internalType":"NftId"},{"name":"expectedObjectType","type":"uint8","internalType":"ObjectType"}]},{"type":"error","name":"ErrorNftOwnableNotOwner","inputs":[{"name":"account","type":"address","internalType":"address"}]},{"type":"error","name":"ErrorNotRegistry","inputs":[{"name":"registryAddress","type":"address","internalType":"address"}]},{"type":"error","name":"ErrorRegisterableNotActive","inputs":[]},{"type":"error","name":"InvalidInitialization","inputs":[]},{"type":"error","name":"NotInitializing","inputs":[]}],"bytecode":{"object":"0x6080604052348015600e575f5ffd5b506137598061001c5f395ff3fe608060405234801561000f575f5ffd5b5060043610610260575f3560e01c80635fa8aad41161014b578063b428b0b0116100bf578063c265172511610084578063c26517251461058e578063c71e261f14610596578063d4cda0d81461059e578063e52ba1cb146105af578063f7bc431c146105c2578063fb3fc44d146105d5575f5ffd5b8063b428b0b01461053c578063b7b02c4e1461054f578063b7d2b16214610560578063b9db15b414610573578063bf7e214f14610586575f5ffd5b80637de45f13116101105780637de45f13146104c657806386892313146104d9578063893d20e8146104ec5780638fb36037146104f457806396cdfa3f14610515578063ada9652e14610528575f5ffd5b80635fa8aad414610458578063644c45e01461046b5780636dddada41461048857806376b707b7146104995780637a9e5e4b146104b3575f5ffd5b806323dff792116101e2578063398e3d4c116101a7578063398e3d4c146103fb57806340acebd9146104065780634f8b8aba1461040e57806353ebd3b4146104215780635ab1bd53146104345780635d96628914610445575f5ffd5b806323dff7921461039e57806326decd40146103b15780632d764ef8146103c4578063311adb68146103d757806333102c81146103e8575f5ffd5b8063138461e011610228578063138461e0146103055780631eff4b22146103255780631f481d641461035a57806320967dc51461038557806322f3e2d414610396575f5ffd5b806301ffc9a71461026457806302cd3071146102a55780630e0c586d146102ca5780630fec111c146102db57806311f77843146102f0575b5f5ffd5b610290610272366004612c30565b6001600160e01b0319165f9081526020819052604090205460ff1690565b60405190151581526020015b60405180910390f35b6005546001600160a01b03165b6040516001600160a01b03909116815260200161029c565b6007546001600160a01b03166102b2565b6102e36105e8565b60405161029c9190612c80565b6103036102fe366004612d28565b6107a2565b005b61030d61084c565b6040516001600160601b03909116815260200161029c565b61034c7f6548007c3f4340f82f348c576c0ff69f4f529cadd5ad41f96aae61abceeaa30081565b60405190815260200161029c565b61036d610368366004612e61565b61085b565b6040516001600160401b03909116815260200161029c565b6008546001600160a01b03166102b2565b610290610980565b6103036103ac366004612ed8565b6109f7565b6102906103bf366004612d28565b610bfa565b6103036103d2366004612f2c565b610c70565b6004546001600160a01b03166102b2565b6103036103f636600461301a565b610ceb565b600c5460ff16610290565b610290610d95565b61030d61041c36600461308b565b610e0a565b61030361042f3660046130bf565b610ed3565b6001546001600160a01b03166102b2565b61030d6104533660046131ab565b611699565b61036d6104663660046131d7565b6117b6565b5f5160206136e45f395f51905f52546001600160601b031661030d565b6006546001600160a01b03166102b2565b6104a16118c8565b60405160ff909116815260200161029c565b6103036104c1366004612d28565b611930565b6103036104d436600461308b565b6119b6565b6103036104e7366004613223565b611a33565b6102b2611b0b565b6104fc611c3c565b6040516001600160e01b0319909116815260200161029c565b61030361052336600461323f565b611c71565b61034c5f5160206136e45f395f51905f5281565b61030361054a36600461325a565b611cde565b600a546001600160a01b03166102b2565b61030361056e36600461325a565b611ede565b61030d610581366004613276565b6120de565b6102b2612120565b61030361213b565b600b5461034c565b6009546001600160a01b03166102b2565b61030d6105bd36600461308b565b6121e3565b6103036105d0366004612d28565b61229c565b6103036105e336600461328d565b61235a565b6040805160e0810182525f8082526020820181905291810182905260608082018390526080820183905260a0820183905260c0820152907f6548007c3f4340f82f348c576c0ff69f4f529cadd5ad41f96aae61abceeaa30090506040518060e0016040528073__$94a2c899be079b00d952d0d84fffaa5c34$__63bc1b392d6040518163ffffffff1660e01b8152600401602060405180830381865af4158015610694573d5f5f3e3d5ffd5b505050506040513d601f19601f820116820180604052508101906106b891906132cf565b6001600160601b0390811682528354908116602083015260ff600160601b820481166040840152600160681b909104161515606082015230608082015260a001610700611b0b565b6001600160a01b0316815260200182600101805461071d906132ea565b80601f0160208091040260200160405190810160405280929190818152602001828054610749906132ea565b80156107945780601f1061076b57610100808354040283529160200191610794565b820191905f5260205f20905b81548152906001019060200180831161077757829003601f168201915b505050505081525091505090565b6107ae335b5f36612401565b6107b6611b0b565b6001600160a01b0316336001600160a01b0316146107ee5760405163086391f760e31b81523360048201526024015b60405180910390fd5b6003546040516311f7784360e01b81526001600160a01b038381166004830152909116906311f77843906024015b5f604051808303815f87803b158015610833575f5ffd5b505af1158015610845573d5f5f3e3d5ffd5b5050505050565b5f610856306124f7565b905090565b5f610865336107a7565b61086d611b0b565b6001600160a01b0316336001600160a01b0316146108a05760405163086391f760e31b81523360048201526024016107e5565b6003546040516307d2075960e21b81526001600160a01b0390911690631f481d64906108d490879087908790600401613322565b6020604051808303815f875af11580156108f0573d5f5f3e3d5ffd5b505050506040513d601f19601f820116820180604052508101906109149190613359565b9050826001600160401b03168460405161092e919061338b565b60405190819003812063ffffffff85168252906001600160401b038416907f6c5b02802c41c82ddc743a2761e8741ad590fa0bb7870ba7dfe66aa84050a2649060200160405180910390a49392505050565b5f610989612120565b60405163a166aa8960e01b81523060048201526001600160a01b03919091169063a166aa8990602401602060405180830381865afa1580156109cd573d5f5f3e3d5ffd5b505050506040513d601f19601f820116820180604052508101906109f19190613396565b15905090565b610a00336107a7565b600480546040516343e39f2d60e11b81526001600160401b0385169281019290925283916001600160a01b03909116906387c73e5a90602401602060405180830381865afa158015610a54573d5f5f3e3d5ffd5b505050506040513d601f19601f82011682018060405250810190610a789190613396565b610aa057604051635579019560e01b81526001600160401b03821660048201526024016107e5565b33610aa9611b0b565b6001600160a01b0316816001600160a01b031614610b52576004805460405163480cebd160e01b81526001600160a01b039091169163480cebd191610af29186918691016133b1565b602060405180830381865afa158015610b0d573d5f5f3e3d5ffd5b505050506040513d601f19601f82011682018060405250810190610b319190613396565b610b52578181604051631a94665f60e31b81526004016107e59291906133b1565b6003546040516311effbc960e11b81526001600160401b038616600482015284151560248201526001600160a01b03909116906323dff792906044015f604051808303815f87803b158015610ba5575f5ffd5b505af1158015610bb7573d5f5f3e3d5ffd5b505060405133925085151591506001600160401b038716907ffb7c4cd23612bcc7ae3688074faa23835a443807c382c108d80ec75f8668db2f905f90a450505050565b60048054604051629b7b3560e61b81526001600160a01b03848116938201939093525f92909116906326decd4090602401602060405180830381865afa158015610c46573d5f5f3e3d5ffd5b505050506040513d601f19601f82011682018060405250810190610c6a9190613396565b92915050565b610c79336107a7565b610c81611b0b565b6001600160a01b0316336001600160a01b031614610cb45760405163086391f760e31b81523360048201526024016107e5565b6003546040516305aec9df60e31b815264ffffffffff831660048201526001600160a01b0390911690632d764ef89060240161081c565b610cf4336107a7565b610cfc611b0b565b6001600160a01b0316336001600160a01b031614610d2f5760405163086391f760e31b81523360048201526024016107e5565b6003546040516333102c8160e01b81526001600160a01b03909116906333102c8190610d639086908690869060040161344a565b5f604051808303815f87803b158015610d7a575f5ffd5b505af1158015610d8c573d5f5f3e3d5ffd5b50505050505050565b5f60045f9054906101000a90046001600160a01b03166001600160a01b031663a4e2d6346040518163ffffffff1660e01b8152600401602060405180830381865afa158015610de6573d5f5f3e3d5ffd5b505050506040513d601f19601f820116820180604052508101906108569190613396565b5f610e14336107a7565b610e1c611b0b565b6001600160a01b0316336001600160a01b031614610e4f5760405163086391f760e31b81523360048201526024016107e5565b600354604051633dfa1a3d60e01b815233600482018190526001600160601b0385166024830152916001600160a01b031690633dfa1a3d906044016020604051808303815f875af1158015610ea6573d5f5f3e3d5ffd5b505050506040513d601f19601f82011682018060405250810190610eca91906132cf565b9150505b919050565b7ff0c57e16840df040f15088dc2f81fe391c3923bec73e23a9662efc9c229c6a008054600160401b810460ff1615906001600160401b03165f81158015610f175750825b90505f826001600160401b03166001148015610f325750303b155b905081158015610f40575080155b15610f5e5760405163f92ee8a960e01b815260040160405180910390fd5b845467ffffffffffffffff191660011785558315610f8857845460ff60401b1916600160401b1785555b89516001600160a01b0316610fb0576040516377dbcd1760e01b815260040160405180910390fd5b8951600480546001600160a01b0319166001600160a01b0390921691821781556040805163bf7e214f60e01b815290516110a8939263bf7e214f928082019260209290918290030181865afa15801561100b573d5f5f3e3d5ffd5b505050506040513d601f19601f8201168201806040525081019061102f9190613485565b8a8b6001600160a01b031663644c45e06040518163ffffffff1660e01b8152600401602060405180830381865afa15801561106c573d5f5f3e3d5ffd5b505050506040513d601f19601f8201168201806040525081019061109091906132cf565b600a5f8c60405180602001604052805f815250612742565b60208a0151600980546001600160a01b03199081166001600160a01b039384169081179092556040808e0151600a8054841691861691909117905560608e015160068054841691861691909117905560808e015160078054841691861691909117905560a08e015160088054841691861691909117905560c08e0151600580549093169416939093179055815163204a7f0760e21b815291519091638129fc1c916004828101925f92919082900301818387803b158015611167575f5ffd5b505af1158015611179573d5f5f3e3d5ffd5b50505050600a5f9054906101000a90046001600160a01b03166001600160a01b0316638129fc1c6040518163ffffffff1660e01b81526004015f604051808303815f87803b1580156111c9575f5ffd5b505af11580156111db573d5f5f3e3d5ffd5b5050505060065f9054906101000a90046001600160a01b03166001600160a01b031663485cc9558b5f01516001600160a01b031663bf7e214f6040518163ffffffff1660e01b8152600401602060405180830381865afa158015611241573d5f5f3e3d5ffd5b505050506040513d601f19601f820116820180604052508101906112659190613485565b6040516001600160e01b031960e084901b1681526001600160a01b039182166004820152908c1660248201526044015f604051808303815f87803b1580156112ab575f5ffd5b505af11580156112bd573d5f5f3e3d5ffd5b5050505060075f9054906101000a90046001600160a01b03166001600160a01b031663485cc9558b5f01516001600160a01b031663bf7e214f6040518163ffffffff1660e01b8152600401602060405180830381865afa158015611323573d5f5f3e3d5ffd5b505050506040513d601f19601f820116820180604052508101906113479190613485565b6040516001600160e01b031960e084901b1681526001600160a01b039182166004820152908c1660248201526044015f604051808303815f87803b15801561138d575f5ffd5b505af115801561139f573d5f5f3e3d5ffd5b5050505060085f9054906101000a90046001600160a01b03166001600160a01b031663485cc9558b5f01516001600160a01b031663bf7e214f6040518163ffffffff1660e01b8152600401602060405180830381865afa158015611405573d5f5f3e3d5ffd5b505050506040513d601f19601f820116820180604052508101906114299190613485565b6040516001600160e01b031960e084901b1681526001600160a01b039182166004820152908c1660248201526044015f604051808303815f87803b15801561146f575f5ffd5b505af1158015611481573d5f5f3e3d5ffd5b5050505060055f9054906101000a90046001600160a01b03166001600160a01b0316638129fc1c6040518163ffffffff1660e01b81526004015f604051808303815f87803b1580156114d1575f5ffd5b505af11580156114e3573d5f5f3e3d5ffd5b505050506114f96001546001600160a01b031690565b6001600160a01b031663d39e6043600b6040516001600160e01b031960e084901b16815260ff9182166004820152908b166024820152604401602060405180830381865afa15801561154d573d5f5f3e3d5ffd5b505050506040513d601f19601f820116820180604052508101906115719190613485565b600280546001600160a01b0319166001600160a01b03928316179055600154166001600160a01b031663d39e6043600a6040516001600160e01b031960e084901b16815260ff9182166004820152908b166024820152604401602060405180830381865afa1580156115e5573d5f5f3e3d5ffd5b505050506040513d601f19601f820116820180604052508101906116099190613485565b600380546001600160a01b0319166001600160a01b0392909216919091179055600c805460ff191687151517905561164763027c30e160e21b612889565b831561168d57845460ff60401b19168555604051600181527fc7f505b2f371ae2175ee4913f4499e1f2633a7b5936321eed1cdaeb6115181d29060200160405180910390a15b50505050505050505050565b5f6116a3336107a7565b6116ab611b0b565b6001600160a01b0316336001600160a01b0316146116de5760405163086391f760e31b81523360048201526024016107e5565b600254604051635d96628960e01b81526001600160a01b038581166004830152848116602483015290911690635d966289906044016020604051808303815f875af115801561172f573d5f5f3e3d5ffd5b505050506040513d601f19601f8201168201806040525081019061175391906132cf565b600b8054600180820183555f929092527f0175b7a638427703f0dbe7bb9bbf987a2551717b34e79f33b5b1008d1fa01db96002820401805492909116600c026101000a6001600160601b0381810219909316928416029190911790559392505050565b5f6117c0336107a7565b6117c8611b0b565b6001600160a01b0316336001600160a01b0316146117fb5760405163086391f760e31b81523360048201526024016107e5565b6003546040516317ea2ab560e21b81526001600160a01b0390911690635fa8aad49061182d90869086906004016134a0565b6020604051808303815f875af1158015611849573d5f5f3e3d5ffd5b505050506040513d601f19601f8201168201806040525081019061186d9190613359565b90508160405161187d919061338b565b604051908190038120906001600160401b038316906001600160a01b038616907f35040cf09b2f49908add8962a4116f3a23b1ce1e6ccc3b370a5205a3f128b86d905f90a492915050565b5f6118d1612120565b6001600160a01b03166376b707b76040518163ffffffff1660e01b8152600401602060405180830381865afa15801561190c573d5f5f3e3d5ffd5b505050506040513d601f19601f8201168201806040525081019061085691906134c3565b33611939612120565b6001600160a01b0316816001600160a01b0316146119745760405162d1953b60e31b81526001600160a01b03821660048201526024016107e5565b816001600160a01b03163b5f036119a9576040516361798f2f60e11b81526001600160a01b03831660048201526024016107e5565b6119b2826128bc565b5050565b6119bf336107a7565b6119c7611b0b565b6001600160a01b0316336001600160a01b0316146119fa5760405163086391f760e31b81523360048201526024016107e5565b600354604051637de45f1360e01b81526001600160601b03831660048201526001600160a01b0390911690637de45f139060240161081c565b611a3b611b0b565b6001600160a01b0316336001600160a01b031614611a6e5760405163086391f760e31b81523360048201526024016107e5565b600354604051638689231360e01b81526001600160a01b0384811660048301528315156024830152909116906386892313906044015f604051808303815f87803b158015611aba575f5ffd5b505af1158015611acc573d5f5f3e3d5ffd5b505060405183151592506001600160a01b03851691507fb3a503c4b7a90c1d036fcdec3757dc6b537f887a8c588606f78076e9fc3a78ca905f90a35050565b5f805f5160206136e45f395f51905f5280546040516330b8415f60e01b81526001600160601b03909116600482015290915073__$94a2c899be079b00d952d0d84fffaa5c34$__906330b8415f90602401602060405180830381865af4158015611b77573d5f5f3e3d5ffd5b505050506040513d601f19601f82011682018060405250810190611b9b9190613396565b15611c26576001546001600160a01b03168154604051631c5da14d60e11b81526001600160601b0390911660048201526001600160a01b0391909116906338bb429a90602401602060405180830381865afa158015611bfc573d5f5f3e3d5ffd5b505050506040513d601f19601f82011682018060405250810190611c209190613485565b91505090565b54600160601b90046001600160a01b0316919050565b5f5160206137045f395f51905f5280545f9190600160a01b900460ff16611c63575f611c20565b638fb3603760e01b91505090565b611c79611b0b565b6001600160a01b0316336001600160a01b031614611cac5760405163086391f760e31b81523360048201526024016107e5565b6003546040516396cdfa3f60e01b815282151560048201526001600160a01b03909116906396cdfa3f9060240161081c565b611ce7336107a7565b600480546040516343e39f2d60e11b81526001600160401b0385169281019290925283916001600160a01b03909116906387c73e5a90602401602060405180830381865afa158015611d3b573d5f5f3e3d5ffd5b505050506040513d601f19601f82011682018060405250810190611d5f9190613396565b611d8757604051635579019560e01b81526001600160401b03821660048201526024016107e5565b33611d90611b0b565b6001600160a01b0316816001600160a01b031614611e39576004805460405163480cebd160e01b81526001600160a01b039091169163480cebd191611dd99186918691016133b1565b602060405180830381865afa158015611df4573d5f5f3e3d5ffd5b505050506040513d601f19601f82011682018060405250810190611e189190613396565b611e39578181604051631a94665f60e31b81526004016107e59291906133b1565b600354604051630b428b0b60e41b81526001600160a01b039091169063b428b0b090611e6b90879087906004016133b1565b5f604051808303815f87803b158015611e82575f5ffd5b505af1158015611e94573d5f5f3e3d5ffd5b50506040513392506001600160a01b03861691506001600160401b038716907f2a47cfa3950f5163af56e954433a359d9c481d14f90d8db827d859f5e8641e1a905f90a450505050565b611ee7336107a7565b600480546040516343e39f2d60e11b81526001600160401b0385169281019290925283916001600160a01b03909116906387c73e5a90602401602060405180830381865afa158015611f3b573d5f5f3e3d5ffd5b505050506040513d601f19601f82011682018060405250810190611f5f9190613396565b611f8757604051635579019560e01b81526001600160401b03821660048201526024016107e5565b33611f90611b0b565b6001600160a01b0316816001600160a01b031614612039576004805460405163480cebd160e01b81526001600160a01b039091169163480cebd191611fd99186918691016133b1565b602060405180830381865afa158015611ff4573d5f5f3e3d5ffd5b505050506040513d601f19601f820116820180604052508101906120189190613396565b612039578181604051631a94665f60e31b81526004016107e59291906133b1565b600354604051635be958b160e11b81526001600160a01b039091169063b7d2b1629061206b90879087906004016133b1565b5f604051808303815f87803b158015612082575f5ffd5b505af1158015612094573d5f5f3e3d5ffd5b50506040513392506001600160a01b03861691506001600160401b038716907fbdd55b4d14c3bb8684d8b5a9a57d9e802f3da86c5cd871d4b868a77ef152d2b6905f90a450505050565b5f600b82815481106120f2576120f26134de565b905f5260205f209060029182820401919006600c029054906101000a90046001600160601b03169050919050565b5f5160206137045f395f51905f52546001600160a01b031690565b612144336107a7565b61214c611b0b565b6001600160a01b0316336001600160a01b03161461217f5760405163086391f760e31b81523360048201526024016107e5565b60035f9054906101000a90046001600160a01b03166001600160a01b031663c26517256040518163ffffffff1660e01b81526004015f604051808303815f87803b1580156121cb575f5ffd5b505af11580156121dd573d5f5f3e3d5ffd5b50505050565b5f6121ed336107a7565b6121f5611b0b565b6001600160a01b0316336001600160a01b0316146122285760405163086391f760e31b81523360048201526024016107e5565b600354604051633fa5261560e01b81526001600160601b03841660048201526001600160a01b0390911690633fa52615906024016020604051808303815f875af1158015612278573d5f5f3e3d5ffd5b505050506040513d601f19601f82011682018060405250810190610c6a91906132cf565b6122a5336107a7565b306001600160a01b0316816001600160a01b031663de7b5d146040518163ffffffff1660e01b8152600401602060405180830381865afa1580156122eb573d5f5f3e3d5ffd5b505050506040513d601f19601f8201168201806040525081019061230f9190613485565b6001600160a01b031614612338576040516345789cf560e01b81523060048201526024016107e5565b600580546001600160a01b0319166001600160a01b0392909216919091179055565b612363336107a7565b61236b611b0b565b6001600160a01b0316336001600160a01b03161461239e5760405163086391f760e31b81523360048201526024016107e5565b60035460405163fb3fc44d60e01b81526001600160a01b039091169063fb3fc44d906123d090859085906004016134f2565b5f604051808303815f87803b1580156123e7575f5ffd5b505af11580156123f9573d5f5f3e3d5ffd5b505050505050565b5f5160206137045f395f51905f525f8061243961241c612120565b873061242b60045f8a8c613515565b6124349161353c565b61291c565b91509150816123f95763ffffffff8116156124d457825460ff60a01b1916600160a01b178355612467612120565b6001600160a01b03166394c7d7ee8787876040518463ffffffff1660e01b815260040161249693929190613574565b5f604051808303815f87803b1580156124ad575f5ffd5b505af11580156124bf573d5f5f3e3d5ffd5b5050845460ff60a01b19168555506123f99050565b60405162d1953b60e31b81526001600160a01b03871660048201526024016107e5565b5f805f5160206136e45f395f51905f5280546040516330b8415f60e01b81526001600160601b03909116600482015290915073__$94a2c899be079b00d952d0d84fffaa5c34$__906330b8415f90602401602060405180830381865af4158015612563573d5f5f3e3d5ffd5b505050506040513d601f19601f820116820180604052508101906125879190613396565b156125b35780546040516301ab8b6760e21b81526001600160601b0390911660048201526024016107e5565b6001546001600160a01b031660405163c3c5a54760e01b81526001600160a01b038581166004830152919091169063c3c5a54790602401602060405180830381865afa158015612605573d5f5f3e3d5ffd5b505050506040513d601f19601f820116820180604052508101906126299190613396565b6126515760405163b9304b0d60e01b81526001600160a01b03841660048201526024016107e5565b6001546001600160a01b0316604051632f2a35f760e11b81526001600160a01b0385811660048301529190911690635e546bee90602401602060405180830381865afa1580156126a3573d5f5f3e3d5ffd5b505050506040513d601f19601f820116820180604052508101906126c791906132cf565b81546bffffffffffffffffffffffff19166001600160601b03919091161781556126ef611b0b565b81546040516001600160a01b0392909216916001600160601b03909116907f88857b75cbef7f257c9d5a473e28aaf6a91cc28f717f60f2cda3bcf5623d7b54905f90a3546001600160601b031692915050565b61274a612a24565b604051632330f24760e01b81526001600160a01b038816600482015273__$fb599632d08395912d9d70eb2f0f93b5e2$__90632330f24790602401602060405180830381865af41580156127a0573d5f5f3e3d5ffd5b505050506040513d601f19601f820116820180604052508101906127c49190613396565b6127ec5760405163cf6935e560e01b81526001600160a01b03881660048201526024016107e5565b6127f587612a6f565b6127ff8683612a80565b5f7f6548007c3f4340f82f348c576c0ff69f4f529cadd5ad41f96aae61abceeaa30080546001600160601b0388166cffffffffffffffffffffffffff1990911617600160601b60ff8816021760ff60681b1916600160681b8615150217815590506001810161286e83826135fc565b5061287f634a531f3360e01b612889565b5050505050505050565b612891612a24565b6128b9816001600160e01b0319165f908152602081905260409020805460ff19166001179055565b50565b5f5160206137045f395f51905f5280546001600160a01b0383166001600160a01b03199091168117825560408051918252517f2f658b440c35314f52658ea8a740e05b284cdc84dc9ae01e891f21b8933e7cad9181900360200190a15050565b6040516001600160a01b03848116602483015283811660448301526001600160e01b0319831660648301525f9182918291829189169060840160408051601f198184030181529181526020820180516001600160e01b031663b700961360e01b1790525161298a919061338b565b5f60405180830381855afa9150503d805f81146129c2576040519150601f19603f3d011682016040523d82523d5f602084013e6129c7565b606091505b50915091508115612a195760408151106129f957808060200190518101906129ef91906136b6565b9094509250612a19565b6020815110612a195780806020019051810190612a169190613396565b93505b505094509492505050565b7ff0c57e16840df040f15088dc2f81fe391c3923bec73e23a9662efc9c229c6a0054600160401b900460ff16612a6d57604051631afcd79f60e31b815260040160405180910390fd5b565b612a77612a24565b6128b981612af6565b612a88612a24565b612a90612b07565b612a9982612b4f565b6001600160a01b038116612ac05760405163f17ef42d60e01b815260040160405180910390fd5b5f5160206136e45f395f51905f5280546001600160601b0316600160601b6001600160a01b039093169290920291909117905550565b612afe612a24565b6128b9816128bc565b612b0f612a24565b612a6d6301ffc9a760e01b5f9081526020527f67be87c3ff9960ca1e9cfac5cab2ff4747269cf9ed20c9b7306235ac35a491c5805460ff19166001179055565b612b57612a24565b604051633334d16b60e01b81526001600160a01b038216600482015273__$fb599632d08395912d9d70eb2f0f93b5e2$__90633334d16b90602401602060405180830381865af4158015612bad573d5f5f3e3d5ffd5b505050506040513d601f19601f82011682018060405250810190612bd19190613396565b612bf95760405163fdeac91f60e01b81526001600160a01b03821660048201526024016107e5565b600180546001600160a01b0319166001600160a01b0392909216919091179055565b6001600160e01b0319811681146128b9575f5ffd5b5f60208284031215612c40575f5ffd5b8135612c4b81612c1b565b9392505050565b5f81518084528060208401602086015e5f602082860101526020601f19601f83011685010191505092915050565b602081526001600160601b0382511660208201526001600160601b03602083015116604082015260ff60408301511660608201525f6060830151612cc8608084018215159052565b5060808301516001600160a01b03811660a08401525060a08301516001600160a01b03811660c08401525060c083015160e080840152612d0c610100840182612c52565b949350505050565b6001600160a01b03811681146128b9575f5ffd5b5f60208284031215612d38575f5ffd5b8135612c4b81612d14565b634e487b7160e01b5f52604160045260245ffd5b604051608081016001600160401b0381118282101715612d7957612d79612d43565b60405290565b60405160e081016001600160401b0381118282101715612d7957612d79612d43565b604051601f8201601f191681016001600160401b0381118282101715612dc957612dc9612d43565b604052919050565b5f82601f830112612de0575f5ffd5b81356001600160401b03811115612df957612df9612d43565b612e0c601f8201601f1916602001612da1565b818152846020838601011115612e20575f5ffd5b816020850160208301375f918101602001919091529392505050565b6001600160401b03811681146128b9575f5ffd5b63ffffffff811681146128b9575f5ffd5b5f5f5f60608486031215612e73575f5ffd5b83356001600160401b03811115612e88575f5ffd5b612e9486828701612dd1565b9350506020840135612ea581612e3c565b91506040840135612eb581612e50565b809150509250925092565b80151581146128b9575f5ffd5b8035610ece81612ec0565b5f5f60408385031215612ee9575f5ffd5b8235612ef481612e3c565b91506020830135612f0481612ec0565b809150509250929050565b8035610ece81612d14565b64ffffffffff811681146128b9575f5ffd5b5f60208284031215612f3c575f5ffd5b8135612c4b81612f1a565b5f82601f830112612f56575f5ffd5b81356001600160401b03811115612f6f57612f6f612d43565b612f7e60208260051b01612da1565b8082825260208201915060208360071b860101925085831115612f9f575f5ffd5b602085015b838110156130105760808188031215612fbb575f5ffd5b612fc3612d57565b813581526020820135612fd581612c1b565b60208201526040820135612fe881612f1a565b60408201526060820135612ffb81612f1a565b60608201528352602090920191608001612fa4565b5095945050505050565b5f5f5f6060848603121561302c575f5ffd5b833561303781612d14565b9250602084013561304781612e3c565b915060408401356001600160401b03811115613061575f5ffd5b61306d86828701612f47565b9150509250925092565b6001600160601b03811681146128b9575f5ffd5b5f6020828403121561309b575f5ffd5b8135612c4b81613077565b60ff811681146128b9575f5ffd5b8035610ece816130a6565b5f5f5f5f5f8587036101608112156130d5575f5ffd5b60e08112156130e2575f5ffd5b506130eb612d7f565b86356130f681612d14565b8152602087013561310681612d14565b6020820152604087013561311981612d14565b6040820152606087013561312c81612d14565b606082015261313d60808801612f0f565b608082015261314e60a08801612f0f565b60a082015261315f60c08801612f0f565b60c0820152945061317260e08701612f0f565b935061318161010087016130b4565b92506131906101208701612f0f565b915061319f6101408701612ecd565b90509295509295909350565b5f5f604083850312156131bc575f5ffd5b82356131c781612d14565b91506020830135612f0481612d14565b5f5f604083850312156131e8575f5ffd5b82356131f381612d14565b915060208301356001600160401b0381111561320d575f5ffd5b61321985828601612dd1565b9150509250929050565b5f5f60408385031215613234575f5ffd5b8235612ef481612d14565b5f6020828403121561324f575f5ffd5b8135612c4b81612ec0565b5f5f6040838503121561326b575f5ffd5b82356131c781612e3c565b5f60208284031215613286575f5ffd5b5035919050565b5f5f6040838503121561329e575f5ffd5b82356132a981612d14565b915060208301356001600160401b038111156132c3575f5ffd5b61321985828601612f47565b5f602082840312156132df575f5ffd5b8151612c4b81613077565b600181811c908216806132fe57607f821691505b60208210810361331c57634e487b7160e01b5f52602260045260245ffd5b50919050565b606081525f6133346060830186612c52565b90506001600160401b038416602083015263ffffffff83166040830152949350505050565b5f60208284031215613369575f5ffd5b8151612c4b81612e3c565b5f81518060208401855e5f93019283525090919050565b5f612c4b8284613374565b5f602082840312156133a6575f5ffd5b8151612c4b81612ec0565b6001600160401b039290921682526001600160a01b0316602082015260400190565b5f8151808452602084019350602083015f5b828110156134405781518051875263ffffffff60e01b602082015116602088015264ffffffffff604082015116604088015264ffffffffff6060820151166060880152506080860195506020820191506001810190506133e5565b5093949350505050565b6001600160a01b03841681526001600160401b03831660208201526060604082018190525f9061347c908301846133d3565b95945050505050565b5f60208284031215613495575f5ffd5b8151612c4b81612d14565b6001600160a01b03831681526040602082018190525f90612d0c90830184612c52565b5f602082840312156134d3575f5ffd5b8151612c4b816130a6565b634e487b7160e01b5f52603260045260245ffd5b6001600160a01b03831681526040602082018190525f90612d0c908301846133d3565b5f5f85851115613523575f5ffd5b8386111561352f575f5ffd5b5050820193919092039150565b80356001600160e01b0319811690600484101561356d576001600160e01b0319600485900360031b81901b82161691505b5092915050565b6001600160a01b03841681526040602082018190528101829052818360608301375f818301606090810191909152601f909201601f1916010192915050565b601f8211156135f757805f5260205f20601f840160051c810160208510156135d85750805b601f840160051c820191505b81811015610845575f81556001016135e4565b505050565b81516001600160401b0381111561361557613615612d43565b6136298161362384546132ea565b846135b3565b6020601f82116001811461365b575f83156136445750848201515b5f19600385901b1c1916600184901b178455610845565b5f84815260208120601f198516915b8281101561368a578785015182556020948501946001909201910161366a565b50848210156136a757868401515f19600387901b60f8161c191681555b50505050600190811b01905550565b5f5f604083850312156136c7575f5ffd5b82516136d281612ec0565b6020840151909250612f0481612e5056fe07ebcf49758b6ed3af50fa146bec0abe157c0218fe65dc0874c286e9d5da4f00f3177357ab46d8af007ab3fdb9af81da189e1068fefdc0073dca88a2cab40a00a2646970667358221220c92dbcf2f73946185206ea42e5b32b1348640b21649f487fbd578e21a67b4bc064736f6c634300081b0033","linkReferences":{"contracts/shared/ContractLib.sol":{"ContractLib":[{"start":10116,"length":20},{"start":11153,"length":20}]},"contracts/type/NftId.sol":{"NftIdLib":[{"start":1643,"length":20},{"start":7003,"length":20},{"start":9543,"length":20}]}}},"methodIdentifiers":{"NFT_OWNABLE_STORAGE_LOCATION_V1()":"ada9652e","REGISTERABLE_LOCATION_V1()":"1eff4b22","authority()":"bf7e214f","authorizeFunctions(address,uint64,(bytes32,bytes4,uint40,uint40)[])":"33102c81","createRole(string,uint64,uint32)":"1f481d64","createTarget(address,string)":"5fa8aad4","getBundleSet()":"6dddada4","getInitialInfo()":"0fec111c","getInstanceAdmin()":"311adb68","getInstanceReader()":"02cd3071","getInstanceStore()":"d4cda0d8","getNftId()":"644c45e0","getOwner()":"893d20e8","getProduct(uint256)":"b9db15b4","getProductStore()":"b7b02c4e","getRegistry()":"5ab1bd53","getRelease()":"76b707b7","getRequestSet()":"20967dc5","getRiskSet()":"0e0c586d","grantRole(uint64,address)":"b428b0b0","initialize((address,address,address,address,address,address,address),address,uint8,address,bool)":"53ebd3b4","isActive()":"22f3e2d4","isConsumingScheduledOp()":"8fb36037","isInstanceLocked()":"40acebd9","isTargetLocked(address)":"26decd40","isTokenRegistryDisabled()":"398e3d4c","linkToRegisteredNftId()":"138461e0","products()":"c71e261f","refillStakingRewardReserves(uint96)":"4f8b8aba","registerProduct(address,address)":"5d966289","revokeRole(uint64,address)":"b7d2b162","setAuthority(address)":"7a9e5e4b","setInstanceLocked(bool)":"96cdfa3f","setInstanceReader(address)":"f7bc431c","setRoleActive(uint64,bool)":"23dff792","setStakingLockingPeriod(uint40)":"2d764ef8","setStakingMaxAmount(uint96)":"7de45f13","setStakingRewardRate(uint160)":"11f77843","setTargetLocked(address,bool)":"86892313","supportsInterface(bytes4)":"01ffc9a7","unauthorizeFunctions(address,(bytes32,bytes4,uint40,uint40)[])":"fb3fc44d","upgradeInstanceReader()":"c2651725","withdrawStakingRewardReserves(uint96)":"e52ba1cb"},"id":55}