{"abi":[{"type":"function","name":"activeBundles","inputs":[{"name":"poolNftId","type":"uint96","internalType":"NftId"}],"outputs":[{"name":"bundleCount","type":"uint256","internalType":"uint256"}],"stateMutability":"view"},{"type":"function","name":"activeRisks","inputs":[{"name":"productNftId","type":"uint96","internalType":"NftId"}],"outputs":[{"name":"activeRiskCount","type":"uint256","internalType":"uint256"}],"stateMutability":"view"},{"type":"function","name":"authorizedFunctions","inputs":[{"name":"target","type":"address","internalType":"address"}],"outputs":[{"name":"numberOfFunctions","type":"uint256","internalType":"uint256"}],"stateMutability":"view"},{"type":"function","name":"bundles","inputs":[{"name":"poolNftId","type":"uint96","internalType":"NftId"}],"outputs":[{"name":"bundleCount","type":"uint256","internalType":"uint256"}],"stateMutability":"view"},{"type":"function","name":"claims","inputs":[{"name":"policyNftId","type":"uint96","internalType":"NftId"}],"outputs":[{"name":"claimCount","type":"uint16","internalType":"uint16"}],"stateMutability":"view"},{"type":"function","name":"getActiveBundleNftId","inputs":[{"name":"poolNftId","type":"uint96","internalType":"NftId"},{"name":"idx","type":"uint256","internalType":"uint256"}],"outputs":[{"name":"bundleNftId","type":"uint96","internalType":"NftId"}],"stateMutability":"view"},{"type":"function","name":"getActiveRequestAt","inputs":[{"name":"oracleNftId","type":"uint96","internalType":"NftId"},{"name":"idx","type":"uint256","internalType":"uint256"}],"outputs":[{"name":"requestId","type":"uint64","internalType":"RequestId"}],"stateMutability":"view"},{"type":"function","name":"getActiveRequests","inputs":[{"name":"oracleNftId","type":"uint96","internalType":"NftId"}],"outputs":[{"name":"numberOfRequests","type":"uint256","internalType":"uint256"}],"stateMutability":"view"},{"type":"function","name":"getActiveRiskId","inputs":[{"name":"productNftId","type":"uint96","internalType":"NftId"},{"name":"idx","type":"uint256","internalType":"uint256"}],"outputs":[{"name":"riskId","type":"bytes8","internalType":"RiskId"}],"stateMutability":"view"},{"type":"function","name":"getAuthorizedFunction","inputs":[{"name":"target","type":"address","internalType":"address"},{"name":"idx","type":"uint256","internalType":"uint256"}],"outputs":[{"name":"func","type":"tuple","internalType":"struct IAccess.FunctionInfo","components":[{"name":"name","type":"bytes32","internalType":"Str"},{"name":"selector","type":"bytes4","internalType":"Selector"},{"name":"createdAt","type":"uint40","internalType":"Timestamp"},{"name":"lastUpdateIn","type":"uint40","internalType":"Blocknumber"}]},{"name":"roleId","type":"uint64","internalType":"RoleId"}],"stateMutability":"view"},{"type":"function","name":"getBalanceAmount","inputs":[{"name":"targetNftId","type":"uint96","internalType":"NftId"}],"outputs":[{"name":"","type":"uint96","internalType":"Amount"}],"stateMutability":"view"},{"type":"function","name":"getBundleInfo","inputs":[{"name":"bundleNftId","type":"uint96","internalType":"NftId"}],"outputs":[{"name":"info","type":"tuple","internalType":"struct IBundle.BundleInfo","components":[{"name":"activatedAt","type":"uint40","internalType":"Timestamp"},{"name":"expiredAt","type":"uint40","internalType":"Timestamp"},{"name":"closedAt","type":"uint40","internalType":"Timestamp"},{"name":"poolNftId","type":"uint96","internalType":"NftId"},{"name":"fee","type":"tuple","internalType":"struct Fee","components":[{"name":"fractionalFee","type":"uint160","internalType":"UFixed"},{"name":"fixedFee","type":"uint96","internalType":"Amount"}]},{"name":"filter","type":"bytes","internalType":"bytes"}]}],"stateMutability":"view"},{"type":"function","name":"getBundleNftId","inputs":[{"name":"poolNftId","type":"uint96","internalType":"NftId"},{"name":"idx","type":"uint256","internalType":"uint256"}],"outputs":[{"name":"bundleNftId","type":"uint96","internalType":"NftId"}],"stateMutability":"view"},{"type":"function","name":"getBundleSet","inputs":[],"outputs":[{"name":"bundleSet","type":"address","internalType":"contract BundleSet"}],"stateMutability":"view"},{"type":"function","name":"getBundleState","inputs":[{"name":"bundleNftId","type":"uint96","internalType":"NftId"}],"outputs":[{"name":"state","type":"uint8","internalType":"StateId"}],"stateMutability":"view"},{"type":"function","name":"getClaimId","inputs":[{"name":"idx","type":"uint256","internalType":"uint256"}],"outputs":[{"name":"claimId","type":"uint16","internalType":"ClaimId"}],"stateMutability":"pure"},{"type":"function","name":"getClaimInfo","inputs":[{"name":"policyNftId","type":"uint96","internalType":"NftId"},{"name":"claimId","type":"uint16","internalType":"ClaimId"}],"outputs":[{"name":"info","type":"tuple","internalType":"struct IPolicy.ClaimInfo","components":[{"name":"claimAmount","type":"uint96","internalType":"Amount"},{"name":"paidAmount","type":"uint96","internalType":"Amount"},{"name":"closedAt","type":"uint40","internalType":"Timestamp"},{"name":"payoutsCount","type":"uint24","internalType":"uint24"},{"name":"openPayoutsCount","type":"uint24","internalType":"uint24"},{"name":"submissionData","type":"bytes","internalType":"bytes"},{"name":"processData","type":"bytes","internalType":"bytes"}]}],"stateMutability":"view"},{"type":"function","name":"getClaimState","inputs":[{"name":"policyNftId","type":"uint96","internalType":"NftId"},{"name":"claimId","type":"uint16","internalType":"ClaimId"}],"outputs":[{"name":"state","type":"uint8","internalType":"StateId"}],"stateMutability":"view"},{"type":"function","name":"getComponentInfo","inputs":[{"name":"componentNftId","type":"uint96","internalType":"NftId"}],"outputs":[{"name":"info","type":"tuple","internalType":"struct IComponents.ComponentInfo","components":[{"name":"name","type":"string","internalType":"string"},{"name":"tokenHandler","type":"address","internalType":"contract TokenHandler"}]}],"stateMutability":"view"},{"type":"function","name":"getDiscountPercentage","inputs":[{"name":"referralId","type":"bytes8","internalType":"ReferralId"}],"outputs":[{"name":"discountPercentage","type":"uint160","internalType":"UFixed"},{"name":"status","type":"uint8","internalType":"ReferralStatus"}],"stateMutability":"view"},{"type":"function","name":"getDistributorInfo","inputs":[{"name":"distributorNftId","type":"uint96","internalType":"NftId"}],"outputs":[{"name":"info","type":"tuple","internalType":"struct IDistribution.DistributorInfo","components":[{"name":"distributorType","type":"bytes8","internalType":"DistributorType"},{"name":"active","type":"bool","internalType":"bool"},{"name":"numPoliciesSold","type":"uint32","internalType":"uint32"},{"name":"data","type":"bytes","internalType":"bytes"}]}],"stateMutability":"view"},{"type":"function","name":"getDistributorTypeInfo","inputs":[{"name":"distributorType","type":"bytes8","internalType":"DistributorType"}],"outputs":[{"name":"info","type":"tuple","internalType":"struct IDistribution.DistributorTypeInfo","components":[{"name":"minDiscountPercentage","type":"uint160","internalType":"UFixed"},{"name":"distributionNftId","type":"uint96","internalType":"NftId"},{"name":"maxDiscountPercentage","type":"uint160","internalType":"UFixed"},{"name":"maxReferralCount","type":"uint32","internalType":"uint32"},{"name":"maxReferralLifetime","type":"uint40","internalType":"Seconds"},{"name":"allowSelfReferrals","type":"bool","internalType":"bool"},{"name":"allowRenewals","type":"bool","internalType":"bool"},{"name":"commissionPercentage","type":"uint160","internalType":"UFixed"},{"name":"name","type":"string","internalType":"string"},{"name":"data","type":"bytes","internalType":"bytes"}]}],"stateMutability":"view"},{"type":"function","name":"getFeeAmount","inputs":[{"name":"targetNftId","type":"uint96","internalType":"NftId"}],"outputs":[{"name":"","type":"uint96","internalType":"Amount"}],"stateMutability":"view"},{"type":"function","name":"getFeeInfo","inputs":[{"name":"productNftId","type":"uint96","internalType":"NftId"}],"outputs":[{"name":"feeInfo","type":"tuple","internalType":"struct IComponents.FeeInfo","components":[{"name":"productFee","type":"tuple","internalType":"struct Fee","components":[{"name":"fractionalFee","type":"uint160","internalType":"UFixed"},{"name":"fixedFee","type":"uint96","internalType":"Amount"}]},{"name":"processingFee","type":"tuple","internalType":"struct Fee","components":[{"name":"fractionalFee","type":"uint160","internalType":"UFixed"},{"name":"fixedFee","type":"uint96","internalType":"Amount"}]},{"name":"distributionFee","type":"tuple","internalType":"struct Fee","components":[{"name":"fractionalFee","type":"uint160","internalType":"UFixed"},{"name":"fixedFee","type":"uint96","internalType":"Amount"}]},{"name":"minDistributionOwnerFee","type":"tuple","internalType":"struct Fee","components":[{"name":"fractionalFee","type":"uint160","internalType":"UFixed"},{"name":"fixedFee","type":"uint96","internalType":"Amount"}]},{"name":"poolFee","type":"tuple","internalType":"struct Fee","components":[{"name":"fractionalFee","type":"uint160","internalType":"UFixed"},{"name":"fixedFee","type":"uint96","internalType":"Amount"}]},{"name":"stakingFee","type":"tuple","internalType":"struct Fee","components":[{"name":"fractionalFee","type":"uint160","internalType":"UFixed"},{"name":"fixedFee","type":"uint96","internalType":"Amount"}]},{"name":"performanceFee","type":"tuple","internalType":"struct Fee","components":[{"name":"fractionalFee","type":"uint160","internalType":"UFixed"},{"name":"fixedFee","type":"uint96","internalType":"Amount"}]}]}],"stateMutability":"view"},{"type":"function","name":"getInstance","inputs":[],"outputs":[{"name":"instance","type":"address","internalType":"contract IInstance"}],"stateMutability":"view"},{"type":"function","name":"getInstanceAdmin","inputs":[],"outputs":[{"name":"instanceAdmin","type":"address","internalType":"contract InstanceAdmin"}],"stateMutability":"view"},{"type":"function","name":"getInstanceNftId","inputs":[],"outputs":[{"name":"instanceNftid","type":"uint96","internalType":"NftId"}],"stateMutability":"view"},{"type":"function","name":"getInstanceOwnerRole","inputs":[],"outputs":[{"name":"roleId","type":"uint64","internalType":"RoleId"}],"stateMutability":"pure"},{"type":"function","name":"getLockedAmount","inputs":[{"name":"targetNftId","type":"uint96","internalType":"NftId"}],"outputs":[{"name":"","type":"uint96","internalType":"Amount"}],"stateMutability":"view"},{"type":"function","name":"getMetadata","inputs":[{"name":"key","type":"bytes32","internalType":"Key32"}],"outputs":[{"name":"metadata","type":"tuple","internalType":"struct IBaseStore.Metadata","components":[{"name":"objectType","type":"uint8","internalType":"ObjectType"},{"name":"state","type":"uint8","internalType":"StateId"},{"name":"updatedIn","type":"uint40","internalType":"Blocknumber"}]}],"stateMutability":"view"},{"type":"function","name":"getPayoutId","inputs":[{"name":"claimId","type":"uint16","internalType":"ClaimId"},{"name":"idx","type":"uint24","internalType":"uint24"}],"outputs":[{"name":"payoutId","type":"uint40","internalType":"PayoutId"}],"stateMutability":"pure"},{"type":"function","name":"getPayoutInfo","inputs":[{"name":"policyNftId","type":"uint96","internalType":"NftId"},{"name":"payoutId","type":"uint40","internalType":"PayoutId"}],"outputs":[{"name":"info","type":"tuple","internalType":"struct IPolicy.PayoutInfo","components":[{"name":"claimId","type":"uint16","internalType":"ClaimId"},{"name":"amount","type":"uint96","internalType":"Amount"},{"name":"paidAt","type":"uint40","internalType":"Timestamp"},{"name":"beneficiary","type":"address","internalType":"address"},{"name":"data","type":"bytes","internalType":"bytes"}]}],"stateMutability":"view"},{"type":"function","name":"getPayoutState","inputs":[{"name":"policyNftId","type":"uint96","internalType":"NftId"},{"name":"payoutId","type":"uint40","internalType":"PayoutId"}],"outputs":[{"name":"state","type":"uint8","internalType":"StateId"}],"stateMutability":"view"},{"type":"function","name":"getPolicyForBundle","inputs":[{"name":"bundleNftId","type":"uint96","internalType":"NftId"},{"name":"idx","type":"uint256","internalType":"uint256"}],"outputs":[{"name":"linkedPolicyNftId","type":"uint96","internalType":"NftId"}],"stateMutability":"view"},{"type":"function","name":"getPolicyForRisk","inputs":[{"name":"riskId","type":"bytes8","internalType":"RiskId"},{"name":"idx","type":"uint256","internalType":"uint256"}],"outputs":[{"name":"linkedPolicyNftId","type":"uint96","internalType":"NftId"}],"stateMutability":"view"},{"type":"function","name":"getPolicyInfo","inputs":[{"name":"policyNftId","type":"uint96","internalType":"NftId"}],"outputs":[{"name":"info","type":"tuple","internalType":"struct IPolicy.PolicyInfo","components":[{"name":"productNftId","type":"uint96","internalType":"NftId"},{"name":"bundleNftId","type":"uint96","internalType":"NftId"},{"name":"riskId","type":"bytes8","internalType":"RiskId"},{"name":"sumInsuredAmount","type":"uint96","internalType":"Amount"},{"name":"premiumAmount","type":"uint96","internalType":"Amount"},{"name":"referralId","type":"bytes8","internalType":"ReferralId"},{"name":"claimsCount","type":"uint16","internalType":"uint16"},{"name":"openClaimsCount","type":"uint16","internalType":"uint16"},{"name":"claimAmount","type":"uint96","internalType":"Amount"},{"name":"payoutAmount","type":"uint96","internalType":"Amount"},{"name":"activatedAt","type":"uint40","internalType":"Timestamp"},{"name":"lifetime","type":"uint40","internalType":"Seconds"},{"name":"expiredAt","type":"uint40","internalType":"Timestamp"},{"name":"closedAt","type":"uint40","internalType":"Timestamp"},{"name":"applicationData","type":"bytes","internalType":"bytes"},{"name":"processData","type":"bytes","internalType":"bytes"}]}],"stateMutability":"view"},{"type":"function","name":"getPolicyState","inputs":[{"name":"policyNftId","type":"uint96","internalType":"NftId"}],"outputs":[{"name":"state","type":"uint8","internalType":"StateId"}],"stateMutability":"view"},{"type":"function","name":"getPoolInfo","inputs":[{"name":"poolNftId","type":"uint96","internalType":"NftId"}],"outputs":[{"name":"info","type":"tuple","internalType":"struct IComponents.PoolInfo","components":[{"name":"maxBalanceAmount","type":"uint96","internalType":"Amount"},{"name":"collateralizationLevel","type":"uint160","internalType":"UFixed"},{"name":"retentionLevel","type":"uint160","internalType":"UFixed"},{"name":"isInterceptingBundleTransfers","type":"bool","internalType":"bool"},{"name":"isProcessingConfirmedClaims","type":"bool","internalType":"bool"},{"name":"isExternallyManaged","type":"bool","internalType":"bool"},{"name":"isVerifyingApplications","type":"bool","internalType":"bool"}]}],"stateMutability":"view"},{"type":"function","name":"getPremiumInfo","inputs":[{"name":"policyNftId","type":"uint96","internalType":"NftId"}],"outputs":[{"name":"info","type":"tuple","internalType":"struct IPolicy.PremiumInfo","components":[{"name":"productFeeAmount","type":"uint96","internalType":"Amount"},{"name":"distributionFeeAndCommissionAmount","type":"uint96","internalType":"Amount"},{"name":"poolPremiumAndFeeAmount","type":"uint96","internalType":"Amount"},{"name":"netPremiumAmount","type":"uint96","internalType":"Amount"},{"name":"fullPremiumAmount","type":"uint96","internalType":"Amount"},{"name":"premiumAmount","type":"uint96","internalType":"Amount"},{"name":"productFeeFixAmount","type":"uint96","internalType":"Amount"},{"name":"poolFeeFixAmount","type":"uint96","internalType":"Amount"},{"name":"bundleFeeFixAmount","type":"uint96","internalType":"Amount"},{"name":"distributionFeeFixAmount","type":"uint96","internalType":"Amount"},{"name":"productFeeVarAmount","type":"uint96","internalType":"Amount"},{"name":"poolFeeVarAmount","type":"uint96","internalType":"Amount"},{"name":"bundleFeeVarAmount","type":"uint96","internalType":"Amount"},{"name":"distributionFeeVarAmount","type":"uint96","internalType":"Amount"},{"name":"distributionOwnerFeeFixAmount","type":"uint96","internalType":"Amount"},{"name":"distributionOwnerFeeVarAmount","type":"uint96","internalType":"Amount"},{"name":"commissionAmount","type":"uint96","internalType":"Amount"},{"name":"discountAmount","type":"uint96","internalType":"Amount"}]}],"stateMutability":"view"},{"type":"function","name":"getPremiumState","inputs":[{"name":"policyNftId","type":"uint96","internalType":"NftId"}],"outputs":[{"name":"state","type":"uint8","internalType":"StateId"}],"stateMutability":"view"},{"type":"function","name":"getProduct","inputs":[{"name":"idx","type":"uint256","internalType":"uint256"}],"outputs":[{"name":"productNftId","type":"uint96","internalType":"NftId"}],"stateMutability":"view"},{"type":"function","name":"getProductInfo","inputs":[{"name":"productNftId","type":"uint96","internalType":"NftId"}],"outputs":[{"name":"info","type":"tuple","internalType":"struct IComponents.ProductInfo","components":[{"name":"isProcessingFundedClaims","type":"bool","internalType":"bool"},{"name":"isInterceptingPolicyTransfers","type":"bool","internalType":"bool"},{"name":"hasDistribution","type":"bool","internalType":"bool"},{"name":"expectedNumberOfOracles","type":"uint8","internalType":"uint8"},{"name":"numberOfOracles","type":"uint8","internalType":"uint8"},{"name":"poolNftId","type":"uint96","internalType":"NftId"},{"name":"distributionNftId","type":"uint96","internalType":"NftId"},{"name":"oracleNftId","type":"uint96[]","internalType":"NftId[]"}]}],"stateMutability":"view"},{"type":"function","name":"getReferralInfo","inputs":[{"name":"referralId","type":"bytes8","internalType":"ReferralId"}],"outputs":[{"name":"info","type":"tuple","internalType":"struct IDistribution.ReferralInfo","components":[{"name":"distributionNftId","type":"uint96","internalType":"NftId"},{"name":"distributorNftId","type":"uint96","internalType":"NftId"},{"name":"maxReferrals","type":"uint32","internalType":"uint32"},{"name":"usedReferrals","type":"uint32","internalType":"uint32"},{"name":"discountPercentage","type":"uint160","internalType":"UFixed"},{"name":"expiryAt","type":"uint40","internalType":"Timestamp"},{"name":"referralCode","type":"string","internalType":"string"},{"name":"data","type":"bytes","internalType":"bytes"}]}],"stateMutability":"view"},{"type":"function","name":"getRegistry","inputs":[],"outputs":[{"name":"registry","type":"address","internalType":"contract IRegistry"}],"stateMutability":"view"},{"type":"function","name":"getRemainingClaimableAmount","inputs":[{"name":"policyNftId","type":"uint96","internalType":"NftId"}],"outputs":[{"name":"remainingClaimableAmount","type":"uint96","internalType":"Amount"}],"stateMutability":"view"},{"type":"function","name":"getRequestInfo","inputs":[{"name":"requestId","type":"uint64","internalType":"RequestId"}],"outputs":[{"name":"requestInfo","type":"tuple","internalType":"struct IOracle.RequestInfo","components":[{"name":"requesterNftId","type":"uint96","internalType":"NftId"},{"name":"oracleNftId","type":"uint96","internalType":"NftId"},{"name":"isCancelled","type":"bool","internalType":"bool"},{"name":"respondedAt","type":"uint40","internalType":"Timestamp"},{"name":"expiredAt","type":"uint40","internalType":"Timestamp"},{"name":"callbackMethodName","type":"string","internalType":"string"},{"name":"requestData","type":"bytes","internalType":"bytes"},{"name":"responseData","type":"bytes","internalType":"bytes"}]}],"stateMutability":"view"},{"type":"function","name":"getRequestState","inputs":[{"name":"requestId","type":"uint64","internalType":"RequestId"}],"outputs":[{"name":"state","type":"uint8","internalType":"StateId"}],"stateMutability":"view"},{"type":"function","name":"getRiskId","inputs":[{"name":"productNftId","type":"uint96","internalType":"NftId"},{"name":"idx","type":"uint256","internalType":"uint256"}],"outputs":[{"name":"riskId","type":"bytes8","internalType":"RiskId"}],"stateMutability":"view"},{"type":"function","name":"getRiskInfo","inputs":[{"name":"riskId","type":"bytes8","internalType":"RiskId"}],"outputs":[{"name":"info","type":"tuple","internalType":"struct IRisk.RiskInfo","components":[{"name":"productNftId","type":"uint96","internalType":"NftId"},{"name":"createdAt","type":"uint40","internalType":"Timestamp"},{"name":"data","type":"bytes","internalType":"bytes"}]}],"stateMutability":"view"},{"type":"function","name":"getRiskSet","inputs":[],"outputs":[{"name":"riskSet","type":"address","internalType":"contract RiskSet"}],"stateMutability":"view"},{"type":"function","name":"getRiskState","inputs":[{"name":"riskId","type":"bytes8","internalType":"RiskId"}],"outputs":[{"name":"stateId","type":"uint8","internalType":"StateId"}],"stateMutability":"view"},{"type":"function","name":"getRoleForName","inputs":[{"name":"name","type":"string","internalType":"string"}],"outputs":[{"name":"roleId","type":"uint64","internalType":"RoleId"},{"name":"exists","type":"bool","internalType":"bool"}],"stateMutability":"view"},{"type":"function","name":"getRoleId","inputs":[{"name":"idx","type":"uint256","internalType":"uint256"}],"outputs":[{"name":"roleId","type":"uint64","internalType":"RoleId"}],"stateMutability":"view"},{"type":"function","name":"getRoleInfo","inputs":[{"name":"roleId","type":"uint64","internalType":"RoleId"}],"outputs":[{"name":"roleInfo","type":"tuple","internalType":"struct IAccess.RoleInfo","components":[{"name":"adminRoleId","type":"uint64","internalType":"RoleId"},{"name":"targetType","type":"uint8","internalType":"enum IAccess.TargetType"},{"name":"maxMemberCount","type":"uint32","internalType":"uint32"},{"name":"createdAt","type":"uint40","internalType":"Timestamp"},{"name":"pausedAt","type":"uint40","internalType":"Timestamp"},{"name":"lastUpdateIn","type":"uint40","internalType":"Blocknumber"},{"name":"name","type":"bytes32","internalType":"Str"}]}],"stateMutability":"view"},{"type":"function","name":"getRoleMember","inputs":[{"name":"roleId","type":"uint64","internalType":"RoleId"},{"name":"idx","type":"uint256","internalType":"uint256"}],"outputs":[{"name":"account","type":"address","internalType":"address"}],"stateMutability":"view"},{"type":"function","name":"getState","inputs":[{"name":"key","type":"bytes32","internalType":"Key32"}],"outputs":[{"name":"state","type":"uint8","internalType":"StateId"}],"stateMutability":"view"},{"type":"function","name":"getTargetAddress","inputs":[{"name":"idx","type":"uint256","internalType":"uint256"}],"outputs":[{"name":"target","type":"address","internalType":"address"}],"stateMutability":"view"},{"type":"function","name":"getTargetInfo","inputs":[{"name":"target","type":"address","internalType":"address"}],"outputs":[{"name":"targetInfo","type":"tuple","internalType":"struct IAccess.TargetInfo","components":[{"name":"name","type":"bytes32","internalType":"Str"},{"name":"targetType","type":"uint8","internalType":"enum IAccess.TargetType"},{"name":"roleId","type":"uint64","internalType":"RoleId"},{"name":"createdAt","type":"uint40","internalType":"Timestamp"},{"name":"lastUpdateIn","type":"uint40","internalType":"Blocknumber"}]}],"stateMutability":"view"},{"type":"function","name":"getToken","inputs":[{"name":"componentNftId","type":"uint96","internalType":"NftId"}],"outputs":[{"name":"token","type":"address","internalType":"contract IERC20Metadata"}],"stateMutability":"view"},{"type":"function","name":"getTokenHandler","inputs":[{"name":"componentNftId","type":"uint96","internalType":"NftId"}],"outputs":[{"name":"tokenHandler","type":"address","internalType":"contract TokenHandler"}],"stateMutability":"view"},{"type":"function","name":"getWallet","inputs":[{"name":"componentNftId","type":"uint96","internalType":"NftId"}],"outputs":[{"name":"wallet","type":"address","internalType":"address"}],"stateMutability":"view"},{"type":"function","name":"initialize","inputs":[],"outputs":[],"stateMutability":"nonpayable"},{"type":"function","name":"initializeWithInstance","inputs":[{"name":"instanceAddress","type":"address","internalType":"address"}],"outputs":[],"stateMutability":"nonpayable"},{"type":"function","name":"isLocked","inputs":[{"name":"target","type":"address","internalType":"address"}],"outputs":[{"name":"","type":"bool","internalType":"bool"}],"stateMutability":"view"},{"type":"function","name":"isProductRisk","inputs":[{"name":"productNftId","type":"uint96","internalType":"NftId"},{"name":"riskId","type":"bytes8","internalType":"RiskId"}],"outputs":[{"name":"exists","type":"bool","internalType":"bool"}],"stateMutability":"view"},{"type":"function","name":"isReferralValid","inputs":[{"name":"distributionNftId","type":"uint96","internalType":"NftId"},{"name":"referralId","type":"bytes8","internalType":"ReferralId"}],"outputs":[{"name":"isValid","type":"bool","internalType":"bool"}],"stateMutability":"view"},{"type":"function","name":"isRequestActive","inputs":[{"name":"oracleNftId","type":"uint96","internalType":"NftId"},{"name":"requestId","type":"uint64","internalType":"RequestId"}],"outputs":[{"name":"isActive","type":"bool","internalType":"bool"}],"stateMutability":"view"},{"type":"function","name":"isRoleActive","inputs":[{"name":"roleId","type":"uint64","internalType":"RoleId"}],"outputs":[{"name":"isActive","type":"bool","internalType":"bool"}],"stateMutability":"view"},{"type":"function","name":"isRoleAdmin","inputs":[{"name":"roleId","type":"uint64","internalType":"RoleId"},{"name":"account","type":"address","internalType":"address"}],"outputs":[{"name":"isMember","type":"bool","internalType":"bool"}],"stateMutability":"view"},{"type":"function","name":"isRoleCustom","inputs":[{"name":"roleId","type":"uint64","internalType":"RoleId"}],"outputs":[{"name":"isCustom","type":"bool","internalType":"bool"}],"stateMutability":"view"},{"type":"function","name":"isRoleMember","inputs":[{"name":"roleId","type":"uint64","internalType":"RoleId"},{"name":"account","type":"address","internalType":"address"}],"outputs":[{"name":"isMember","type":"bool","internalType":"bool"}],"stateMutability":"view"},{"type":"function","name":"payouts","inputs":[{"name":"policyNftId","type":"uint96","internalType":"NftId"},{"name":"claimId","type":"uint16","internalType":"ClaimId"}],"outputs":[{"name":"payoutCount","type":"uint24","internalType":"uint24"}],"stateMutability":"view"},{"type":"function","name":"policiesForBundle","inputs":[{"name":"bundleNftId","type":"uint96","internalType":"NftId"}],"outputs":[{"name":"linkedPolicies","type":"uint256","internalType":"uint256"}],"stateMutability":"view"},{"type":"function","name":"policiesForRisk","inputs":[{"name":"riskId","type":"bytes8","internalType":"RiskId"}],"outputs":[{"name":"linkedPolicies","type":"uint256","internalType":"uint256"}],"stateMutability":"view"},{"type":"function","name":"policyIsActive","inputs":[{"name":"policyNftId","type":"uint96","internalType":"NftId"}],"outputs":[{"name":"isCloseable","type":"bool","internalType":"bool"}],"stateMutability":"view"},{"type":"function","name":"products","inputs":[],"outputs":[{"name":"productCount","type":"uint256","internalType":"uint256"}],"stateMutability":"view"},{"type":"function","name":"risks","inputs":[{"name":"productNftId","type":"uint96","internalType":"NftId"}],"outputs":[{"name":"riskCount","type":"uint256","internalType":"uint256"}],"stateMutability":"view"},{"type":"function","name":"roleExists","inputs":[{"name":"roleId","type":"uint64","internalType":"RoleId"}],"outputs":[{"name":"exists","type":"bool","internalType":"bool"}],"stateMutability":"view"},{"type":"function","name":"roleMembers","inputs":[{"name":"roleId","type":"uint64","internalType":"RoleId"}],"outputs":[{"name":"numberOfMembers","type":"uint256","internalType":"uint256"}],"stateMutability":"view"},{"type":"function","name":"roles","inputs":[],"outputs":[{"name":"","type":"uint256","internalType":"uint256"}],"stateMutability":"view"},{"type":"function","name":"targetExists","inputs":[{"name":"target","type":"address","internalType":"address"}],"outputs":[{"name":"exists","type":"bool","internalType":"bool"}],"stateMutability":"view"},{"type":"function","name":"targets","inputs":[],"outputs":[{"name":"targetCount","type":"uint256","internalType":"uint256"}],"stateMutability":"view"},{"type":"function","name":"toFunction","inputs":[{"name":"selector","type":"bytes4","internalType":"bytes4"},{"name":"name","type":"string","internalType":"string"}],"outputs":[{"name":"","type":"tuple","internalType":"struct IAccess.FunctionInfo","components":[{"name":"name","type":"bytes32","internalType":"Str"},{"name":"selector","type":"bytes4","internalType":"Selector"},{"name":"createdAt","type":"uint40","internalType":"Timestamp"},{"name":"lastUpdateIn","type":"uint40","internalType":"Blocknumber"}]}],"stateMutability":"view"},{"type":"function","name":"toInt","inputs":[{"name":"value","type":"uint160","internalType":"UFixed"}],"outputs":[{"name":"","type":"uint256","internalType":"uint256"}],"stateMutability":"pure"},{"type":"function","name":"toReferralId","inputs":[{"name":"distributionNftId","type":"uint96","internalType":"NftId"},{"name":"referralCode","type":"string","internalType":"string"}],"outputs":[{"name":"referralId","type":"bytes8","internalType":"ReferralId"}],"stateMutability":"pure"},{"type":"function","name":"toString","inputs":[{"name":"str","type":"bytes32","internalType":"Str"}],"outputs":[{"name":"","type":"string","internalType":"string"}],"stateMutability":"pure"},{"type":"function","name":"toUFixed","inputs":[{"name":"value","type":"uint256","internalType":"uint256"},{"name":"exp","type":"int8","internalType":"int8"}],"outputs":[{"name":"","type":"uint160","internalType":"UFixed"}],"stateMutability":"pure"},{"type":"error","name":"ErrorInstanceReaderAlreadyInitialized","inputs":[]},{"type":"error","name":"ErrorInstanceReaderInstanceAddressZero","inputs":[]}],"bytecode":{"object":"0x60806040525f805460ff191690553480156017575f5ffd5b50615ba8806100255f395ff3fe608060405234801561000f575f5ffd5b50600436106104bc575f3560e01c80637966dcbc11610279578063c6a0017911610156578063e444c3df116100ca578063f3ed99191161008f578063f3ed991914610c8f578063f4809edd14610ca2578063fad77c3b14610cb5578063fcad2c4b14610cc8578063fd80249214610cdb578063febe92af14610cfb575f5ffd5b8063e444c3df14610c00578063e98413ff14610c20578063f0b1d21014610c49578063f0ea17c314610c5c578063f1d8f89e14610c7c575f5ffd5b8063d78a83b11161011b578063d78a83b114610b90578063db70354c14610ba3578063de49587d14610bb6578063de7b5d1414610bc9578063dfbf164014610bda578063e2eb023b14610bed575f5ffd5b8063c6a0017914610b3a578063c71e261f14610b4d578063c88105e614610b55578063d06458c614610b68578063d299bf6214610b88575f5ffd5b80639cad0052116101ed578063b11a19e8116101b2578063b11a19e814610a8d578063b82d7ef514610aad578063b9db15b414610ae1578063ba579bdc14610af4578063bd7d9d8514610b07578063c1850f3614610b27575f5ffd5b80639cad0052146109d15780639fb07a4014610a03578063a310e2a314610a16578063a5961b4c14610a29578063a7ef3d2114610a6d575f5ffd5b806381bfd4cb1161023e57806381bfd4cb1461095257806387c73e5a14610965578063887b1fa9146109785780638eb9000d146109985780639096a1f3146109ab57806394b9929b146109be575f5ffd5b80637966dcbc146109095780637d8f1e811461091c5780637e7986691461092f5780637f0cf947146109375780638129fc1c1461094a575f5ffd5b806335471f80116103a75780635ab1bd531161031b5780636791f7ab116102e05780636791f7ab1461088a5780636a05a4131461089f5780636dddada4146108bf5780636ebed908146108d0578063728a61a8146108e357806378ae9350146108f6575f5ffd5b80635ab1bd531461081c5780635bfa502714610831578063605aa10a146108515780636553994c1461086457806366c3bc9514610877575f5ffd5b80634793b4ab1161036c5780634793b4ab14610790578063480cebd1146107b05780634a4fbeec146107c35780634bf73a1a146107d65780634d21a63d146107e957806357f80bbf146107fc575f5ffd5b806335471f8014610711578063392f5f64146107245780633b046f091461072c5780633f093cd6146107525780633fd8556114610765575f5ffd5b80631488c8451161043e57806326d60fb41161040357806326d60fb41461069f57806327b1d792146106a75780632c0cd060146106c75780632f458a11146106da578063311adb68146106ed57806333fc7dee146106fe575f5ffd5b80631488c8451461061857806315fb0abb1461062b5780631d3be4771461064b578063228e42ec1461066b57806324913ce61461067e575f5ffd5b80630e0c586d116104845780630e0c586d1461057957806310bf267b1461059e578063128817d4146105c557806312e1ebc5146105e557806313ab148d14610605575f5ffd5b80630232ca49146104c0578063028106fd146104f0578063030149741461051357806309648a9d146105345780630b5d931c14610559575b5f5ffd5b6104d36104ce36600461388c565b610d1b565b6040516001600160601b0390911681526020015b60405180910390f35b6105036104fe3660046138bc565b610d95565b60405190151581526020016104e7565b610526610521366004613907565b610e20565b6040519081526020016104e7565b610547610542366004613922565b610e93565b60405160ff90911681526020016104e7565b61056c61056736600461388c565b610eff565b6040516104e7919061397c565b6006546001600160a01b03165b6040516001600160a01b0390911681526020016104e7565b6105b16105ac366004613a23565b610fb5565b60405162ffffff90911681526020016104e7565b6105d86105d3366004613a4f565b610fcb565b6040516104e79190613a79565b6105f86105f3366004613aa2565b611046565b6040516104e79190613add565b61052661061336600461388c565b6110dc565b610586610626366004613b34565b611115565b61063e610639366004613d8b565b611191565b6040516104e79190613dd7565b61065e610659366004613e1d565b611228565b6040516104e79190613e66565b6104d361067936600461388c565b6112d7565b61069161068c366004613f24565b611310565b6040516104e7929190613f40565b6105266113b1565b6106ba6106b536600461388c565b611421565b6040516104e79190613f9c565b6104d36106d536600461388c565b6114b4565b6105266106e836600461388c565b6114d4565b6002546001600160a01b0316610586565b61052661070c36600461388c565b61150d565b61052661071f366004613aa2565b611546565b610526611577565b61073f61073a36600461388c565b6115be565b60405161ffff90911681526020016104e7565b6105d8610760366004613fe8565b6115d2565b610778610773366004613922565b611628565b6040516001600160401b0390911681526020016104e7565b6107a361079e36600461388c565b61169b565b6040516104e79190614025565b6105036107be366004614099565b611757565b6105036107d1366004613aa2565b611798565b6104d36107e43660046140c5565b611804565b6105866107f736600461388c565b611880565b61080f61080a36600461388c565b6118e7565b6040516104e791906140e1565b5f5461010090046001600160a01b0316610586565b61084461083f366004613907565b61198e565b6040516104e79190614167565b61050361085f366004613aa2565b611a39565b610526610872366004613e1d565b611a6b565b610503610885366004613907565b611a9b565b61089d610898366004613aa2565b611ad4565b005b6108b26108ad36600461388c565b611fac565b6040516104e791906141e5565b6005546001600160a01b0316610586565b6104d36108de366004613a4f565b612029565b6105866108f1366004613922565b612069565b610547610904366004613a23565b6120d4565b61052661091736600461388c565b6121d0565b61054761092a36600461388c565b612209565b6104d3612216565b610503610945366004614099565b612289565b61089d6122ca565b610547610960366004613907565b6122f8565b610503610973366004613907565b612378565b61098b610986366004613e1d565b6123b1565b6040516104e7919061426c565b6104d36109a636600461388c565b612438565b6105476109b936600461388c565b612471565b6105266109cc36600461388c565b6124ab565b6109e46109df3660046142aa565b6124e4565b604080516001600160401b0390931683529015156020830152016104e7565b610778610a11366004613a4f565b61255f565b610586610a2436600461388c565b6125d9565b610a3c610a37366004613922565b612672565b60408051825160ff9081168252602080850151909116908201529181015164ffffffffff16908201526060016104e7565b610a80610a7b366004613a23565b612906565b6040516104e791906142db565b610aa0610a9b366004613922565b6129be565b6040516104e79190614375565b610ac0610abb366004613e1d565b612a35565b604080516001600160a01b03909316835260ff9091166020830152016104e7565b6104d3610aef366004613922565b612ba1565b610503610b0236600461388c565b612bd2565b610b1a610b1536600461388c565b612c30565b6040516104e79190614387565b610503610b353660046144f2565b612d26565b610503610b48366004613907565b612d6c565b610526612da5565b610547610b6336600461388c565b612dec565b610b7b610b76366004613e1d565b612e08565b6040516104e7919061451e565b610778612ec7565b610586610b9e3660046145fc565b612ed0565b6104d3610bb1366004613a4f565b612f26565b6104d3610bc4366004613a4f565b612f66565b6001546001600160a01b0316610586565b610586610be836600461388c565b612fa6565b610526610bfb366004613aa2565b612ffe565b610c13610c0e36600461388c565b613057565b6040516104e79190614618565b610c33610c2e366004614818565b61315a565b60405164ffffffffff90911681526020016104e7565b610503610c573660046138bc565b6131ec565b610c6f610c6a36600461388c565b613235565b6040516104e79190614844565b610526610c8a36600461388c565b6132bc565b610547610c9d366004614892565b6132f5565b6105d8610cb0366004613a4f565b61335c565b61073f610cc3366004613922565b61339c565b610547610cd6366004613e1d565b61341f565b610cee610ce9366004614892565b6134b5565b6040516104e791906148be565b610d0e610d09366004613907565b613562565b6040516104e7919061491c565b600354604051630232ca4960e01b81526001600160601b03831660048201525f916001600160a01b031690630232ca49906024015b602060405180830381865afa158015610d6b573d5f5f3e3d5ffd5b505050506040513d601f19601f82011682018060405250810190610d8f91906149ed565b92915050565b6006546040516347eda2b560e11b81526001600160601b03841660048201526001600160c01b0319831660248201525f916001600160a01b031690638fdb456a906044015b602060405180830381865afa158015610df5573d5f5f3e3d5ffd5b505050506040513d601f19601f82011682018060405250810190610e199190614a17565b9392505050565b60025460405162c0525d60e21b81526001600160401b03831660048201525f916001600160a01b0316906303014974906024015b602060405180830381865afa158015610e6f573d5f5f3e3d5ffd5b505050506040513d601f19601f82011682018060405250810190610d8f9190614a30565b6003546040516309648a9d60e01b8152600481018390525f916001600160a01b0316906309648a9d906024015b602060405180830381865afa158015610edb573d5f5f3e3d5ffd5b505050506040513d601f19601f82011682018060405250810190610d8f9190614a60565b60408051610100810182525f8082526020820181905281830181905260608083018290526080830182905260a0830182905260c083019190915260e08201526004805492516302d764c760e21b81526001600160601b0385169181019190915290916001600160a01b031690630b5d931c906024015f60405180830381865afa158015610f8e573d5f5f3e3d5ffd5b505050506040513d5f823e601f3d908101601f19168201604052610d8f9190810190614b03565b5f610fc08383612906565b606001519392505050565b6006546040516304a205f560e21b81526001600160601b0384166004820152602481018390525f916001600160a01b03169063128817d4906044015b602060405180830381865afa158015611022573d5f5f3e3d5ffd5b505050506040513d601f19601f82011682018060405250810190610e199190614bf0565b6040805160a0810182525f808252602082018190529181018290526060810182905260808101919091526002546040516312e1ebc560e01b81526001600160a01b038481166004830152909116906312e1ebc59060240160a060405180830381865afa1580156110b8573d5f5f3e3d5ffd5b505050506040513d601f19601f82011682018060405250810190610d8f9190614c24565b6005546040516313ab148d60e01b81526001600160601b03831660048201525f916001600160a01b0316906313ab148d90602401610e54565b604051631488c84560e01b8152600481018390525f82810b60248301529073__$bf7bc340cbb9229ef1de2c568356e67902$__90631488c84590604401602060405180830381865af415801561116d573d5f5f3e3d5ffd5b505050506040513d601f19601f82011682018060405250810190610e199190614c9e565b604080516080810182525f80825260208201819052818301819052606082015290516315fb0abb60e01b815273__$7ca0443fea8aec4ba68c2e8d18c5a8d73e$__906315fb0abb906111e99086908690600401614cb9565b608060405180830381865af4158015611204573d5f5f3e3d5ffd5b505050506040513d601f19601f82011682018060405250810190610e199190614d38565b60408051610100810182525f8082526020820181905281830181905260608083018290526080830182905260a083019190915260c0820181905260e08201526003549151631d3be47760e01b815290916001600160a01b031690631d3be47790611296908590600401613a79565b5f60405180830381865afa1580156112b0573d5f5f3e3d5ffd5b505050506040513d5f823e601f3d908101601f19168201604052610d8f9190810190614db4565b6003546040516308a390bb60e21b81526001600160601b03831660048201525f916001600160a01b03169063228e42ec90602401610d50565b604080516080810182525f8082526020820181905291810182905260608101919091526002546040516312489e7360e11b81526001600160a01b038581166004830152602482018590525f9216906324913ce69060440160a060405180830381865afa158015611382573d5f5f3e3d5ffd5b505050506040513d601f19601f820116820180604052508101906113a69190614ea1565b915091509250929050565b600254604080516309b583ed60e21b815290515f926001600160a01b0316916326d60fb49160048083019260209291908290030181865afa1580156113f8573d5f5f3e3d5ffd5b505050506040513d601f19601f8201168201806040525081019061141c9190614a30565b905090565b604080516080810182525f808252602082018190528183015260608082015260035491516313d8ebc960e11b81526001600160601b038416600482015290916001600160a01b0316906327b1d792906024015f60405180830381865afa15801561148d573d5f5f3e3d5ffd5b505050506040513d5f823e601f3d908101601f19168201604052610d8f9190810190614ecc565b5f5f6114bf83612c30565b9050610e198160600151826101000151613615565b600654604051632f458a1160e01b81526001600160601b03831660048201525f916001600160a01b031690632f458a1190602401610e54565b6006546040516319fe3ef760e11b81526001600160601b03831660048201525f916001600160a01b0316906333fc7dee90602401610e54565b600254604051626a8e3f60e71b81526001600160a01b0383811660048301525f9216906335471f8090602401610e54565b60025460408051630e4bd7d960e21b815290515f926001600160a01b03169163392f5f649160048083019260209291908290030181865afa1580156113f8573d5f5f3e3d5ffd5b5f6115c882612c30565b60c0015192915050565b604051631f849e6b60e11b81525f9073__$05887d5853069c88bcd4c0a2107db45f29$__90633f093cd69061160d9086908690600401614f6b565b602060405180830381865af4158015611022573d5f5f3e3d5ffd5b600254604051633fd8556160e01b81526001600160401b03831660048201525f916001600160a01b031690633fd8556190602401602060405180830381865afa158015611677573d5f5f3e3d5ffd5b505050506040513d601f19601f82011682018060405250810190610d8f9190614f8c565b6116e26040805160c0810182525f80825260208083018290528284018290526060830182905283518085019094528184528301529060808201908152602001606081525090565b600354604051634793b4ab60e01b81526001600160601b03841660048201526001600160a01b0390911690634793b4ab906024015f60405180830381865afa158015611730573d5f5f3e3d5ffd5b505050506040513d5f823e601f3d908101601f19168201604052610d8f9190810190614fe7565b60025460405163480cebd160e01b81526001600160401b03841660048201526001600160a01b0383811660248301525f92169063480cebd190604401610dda565b600254604051629b7b3560e61b81526001600160a01b0383811660048301525f9216906326decd40906024015b602060405180830381865afa1580156117e0573d5f5f3e3d5ffd5b505050506040513d601f19601f82011682018060405250810190610d8f9190614a17565b6006546040516346cad99560e11b81526001600160c01b031984166004820152602481018390525f916001600160a01b031690638d95b32a906044015b602060405180830381865afa15801561185c573d5f5f3e3d5ffd5b505050506040513d601f19601f82011682018060405250810190610e1991906149ed565b5f5f61188b83613235565b60208101519091506001600160a01b0316156118e15780602001516001600160a01b031663132996046040518163ffffffff1660e01b8152600401602060405180830381865afa15801561116d573d5f5f3e3d5ffd5b50919050565b6040805160e0810182525f80825260208201819052818301819052606082018190526080820181905260a0820181905260c082015260035491516357f80bbf60e01b81526001600160601b038416600482015290916001600160a01b0316906357f80bbf9060240160e060405180830381865afa15801561196a573d5f5f3e3d5ffd5b505050506040513d601f19601f82011682018060405250810190610d8f91906150ab565b6040805160e0810182525f80825260208201819052918101829052606081018290526080810182905260a0810182905260c0810191909152600254604051635bfa502760e01b81526001600160401b03841660048201526001600160a01b0390911690635bfa50279060240160e060405180830381865afa158015611a15573d5f5f3e3d5ffd5b505050506040513d601f19601f82011682018060405250810190610d8f9190615143565b60025460405163302d508560e11b81526001600160a01b0383811660048301525f92169063605aa10a906024016117c5565b60065460405163380d295960e21b81525f916001600160a01b03169063e034a56490610e54908590600401613a79565b6002546040516366c3bc9560e01b81526001600160401b03831660048201525f916001600160a01b0316906366c3bc95906024016117c5565b5f5460ff1615611af75760405163ae9eff1b60e01b815260040160405180910390fd5b5f805460ff1916600190811790915580546001600160a01b0383166001600160a01b03199091168117909155604080516306235b6d60e31b8152905163311adb68916004808201926020929091908290030181865afa158015611b5c573d5f5f3e3d5ffd5b505050506040513d601f19601f82011682018060405250810190611b809190614c9e565b600280546001600160a01b0319166001600160a01b0392831617905560015460408051635ab1bd5360e01b815290519190921691635ab1bd539160048083019260209291908290030181865afa158015611bdc573d5f5f3e3d5ffd5b505050506040513d601f19601f82011682018060405250810190611c009190614c9e565b5f8054610100600160a81b0319166101006001600160a01b039384160217905560015460408051631a99b41b60e31b81529051919092169163d4cda0d89160048083019260209291908290030181865afa158015611c60573d5f5f3e3d5ffd5b505050506040513d601f19601f82011682018060405250810190611c849190614c9e565b600380546001600160a01b0319166001600160a01b0392831617905560015460408051635bd8162760e11b81529051919092169163b7b02c4e9160048083019260209291908290030181865afa158015611ce0573d5f5f3e3d5ffd5b505050506040513d601f19601f82011682018060405250810190611d049190614c9e565b600480546001600160a01b0319166001600160a01b0392831617815560015460408051631b776b6960e21b815290519190931692636dddada492818101926020929091908290030181865afa158015611d5f573d5f5f3e3d5ffd5b505050506040513d601f19601f82011682018060405250810190611d839190614c9e565b600580546001600160a01b0319166001600160a01b0392831617905560015460408051630e0c586d60e01b815290519190921691630e0c586d9160048083019260209291908290030181865afa158015611ddf573d5f5f3e3d5ffd5b505050506040513d601f19601f82011682018060405250810190611e039190614c9e565b600680546001600160a01b0319166001600160a01b03928316179055600154604080516320967dc560e01b8152905191909216916320967dc59160048083019260209291908290030181865afa158015611e5f573d5f5f3e3d5ffd5b505050506040513d601f19601f82011682018060405250810190611e839190614c9e565b600780546001600160a01b0319166001600160a01b039283161790555f5461010090041663d39e6043600e60015f9054906101000a90046001600160a01b03166001600160a01b03166376b707b76040518163ffffffff1660e01b8152600401602060405180830381865afa158015611efe573d5f5f3e3d5ffd5b505050506040513d601f19601f82011682018060405250810190611f229190614a60565b6040516001600160e01b031960e085901b16815260ff928316600482015291166024820152604401602060405180830381865afa158015611f65573d5f5f3e3d5ffd5b505050506040513d601f19601f82011682018060405250810190611f899190614c9e565b600880546001600160a01b0319166001600160a01b039290921691909117905550565b611fb461379d565b60048054604051636a05a41360e01b81526001600160601b038516928101929092526001600160a01b031690636a05a413906024016101c060405180830381865afa158015612005573d5f5f3e3d5ffd5b505050506040513d601f19601f82011682018060405250810190610d8f91906151d8565b600554604051630dd7db2160e31b81526001600160601b0384166004820152602481018390525f916001600160a01b031690636ebed90890604401611841565b600254604051630e514c3560e31b8152600481018390525f916001600160a01b03169063728a61a890602401602060405180830381865afa1580156120b0573d5f5f3e3d5ffd5b505050506040513d601f19601f82011682018060405250810190610d8f9190614c9e565b60048054604051637d56159160e11b815261ffff8416928101929092526001600160601b03841660248301525f916001600160a01b03909116906309648a9d9073__$9e81531fe4994e01e99541f86b55500b4b$__9063faac2b22906044015b602060405180830381865af415801561214f573d5f5f3e3d5ffd5b505050506040513d601f19601f820116820180604052508101906121739190614a30565b6040518263ffffffff1660e01b815260040161219191815260200190565b602060405180830381865afa1580156121ac573d5f5f3e3d5ffd5b505050506040513d601f19601f82011682018060405250810190610e199190614a60565b600754604051633fa0bbc560e21b81526001600160601b03831660048201525f916001600160a01b03169063fe82ef1490602401610e54565b5f610d8f61054283613675565b5f8054600154604051632f2a35f760e11b81526001600160a01b0391821660048201526101009092041690635e546bee90602401602060405180830381865afa158015612265573d5f5f3e3d5ffd5b505050506040513d601f19601f8201168201806040525081019061141c91906149ed565b600254604051637f0cf94760e01b81526001600160401b03841660048201526001600160a01b0383811660248301525f921690637f0cf94790604401610dda565b5f5460ff16156122ed5760405163ae9eff1b60e01b815260040160405180910390fd5b6122f633611ad4565b565b604051630f37f38f60e41b81526001600160401b03821660048201525f90610d8f9073__$b4c16f233b92c2c4124fb22a521f86c95b$__9063f37f38f090602401602060405180830381865af4158015612354573d5f5f3e3d5ffd5b505050506040513d601f19601f820116820180604052508101906105429190614a30565b6002546040516343e39f2d60e11b81526001600160401b03831660048201525f916001600160a01b0316906387c73e5a906024016117c5565b60408051606080820183525f80835260208301528183015260048054925163887b1fa960e01b815291926001600160a01b03169163887b1fa9916123f791869101613a79565b5f60405180830381865afa158015612411573d5f5f3e3d5ffd5b505050506040513d5f823e601f3d908101601f19168201604052610d8f9190810190615269565b600354604051638eb9000d60e01b81526001600160601b03831660048201525f916001600160a01b031690638eb9000d90602401610d50565b6004545f906001600160a01b03166309648a9d61248d846136d1565b6040518263ffffffff1660e01b8152600401610ec091815260200190565b6005546040516394b9929b60e01b81526001600160601b03831660048201525f916001600160a01b0316906394b9929b90602401610e54565b600254604051634e56802960e11b81525f9182916001600160a01b0390911690639cad005290612518908690600401614375565b6040805180830381865afa158015612532573d5f5f3e3d5ffd5b505050506040513d601f19601f8201168201806040525081019061255691906152f9565b91509150915091565b60075460405163717b02bf60e01b81526001600160601b0384166004820152602481018390525f916001600160a01b03169063717b02bf90604401602060405180830381865afa1580156125b5573d5f5f3e3d5ffd5b505050506040513d601f19601f82011682018060405250810190610e199190614f8c565b60035460405163f0ea17c360e01b81526001600160601b03831660048201525f9182916001600160a01b039091169063f0ea17c3906024015f60405180830381865afa15801561262b573d5f5f3e3d5ffd5b505050506040513d5f823e601f3d908101601f19168201604052612652919081019061532c565b60208101519091506001600160a01b0316156118e1576020015192915050565b604080516060810182525f8082526020820181905291810191909152604051634b00e98f60e11b8152600481018390525f9073__$4b9aaffa8d044614668dad578b824b8eee$__90639601d31e90602401602060405180830381865af41580156126de573d5f5f3e3d5ffd5b505050506040513d601f19601f820116820180604052508101906127029190614a60565b905060ff8116600c03612779576004805460405163296586d360e21b81529182018590526001600160a01b03169063a5961b4c906024015b606060405180830381865afa158015612755573d5f5f3e3d5ffd5b505050506040513d601f19601f82011682018060405250810190610e1991906153ad565b60ff81166029036127b3576004805460405163296586d360e21b81529182018590526001600160a01b03169063a5961b4c9060240161273a565b60ff8116602c036127ed576004805460405163296586d360e21b81529182018590526001600160a01b03169063a5961b4c9060240161273a565b60ff8116601503612827576004805460405163296586d360e21b81529182018590526001600160a01b03169063a5961b4c9060240161273a565b60ff8116602b03612861576004805460405163296586d360e21b81529182018590526001600160a01b03169063a5961b4c9060240161273a565b60ff8116602d0361289b576004805460405163296586d360e21b81529182018590526001600160a01b03169063a5961b4c9060240161273a565b60ff8116602e036128d5576004805460405163296586d360e21b81529182018590526001600160a01b03169063a5961b4c9060240161273a565b60035460405163296586d360e21b8152600481018590526001600160a01b039091169063a5961b4c9060240161273a565b6040805160e0810182525f808252602082018190528183018190526060808301829052608083019190915260a0820181905260c082015260048054925163a7ef3d2160e01b81526001600160601b0386169181019190915261ffff8416602482015290916001600160a01b03169063a7ef3d21906044015f60405180830381865afa158015612997573d5f5f3e3d5ffd5b505050506040513d5f823e601f3d908101601f19168201604052610e19919081019061540c565b604051631623433d60e31b81526004810182905260609073__$9a094f9b231ed0f5f85a69be8408d93180$__9063b11a19e8906024015f60405180830381865af4158015612a0e573d5f5f3e3d5ffd5b505050506040513d5f823e601f3d908101601f19168201604052610d8f91908101906154f5565b5f8054819061010090046001600160a01b031663d39e6043600e60015f9054906101000a90046001600160a01b03166001600160a01b03166376b707b76040518163ffffffff1660e01b8152600401602060405180830381865afa158015612a9f573d5f5f3e3d5ffd5b505050506040513d601f19601f82011682018060405250810190612ac39190614a60565b6040516001600160e01b031960e085901b16815260ff928316600482015291166024820152604401602060405180830381865afa158015612b06573d5f5f3e3d5ffd5b505050506040513d601f19601f82011682018060405250810190612b2a9190614c9e565b60405163eed2831560e01b81523060048201526001600160c01b0319851660248201526001600160a01b03919091169063eed28315906044016040805180830381865afa158015612b7d573d5f5f3e3d5ffd5b505050506040513d601f19601f820116820180604052508101906125569190615526565b600154604051632e76c56d60e21b8152600481018390525f916001600160a01b03169063b9db15b490602401610d50565b60405163034159f960e41b81523060048201526001600160601b03821660248201525f9073__$d4f8ac2ac7f53dfb2fb9ff92adbd6d29df$__906334159f9090604401602060405180830381865af41580156117e0573d5f5f3e3d5ffd5b60408051610200810182525f8082526020820181905281830181905260608083018290526080830182905260a0830182905260c0830182905260e08301829052610100830182905261012083018290526101408301829052610160830182905261018083018290526101a08301919091526101c082018190526101e082015260048054925163bd7d9d8560e01b81526001600160601b0385169181019190915290916001600160a01b03169063bd7d9d85906024015f60405180830381865afa158015612cff573d5f5f3e3d5ffd5b505050506040513d5f823e601f3d908101601f19168201604052610d8f919081019061555e565b600754604051627c145760e01b81526001600160601b03841660048201526001600160401b03831660248201525f916001600160a01b031690627c145790604401610dda565b60025460405163c6a0017960e01b81526001600160401b03831660048201525f916001600160a01b03169063c6a00179906024016117c5565b6001546040805163c71e261f60e01b815290515f926001600160a01b03169163c71e261f9160048083019260209291908290030181865afa1580156113f8573d5f5f3e3d5ffd5b6004545f906001600160a01b03166309648a9d61248d846136fd565b60408051610140810182525f8082526020820181905281830181905260608083018290526080830182905260a0830182905260c0830182905260e0830191909152610100820181905261012082015260035491516368322c6360e11b815290916001600160a01b03169063d06458c690612e86908590600401613a79565b5f60405180830381865afa158015612ea0573d5f5f3e3d5ffd5b505050506040513d5f823e601f3d908101601f19168201604052610d8f91908101906156f1565b5f61141c613729565b60025460405163d78a83b160e01b81526001600160401b0384166004820152602481018390525f916001600160a01b03169063d78a83b190604401602060405180830381865afa15801561116d573d5f5f3e3d5ffd5b6005546040516336dc0d5360e21b81526001600160601b0384166004820152602481018390525f916001600160a01b03169063db70354c90604401611841565b60055460405163dbacaaaf60e01b81526001600160601b0384166004820152602481018390525f916001600160a01b03169063dbacaaaf90604401611841565b5f5f612fb1836125d9565b90506001600160a01b038116156118e157806001600160a01b03166382bfefc86040518163ffffffff1660e01b8152600401602060405180830381865afa15801561116d573d5f5f3e3d5ffd5b60405163e2eb023b60e01b81526001600160a01b03821660048201525f9073__$bf7bc340cbb9229ef1de2c568356e67902$__9063e2eb023b906024015b602060405180830381865af4158015610e6f573d5f5f3e3d5ffd5b60408051610240810182525f80825260208201819052818301819052606082018190526080820181905260a0820181905260c0820181905260e08201819052610100820181905261012082018190526101408201819052610160820181905261018082018190526101a082018190526101c082018190526101e08201819052610200820181905261022082015260048054925163e444c3df60e01b81526001600160601b0385169181019190915290916001600160a01b03169063e444c3df9060240161024060405180830381865afa158015613136573d5f5f3e3d5ffd5b505050506040513d601f19601f82011682018060405250810190610d8f9190615812565b5f73__$0f9396e6447a4be57af83e53f51d234633$__6359fad7ca84613181856001615988565b6040516001600160e01b031960e085901b16815261ffff909216600483015262ffffff166024820152604401602060405180830381865af41580156131c8573d5f5f3e3d5ffd5b505050506040513d601f19601f82011682018060405250810190610e1991906159a3565b6008546040516309741ce160e21b81526001600160601b03841660048201526001600160c01b0319831660248201525f916001600160a01b0316906325d0738490604401610dda565b604080518082018252606081525f6020820152600354915163f0ea17c360e01b81526001600160601b038416600482015290916001600160a01b03169063f0ea17c3906024015f60405180830381865afa158015613295573d5f5f3e3d5ffd5b505050506040513d5f823e601f3d908101601f19168201604052610d8f919081019061532c565b6005546040516322cc1d4560e11b81526001600160601b03831660048201525f916001600160a01b0316906345983a8a90602401610e54565b60048054604051632867b75960e21b815264ffffffffff8416928101929092526001600160601b03841660248301525f916001600160a01b03909116906309648a9d9073__$0f9396e6447a4be57af83e53f51d234633$__9063a19edd6490604401612134565b60065460405163f4809edd60e01b81526001600160601b0384166004820152602481018390525f916001600160a01b03169063f4809edd90604401611007565b5f73__$9e81531fe4994e01e99541f86b55500b4b$__639cc45a366133c28460016159be565b6040518263ffffffff1660e01b81526004016133e091815260200190565b602060405180830381865af41580156133fb573d5f5f3e3d5ffd5b505050506040513d601f19601f82011682018060405250810190610d8f91906159d1565b600480546040516355ee627560e01b81525f926001600160a01b03909216916309648a9d9173__$32e9ecefef68cb354d118e0496fdd3f4bc$__916355ee627591613476916001600160c01b031989169101613a79565b602060405180830381865af4158015613491573d5f5f3e3d5ffd5b505050506040513d601f19601f8201168201806040525081019061248d9190614a30565b6040805160a0810182525f808252602082018190528183018190526060808301919091526080820152600480549251637ec0124960e11b81526001600160601b0386169181019190915264ffffffffff8416602482015290916001600160a01b03169063fd802492906044015f60405180830381865afa15801561353b573d5f5f3e3d5ffd5b505050506040513d5f823e601f3d908101601f19168201604052610e1991908101906159ec565b60408051610100810182525f808252602082018190528183018190526060808301829052608083019190915260a0820181905260c0820181905260e0820152600354915163febe92af60e01b81526001600160401b038416600482015290916001600160a01b03169063febe92af906024015f60405180830381865afa1580156135ee573d5f5f3e3d5ffd5b505050506040513d5f823e601f3d908101601f19168201604052610d8f9190810190615aa2565b6040516363cf551160e11b81526001600160601b038084166004830152821660248201525f9073__$3bac17678db7ae928afa209f2f44deec9c$__9063c79eaa2290604401602060405180830381865af415801561185c573d5f5f3e3d5ffd5b5f73__$94a2c899be079b00d952d0d84fffaa5c34$__633889a4c86001600160601b03841660165b6040516001600160e01b031960e085901b1681526001600160601b03909216600483015260ff16602482015260440161303c565b5f73__$94a2c899be079b00d952d0d84fffaa5c34$__633889a4c86001600160601b038416601561369d565b5f73__$94a2c899be079b00d952d0d84fffaa5c34$__633889a4c86001600160601b038416602b61369d565b6040516368aebf7b60e01b8152600560048201525f9073__$1d92393fa9ccd763988368ce8a1cb90d26$__906368aebf7b90602401602060405180830381865af4158015613779573d5f5f3e3d5ffd5b505050506040513d601f19601f8201168201806040525081019061141c9190614f8c565b6040805161012081019091525f60e08201818152610100830191909152819081526020016137da604080518082019091525f808252602082015290565b81526020016137f8604080518082019091525f808252602082015290565b8152602001613816604080518082019091525f808252602082015290565b8152602001613834604080518082019091525f808252602082015290565b8152602001613852604080518082019091525f808252602082015290565b8152602001613870604080518082019091525f808252602082015290565b905290565b6001600160601b0381168114613889575f5ffd5b50565b5f6020828403121561389c575f5ffd5b8135610e1981613875565b6001600160c01b031981168114613889575f5ffd5b5f5f604083850312156138cd575f5ffd5b82356138d881613875565b915060208301356138e8816138a7565b809150509250929050565b6001600160401b0381168114613889575f5ffd5b5f60208284031215613917575f5ffd5b8135610e19816138f3565b5f60208284031215613932575f5ffd5b5035919050565b5f8151808452602084019350602083015f5b828110156139725781516001600160601b031686526020958601959091019060010161394b565b5093949350505050565b602081528151151560208201526020820151151560408201525f60408301516139a9606084018215159052565b50606083015160ff8116608084015250608083015160ff811660a08401525060a08301516001600160601b03811660c08401525060c08301516001600160601b03811660e08401525060e083015161010080840152613a0c610120840182613939565b949350505050565b61ffff81168114613889575f5ffd5b5f5f60408385031215613a34575f5ffd5b8235613a3f81613875565b915060208301356138e881613a14565b5f5f60408385031215613a60575f5ffd5b8235613a6b81613875565b946020939093013593505050565b6001600160c01b031991909116815260200190565b6001600160a01b0381168114613889575f5ffd5b5f60208284031215613ab2575f5ffd5b8135610e1981613a8e565b60088110613ad957634e487b7160e01b5f52602160045260245ffd5b9052565b8151815260208083015160a0830191613af890840182613abd565b506001600160401b03604084015116604083015264ffffffffff606084015116606083015264ffffffffff608084015116608083015292915050565b5f5f60408385031215613b45575f5ffd5b8235915060208301355f81900b81146138e8575f5ffd5b6001600160e01b031981168114613889575f5ffd5b634e487b7160e01b5f52604160045260245ffd5b60405161010081016001600160401b0381118282101715613ba857613ba8613b71565b60405290565b60405160a081016001600160401b0381118282101715613ba857613ba8613b71565b604051608081016001600160401b0381118282101715613ba857613ba8613b71565b604080519081016001600160401b0381118282101715613ba857613ba8613b71565b60405160c081016001600160401b0381118282101715613ba857613ba8613b71565b60405160e081016001600160401b0381118282101715613ba857613ba8613b71565b604051606081016001600160401b0381118282101715613ba857613ba8613b71565b60405161020081016001600160401b0381118282101715613ba857613ba8613b71565b60405161014081016001600160401b0381118282101715613ba857613ba8613b71565b60405161024081016001600160401b0381118282101715613ba857613ba8613b71565b604051601f8201601f191681016001600160401b0381118282101715613d0b57613d0b613b71565b604052919050565b5f6001600160401b03821115613d2b57613d2b613b71565b50601f01601f191660200190565b5f82601f830112613d48575f5ffd5b8135613d5b613d5682613d13565b613ce3565b818152846020838601011115613d6f575f5ffd5b816020850160208301375f918101602001919091529392505050565b5f5f60408385031215613d9c575f5ffd5b8235613da781613b5c565b915060208301356001600160401b03811115613dc1575f5ffd5b613dcd85828601613d39565b9150509250929050565b60808101610d8f82848051825263ffffffff60e01b602082015116602083015264ffffffffff604082015116604083015264ffffffffff60608201511660608301525050565b5f60208284031215613e2d575f5ffd5b8135610e19816138a7565b5f81518084528060208401602086015e5f602082860101526020601f19601f83011685010191505092915050565b602081526001600160601b0382511660208201525f6020830151613e9560408401826001600160601b03169052565b50604083015163ffffffff8116606084015250606083015163ffffffff811660808401525060808301516001600160a01b03811660a08401525060a083015164ffffffffff811660c08401525060c083015161010060e0840152613efd610120840182613e38565b905060e0840151601f1984830301610100850152613f1b8282613e38565b95945050505050565b5f5f60408385031215613f35575f5ffd5b8235613a6b81613a8e565b60a08101613f8682858051825263ffffffff60e01b602082015116602083015264ffffffffff604082015116604083015264ffffffffff60608201511660608301525050565b6001600160401b03831660808301529392505050565b602081526001600160401b0360c01b825116602082015260208201511515604082015263ffffffff60408301511660608201525f6060830151608080840152613a0c60a0840182613e38565b5f5f60408385031215613ff9575f5ffd5b8235613da781613875565b80516001600160a01b031682526020908101516001600160601b0316910152565b6020815264ffffffffff825116602082015264ffffffffff602083015116604082015264ffffffffff60408301511660608201526001600160601b0360608301511660808201525f608083015161407f60a0840182614004565b5060a083015160e080840152613a0c610100840182613e38565b5f5f604083850312156140aa575f5ffd5b82356140b5816138f3565b915060208301356138e881613a8e565b5f5f604083850312156140d6575f5ffd5b8235613a6b816138a7565b5f60e0820190506001600160601b03835116825260018060a01b03602084015116602083015260018060a01b0360408401511660408301526060830151151560608301526080830151614138608084018215159052565b5060a083015161414c60a084018215159052565b5060c083015161416060c084018215159052565b5092915050565b81516001600160401b0316815260208083015160e083019161418b90840182613abd565b5063ffffffff604084015116604083015264ffffffffff606084015116606083015264ffffffffff608084015116608083015260a08301516141d660a084018264ffffffffff169052565b5060c092830151919092015290565b5f6101c0820190506141f8828451614004565b602083015161420a6040840182614004565b50604083015161421d6080840182614004565b50606083015161423060c0840182614004565b506080830151614244610100840182614004565b5060a0830151614258610140840182614004565b5060c0830151614160610180840182614004565b602081526001600160601b03825116602082015264ffffffffff60208301511660408201525f6040830151606080840152613a0c6080840182613e38565b5f602082840312156142ba575f5ffd5b81356001600160401b038111156142cf575f5ffd5b613a0c84828501613d39565b602081526001600160601b0382511660208201526001600160601b0360208301511660408201525f604083015161431b606084018264ffffffffff169052565b50606083015162ffffff8116608084015250608083015162ffffff811660a08401525060a083015160e060c0840152614358610100840182613e38565b905060c0840151601f198483030160e0850152613f1b8282613e38565b602081525f610e196020830184613e38565b602081526143a16020820183516001600160601b03169052565b5f60208301516143bc60408401826001600160601b03169052565b5060408301516001600160c01b0319811660608401525060608301516001600160601b03811660808401525060808301516001600160601b03811660a08401525060a08301516001600160c01b0319811660c08401525060c083015161ffff811660e08401525060e083015161ffff8116610100840152506101008301516001600160601b038116610120840152506101208301516001600160601b0381166101408401525061014083015164ffffffffff81166101608401525061016083015164ffffffffff81166101808401525061018083015164ffffffffff81166101a0840152506101a083015164ffffffffff81166101c0840152506101c08301516102006101e08401526144d3610220840182613e38565b90506101e0840151601f1984830301610200850152613f1b8282613e38565b5f5f60408385031215614503575f5ffd5b823561450e81613875565b915060208301356138e8816138f3565b602081526145386020820183516001600160a01b03169052565b5f602083015161455360408401826001600160601b03169052565b5060408301516001600160a01b038116606084015250606083015163ffffffff8116608084015250608083015164ffffffffff811660a08401525060a083015180151560c08401525060c083015180151560e08401525060e08301516001600160a01b038116610100840152506101008301516101406101208401526145dd610160840182613e38565b9050610120840151601f1984830301610140850152613f1b8282613e38565b5f5f6040838503121561460d575f5ffd5b8235613a6b816138f3565b81516001600160601b031681526102408101602083015161464460208401826001600160601b03169052565b50604083015161465f60408401826001600160601b03169052565b50606083015161467a60608401826001600160601b03169052565b50608083015161469560808401826001600160601b03169052565b5060a08301516146b060a08401826001600160601b03169052565b5060c08301516146cb60c08401826001600160601b03169052565b5060e08301516146e660e08401826001600160601b03169052565b506101008301516147036101008401826001600160601b03169052565b506101208301516147206101208401826001600160601b03169052565b5061014083015161473d6101408401826001600160601b03169052565b5061016083015161475a6101608401826001600160601b03169052565b506101808301516147776101808401826001600160601b03169052565b506101a08301516147946101a08401826001600160601b03169052565b506101c08301516147b16101c08401826001600160601b03169052565b506101e08301516147ce6101e08401826001600160601b03169052565b506102008301516147eb6102008401826001600160601b03169052565b506102208301516141606102208401826001600160601b03169052565b62ffffff81168114613889575f5ffd5b5f5f60408385031215614829575f5ffd5b823561483481613a14565b915060208301356138e881614808565b602081525f82516040602084015261485f6060840182613e38565b602094909401516001600160a01b0316604093909301929092525090919050565b64ffffffffff81168114613889575f5ffd5b5f5f604083850312156148a3575f5ffd5b82356148ae81613875565b915060208301356138e881614880565b6020815261ffff82511660208201526001600160601b03602083015116604082015264ffffffffff604083015116606082015260018060a01b0360608301511660808201525f608083015160a080840152613a0c60c0840182613e38565b602081526149366020820183516001600160601b03169052565b5f602083015161495160408401826001600160601b03169052565b506040830151801515606084015250606083015164ffffffffff8116608084015250608083015164ffffffffff811660a08401525060a083015161010060c08401526149a1610120840182613e38565b905060c0840151601f198483030160e08501526149be8282613e38565b91505060e0840151601f1984830301610100850152613f1b8282613e38565b80516149e881613875565b919050565b5f602082840312156149fd575f5ffd5b8151610e1981613875565b805180151581146149e8575f5ffd5b5f60208284031215614a27575f5ffd5b610e1982614a08565b5f60208284031215614a40575f5ffd5b5051919050565b60ff81168114613889575f5ffd5b80516149e881614a47565b5f60208284031215614a70575f5ffd5b8151610e1981614a47565b5f82601f830112614a8a575f5ffd5b81516001600160401b03811115614aa357614aa3613b71565b8060051b614ab360208201613ce3565b91825260208185018101929081019086841115614ace575f5ffd5b6020860192505b83831015614af9578251614ae881613875565b825260209283019290910190614ad5565b9695505050505050565b5f60208284031215614b13575f5ffd5b81516001600160401b03811115614b28575f5ffd5b82016101008185031215614b3a575f5ffd5b614b42613b85565b614b4b82614a08565b8152614b5960208301614a08565b6020820152614b6a60408301614a08565b6040820152614b7b60608301614a55565b6060820152614b8c60808301614a55565b6080820152614b9d60a083016149dd565b60a0820152614bae60c083016149dd565b60c082015260e08201516001600160401b03811115614bcb575f5ffd5b614bd786828501614a7b565b60e083015250949350505050565b80516149e8816138a7565b5f60208284031215614c00575f5ffd5b8151610e19816138a7565b8051600881106149e8575f5ffd5b80516149e881614880565b5f60a0828403128015614c35575f5ffd5b50614c3e613bae565b82518152614c4e60208401614c0b565b60208201526040830151614c61816138f3565b60408201526060830151614c7481614880565b60608201526080830151614c8781614880565b60808201529392505050565b80516149e881613a8e565b5f60208284031215614cae575f5ffd5b8151610e1981613a8e565b63ffffffff60e01b83168152604060208201525f613a0c6040830184613e38565b5f60808284031215614cea575f5ffd5b614cf2613bd0565b825181526020830151909150614d0781613b5c565b60208201526040820151614d1a81614880565b60408201526060820151614d2d81614880565b606082015292915050565b5f60808284031215614d48575f5ffd5b610e198383614cda565b805163ffffffff811681146149e8575f5ffd5b5f82601f830112614d74575f5ffd5b8151602083015f614d87613d5684613d13565b9050828152858383011115614d9a575f5ffd5b8282602083015e5f92810160200192909252509392505050565b5f60208284031215614dc4575f5ffd5b81516001600160401b03811115614dd9575f5ffd5b82016101008185031215614deb575f5ffd5b614df3613b85565b614dfc826149dd565b8152614e0a602083016149dd565b6020820152614e1b60408301614d52565b6040820152614e2c60608301614d52565b6060820152614e3d60808301614c93565b6080820152614e4e60a08301614c19565b60a082015260c08201516001600160401b03811115614e6b575f5ffd5b614e7786828501614d65565b60c08301525060e08201516001600160401b03811115614e95575f5ffd5b614bd786828501614d65565b5f5f60a08385031215614eb2575f5ffd5b614ebc8484614cda565b915060808301516138e8816138f3565b5f60208284031215614edc575f5ffd5b81516001600160401b03811115614ef1575f5ffd5b820160808185031215614f02575f5ffd5b614f0a613bd0565b8151614f15816138a7565b8152614f2360208301614a08565b6020820152614f3460408301614d52565b604082015260608201516001600160401b03811115614f51575f5ffd5b614f5d86828501614d65565b606083015250949350505050565b6001600160601b0383168152604060208201525f613a0c6040830184613e38565b5f60208284031215614f9c575f5ffd5b8151610e19816138f3565b5f60408284031215614fb7575f5ffd5b614fbf613bf2565b90508151614fcc81613a8e565b81526020820151614fdc81613875565b602082015292915050565b5f60208284031215614ff7575f5ffd5b81516001600160401b0381111561500c575f5ffd5b820160e0818503121561501d575f5ffd5b615025613c14565b815161503081614880565b8152602082015161504081614880565b602082015261505160408301614c19565b6040820152615062606083016149dd565b60608201526150748560808401614fa7565b608082015260c08201516001600160401b03811115615091575f5ffd5b61509d86828501614d65565b60a083015250949350505050565b5f60e08284031280156150bc575f5ffd5b506150c5613c36565b82516150d081613875565b815260208301516150e081613a8e565b602082015260408301516150f381613a8e565b604082015261510460608401614a08565b606082015261511560808401614a08565b608082015261512660a08401614a08565b60a082015261513760c08401614a08565b60c08201529392505050565b5f60e0828403128015615154575f5ffd5b5061515d613c36565b8251615168816138f3565b815261517660208401614c0b565b602082015261518760408401614d52565b6040820152606083015161519a81614880565b606082015260808301516151ad81614880565b608082015260a08301516151c081614880565b60a082015260c0928301519281019290925250919050565b5f6101c08284031280156151ea575f5ffd5b506151f3613c36565b6151fd8484614fa7565b815261520c8460408501614fa7565b602082015261521e8460808501614fa7565b60408201526152308460c08501614fa7565b6060820152615243846101008501614fa7565b6080820152615256846101408501614fa7565b60a0820152615137846101808501614fa7565b5f60208284031215615279575f5ffd5b81516001600160401b0381111561528e575f5ffd5b82016060818503121561529f575f5ffd5b6152a7613c58565b81516152b281613875565b815260208201516152c281614880565b602082015260408201516001600160401b038111156152df575f5ffd5b6152eb86828501614d65565b604083015250949350505050565b5f5f6040838503121561530a575f5ffd5b8251615315816138f3565b915061532360208401614a08565b90509250929050565b5f6020828403121561533c575f5ffd5b81516001600160401b03811115615351575f5ffd5b820160408185031215615362575f5ffd5b61536a613bf2565b81516001600160401b0381111561537f575f5ffd5b61538b86828501614d65565b8252506020820151915061539e82613a8e565b60208101919091529392505050565b5f60608284031280156153be575f5ffd5b506153c7613c58565b82516153d281614a47565b815260208301516153e281614a47565b602082015260408301516153f581614880565b60408201529392505050565b80516149e881614808565b5f6020828403121561541c575f5ffd5b81516001600160401b03811115615431575f5ffd5b820160e08185031215615442575f5ffd5b61544a613c36565b615453826149dd565b8152615461602083016149dd565b602082015261547260408301614c19565b604082015261548360608301615401565b606082015261549460808301615401565b608082015260a08201516001600160401b038111156154b1575f5ffd5b6154bd86828501614d65565b60a08301525060c08201516001600160401b038111156154db575f5ffd5b6154e786828501614d65565b60c083015250949350505050565b5f60208284031215615505575f5ffd5b81516001600160401b0381111561551a575f5ffd5b613a0c84828501614d65565b5f5f60408385031215615537575f5ffd5b825161554281613a8e565b60208401519092506138e881614a47565b80516149e881613a14565b5f6020828403121561556e575f5ffd5b81516001600160401b03811115615583575f5ffd5b82016102008185031215615595575f5ffd5b61559d613c7a565b6155a6826149dd565b81526155b4602083016149dd565b60208201526155c560408301614be5565b60408201526155d6606083016149dd565b60608201526155e7608083016149dd565b60808201526155f860a08301614be5565b60a082015261560960c08301615553565b60c082015261561a60e08301615553565b60e082015261562c61010083016149dd565b61010082015261563f61012083016149dd565b6101208201526156526101408301614c19565b6101408201526156656101608301614c19565b6101608201526156786101808301614c19565b61018082015261568b6101a08301614c19565b6101a08201526101c08201516001600160401b038111156156aa575f5ffd5b6156b686828501614d65565b6101c0830152506101e08201516001600160401b038111156156d6575f5ffd5b6156e286828501614d65565b6101e083015250949350505050565b5f60208284031215615701575f5ffd5b81516001600160401b03811115615716575f5ffd5b82016101408185031215615728575f5ffd5b615730613c9d565b61573982614c93565b8152615747602083016149dd565b602082015261575860408301614c93565b604082015261576960608301614d52565b606082015261577a60808301614c19565b608082015261578b60a08301614a08565b60a082015261579c60c08301614a08565b60c08201526157ad60e08301614c93565b60e08201526101008201516001600160401b038111156157cb575f5ffd5b6157d786828501614d65565b610100830152506101208201516001600160401b038111156157f7575f5ffd5b61580386828501614d65565b61012083015250949350505050565b5f610240828403128015615824575f5ffd5b5061582d613cc0565b615836836149dd565b8152615844602084016149dd565b6020820152615855604084016149dd565b6040820152615866606084016149dd565b6060820152615877608084016149dd565b608082015261588860a084016149dd565b60a082015261589960c084016149dd565b60c08201526158aa60e084016149dd565b60e08201526158bc61010084016149dd565b6101008201526158cf61012084016149dd565b6101208201526158e261014084016149dd565b6101408201526158f561016084016149dd565b61016082015261590861018084016149dd565b61018082015261591b6101a084016149dd565b6101a082015261592e6101c084016149dd565b6101c08201526159416101e084016149dd565b6101e082015261595461020084016149dd565b61020082015261596761022084016149dd565b6102208201529392505050565b634e487b7160e01b5f52601160045260245ffd5b62ffffff8181168382160190811115610d8f57610d8f615974565b5f602082840312156159b3575f5ffd5b8151610e1981614880565b80820180821115610d8f57610d8f615974565b5f602082840312156159e1575f5ffd5b8151610e1981613a14565b5f602082840312156159fc575f5ffd5b81516001600160401b03811115615a11575f5ffd5b820160a08185031215615a22575f5ffd5b615a2a613bae565b8151615a3581613a14565b81526020820151615a4581613875565b60208201526040820151615a5881614880565b60408201526060820151615a6b81613a8e565b606082015260808201516001600160401b03811115615a88575f5ffd5b615a9486828501614d65565b608083015250949350505050565b5f60208284031215615ab2575f5ffd5b81516001600160401b03811115615ac7575f5ffd5b82016101008185031215615ad9575f5ffd5b615ae1613b85565b615aea826149dd565b8152615af8602083016149dd565b6020820152615b0960408301614a08565b6040820152615b1a60608301614c19565b6060820152615b2b60808301614c19565b608082015260a08201516001600160401b03811115615b48575f5ffd5b615b5486828501614d65565b60a08301525060c08201516001600160401b03811115614e6b575f5ffdfea2646970667358221220062e02430b4e134b8fe452c3239bd65f1715e420128c4fa3bed8e48da63e7bd064736f6c634300081b0033","linkReferences":{"contracts/authorization/AccessAdminLib.sol":{"AccessAdminLib":[{"start":4580,"length":20}]},"contracts/product/PolicyServiceLib.sol":{"PolicyServiceLib":[{"start":11293,"length":20}]},"contracts/type/Amount.sol":{"AmountLib":[{"start":13922,"length":20}]},"contracts/type/ClaimId.sol":{"ClaimIdLib":[{"start":8507,"length":20},{"start":13252,"length":20}]},"contracts/type/Key32.sol":{"Key32Lib":[{"start":9931,"length":20}]},"contracts/type/NftId.sol":{"NftIdLib":[{"start":13981,"length":20},{"start":14073,"length":20},{"start":14117,"length":20}]},"contracts/type/PayoutId.sol":{"PayoutIdLib":[{"start":12674,"length":20},{"start":13151,"length":20}]},"contracts/type/Referral.sol":{"ReferralLib":[{"start":5640,"length":20}]},"contracts/type/RequestId.sol":{"RequestIdLib":[{"start":9025,"length":20}]},"contracts/type/RiskId.sol":{"RiskIdLib":[{"start":13419,"length":20}]},"contracts/type/RoleId.sol":{"RoleIdLib":[{"start":14182,"length":20}]},"contracts/type/String.sol":{"StrLib":[{"start":10748,"length":20}]},"contracts/type/UFixed.sol":{"UFixedLib":[{"start":4442,"length":20},{"start":12355,"length":20}]}}},"methodIdentifiers":{"activeBundles(uint96)":"94b9929b","activeRisks(uint96)":"2f458a11","authorizedFunctions(address)":"35471f80","bundles(uint96)":"13ab148d","claims(uint96)":"3b046f09","getActiveBundleNftId(uint96,uint256)":"6ebed908","getActiveRequestAt(uint96,uint256)":"9fb07a40","getActiveRequests(uint96)":"7966dcbc","getActiveRiskId(uint96,uint256)":"128817d4","getAuthorizedFunction(address,uint256)":"24913ce6","getBalanceAmount(uint96)":"228e42ec","getBundleInfo(uint96)":"4793b4ab","getBundleNftId(uint96,uint256)":"db70354c","getBundleSet()":"6dddada4","getBundleState(uint96)":"7d8f1e81","getClaimId(uint256)":"fad77c3b","getClaimInfo(uint96,uint16)":"a7ef3d21","getClaimState(uint96,uint16)":"78ae9350","getComponentInfo(uint96)":"f0ea17c3","getDiscountPercentage(bytes8)":"b82d7ef5","getDistributorInfo(uint96)":"27b1d792","getDistributorTypeInfo(bytes8)":"d06458c6","getFeeAmount(uint96)":"0232ca49","getFeeInfo(uint96)":"6a05a413","getInstance()":"de7b5d14","getInstanceAdmin()":"311adb68","getInstanceNftId()":"7e798669","getInstanceOwnerRole()":"d299bf62","getLockedAmount(uint96)":"8eb9000d","getMetadata(bytes32)":"a5961b4c","getPayoutId(uint16,uint24)":"e98413ff","getPayoutInfo(uint96,uint40)":"fd802492","getPayoutState(uint96,uint40)":"f3ed9919","getPolicyForBundle(uint96,uint256)":"de49587d","getPolicyForRisk(bytes8,uint256)":"4bf73a1a","getPolicyInfo(uint96)":"bd7d9d85","getPolicyState(uint96)":"9096a1f3","getPoolInfo(uint96)":"57f80bbf","getPremiumInfo(uint96)":"e444c3df","getPremiumState(uint96)":"c88105e6","getProduct(uint256)":"b9db15b4","getProductInfo(uint96)":"0b5d931c","getReferralInfo(bytes8)":"1d3be477","getRegistry()":"5ab1bd53","getRemainingClaimableAmount(uint96)":"2c0cd060","getRequestInfo(uint64)":"febe92af","getRequestState(uint64)":"81bfd4cb","getRiskId(uint96,uint256)":"f4809edd","getRiskInfo(bytes8)":"887b1fa9","getRiskSet()":"0e0c586d","getRiskState(bytes8)":"fcad2c4b","getRoleForName(string)":"9cad0052","getRoleId(uint256)":"3fd85561","getRoleInfo(uint64)":"5bfa5027","getRoleMember(uint64,uint256)":"d78a83b1","getState(bytes32)":"09648a9d","getTargetAddress(uint256)":"728a61a8","getTargetInfo(address)":"12e1ebc5","getToken(uint96)":"dfbf1640","getTokenHandler(uint96)":"a310e2a3","getWallet(uint96)":"4d21a63d","initialize()":"8129fc1c","initializeWithInstance(address)":"6791f7ab","isLocked(address)":"4a4fbeec","isProductRisk(uint96,bytes8)":"028106fd","isReferralValid(uint96,bytes8)":"f0b1d210","isRequestActive(uint96,uint64)":"c1850f36","isRoleActive(uint64)":"66c3bc95","isRoleAdmin(uint64,address)":"480cebd1","isRoleCustom(uint64)":"87c73e5a","isRoleMember(uint64,address)":"7f0cf947","payouts(uint96,uint16)":"10bf267b","policiesForBundle(uint96)":"f1d8f89e","policiesForRisk(bytes8)":"6553994c","policyIsActive(uint96)":"ba579bdc","products()":"c71e261f","risks(uint96)":"33fc7dee","roleExists(uint64)":"c6a00179","roleMembers(uint64)":"03014974","roles()":"392f5f64","targetExists(address)":"605aa10a","targets()":"26d60fb4","toFunction(bytes4,string)":"15fb0abb","toInt(uint160)":"e2eb023b","toReferralId(uint96,string)":"3f093cd6","toString(bytes32)":"b11a19e8","toUFixed(uint256,int8)":"1488c845"},"id":58}