{"abi":[{"type":"function","name":"activate","inputs":[{"name":"riskId","type":"bytes8","internalType":"RiskId"}],"outputs":[],"stateMutability":"nonpayable"},{"type":"function","name":"activeRisks","inputs":[{"name":"productNftId","type":"uint96","internalType":"NftId"}],"outputs":[{"name":"","type":"uint256","internalType":"uint256"}],"stateMutability":"view"},{"type":"function","name":"add","inputs":[{"name":"riskId","type":"bytes8","internalType":"RiskId"}],"outputs":[],"stateMutability":"nonpayable"},{"type":"function","name":"authority","inputs":[],"outputs":[{"name":"","type":"address","internalType":"address"}],"stateMutability":"view"},{"type":"function","name":"checkRisk","inputs":[{"name":"productNftId","type":"uint96","internalType":"NftId"},{"name":"riskId","type":"bytes8","internalType":"RiskId"}],"outputs":[{"name":"exists","type":"bool","internalType":"bool"},{"name":"active","type":"bool","internalType":"bool"}],"stateMutability":"view"},{"type":"function","name":"deactivate","inputs":[{"name":"riskId","type":"bytes8","internalType":"RiskId"}],"outputs":[],"stateMutability":"nonpayable"},{"type":"function","name":"getActiveRiskId","inputs":[{"name":"productNftId","type":"uint96","internalType":"NftId"},{"name":"idx","type":"uint256","internalType":"uint256"}],"outputs":[{"name":"riskId","type":"bytes8","internalType":"RiskId"}],"stateMutability":"view"},{"type":"function","name":"getInstanceAddress","inputs":[],"outputs":[{"name":"","type":"address","internalType":"address"}],"stateMutability":"view"},{"type":"function","name":"getLinkedPolicyNftId","inputs":[{"name":"riskId","type":"bytes8","internalType":"RiskId"},{"name":"idx","type":"uint256","internalType":"uint256"}],"outputs":[{"name":"policyNftId","type":"uint96","internalType":"NftId"}],"stateMutability":"view"},{"type":"function","name":"getRegistry","inputs":[],"outputs":[{"name":"","type":"address","internalType":"contract IRegistry"}],"stateMutability":"view"},{"type":"function","name":"getRiskId","inputs":[{"name":"productNftId","type":"uint96","internalType":"NftId"},{"name":"idx","type":"uint256","internalType":"uint256"}],"outputs":[{"name":"riskId","type":"bytes8","internalType":"RiskId"}],"stateMutability":"view"},{"type":"function","name":"hasRisk","inputs":[{"name":"productNftId","type":"uint96","internalType":"NftId"},{"name":"riskId","type":"bytes8","internalType":"RiskId"}],"outputs":[{"name":"","type":"bool","internalType":"bool"}],"stateMutability":"view"},{"type":"function","name":"initialize","inputs":[{"name":"authority","type":"address","internalType":"address"},{"name":"registry","type":"address","internalType":"address"}],"outputs":[],"stateMutability":"nonpayable"},{"type":"function","name":"isConsumingScheduledOp","inputs":[],"outputs":[{"name":"","type":"bytes4","internalType":"bytes4"}],"stateMutability":"view"},{"type":"function","name":"linkPolicy","inputs":[{"name":"productNftId","type":"uint96","internalType":"NftId"},{"name":"riskId","type":"bytes8","internalType":"RiskId"},{"name":"policyNftId","type":"uint96","internalType":"NftId"}],"outputs":[],"stateMutability":"nonpayable"},{"type":"function","name":"linkedPolicies","inputs":[{"name":"riskId","type":"bytes8","internalType":"RiskId"}],"outputs":[{"name":"","type":"uint256","internalType":"uint256"}],"stateMutability":"view"},{"type":"function","name":"risks","inputs":[{"name":"productNftId","type":"uint96","internalType":"NftId"}],"outputs":[{"name":"","type":"uint256","internalType":"uint256"}],"stateMutability":"view"},{"type":"function","name":"setAuthority","inputs":[{"name":"newAuthority","type":"address","internalType":"address"}],"outputs":[],"stateMutability":"nonpayable"},{"type":"function","name":"unlinkPolicy","inputs":[{"name":"productNftId","type":"uint96","internalType":"NftId"},{"name":"riskId","type":"bytes8","internalType":"RiskId"},{"name":"policyNftId","type":"uint96","internalType":"NftId"}],"outputs":[],"stateMutability":"nonpayable"},{"type":"event","name":"AuthorityUpdated","inputs":[{"name":"authority","type":"address","indexed":false,"internalType":"address"}],"anonymous":false},{"type":"event","name":"Initialized","inputs":[{"name":"version","type":"uint64","indexed":false,"internalType":"uint64"}],"anonymous":false},{"type":"event","name":"LogObjectSetInitialized","inputs":[{"name":"instance","type":"address","indexed":true,"internalType":"address"}],"anonymous":false},{"type":"event","name":"LogRiskSetPolicyLinked","inputs":[{"name":"riskId","type":"bytes8","indexed":true,"internalType":"RiskId"},{"name":"policyNftId","type":"uint96","indexed":true,"internalType":"NftId"}],"anonymous":false},{"type":"event","name":"LogRiskSetPolicyUnlinked","inputs":[{"name":"riskId","type":"bytes8","indexed":true,"internalType":"RiskId"},{"name":"policyNftId","type":"uint96","indexed":true,"internalType":"NftId"}],"anonymous":false},{"type":"event","name":"LogRiskSetRiskActivated","inputs":[{"name":"poolNftId","type":"uint96","indexed":true,"internalType":"NftId"},{"name":"riskId","type":"bytes8","indexed":true,"internalType":"RiskId"},{"name":"active","type":"bool","indexed":true,"internalType":"bool"}],"anonymous":false},{"type":"event","name":"LogRiskSetRiskAdded","inputs":[{"name":"productNftId","type":"uint96","indexed":true,"internalType":"NftId"},{"name":"riskId","type":"bytes8","indexed":true,"internalType":"RiskId"}],"anonymous":false},{"type":"error","name":"AccessManagedInvalidAuthority","inputs":[{"name":"authority","type":"address","internalType":"address"}]},{"type":"error","name":"AccessManagedRequiredDelay","inputs":[{"name":"caller","type":"address","internalType":"address"},{"name":"delay","type":"uint32","internalType":"uint32"}]},{"type":"error","name":"AccessManagedUnauthorized","inputs":[{"name":"caller","type":"address","internalType":"address"}]},{"type":"error","name":"ErrorObjectSetNftIdInvalid","inputs":[{"name":"instanceNftId","type":"uint96","internalType":"NftId"}]},{"type":"error","name":"ErrorRiskSetRiskLocked","inputs":[{"name":"riskId","type":"bytes8","internalType":"RiskId"},{"name":"policyNftId","type":"uint96","internalType":"NftId"}]},{"type":"error","name":"ErrorRiskSetRiskNotRegistered","inputs":[{"name":"riskId","type":"bytes8","internalType":"RiskId"}]},{"type":"error","name":"ErrorRiskSetRiskUnknown","inputs":[{"name":"riskId","type":"bytes8","internalType":"RiskId"}]},{"type":"error","name":"InvalidInitialization","inputs":[]},{"type":"error","name":"NotInitializing","inputs":[]}],"bytecode":{"object":"0x6080604052348015600e575f5ffd5b50611b968061001c5f395ff3fe608060405234801561000f575f5ffd5b506004361061011c575f3560e01c80638d95b32a116100a9578063bf7e214f1161006e578063bf7e214f14610295578063c1b5cfb71461029d578063d0c9bd76146102c7578063e034a564146102da578063f4809edd146102ed575f5ffd5b80638d95b32a146102005780638fb360371461022b5780638fdb456a1461024c578063903a264b1461026f5780639ad7533f14610282575f5ffd5b80633678524e116100ef5780633678524e14610192578063485cc955146101a55780635ab1bd53146101b8578063681e65f0146101dc5780637a9e5e4b146101ed575f5ffd5b8063128817d414610120578063201a76a0146101495780632f458a111461015e57806333fc7dee1461017f575b5f5ffd5b61013361012e366004611817565b610300565b6040516101409190611841565b60405180910390f35b61015c61015736600461186b565b610400565b005b61017161016c366004611886565b610567565b604051908152602001610140565b61017161018d366004611886565b610577565b61015c6101a036600461186b565b610581565b61015c6101b33660046118bc565b6106e4565b5f546001600160a01b03165b6040516001600160a01b039091168152602001610140565b6003546001600160a01b03166101c4565b61015c6101fb3660046118ed565b61083d565b61021361020e366004611906565b6108c8565b6040516001600160601b039091168152602001610140565b610233610958565b6040516001600160e01b03199091168152602001610140565b61025f61025a366004611922565b61098e565b6040519015158152602001610140565b61015c61027d366004611959565b610a26565b61015c610290366004611959565b610bab565b6101c4610d49565b6102b06102ab366004611922565b610d64565b604080519215158352901515602083015201610140565b61015c6102d536600461186b565b610e13565b6101716102e836600461186b565b61100e565b6101336102fb366004611817565b611098565b5f73__$32e9ecefef68cb354d118e0496fdd3f4bc$__6301809eea61032585856110bd565b604051630713cfad60e31b8152600481019190915273__$4b9aaffa8d044614668dad578b824b8eee$__9063389e7d6890602401602060405180830381865af4158015610374573d5f5f3e3d5ffd5b505050506040513d601f19601f8201168201806040525081019061039891906119a1565b6040516001600160e01b031960e084901b16815260ff199091166004820152602401602060405180830381865af41580156103d5573d5f5f3e3d5ffd5b505050506040513d601f19601f820116820180604052508101906103f991906119c2565b9392505050565b61040c335b5f3661114f565b6003546040516351ca503f60e01b81525f9173__$9ab531d2fb5724a292102184f345630dcc$__916351ca503f91610454916001600160a01b039091169086906004016119dd565b602060405180830381865af415801561046f573d5f5f3e3d5ffd5b505050506040513d601f19601f820116820180604052508101906104939190611a00565b6040516355ee627560e01b815290915061052190829073__$32e9ecefef68cb354d118e0496fdd3f4bc$__906355ee6275906104dd906001600160c01b0319881690600401611841565b602060405180830381865af41580156104f8573d5f5f3e3d5ffd5b505050506040513d601f19601f8201168201806040525081019061051c9190611a1b565b61124d565b6040516001906001600160c01b03198416906001600160601b038416907fb476a4f00bea6aacdf5ad011a5ccc9a8046b8afcdf5f6e9ce2b816efb278b004905f90a45050565b5f610571826112c9565b92915050565b5f61057182611319565b61058a33610405565b6003546040516351ca503f60e01b81525f9173__$9ab531d2fb5724a292102184f345630dcc$__916351ca503f916105d2916001600160a01b039091169086906004016119dd565b602060405180830381865af41580156105ed573d5f5f3e3d5ffd5b505050506040513d601f19601f820116820180604052508101906106119190611a00565b6040516355ee627560e01b815290915061069f90829073__$32e9ecefef68cb354d118e0496fdd3f4bc$__906355ee62759061065b906001600160c01b0319881690600401611841565b602060405180830381865af4158015610676573d5f5f3e3d5ffd5b505050506040513d601f19601f8201168201806040525081019061069a9190611a1b565b611369565b6040515f906001600160c01b03198416906001600160601b038416907fb476a4f00bea6aacdf5ad011a5ccc9a8046b8afcdf5f6e9ce2b816efb278b004908490a45050565b7ff0c57e16840df040f15088dc2f81fe391c3923bec73e23a9662efc9c229c6a008054600160401b810460ff16159067ffffffffffffffff165f811580156107295750825b90505f8267ffffffffffffffff1660011480156107455750303b155b905081158015610753575080155b156107715760405163f92ee8a960e01b815260040160405180910390fd5b845467ffffffffffffffff19166001178555831561079b57845460ff60401b1916600160401b1785555b600380546001600160a01b031916331790556107b787876113c1565b6003546040516001600160a01b03909116907f354213bc359f6a4cdd77e05ad9f14f17072566dbf2dfe7d5febe8d3f1d20c55d905f90a2831561083457845460ff60401b19168555604051600181527fc7f505b2f371ae2175ee4913f4499e1f2633a7b5936321eed1cdaeb6115181d29060200160405180910390a15b50505050505050565b33610846610d49565b6001600160a01b0316816001600160a01b0316146108865760405162d1953b60e31b81526001600160a01b03821660048201526024015b60405180910390fd5b816001600160a01b03163b5f036108bb576040516361798f2f60e11b81526001600160a01b038316600482015260240161087d565b6108c4826113f4565b5050565b6001600160c01b031982165f908152600460208190526040808320905163e797d89960e01b8152918201526024810183905273__$f7a7d9f32fdcd358419ed5ca3af4f3da33$__9063e797d89990604401602060405180830381865af4158015610934573d5f5f3e3d5ffd5b505050506040513d601f19601f820116820180604052508101906103f99190611a00565b5f516020611b415f395f51905f5280545f9190600160a01b900460ff1661097f575f610988565b638fb3603760e01b5b91505090565b6040516355ee627560e01b81525f90819073__$32e9ecefef68cb354d118e0496fdd3f4bc$__906355ee6275906109d3906001600160c01b0319871690600401611841565b602060405180830381865af41580156109ee573d5f5f3e3d5ffd5b505050506040513d601f19601f82011682018060405250810190610a129190611a1b565b9050610a1e8482611454565b949350505050565b610a2f33610405565b6040516355ee627560e01b8152610aba90849073__$32e9ecefef68cb354d118e0496fdd3f4bc$__906355ee627590610a76906001600160c01b0319881690600401611841565b602060405180830381865af4158015610a91573d5f5f3e3d5ffd5b505050506040513d601f19601f82011682018060405250810190610ab59190611a1b565b611454565b610ad95781604051632f19f28160e01b815260040161087d9190611841565b6001600160c01b031982165f90815260046020819052604091829020915163539eabab60e11b815273__$f7a7d9f32fdcd358419ed5ca3af4f3da33$__9263a73d575692610b3b928691019182526001600160601b0316602082015260400190565b5f6040518083038186803b158015610b51575f5ffd5b505af4158015610b63573d5f5f3e3d5ffd5b50506040516001600160601b03841692506001600160c01b0319851691507f28006d34f51edf094175b00d8f9e42838aaed8f67393f390a755402e0c994476905f90a3505050565b610bb433610405565b6040516355ee627560e01b8152610c3f90849073__$32e9ecefef68cb354d118e0496fdd3f4bc$__906355ee627590610bfb906001600160c01b0319881690600401611841565b602060405180830381865af4158015610c16573d5f5f3e3d5ffd5b505050506040513d601f19601f82011682018060405250810190610c3a9190611a1b565b6114e6565b610c7757604051635619bbe360e01b81526001600160c01b0319831660048201526001600160601b038216602482015260440161087d565b6001600160c01b031982165f908152600460208190526040918290209151631461054360e31b815273__$f7a7d9f32fdcd358419ed5ca3af4f3da33$__9263a3082a1892610cd9928691019182526001600160601b0316602082015260400190565b5f6040518083038186803b158015610cef575f5ffd5b505af4158015610d01573d5f5f3e3d5ffd5b50506040516001600160601b03841692506001600160c01b0319851691507f4c0ee4d262aedf6c1adc914a2cb88fa1579bd0eb13e90b1f9107616ae752eeda905f90a3505050565b5f516020611b415f395f51905f52546001600160a01b031690565b6040516355ee627560e01b81525f908190819073__$32e9ecefef68cb354d118e0496fdd3f4bc$__906355ee627590610dab906001600160c01b0319881690600401611841565b602060405180830381865af4158015610dc6573d5f5f3e3d5ffd5b505050506040513d601f19601f82011682018060405250810190610dea9190611a1b565b9050610df68582611454565b92508215610e0b57610e0885826114e6565b91505b509250929050565b610e1c33610405565b6003546040516351ca503f60e01b81525f9173__$9ab531d2fb5724a292102184f345630dcc$__916351ca503f91610e64916001600160a01b039091169086906004016119dd565b602060405180830381865af4158015610e7f573d5f5f3e3d5ffd5b505050506040513d601f19601f82011682018060405250810190610ea39190611a00565b604051630a4d29dd60e31b81526001600160601b038216600482015290915073__$94a2c899be079b00d952d0d84fffaa5c34$__906352694ee890602401602060405180830381865af4158015610efc573d5f5f3e3d5ffd5b505050506040513d601f19601f82011682018060405250810190610f209190611a41565b15610f405781604051634b5eb18d60e11b815260040161087d9190611841565b6040516355ee627560e01b8152610fcb90829073__$32e9ecefef68cb354d118e0496fdd3f4bc$__906355ee627590610f87906001600160c01b0319881690600401611841565b602060405180830381865af4158015610fa2573d5f5f3e3d5ffd5b505050506040513d601f19601f82011682018060405250810190610fc69190611a1b565b61153d565b6040516001600160c01b03198316906001600160601b038316907f3c70e4bb15a930759ca404d268e2ab1d384c56bedb9a782287bd633b979063e8905f90a35050565b6001600160c01b031981165f9081526004602081905260408083209051638b6233dd60e01b81529182015273__$f7a7d9f32fdcd358419ed5ca3af4f3da33$__90638b6233dd906024015b602060405180830381865af4158015611074573d5f5f3e3d5ffd5b505050506040513d601f19601f820116820180604052508101906105719190611a1b565b5f73__$32e9ecefef68cb354d118e0496fdd3f4bc$__6301809eea6103258585611634565b6001600160601b0382165f90815260016020526040808220905163e9c54d3160e01b815260048101919091526024810183905273__$cbdc78fa2b79ba32ca600e20fa3fec38f8$__9063e9c54d31906044015b602060405180830381865af415801561112b573d5f5f3e3d5ffd5b505050506040513d601f19601f820116820180604052508101906103f99190611a1b565b5f516020611b415f395f51905f525f8061118761116a610d49565b873061117960045f8a8c611a5a565b61118291611a81565b61168b565b91509150816112455763ffffffff81161561122257825460ff60a01b1916600160a01b1783556111b5610d49565b6001600160a01b03166394c7d7ee8787876040518463ffffffff1660e01b81526004016111e493929190611ab9565b5f604051808303815f87803b1580156111fb575f5ffd5b505af115801561120d573d5f5f3e3d5ffd5b5050845460ff60a01b19168555506112459050565b60405162d1953b60e31b81526001600160a01b038716600482015260240161087d565b505050505050565b6001600160601b0382165f908152600160205260409081902090516304af170b60e41b815260048101919091526024810182905273__$cbdc78fa2b79ba32ca600e20fa3fec38f8$__90634af170b0906044015b5f6040518083038186803b1580156112b7575f5ffd5b505af4158015611245573d5f5f3e3d5ffd5b6001600160601b0381165f908152600160205260408082209051634ef87aaf60e11b8152600481019190915273__$cbdc78fa2b79ba32ca600e20fa3fec38f8$__90639df0f55e90602401611059565b6001600160601b0381165f908152600260205260408082209051634ef87aaf60e11b8152600481019190915273__$cbdc78fa2b79ba32ca600e20fa3fec38f8$__90639df0f55e90602401611059565b6001600160601b0382165f9081526001602052604090819020905163c54bd26f60e01b815260048101919091526024810182905273__$cbdc78fa2b79ba32ca600e20fa3fec38f8$__9063c54bd26f906044016112a1565b6113c9611793565b6113d2826117de565b5f80546001600160a01b0319166001600160a01b039290921691909117905550565b5f516020611b415f395f51905f5280546001600160a01b0383166001600160a01b03199091168117825560408051918252517f2f658b440c35314f52658ea8a740e05b284cdc84dc9ae01e891f21b8933e7cad9181900360200190a15050565b6001600160601b0382165f908152600260205260408082209051633205659f60e11b815260048101919091526024810183905273__$cbdc78fa2b79ba32ca600e20fa3fec38f8$__9063640acb3e906044015b602060405180830381865af41580156114c2573d5f5f3e3d5ffd5b505050506040513d601f19601f820116820180604052508101906103f99190611a41565b6001600160601b0382165f908152600160205260408082209051633205659f60e11b815260048101919091526024810183905273__$cbdc78fa2b79ba32ca600e20fa3fec38f8$__9063640acb3e906044016114a7565b6001600160601b0382165f90815260026020908152604080832060019092529182902091516304af170b60e41b8152600481018290526024810184905290919073__$cbdc78fa2b79ba32ca600e20fa3fec38f8$__90634af170b0906044015f6040518083038186803b1580156115b2575f5ffd5b505af41580156115c4573d5f5f3e3d5ffd5b50506040516304af170b60e41b8152600481018490526024810186905273__$cbdc78fa2b79ba32ca600e20fa3fec38f8$__9250634af170b091506044015f6040518083038186803b158015611618575f5ffd5b505af415801561162a573d5f5f3e3d5ffd5b5050505050505050565b6001600160601b0382165f90815260026020526040808220905163e9c54d3160e01b815260048101919091526024810183905273__$cbdc78fa2b79ba32ca600e20fa3fec38f8$__9063e9c54d3190604401611110565b6040516001600160a01b03848116602483015283811660448301526001600160e01b0319831660648301525f9182918291829189169060840160408051601f198184030181529181526020820180516001600160e01b031663b700961360e01b179052516116f99190611af8565b5f60405180830381855afa9150503d805f8114611731576040519150601f19603f3d011682016040523d82523d5f602084013e611736565b606091505b50915091508115611788576040815110611768578080602001905181019061175e9190611b0e565b9094509250611788565b602081511061178857808060200190518101906117859190611a41565b93505b505094509492505050565b7ff0c57e16840df040f15088dc2f81fe391c3923bec73e23a9662efc9c229c6a0054600160401b900460ff166117dc57604051631afcd79f60e31b815260040160405180910390fd5b565b6117e6611793565b6117ef816117f2565b50565b6117fa611793565b6117ef816113f4565b6001600160601b03811681146117ef575f5ffd5b5f5f60408385031215611828575f5ffd5b823561183381611803565b946020939093013593505050565b6001600160c01b031991909116815260200190565b6001600160c01b0319811681146117ef575f5ffd5b5f6020828403121561187b575f5ffd5b81356103f981611856565b5f60208284031215611896575f5ffd5b81356103f981611803565b80356001600160a01b03811681146118b7575f5ffd5b919050565b5f5f604083850312156118cd575f5ffd5b6118d6836118a1565b91506118e4602084016118a1565b90509250929050565b5f602082840312156118fd575f5ffd5b6103f9826118a1565b5f5f60408385031215611917575f5ffd5b823561183381611856565b5f5f60408385031215611933575f5ffd5b823561193e81611803565b9150602083013561194e81611856565b809150509250929050565b5f5f5f6060848603121561196b575f5ffd5b833561197681611803565b9250602084013561198681611856565b9150604084013561199681611803565b809150509250925092565b5f602082840312156119b1575f5ffd5b815160ff19811681146103f9575f5ffd5b5f602082840312156119d2575f5ffd5b81516103f981611856565b6001600160a01b039290921682526001600160c01b031916602082015260400190565b5f60208284031215611a10575f5ffd5b81516103f981611803565b5f60208284031215611a2b575f5ffd5b5051919050565b805180151581146118b7575f5ffd5b5f60208284031215611a51575f5ffd5b6103f982611a32565b5f5f85851115611a68575f5ffd5b83861115611a74575f5ffd5b5050820193919092039150565b80356001600160e01b03198116906004841015611ab2576001600160e01b0319600485900360031b81901b82161691505b5092915050565b6001600160a01b03841681526040602082018190528101829052818360608301375f818301606090810191909152601f909201601f1916010192915050565b5f82518060208501845e5f920191825250919050565b5f5f60408385031215611b1f575f5ffd5b611b2883611a32565b9150602083015163ffffffff8116811461194e575f5ffdfef3177357ab46d8af007ab3fdb9af81da189e1068fefdc0073dca88a2cab40a00a26469706673582212201286bd078414b06a94fbeb3c3d06482d0babab1d0a7d0682f30d385f174b7c2364736f6c634300081b0033","linkReferences":{"contracts/instance/base/ObjectSetHelperLib.sol":{"ObjectSetHelperLib":[{"start":1084,"length":20},{"start":1466,"length":20},{"start":3660,"length":20}]},"contracts/type/Key32.sol":{"Key32Lib":[{"start":856,"length":20}]},"contracts/type/Key32Set.sol":{"LibKey32Set":[{"start":4366,"length":20},{"start":4767,"length":20},{"start":4883,"length":20},{"start":4963,"length":20},{"start":5051,"length":20},{"start":5285,"length":20},{"start":5431,"length":20},{"start":5531,"length":20},{"start":5631,"length":20},{"start":5765,"length":20}]},"contracts/type/NftId.sol":{"NftIdLib":[{"start":3808,"length":20}]},"contracts/type/NftIdSet.sol":{"LibNftIdSet":[{"start":2328,"length":20},{"start":2847,"length":20},{"start":3261,"length":20},{"start":4183,"length":20}]},"contracts/type/RiskId.sol":{"RiskIdLib":[{"start":799,"length":20},{"start":1223,"length":20},{"start":1605,"length":20},{"start":2493,"length":20},{"start":2656,"length":20},{"start":3045,"length":20},{"start":3477,"length":20},{"start":3953,"length":20},{"start":4279,"length":20}]}}},"methodIdentifiers":{"activate(bytes8)":"201a76a0","activeRisks(uint96)":"2f458a11","add(bytes8)":"d0c9bd76","authority()":"bf7e214f","checkRisk(uint96,bytes8)":"c1b5cfb7","deactivate(bytes8)":"3678524e","getActiveRiskId(uint96,uint256)":"128817d4","getInstanceAddress()":"681e65f0","getLinkedPolicyNftId(bytes8,uint256)":"8d95b32a","getRegistry()":"5ab1bd53","getRiskId(uint96,uint256)":"f4809edd","hasRisk(uint96,bytes8)":"8fdb456a","initialize(address,address)":"485cc955","isConsumingScheduledOp()":"8fb36037","linkPolicy(uint96,bytes8,uint96)":"9ad7533f","linkedPolicies(bytes8)":"e034a564","risks(uint96)":"33fc7dee","setAuthority(address)":"7a9e5e4b","unlinkPolicy(uint96,bytes8,uint96)":"903a264b"},"id":64}