{"abi":[{"type":"constructor","inputs":[],"stateMutability":"nonpayable"},{"type":"function","name":"DECIMALS","inputs":[],"outputs":[{"name":"","type":"uint8","internalType":"uint8"}],"stateMutability":"view"},{"type":"function","name":"INITIAL_SUPPLY","inputs":[],"outputs":[{"name":"","type":"uint256","internalType":"uint256"}],"stateMutability":"view"},{"type":"function","name":"NAME","inputs":[],"outputs":[{"name":"","type":"string","internalType":"string"}],"stateMutability":"view"},{"type":"function","name":"SYMBOL","inputs":[],"outputs":[{"name":"","type":"string","internalType":"string"}],"stateMutability":"view"},{"type":"function","name":"allowance","inputs":[{"name":"owner","type":"address","internalType":"address"},{"name":"spender","type":"address","internalType":"address"}],"outputs":[{"name":"","type":"uint256","internalType":"uint256"}],"stateMutability":"view"},{"type":"function","name":"approve","inputs":[{"name":"spender","type":"address","internalType":"address"},{"name":"value","type":"uint256","internalType":"uint256"}],"outputs":[{"name":"","type":"bool","internalType":"bool"}],"stateMutability":"nonpayable"},{"type":"function","name":"balanceOf","inputs":[{"name":"account","type":"address","internalType":"address"}],"outputs":[{"name":"","type":"uint256","internalType":"uint256"}],"stateMutability":"view"},{"type":"function","name":"decimals","inputs":[],"outputs":[{"name":"","type":"uint8","internalType":"uint8"}],"stateMutability":"pure"},{"type":"function","name":"name","inputs":[],"outputs":[{"name":"","type":"string","internalType":"string"}],"stateMutability":"view"},{"type":"function","name":"symbol","inputs":[],"outputs":[{"name":"","type":"string","internalType":"string"}],"stateMutability":"view"},{"type":"function","name":"totalSupply","inputs":[],"outputs":[{"name":"","type":"uint256","internalType":"uint256"}],"stateMutability":"view"},{"type":"function","name":"transfer","inputs":[{"name":"to","type":"address","internalType":"address"},{"name":"value","type":"uint256","internalType":"uint256"}],"outputs":[{"name":"","type":"bool","internalType":"bool"}],"stateMutability":"nonpayable"},{"type":"function","name":"transferFrom","inputs":[{"name":"from","type":"address","internalType":"address"},{"name":"to","type":"address","internalType":"address"},{"name":"value","type":"uint256","internalType":"uint256"}],"outputs":[{"name":"","type":"bool","internalType":"bool"}],"stateMutability":"nonpayable"},{"type":"event","name":"Approval","inputs":[{"name":"owner","type":"address","indexed":true,"internalType":"address"},{"name":"spender","type":"address","indexed":true,"internalType":"address"},{"name":"value","type":"uint256","indexed":false,"internalType":"uint256"}],"anonymous":false},{"type":"event","name":"Transfer","inputs":[{"name":"from","type":"address","indexed":true,"internalType":"address"},{"name":"to","type":"address","indexed":true,"internalType":"address"},{"name":"value","type":"uint256","indexed":false,"internalType":"uint256"}],"anonymous":false}],"bytecode":{"object":"0x608060405234801561000f575f5ffd5b5061001c6006600a610189565b61002b9064e8d4a5100061019e565b335f81815260208190526040812092909255907fddf252ad1be2c89b69c2b068fc378daa952ba7f163c4a11628f55a4df523b3ef61006b6006600a610189565b61007a9064e8d4a5100061019e565b60405190815260200160405180910390a36101b5565b634e487b7160e01b5f52601160045260245ffd5b6001815b60018411156100df578085048111156100c3576100c3610090565b60018416156100d157908102905b60019390931c9280026100a8565b935093915050565b5f826100f557506001610183565b8161010157505f610183565b816001811461011757600281146101215761013d565b6001915050610183565b60ff84111561013257610132610090565b50506001821b610183565b5060208310610133831016604e8410600b8410161715610160575081810a610183565b61016c5f1984846100a4565b805f190482111561017f5761017f610090565b0290505b92915050565b5f61019760ff8416836100e7565b9392505050565b808202811582820484141761018357610183610090565b610834806101c25f395ff3fe608060405234801561000f575f5ffd5b50600436106100cb575f3560e01c8063313ce56711610088578063a3f4df7e11610063578063a3f4df7e146101a9578063a9059cbb146101b1578063dd62ed3e146101c4578063f76f8d78146101fc575f5ffd5b8063313ce5671461015b57806370a082311461016257806395d89b411461018a575f5ffd5b806306fdde03146100cf578063095ea7b3146100ed57806318160ddd1461011057806323b872dd146101265780632e0f2625146101395780632ff2e9dc14610153575b5f5ffd5b6100d761021e565b6040516100e49190610598565b60405180910390f35b6101006100fb3660046105e8565b61023e565b60405190151581526020016100e4565b6101186102aa565b6040519081526020016100e4565b610100610134366004610610565b6102cb565b610141600681565b60405160ff90911681526020016100e4565b61011861047d565b6006610141565b61011861017036600461064a565b6001600160a01b03165f9081526020819052604090205490565b6040805180820190915260038152624c434160e81b60208201526100d7565b6100d761049b565b6101006101bf3660046105e8565b6104b7565b6101186101d236600461066a565b6001600160a01b039182165f90815260016020908152604080832093909416825291909152205490565b6100d7604051806040016040528060038152602001624c434160e81b81525081565b60606040518060600160405280602181526020016107de60219139905090565b335f8181526001602090815260408083206001600160a01b038716808552925280832085905551919290917f8c5be1e5ebec7d5bd14f71427d1e84f3dd0314c0f7b2291e5b200ac8c7c3b925906102989086815260200190565b60405180910390a35060015b92915050565b5f6102b76006600a610792565b6102c69064e8d4a510006107a0565b905090565b6001600160a01b0383165f9081526020819052604081205482111561032e5760405162461bcd60e51b8152602060048201526014602482015273496e73756666696369656e742062616c616e636560601b60448201526064015b60405180910390fd5b6001600160a01b0384165f9081526001602090815260408083203384529091529020548211156103955760405162461bcd60e51b8152602060048201526012602482015271105b1b1bddd85b98d948195e18d95959195960721b6044820152606401610325565b6001600160a01b0384165f908152600160209081526040808320338452909152812080548492906103c79084906107b7565b90915550506001600160a01b0384165f90815260208190526040812080548492906103f39084906107b7565b90915550506001600160a01b0383165f908152602081905260408120805484929061041f9084906107ca565b92505081905550826001600160a01b0316846001600160a01b03167fddf252ad1be2c89b69c2b068fc378daa952ba7f163c4a11628f55a4df523b3ef8460405161046b91815260200190565b60405180910390a35060019392505050565b6104896006600a610792565b6104989064e8d4a510006107a0565b81565b6040518060600160405280602181526020016107de6021913981565b335f9081526020819052604081205482111561050c5760405162461bcd60e51b8152602060048201526014602482015273496e73756666696369656e742062616c616e636560601b6044820152606401610325565b335f908152602081905260408120805484929061052a9084906107b7565b90915550506001600160a01b0383165f90815260208190526040812080548492906105569084906107ca565b90915550506040518281526001600160a01b0384169033907fddf252ad1be2c89b69c2b068fc378daa952ba7f163c4a11628f55a4df523b3ef90602001610298565b602081525f82518060208401528060208501604085015e5f604082850101526040601f19601f83011684010191505092915050565b80356001600160a01b03811681146105e3575f5ffd5b919050565b5f5f604083850312156105f9575f5ffd5b610602836105cd565b946020939093013593505050565b5f5f5f60608486031215610622575f5ffd5b61062b846105cd565b9250610639602085016105cd565b929592945050506040919091013590565b5f6020828403121561065a575f5ffd5b610663826105cd565b9392505050565b5f5f6040838503121561067b575f5ffd5b610684836105cd565b9150610692602084016105cd565b90509250929050565b634e487b7160e01b5f52601160045260245ffd5b6001815b60018411156106ea578085048111156106ce576106ce61069b565b60018416156106dc57908102905b60019390931c9280026106b3565b935093915050565b5f82610700575060016102a4565b8161070c57505f6102a4565b8160018114610722576002811461072c57610748565b60019150506102a4565b60ff84111561073d5761073d61069b565b50506001821b6102a4565b5060208310610133831016604e8410600b841016171561076b575081810a6102a4565b6107775f1984846106af565b805f190482111561078a5761078a61069b565b029392505050565b5f61066360ff8416836106f2565b80820281158282048414176102a4576102a461069b565b818103818111156102a4576102a461069b565b808201808211156102a4576102a461069b56fe4c6f63616c2043757272656e637920284163636f756e74696e6720546f6b656e29a2646970667358221220427ee24144e198ab3e26351a17e65f1a514ff3ce48c2136f3f9b0c182c4501fa64736f6c634300081b0033","linkReferences":{}},"methodIdentifiers":{"DECIMALS()":"2e0f2625","INITIAL_SUPPLY()":"2ff2e9dc","NAME()":"a3f4df7e","SYMBOL()":"f76f8d78","allowance(address,address)":"dd62ed3e","approve(address,uint256)":"095ea7b3","balanceOf(address)":"70a08231","decimals()":"313ce567","name()":"06fdde03","symbol()":"95d89b41","totalSupply()":"18160ddd","transfer(address,uint256)":"a9059cbb","transferFrom(address,address,uint256)":"23b872dd"},"id":25}