{"abi":[{"type":"constructor","inputs":[],"stateMutability":"nonpayable"},{"type":"function","name":"DECIMALS","inputs":[],"outputs":[{"name":"","type":"uint8","internalType":"uint8"}],"stateMutability":"view"},{"type":"function","name":"INITIAL_SUPPLY","inputs":[],"outputs":[{"name":"","type":"uint256","internalType":"uint256"}],"stateMutability":"view"},{"type":"function","name":"NAME","inputs":[],"outputs":[{"name":"","type":"string","internalType":"string"}],"stateMutability":"view"},{"type":"function","name":"SYMBOL","inputs":[],"outputs":[{"name":"","type":"string","internalType":"string"}],"stateMutability":"view"},{"type":"function","name":"allowance","inputs":[{"name":"owner","type":"address","internalType":"address"},{"name":"spender","type":"address","internalType":"address"}],"outputs":[{"name":"","type":"uint256","internalType":"uint256"}],"stateMutability":"view"},{"type":"function","name":"approve","inputs":[{"name":"spender","type":"address","internalType":"address"},{"name":"value","type":"uint256","internalType":"uint256"}],"outputs":[{"name":"","type":"bool","internalType":"bool"}],"stateMutability":"nonpayable"},{"type":"function","name":"balanceOf","inputs":[{"name":"account","type":"address","internalType":"address"}],"outputs":[{"name":"","type":"uint256","internalType":"uint256"}],"stateMutability":"view"},{"type":"function","name":"decimals","inputs":[],"outputs":[{"name":"","type":"uint8","internalType":"uint8"}],"stateMutability":"pure"},{"type":"function","name":"name","inputs":[],"outputs":[{"name":"","type":"string","internalType":"string"}],"stateMutability":"view"},{"type":"function","name":"symbol","inputs":[],"outputs":[{"name":"","type":"string","internalType":"string"}],"stateMutability":"view"},{"type":"function","name":"totalSupply","inputs":[],"outputs":[{"name":"","type":"uint256","internalType":"uint256"}],"stateMutability":"view"},{"type":"function","name":"transfer","inputs":[{"name":"to","type":"address","internalType":"address"},{"name":"value","type":"uint256","internalType":"uint256"}],"outputs":[{"name":"","type":"bool","internalType":"bool"}],"stateMutability":"nonpayable"},{"type":"function","name":"transferFrom","inputs":[{"name":"from","type":"address","internalType":"address"},{"name":"to","type":"address","internalType":"address"},{"name":"value","type":"uint256","internalType":"uint256"}],"outputs":[{"name":"","type":"bool","internalType":"bool"}],"stateMutability":"nonpayable"},{"type":"event","name":"Approval","inputs":[{"name":"owner","type":"address","indexed":true,"internalType":"address"},{"name":"spender","type":"address","indexed":true,"internalType":"address"},{"name":"value","type":"uint256","indexed":false,"internalType":"uint256"}],"anonymous":false},{"type":"event","name":"Transfer","inputs":[{"name":"from","type":"address","indexed":true,"internalType":"address"},{"name":"to","type":"address","indexed":true,"internalType":"address"},{"name":"value","type":"uint256","indexed":false,"internalType":"uint256"}],"anonymous":false},{"type":"error","name":"ERC20InsufficientAllowance","inputs":[{"name":"spender","type":"address","internalType":"address"},{"name":"allowance","type":"uint256","internalType":"uint256"},{"name":"needed","type":"uint256","internalType":"uint256"}]},{"type":"error","name":"ERC20InsufficientBalance","inputs":[{"name":"sender","type":"address","internalType":"address"},{"name":"balance","type":"uint256","internalType":"uint256"},{"name":"needed","type":"uint256","internalType":"uint256"}]},{"type":"error","name":"ERC20InvalidApprover","inputs":[{"name":"approver","type":"address","internalType":"address"}]},{"type":"error","name":"ERC20InvalidReceiver","inputs":[{"name":"receiver","type":"address","internalType":"address"}]},{"type":"error","name":"ERC20InvalidSender","inputs":[{"name":"sender","type":"address","internalType":"address"}]},{"type":"error","name":"ERC20InvalidSpender","inputs":[{"name":"spender","type":"address","internalType":"address"}]}],"bytecode":{"object":"0x608060405234801561000f575f5ffd5b50604051806060016040528060218152602001610d5f60219139604080518082019091526003808252624c434160e81b602083015261004e8382610293565b50600461005b8282610293565b50505061008f61006f61009460201b60201c565b61007b6006600a610446565b61008a9064e8d4a5100061045b565b610098565b610485565b3390565b6001600160a01b0382166100c65760405163ec442f0560e01b81525f60048201526024015b60405180910390fd5b6100d15f83836100d5565b5050565b6001600160a01b0383166100ff578060025f8282546100f49190610472565b9091555061016f9050565b6001600160a01b0383165f90815260208190526040902054818110156101515760405163391434e360e21b81526001600160a01b038516600482015260248101829052604481018390526064016100bd565b6001600160a01b0384165f9081526020819052604090209082900390555b6001600160a01b03821661018b576002805482900390556101a9565b6001600160a01b0382165f9081526020819052604090208054820190555b816001600160a01b0316836001600160a01b03167fddf252ad1be2c89b69c2b068fc378daa952ba7f163c4a11628f55a4df523b3ef836040516101ee91815260200190565b60405180910390a3505050565b634e487b7160e01b5f52604160045260245ffd5b600181811c9082168061022357607f821691505b60208210810361024157634e487b7160e01b5f52602260045260245ffd5b50919050565b601f82111561028e57805f5260205f20601f840160051c8101602085101561026c5750805b601f840160051c820191505b8181101561028b575f8155600101610278565b50505b505050565b81516001600160401b038111156102ac576102ac6101fb565b6102c0816102ba845461020f565b84610247565b6020601f8211600181146102f2575f83156102db5750848201515b5f19600385901b1c1916600184901b17845561028b565b5f84815260208120601f198516915b828110156103215787850151825560209485019460019092019101610301565b508482101561033e57868401515f19600387901b60f8161c191681555b50505050600190811b01905550565b634e487b7160e01b5f52601160045260245ffd5b6001815b600184111561039c578085048111156103805761038061034d565b600184161561038e57908102905b60019390931c928002610365565b935093915050565b5f826103b257506001610440565b816103be57505f610440565b81600181146103d457600281146103de576103fa565b6001915050610440565b60ff8411156103ef576103ef61034d565b50506001821b610440565b5060208310610133831016604e8410600b841016171561041d575081810a610440565b6104295f198484610361565b805f190482111561043c5761043c61034d565b0290505b92915050565b5f61045460ff8416836103a4565b9392505050565b80820281158282048414176104405761044061034d565b808201808211156104405761044061034d565b6108cd806104925f395ff3fe608060405234801561000f575f5ffd5b50600436106100cb575f3560e01c8063313ce56711610088578063a3f4df7e11610063578063a3f4df7e1461018e578063a9059cbb14610196578063dd62ed3e146101a9578063f76f8d78146101e1575f5ffd5b8063313ce5671461015757806370a082311461015e57806395d89b4114610186575f5ffd5b806306fdde03146100cf578063095ea7b3146100ed57806318160ddd1461011057806323b872dd146101225780632e0f2625146101355780632ff2e9dc1461014f575b5f5ffd5b6100d7610203565b6040516100e4919061060c565b60405180910390f35b6101006100fb36600461065c565b610293565b60405190151581526020016100e4565b6002545b6040519081526020016100e4565b610100610130366004610684565b6102ac565b61013d600681565b60405160ff90911681526020016100e4565b6101146102cf565b600661013d565b61011461016c3660046106be565b6001600160a01b03165f9081526020819052604090205490565b6100d76102ed565b6100d76102fc565b6101006101a436600461065c565b610318565b6101146101b73660046106de565b6001600160a01b039182165f90815260016020908152604080832093909416825291909152205490565b6100d7604051806040016040528060038152602001624c434160e81b81525081565b6060600380546102129061070f565b80601f016020809104026020016040519081016040528092919081815260200182805461023e9061070f565b80156102895780601f1061026057610100808354040283529160200191610289565b820191905f5260205f20905b81548152906001019060200180831161026c57829003601f168201915b5050505050905090565b5f336102a0818585610325565b60019150505b92915050565b5f336102b9858285610337565b6102c48585856103b7565b506001949350505050565b6102db6006600a61083e565b6102ea9064e8d4a5100061084c565b81565b6060600480546102129061070f565b6040518060600160405280602181526020016108776021913981565b5f336102a08185856103b7565b6103328383836001610414565b505050565b6001600160a01b038381165f908152600160209081526040808320938616835292905220545f1981146103b157818110156103a357604051637dc7a0d960e11b81526001600160a01b038416600482015260248101829052604481018390526064015b60405180910390fd5b6103b184848484035f610414565b50505050565b6001600160a01b0383166103e057604051634b637e8f60e11b81525f600482015260240161039a565b6001600160a01b0382166104095760405163ec442f0560e01b81525f600482015260240161039a565b6103328383836104e6565b6001600160a01b03841661043d5760405163e602df0560e01b81525f600482015260240161039a565b6001600160a01b03831661046657604051634a1406b160e11b81525f600482015260240161039a565b6001600160a01b038085165f90815260016020908152604080832093871683529290522082905580156103b157826001600160a01b0316846001600160a01b03167f8c5be1e5ebec7d5bd14f71427d1e84f3dd0314c0f7b2291e5b200ac8c7c3b925846040516104d891815260200190565b60405180910390a350505050565b6001600160a01b038316610510578060025f8282546105059190610863565b909155506105809050565b6001600160a01b0383165f90815260208190526040902054818110156105625760405163391434e360e21b81526001600160a01b0385166004820152602481018290526044810183905260640161039a565b6001600160a01b0384165f9081526020819052604090209082900390555b6001600160a01b03821661059c576002805482900390556105ba565b6001600160a01b0382165f9081526020819052604090208054820190555b816001600160a01b0316836001600160a01b03167fddf252ad1be2c89b69c2b068fc378daa952ba7f163c4a11628f55a4df523b3ef836040516105ff91815260200190565b60405180910390a3505050565b602081525f82518060208401528060208501604085015e5f604082850101526040601f19601f83011684010191505092915050565b80356001600160a01b0381168114610657575f5ffd5b919050565b5f5f6040838503121561066d575f5ffd5b61067683610641565b946020939093013593505050565b5f5f5f60608486031215610696575f5ffd5b61069f84610641565b92506106ad60208501610641565b929592945050506040919091013590565b5f602082840312156106ce575f5ffd5b6106d782610641565b9392505050565b5f5f604083850312156106ef575f5ffd5b6106f883610641565b915061070660208401610641565b90509250929050565b600181811c9082168061072357607f821691505b60208210810361074157634e487b7160e01b5f52602260045260245ffd5b50919050565b634e487b7160e01b5f52601160045260245ffd5b6001815b60018411156107965780850481111561077a5761077a610747565b600184161561078857908102905b60019390931c92800261075f565b935093915050565b5f826107ac575060016102a6565b816107b857505f6102a6565b81600181146107ce57600281146107d8576107f4565b60019150506102a6565b60ff8411156107e9576107e9610747565b50506001821b6102a6565b5060208310610133831016604e8410600b8410161715610817575081810a6102a6565b6108235f19848461075b565b805f190482111561083657610836610747565b029392505050565b5f6106d760ff84168361079e565b80820281158282048414176102a6576102a6610747565b808201808211156102a6576102a661074756fe4c6f63616c2043757272656e637920284163636f756e74696e6720546f6b656e29a2646970667358221220309d128936a12321d3ff55409c76afdf546bb226e641cea48f9007f3210bb67a64736f6c634300081b00334c6f63616c2043757272656e637920284163636f756e74696e6720546f6b656e29","linkReferences":{}},"methodIdentifiers":{"DECIMALS()":"2e0f2625","INITIAL_SUPPLY()":"2ff2e9dc","NAME()":"a3f4df7e","SYMBOL()":"f76f8d78","allowance(address,address)":"dd62ed3e","approve(address,uint256)":"095ea7b3","balanceOf(address)":"70a08231","decimals()":"313ce567","name()":"06fdde03","symbol()":"95d89b41","totalSupply()":"18160ddd","transfer(address,uint256)":"a9059cbb","transferFrom(address,address,uint256)":"23b872dd"},"id":20}