{"abi":[{"type":"function","name":"createCrop","inputs":[{"name":"crop","type":"bytes32","internalType":"Str"}],"outputs":[],"stateMutability":"nonpayable"},{"type":"function","name":"createLocation","inputs":[{"name":"locationId","type":"bytes32","internalType":"Str"},{"name":"latitude","type":"int32","internalType":"int32"},{"name":"longitude","type":"int32","internalType":"int32"}],"outputs":[{"name":"location","type":"uint64","internalType":"Location"}],"stateMutability":"nonpayable"},{"type":"function","name":"createPolicy","inputs":[{"name":"policyHolder","type":"address","internalType":"address"},{"name":"riskId","type":"bytes8","internalType":"RiskId"},{"name":"activateAt","type":"uint40","internalType":"Timestamp"},{"name":"sumInsuredAmount","type":"uint96","internalType":"Amount"},{"name":"premiumAmount","type":"uint96","internalType":"Amount"}],"outputs":[{"name":"policyNftId","type":"uint96","internalType":"NftId"}],"stateMutability":"nonpayable"},{"type":"function","name":"createRisk","inputs":[{"name":"id","type":"bytes32","internalType":"Str"},{"name":"seasonId","type":"bytes32","internalType":"Str"},{"name":"locationId","type":"bytes32","internalType":"Str"},{"name":"crop","type":"bytes32","internalType":"Str"},{"name":"seasonEndAt","type":"uint40","internalType":"Timestamp"}],"outputs":[{"name":"riskId","type":"bytes8","internalType":"RiskId"}],"stateMutability":"nonpayable"},{"type":"function","name":"createSeason","inputs":[{"name":"seasonId","type":"bytes32","internalType":"Str"},{"name":"year","type":"uint16","internalType":"uint16"},{"name":"name","type":"bytes32","internalType":"Str"},{"name":"seasonStart","type":"bytes32","internalType":"Str"},{"name":"seasonEnd","type":"bytes32","internalType":"Str"},{"name":"seasonDays","type":"uint16","internalType":"uint16"}],"outputs":[],"stateMutability":"nonpayable"},{"type":"function","name":"getRiskId","inputs":[{"name":"id","type":"bytes32","internalType":"Str"}],"outputs":[{"name":"riskId","type":"bytes8","internalType":"RiskId"}],"stateMutability":"view"},{"type":"function","name":"length","inputs":[{"name":"sstr","type":"bytes32","internalType":"Str"}],"outputs":[{"name":"","type":"uint256","internalType":"uint256"}],"stateMutability":"pure"},{"type":"function","name":"policyNftCounter","inputs":[],"outputs":[{"name":"","type":"uint96","internalType":"uint96"}],"stateMutability":"view"},{"type":"function","name":"riskCounter","inputs":[],"outputs":[{"name":"","type":"uint256","internalType":"uint256"}],"stateMutability":"view"},{"type":"function","name":"toStr","inputs":[{"name":"str","type":"string","internalType":"string"}],"outputs":[{"name":"","type":"bytes32","internalType":"Str"}],"stateMutability":"pure"},{"type":"function","name":"toString","inputs":[{"name":"sstr","type":"bytes32","internalType":"Str"}],"outputs":[{"name":"","type":"string","internalType":"string"}],"stateMutability":"pure"},{"type":"event","name":"LogCropPolicyCreated","inputs":[{"name":"policyNftId","type":"uint96","indexed":false,"internalType":"NftId"}],"anonymous":false},{"type":"error","name":"InvalidShortString","inputs":[]},{"type":"error","name":"StringTooLong","inputs":[{"name":"str","type":"string","internalType":"string"}]}],"bytecode":{"object":"0x6080604052600180546001600160601b03191660641790553480156021575f5ffd5b506107498061002f5f395ff3fe608060405234801561000f575f5ffd5b50600436106100a6575f3560e01c80637f73fa9c1161006e5780637f73fa9c1461016f578063a9dbaf2514610180578063b11a19e8146101a1578063bb313321146101c1578063cdc23e69146101d4578063f1338cda146101e7575f5ffd5b80630228ec7b146100aa5780632a6f8ef2146100db578063422e9f411461010a578063694ac999146101355780636f336d7c14610157575b5f5ffd5b6100bd6100b83660046103c2565b6101ef565b6040516001600160c01b031990911681526020015b60405180910390f35b6100f16100e9366004610418565b5f9392505050565b60405167ffffffffffffffff90911681526020016100d2565b61011d610118366004610467565b610259565b6040516001600160601b0390911681526020016100d2565b6100bd6101433660046104d7565b5f9081526002602052604090205460c01b90565b61016d6101653660046104ff565b505050505050565b005b61016d61017d3660046104d7565b50565b61019361018e3660046104d7565b6102f9565b6040519081526020016100d2565b6101b46101af3660046104d7565b610326565b6040516100d29190610553565b60015461011d906001600160601b031681565b6101936101e236600461059c565b610363565b6101935f5481565b5f805481806101fd83610663565b91905055505f5460405160200161021691815260200190565b60408051808303601f1901815291815281516020928301205f9889526002909252909620805467ffffffffffffffff191660c088901c1790555093949350505050565b600180545f916001600160601b0390911690826102758361067b565b82546101009290920a6001600160601b038181021990931691831602179091556001546102a69250166103e86106a5565b6102b19060656106ce565b6040516001600160601b03821681529091507fc31147b2435123798832cf3c9d8ce5cd012cb3d548b18d196793c5a8e65f57d19060200160405180910390a195945050505050565b5f60ff8216601f81111561032057604051632cd44ac360e21b815260040160405180910390fd5b92915050565b60605f610332836102f9565b6040805160208082528183019092529192505f91906020820181803683375050509182525060208101929092525090565b5f5f829050601f81511115610396578260405163305a27a960e01b815260040161038d9190610553565b60405180910390fd5b80516103a1826106ed565b179392505050565b803564ffffffffff811681146103bd575f5ffd5b919050565b5f5f5f5f5f60a086880312156103d6575f5ffd5b853594506020860135935060408601359250606086013591506103fb608087016103a9565b90509295509295909350565b8035600381900b81146103bd575f5ffd5b5f5f5f6060848603121561042a575f5ffd5b8335925061043a60208501610407565b915061044860408501610407565b90509250925092565b80356001600160601b03811681146103bd575f5ffd5b5f5f5f5f5f60a0868803121561047b575f5ffd5b85356001600160a01b0381168114610491575f5ffd5b945060208601356001600160c01b0319811681146104ad575f5ffd5b93506104bb604087016103a9565b92506104c960608701610451565b91506103fb60808701610451565b5f602082840312156104e7575f5ffd5b5035919050565b803561ffff811681146103bd575f5ffd5b5f5f5f5f5f5f60c08789031215610514575f5ffd5b86359550610524602088016104ee565b945060408701359350606087013592506080870135915061054760a088016104ee565b90509295509295509295565b602081525f82518060208401528060208501604085015e5f604082850101526040601f19601f83011684010191505092915050565b634e487b7160e01b5f52604160045260245ffd5b5f602082840312156105ac575f5ffd5b813567ffffffffffffffff8111156105c2575f5ffd5b8201601f810184136105d2575f5ffd5b803567ffffffffffffffff8111156105ec576105ec610588565b604051601f8201601f19908116603f0116810167ffffffffffffffff8111828210171561061b5761061b610588565b604052818152828201602001861015610632575f5ffd5b816020840160208301375f91810160200191909152949350505050565b634e487b7160e01b5f52601160045260245ffd5b5f600182016106745761067461064f565b5060010190565b5f6001600160601b0382166001600160601b03810361069c5761069c61064f565b60010192915050565b6001600160601b0381811683821602908116908181146106c7576106c761064f565b5092915050565b6001600160601b0381811683821601908111156103205761032061064f565b8051602080830151919081101561070d575f198160200360031b1b821691505b5091905056fea2646970667358221220865d6076a68203931ea628ee16e9f3c6bdc05a829efbf7be7e1e7c42ab5bb2f364736f6c634300081b0033","linkReferences":{}},"methodIdentifiers":{"createCrop(bytes32)":"7f73fa9c","createLocation(bytes32,int32,int32)":"2a6f8ef2","createPolicy(address,bytes8,uint40,uint96,uint96)":"422e9f41","createRisk(bytes32,bytes32,bytes32,bytes32,uint40)":"0228ec7b","createSeason(bytes32,uint16,bytes32,bytes32,bytes32,uint16)":"6f336d7c","getRiskId(bytes32)":"694ac999","length(bytes32)":"a9dbaf25","policyNftCounter()":"bb313321","riskCounter()":"f1338cda","toStr(string)":"cdc23e69","toString(bytes32)":"b11a19e8"},"id":24}