{"abi":[{"type":"constructor","inputs":[{"name":"registry","type":"address","internalType":"address"},{"name":"instanceNftId","type":"uint96","internalType":"NftId"},{"name":"componentName","type":"string","internalType":"string"},{"name":"authorization","type":"address","internalType":"contract IAuthorization"}],"stateMutability":"nonpayable"},{"type":"function","name":"COMPONENT_LOCATION_V1","inputs":[],"outputs":[{"name":"","type":"bytes32","internalType":"bytes32"}],"stateMutability":"view"},{"type":"function","name":"GRACE_PERIOD_DAYS","inputs":[],"outputs":[{"name":"","type":"uint16","internalType":"uint16"}],"stateMutability":"view"},{"type":"function","name":"INSTANCE_LINKED_COMPONENT_LOCATION_V1","inputs":[],"outputs":[{"name":"","type":"bytes32","internalType":"bytes32"}],"stateMutability":"view"},{"type":"function","name":"MAX_POLICIES_TO_PROCESS","inputs":[],"outputs":[{"name":"","type":"uint8","internalType":"uint8"}],"stateMutability":"view"},{"type":"function","name":"MAX_PREMIUM","inputs":[],"outputs":[{"name":"","type":"uint96","internalType":"Amount"}],"stateMutability":"view"},{"type":"function","name":"MAX_SUM_INSURED","inputs":[],"outputs":[{"name":"","type":"uint96","internalType":"Amount"}],"stateMutability":"view"},{"type":"function","name":"MIN_PREMIUM","inputs":[],"outputs":[{"name":"","type":"uint96","internalType":"Amount"}],"stateMutability":"view"},{"type":"function","name":"MIN_SUM_INSURED","inputs":[],"outputs":[{"name":"","type":"uint96","internalType":"Amount"}],"stateMutability":"view"},{"type":"function","name":"NFT_OWNABLE_STORAGE_LOCATION_V1","inputs":[],"outputs":[{"name":"","type":"bytes32","internalType":"bytes32"}],"stateMutability":"view"},{"type":"function","name":"PRODUCT_STORAGE_LOCATION_V1","inputs":[],"outputs":[{"name":"","type":"bytes32","internalType":"bytes32"}],"stateMutability":"view"},{"type":"function","name":"REGISTERABLE_LOCATION_V1","inputs":[],"outputs":[{"name":"","type":"bytes32","internalType":"bytes32"}],"stateMutability":"view"},{"type":"function","name":"approveTokenHandler","inputs":[{"name":"token","type":"address","internalType":"contract IERC20Metadata"},{"name":"amount","type":"uint96","internalType":"Amount"}],"outputs":[],"stateMutability":"nonpayable"},{"type":"function","name":"authority","inputs":[],"outputs":[{"name":"","type":"address","internalType":"address"}],"stateMutability":"view"},{"type":"function","name":"calculateNetPremium","inputs":[{"name":"","type":"uint96","internalType":"Amount"},{"name":"","type":"bytes8","internalType":"RiskId"},{"name":"","type":"uint40","internalType":"Seconds"},{"name":"applicationData","type":"bytes","internalType":"bytes"}],"outputs":[{"name":"netPremiumAmount","type":"uint96","internalType":"Amount"}],"stateMutability":"view"},{"type":"function","name":"calculatePayout","inputs":[{"name":"info","type":"tuple","internalType":"struct IPolicy.PolicyInfo","components":[{"name":"productNftId","type":"uint96","internalType":"NftId"},{"name":"bundleNftId","type":"uint96","internalType":"NftId"},{"name":"riskId","type":"bytes8","internalType":"RiskId"},{"name":"sumInsuredAmount","type":"uint96","internalType":"Amount"},{"name":"premiumAmount","type":"uint96","internalType":"Amount"},{"name":"referralId","type":"bytes8","internalType":"ReferralId"},{"name":"claimsCount","type":"uint16","internalType":"uint16"},{"name":"openClaimsCount","type":"uint16","internalType":"uint16"},{"name":"claimAmount","type":"uint96","internalType":"Amount"},{"name":"payoutAmount","type":"uint96","internalType":"Amount"},{"name":"activatedAt","type":"uint40","internalType":"Timestamp"},{"name":"lifetime","type":"uint40","internalType":"Seconds"},{"name":"expiredAt","type":"uint40","internalType":"Timestamp"},{"name":"closedAt","type":"uint40","internalType":"Timestamp"},{"name":"applicationData","type":"bytes","internalType":"bytes"},{"name":"processData","type":"bytes","internalType":"bytes"}]},{"name":"cropRisk","type":"tuple","internalType":"struct CropProduct.CropRisk","components":[{"name":"seasonId","type":"bytes32","internalType":"Str"},{"name":"locationId","type":"bytes32","internalType":"Str"},{"name":"crop","type":"bytes32","internalType":"Str"},{"name":"seasonEndAt","type":"uint40","internalType":"Timestamp"},{"name":"payoutFactor","type":"uint160","internalType":"UFixed"},{"name":"payoutDefined","type":"bool","internalType":"bool"}]}],"outputs":[{"name":"payoutAmount","type":"uint96","internalType":"Amount"}],"stateMutability":"pure"},{"type":"function","name":"calculatePremium","inputs":[{"name":"sumInsuredAmount","type":"uint96","internalType":"Amount"},{"name":"riskId","type":"bytes8","internalType":"RiskId"},{"name":"lifetime","type":"uint40","internalType":"Seconds"},{"name":"applicationData","type":"bytes","internalType":"bytes"},{"name":"bundleNftId","type":"uint96","internalType":"NftId"},{"name":"referralId","type":"bytes8","internalType":"ReferralId"}],"outputs":[{"name":"premiumAmount","type":"uint96","internalType":"Amount"}],"stateMutability":"view"},{"type":"function","name":"createCrop","inputs":[{"name":"cropName","type":"bytes32","internalType":"Str"}],"outputs":[],"stateMutability":"nonpayable"},{"type":"function","name":"createLocation","inputs":[{"name":"locationId","type":"bytes32","internalType":"Str"},{"name":"latitude","type":"int32","internalType":"int32"},{"name":"longitude","type":"int32","internalType":"int32"}],"outputs":[{"name":"location","type":"uint64","internalType":"Location"}],"stateMutability":"nonpayable"},{"type":"function","name":"createPolicy","inputs":[{"name":"policyHolder","type":"address","internalType":"address"},{"name":"riskId","type":"bytes8","internalType":"RiskId"},{"name":"activateAt","type":"uint40","internalType":"Timestamp"},{"name":"sumInsuredAmount","type":"uint96","internalType":"Amount"},{"name":"premiumAmount","type":"uint96","internalType":"Amount"}],"outputs":[{"name":"policyNftId","type":"uint96","internalType":"NftId"}],"stateMutability":"nonpayable"},{"type":"function","name":"createRisk","inputs":[{"name":"id","type":"bytes32","internalType":"Str"},{"name":"seasonId","type":"bytes32","internalType":"Str"},{"name":"locationId","type":"bytes32","internalType":"Str"},{"name":"crop","type":"bytes32","internalType":"Str"},{"name":"seasonEndAt","type":"uint40","internalType":"Timestamp"}],"outputs":[{"name":"riskId","type":"bytes8","internalType":"RiskId"}],"stateMutability":"nonpayable"},{"type":"function","name":"createSeason","inputs":[{"name":"seasonId","type":"bytes32","internalType":"Str"},{"name":"year","type":"uint16","internalType":"uint16"},{"name":"name","type":"bytes32","internalType":"Str"},{"name":"seasonStart","type":"bytes32","internalType":"Str"},{"name":"seasonEnd","type":"bytes32","internalType":"Str"},{"name":"seasonDays","type":"uint16","internalType":"uint16"}],"outputs":[],"stateMutability":"nonpayable"},{"type":"function","name":"crops","inputs":[],"outputs":[{"name":"","type":"bytes32[]","internalType":"Str[]"}],"stateMutability":"view"},{"type":"function","name":"getAuthorization","inputs":[],"outputs":[{"name":"authorization","type":"address","internalType":"contract IAuthorization"}],"stateMutability":"view"},{"type":"function","name":"getComponentInfo","inputs":[],"outputs":[{"name":"info","type":"tuple","internalType":"struct IComponents.ComponentInfo","components":[{"name":"name","type":"string","internalType":"string"},{"name":"tokenHandler","type":"address","internalType":"contract TokenHandler"}]}],"stateMutability":"view"},{"type":"function","name":"getInitialComponentInfo","inputs":[],"outputs":[{"name":"info","type":"tuple","internalType":"struct IComponents.ComponentInfo","components":[{"name":"name","type":"string","internalType":"string"},{"name":"tokenHandler","type":"address","internalType":"contract TokenHandler"}]}],"stateMutability":"view"},{"type":"function","name":"getInitialFeeInfo","inputs":[],"outputs":[{"name":"feeInfo","type":"tuple","internalType":"struct IComponents.FeeInfo","components":[{"name":"productFee","type":"tuple","internalType":"struct Fee","components":[{"name":"fractionalFee","type":"uint160","internalType":"UFixed"},{"name":"fixedFee","type":"uint96","internalType":"Amount"}]},{"name":"processingFee","type":"tuple","internalType":"struct Fee","components":[{"name":"fractionalFee","type":"uint160","internalType":"UFixed"},{"name":"fixedFee","type":"uint96","internalType":"Amount"}]},{"name":"distributionFee","type":"tuple","internalType":"struct Fee","components":[{"name":"fractionalFee","type":"uint160","internalType":"UFixed"},{"name":"fixedFee","type":"uint96","internalType":"Amount"}]},{"name":"minDistributionOwnerFee","type":"tuple","internalType":"struct Fee","components":[{"name":"fractionalFee","type":"uint160","internalType":"UFixed"},{"name":"fixedFee","type":"uint96","internalType":"Amount"}]},{"name":"poolFee","type":"tuple","internalType":"struct Fee","components":[{"name":"fractionalFee","type":"uint160","internalType":"UFixed"},{"name":"fixedFee","type":"uint96","internalType":"Amount"}]},{"name":"stakingFee","type":"tuple","internalType":"struct Fee","components":[{"name":"fractionalFee","type":"uint160","internalType":"UFixed"},{"name":"fixedFee","type":"uint96","internalType":"Amount"}]},{"name":"performanceFee","type":"tuple","internalType":"struct Fee","components":[{"name":"fractionalFee","type":"uint160","internalType":"UFixed"},{"name":"fixedFee","type":"uint96","internalType":"Amount"}]}]}],"stateMutability":"view"},{"type":"function","name":"getInitialInfo","inputs":[],"outputs":[{"name":"info","type":"tuple","internalType":"struct IRegistry.ObjectInfo","components":[{"name":"nftId","type":"uint96","internalType":"NftId"},{"name":"parentNftId","type":"uint96","internalType":"NftId"},{"name":"objectType","type":"uint8","internalType":"ObjectType"},{"name":"isInterceptor","type":"bool","internalType":"bool"},{"name":"objectAddress","type":"address","internalType":"address"},{"name":"initialOwner","type":"address","internalType":"address"},{"name":"data","type":"bytes","internalType":"bytes"}]}],"stateMutability":"view"},{"type":"function","name":"getInitialProductInfo","inputs":[],"outputs":[{"name":"poolInfo","type":"tuple","internalType":"struct IComponents.ProductInfo","components":[{"name":"isProcessingFundedClaims","type":"bool","internalType":"bool"},{"name":"isInterceptingPolicyTransfers","type":"bool","internalType":"bool"},{"name":"hasDistribution","type":"bool","internalType":"bool"},{"name":"expectedNumberOfOracles","type":"uint8","internalType":"uint8"},{"name":"numberOfOracles","type":"uint8","internalType":"uint8"},{"name":"poolNftId","type":"uint96","internalType":"NftId"},{"name":"distributionNftId","type":"uint96","internalType":"NftId"},{"name":"oracleNftId","type":"uint96[]","internalType":"NftId[]"}]}],"stateMutability":"view"},{"type":"function","name":"getInstance","inputs":[],"outputs":[{"name":"instance","type":"address","internalType":"contract IInstance"}],"stateMutability":"view"},{"type":"function","name":"getLocation","inputs":[{"name":"locationId","type":"bytes32","internalType":"Str"}],"outputs":[{"name":"location","type":"uint64","internalType":"Location"}],"stateMutability":"view"},{"type":"function","name":"getName","inputs":[],"outputs":[{"name":"name","type":"string","internalType":"string"}],"stateMutability":"view"},{"type":"function","name":"getNftId","inputs":[],"outputs":[{"name":"","type":"uint96","internalType":"NftId"}],"stateMutability":"view"},{"type":"function","name":"getOwner","inputs":[],"outputs":[{"name":"","type":"address","internalType":"address"}],"stateMutability":"view"},{"type":"function","name":"getRegistry","inputs":[],"outputs":[{"name":"","type":"address","internalType":"contract IRegistry"}],"stateMutability":"view"},{"type":"function","name":"getRelease","inputs":[],"outputs":[{"name":"release","type":"uint8","internalType":"VersionPart"}],"stateMutability":"view"},{"type":"function","name":"getRisk","inputs":[{"name":"riskId","type":"bytes8","internalType":"RiskId"}],"outputs":[{"name":"exists","type":"bool","internalType":"bool"},{"name":"cropRisk","type":"tuple","internalType":"struct CropProduct.CropRisk","components":[{"name":"seasonId","type":"bytes32","internalType":"Str"},{"name":"locationId","type":"bytes32","internalType":"Str"},{"name":"crop","type":"bytes32","internalType":"Str"},{"name":"seasonEndAt","type":"uint40","internalType":"Timestamp"},{"name":"payoutFactor","type":"uint160","internalType":"UFixed"},{"name":"payoutDefined","type":"bool","internalType":"bool"}]}],"stateMutability":"view"},{"type":"function","name":"getRiskId","inputs":[{"name":"id","type":"bytes32","internalType":"Str"}],"outputs":[{"name":"riskId","type":"bytes8","internalType":"RiskId"}],"stateMutability":"view"},{"type":"function","name":"getSeason","inputs":[{"name":"seasonId","type":"bytes32","internalType":"Str"}],"outputs":[{"name":"season","type":"tuple","internalType":"struct CropProduct.Season","components":[{"name":"year","type":"uint16","internalType":"uint16"},{"name":"name","type":"bytes32","internalType":"Str"},{"name":"seasonStart","type":"bytes32","internalType":"Str"},{"name":"seasonEnd","type":"bytes32","internalType":"Str"},{"name":"seasonDays","type":"uint16","internalType":"uint16"}]}],"stateMutability":"view"},{"type":"function","name":"getToken","inputs":[],"outputs":[{"name":"token","type":"address","internalType":"contract IERC20Metadata"}],"stateMutability":"view"},{"type":"function","name":"getTokenHandler","inputs":[],"outputs":[{"name":"tokenHandler","type":"address","internalType":"contract TokenHandler"}],"stateMutability":"view"},{"type":"function","name":"getVersion","inputs":[],"outputs":[{"name":"version","type":"uint24","internalType":"Version"}],"stateMutability":"view"},{"type":"function","name":"getWallet","inputs":[],"outputs":[{"name":"walletAddress","type":"address","internalType":"address"}],"stateMutability":"view"},{"type":"function","name":"isActive","inputs":[],"outputs":[{"name":"active","type":"bool","internalType":"bool"}],"stateMutability":"view"},{"type":"function","name":"isConsumingScheduledOp","inputs":[],"outputs":[{"name":"","type":"bytes4","internalType":"bytes4"}],"stateMutability":"view"},{"type":"function","name":"isNftInterceptor","inputs":[],"outputs":[{"name":"isInterceptor","type":"bool","internalType":"bool"}],"stateMutability":"view"},{"type":"function","name":"isRegistered","inputs":[],"outputs":[{"name":"","type":"bool","internalType":"bool"}],"stateMutability":"view"},{"type":"function","name":"linkToRegisteredNftId","inputs":[],"outputs":[{"name":"nftId","type":"uint96","internalType":"NftId"}],"stateMutability":"nonpayable"},{"type":"function","name":"nftTransferFrom","inputs":[{"name":"from","type":"address","internalType":"address"},{"name":"to","type":"address","internalType":"address"},{"name":"tokenId","type":"uint256","internalType":"uint256"},{"name":"operator","type":"address","internalType":"address"}],"outputs":[],"stateMutability":"nonpayable"},{"type":"function","name":"processFundedClaim","inputs":[{"name":"policyNftId","type":"uint96","internalType":"NftId"},{"name":"claimId","type":"uint16","internalType":"ClaimId"},{"name":"availableAmount","type":"uint96","internalType":"Amount"}],"outputs":[],"stateMutability":"nonpayable"},{"type":"function","name":"processPoliciesForRisk","inputs":[{"name":"riskId","type":"bytes8","internalType":"RiskId"},{"name":"maxPoliciesToProcess","type":"uint256","internalType":"uint256"}],"outputs":[{"name":"success","type":"bool","internalType":"bool"},{"name":"riskExists","type":"bool","internalType":"bool"},{"name":"payoutDefined","type":"bool","internalType":"bool"},{"name":"policiesProcessed","type":"uint256","internalType":"uint256"}],"stateMutability":"nonpayable"},{"type":"function","name":"processPolicy","inputs":[{"name":"policyNftId","type":"uint96","internalType":"NftId"}],"outputs":[],"stateMutability":"nonpayable"},{"type":"function","name":"registerComponent","inputs":[{"name":"component","type":"address","internalType":"address"}],"outputs":[{"name":"componentNftId","type":"uint96","internalType":"NftId"}],"stateMutability":"nonpayable"},{"type":"function","name":"seasons","inputs":[],"outputs":[{"name":"","type":"bytes32[]","internalType":"Str[]"}],"stateMutability":"view"},{"type":"function","name":"setAuthority","inputs":[{"name":"newAuthority","type":"address","internalType":"address"}],"outputs":[],"stateMutability":"nonpayable"},{"type":"function","name":"setConstants","inputs":[{"name":"minPremium","type":"uint96","internalType":"Amount"},{"name":"maxPremium","type":"uint96","internalType":"Amount"},{"name":"minSumInsured","type":"uint96","internalType":"Amount"},{"name":"maxSumInsured","type":"uint96","internalType":"Amount"},{"name":"maxPoliciesToProcess","type":"uint8","internalType":"uint8"}],"outputs":[],"stateMutability":"nonpayable"},{"type":"function","name":"setDefaultBundle","inputs":[{"name":"bundleNftId","type":"uint96","internalType":"NftId"}],"outputs":[],"stateMutability":"nonpayable"},{"type":"function","name":"setLocked","inputs":[{"name":"locked","type":"bool","internalType":"bool"}],"outputs":[],"stateMutability":"nonpayable"},{"type":"function","name":"setWallet","inputs":[{"name":"newWallet","type":"address","internalType":"address"}],"outputs":[],"stateMutability":"nonpayable"},{"type":"function","name":"supportsInterface","inputs":[{"name":"interfaceId","type":"bytes4","internalType":"bytes4"}],"outputs":[{"name":"","type":"bool","internalType":"bool"}],"stateMutability":"view"},{"type":"function","name":"toStr","inputs":[{"name":"str","type":"string","internalType":"string"}],"outputs":[{"name":"","type":"bytes32","internalType":"Str"}],"stateMutability":"pure"},{"type":"function","name":"toString","inputs":[{"name":"str","type":"bytes32","internalType":"Str"}],"outputs":[{"name":"","type":"string","internalType":"string"}],"stateMutability":"pure"},{"type":"function","name":"updatePayoutFactor","inputs":[{"name":"riskId","type":"bytes8","internalType":"RiskId"},{"name":"payoutFactor","type":"uint160","internalType":"UFixed"}],"outputs":[],"stateMutability":"nonpayable"},{"type":"function","name":"withdrawFees","inputs":[{"name":"amount","type":"uint96","internalType":"Amount"}],"outputs":[{"name":"withdrawnAmount","type":"uint96","internalType":"Amount"}],"stateMutability":"nonpayable"},{"type":"event","name":"AuthorityUpdated","inputs":[{"name":"authority","type":"address","indexed":false,"internalType":"address"}],"anonymous":false},{"type":"event","name":"Initialized","inputs":[{"name":"version","type":"uint64","indexed":false,"internalType":"uint64"}],"anonymous":false},{"type":"event","name":"LogCropPolicyCreated","inputs":[{"name":"policyNftId","type":"uint96","indexed":false,"internalType":"NftId"}],"anonymous":false},{"type":"event","name":"LogNftOwnableNftLinkedToAddress","inputs":[{"name":"nftId","type":"uint96","indexed":true,"internalType":"NftId"},{"name":"owner","type":"address","indexed":true,"internalType":"address"}],"anonymous":false},{"type":"error","name":"AccessManagedInvalidAuthority","inputs":[{"name":"authority","type":"address","internalType":"address"}]},{"type":"error","name":"AccessManagedRequiredDelay","inputs":[{"name":"caller","type":"address","internalType":"address"},{"name":"delay","type":"uint32","internalType":"uint32"}]},{"type":"error","name":"AccessManagedUnauthorized","inputs":[{"name":"caller","type":"address","internalType":"address"}]},{"type":"error","name":"ErrorAuthorityInvalid","inputs":[{"name":"authority","type":"address","internalType":"address"}]},{"type":"error","name":"ErrorComponentNameLengthZero","inputs":[]},{"type":"error","name":"ErrorComponentNotChainNft","inputs":[{"name":"caller","type":"address","internalType":"address"}]},{"type":"error","name":"ErrorComponentProductNftIdNonzero","inputs":[]},{"type":"error","name":"ErrorComponentProductNftIdZero","inputs":[]},{"type":"error","name":"ErrorComponentWalletAddressIsSameAsCurrent","inputs":[]},{"type":"error","name":"ErrorComponentWalletAddressZero","inputs":[]},{"type":"error","name":"ErrorComponentWalletNotComponent","inputs":[]},{"type":"error","name":"ErrorInstanceLinkedComponentNotProduct","inputs":[{"name":"nftId","type":"uint96","internalType":"NftId"},{"name":"objectType","type":"uint8","internalType":"ObjectType"}]},{"type":"error","name":"ErrorInstanceLinkedComponentTypeMismatch","inputs":[{"name":"requiredType","type":"uint8","internalType":"ObjectType"},{"name":"objectType","type":"uint8","internalType":"ObjectType"}]},{"type":"error","name":"ErrorInvalidActivateAt","inputs":[{"name":"activateAt","type":"uint40","internalType":"Timestamp"}]},{"type":"error","name":"ErrorInvalidCrop","inputs":[{"name":"crop","type":"string","internalType":"string"}]},{"type":"error","name":"ErrorInvalidId","inputs":[{"name":"id","type":"string","internalType":"string"}]},{"type":"error","name":"ErrorInvalidLocation","inputs":[{"name":"locationId","type":"string","internalType":"string"}]},{"type":"error","name":"ErrorInvalidPolicyHolder","inputs":[]},{"type":"error","name":"ErrorInvalidPremium","inputs":[{"name":"premiumAmount","type":"uint96","internalType":"Amount"}]},{"type":"error","name":"ErrorInvalidRiskId","inputs":[{"name":"riskId","type":"bytes8","internalType":"RiskId"}]},{"type":"error","name":"ErrorInvalidSeasonDays","inputs":[{"name":"seasonDays","type":"uint16","internalType":"uint16"}]},{"type":"error","name":"ErrorInvalidSeasonEnd","inputs":[{"name":"seasonEnd","type":"string","internalType":"string"}]},{"type":"error","name":"ErrorInvalidSeasonEndAt","inputs":[{"name":"seasonEndAt","type":"uint40","internalType":"Timestamp"}]},{"type":"error","name":"ErrorInvalidSeasonId","inputs":[{"name":"seasonId","type":"string","internalType":"string"}]},{"type":"error","name":"ErrorInvalidSeasonStart","inputs":[{"name":"seasonStart","type":"string","internalType":"string"}]},{"type":"error","name":"ErrorInvalidSumInsured","inputs":[{"name":"sumInsuredAmount","type":"uint96","internalType":"Amount"}]},{"type":"error","name":"ErrorInvalidYear","inputs":[{"name":"year","type":"uint16","internalType":"uint16"}]},{"type":"error","name":"ErrorNftOwnableAlreadyLinked","inputs":[{"name":"nftId","type":"uint96","internalType":"NftId"}]},{"type":"error","name":"ErrorNftOwnableContractNotRegistered","inputs":[{"name":"contractAddress","type":"address","internalType":"address"}]},{"type":"error","name":"ErrorNftOwnableInitialOwnerZero","inputs":[]},{"type":"error","name":"ErrorNftOwnableInvalidType","inputs":[{"name":"nftId","type":"uint96","internalType":"NftId"},{"name":"expectedObjectType","type":"uint8","internalType":"ObjectType"}]},{"type":"error","name":"ErrorNftOwnableNotOwner","inputs":[{"name":"account","type":"address","internalType":"address"}]},{"type":"error","name":"ErrorNotRegistry","inputs":[{"name":"registryAddress","type":"address","internalType":"address"}]},{"type":"error","name":"ErrorRecordAlreadyExists","inputs":[{"name":"id","type":"string","internalType":"string"}]},{"type":"error","name":"ErrorRegisterableNotActive","inputs":[]},{"type":"error","name":"ErrorUndefinedRiskPayout","inputs":[{"name":"riskId","type":"bytes8","internalType":"RiskId"}]},{"type":"error","name":"InvalidInitialization","inputs":[]},{"type":"error","name":"NotInitializing","inputs":[]}],"bytecode":{"object":"0x60806040526003805460ff60601b19166c0100000000000000000000000017905534801561002b575f5ffd5b5060405161761038038061761083398101604081905261004a91611432565b336100588585858585610062565b50505050506117d3565b5f5160206175f05f395f51905f52805468010000000000000000810460ff1615906001600160401b03165f811580156100985750825b90505f826001600160401b031660011480156100b35750303b155b9050811580156100c1575080155b156100df5760405163f92ee8a960e01b815260040160405180910390fd5b84546001600160401b0319166001178555831561010d57845460ff60401b1916680100000000000000001785555b6105818a8a8a6040518061010001604052805f151581526020015f151581526020015f151581526020015f60ff1681526020015f60ff16815260200173__$94a2c899be079b00d952d0d84fffaa5c34$__63bc1b392d6040518163ffffffff1660e01b8152600401602060405180830381865af4158015610190573d5f5f3e3d5ffd5b505050506040513d601f19601f820116820180604052508101906101b491906114b7565b6001600160601b0316815260200173__$94a2c899be079b00d952d0d84fffaa5c34$__63bc1b392d6040518163ffffffff1660e01b8152600401602060405180830381865af4158015610209573d5f5f3e3d5ffd5b505050506040513d601f19601f8201168201806040525081019061022d91906114b7565b6001600160601b031681526020015f604051908082528060200260200182016040528015610265578160200160208202803683370190505b508152506040518060e0016040528073__$58e11c6004c5796aaa8c56e718245e69a2$__63bc1b392d6040518163ffffffff1660e01b81526004016040805180830381865af41580156102ba573d5f5f3e3d5ffd5b505050506040513d601f19601f820116820180604052508101906102de91906114d2565b815260200173__$58e11c6004c5796aaa8c56e718245e69a2$__63bc1b392d6040518163ffffffff1660e01b81526004016040805180830381865af4158015610329573d5f5f3e3d5ffd5b505050506040513d601f19601f8201168201806040525081019061034d91906114d2565b815260200173__$58e11c6004c5796aaa8c56e718245e69a2$__63bc1b392d6040518163ffffffff1660e01b81526004016040805180830381865af4158015610398573d5f5f3e3d5ffd5b505050506040513d601f19601f820116820180604052508101906103bc91906114d2565b815260200173__$58e11c6004c5796aaa8c56e718245e69a2$__63bc1b392d6040518163ffffffff1660e01b81526004016040805180830381865af4158015610407573d5f5f3e3d5ffd5b505050506040513d601f19601f8201168201806040525081019061042b91906114d2565b815260200173__$58e11c6004c5796aaa8c56e718245e69a2$__63bc1b392d6040518163ffffffff1660e01b81526004016040805180830381865af4158015610476573d5f5f3e3d5ffd5b505050506040513d601f19601f8201168201806040525081019061049a91906114d2565b815260200173__$58e11c6004c5796aaa8c56e718245e69a2$__63bc1b392d6040518163ffffffff1660e01b81526004016040805180830381865af41580156104e5573d5f5f3e3d5ffd5b505050506040513d601f19601f8201168201806040525081019061050991906114d2565b815260200173__$58e11c6004c5796aaa8c56e718245e69a2$__63bc1b392d6040518163ffffffff1660e01b81526004016040805180830381865af4158015610554573d5f5f3e3d5ffd5b505050506040513d601f19601f8201168201806040525081019061057891906114d2565b90528c8c6105d3565b83156105c757845460ff60401b19168555604051600181527fc7f505b2f371ae2175ee4913f4499e1f2633a7b5936321eed1cdaeb6115181d29060200160405180910390a15b50505050505050505050565b6105db6108e0565b6105f0878787600c602089015187908761091d565b5f7f0bb7aafdb8e380f81267337bc5b5dfdf76e6d3a380ecadb51ec665246d9d68008551815460208089015160408a015160608b015160808c015160a08d015160c08e015161ffff1990971697151561ff00191697909717610100941515949094029390931763ffff00001916620100009215159290920263ff000000191691909117630100000060ff9283160217600160201b600160881b0319166401000000009190921602600160281b600160881b03191617650100000000006001600160601b039485160217600160881b600160e81b031916600160881b939092169290920217825560e08701518051929350879284926106f5926001850192910190611275565b5050845180516020918201516001600160601b03908116600160a01b9081026001600160a01b03938416176002870155838901518051908501518316820290841617600387015560408901518051908501518316820290841617600487015560608901518051908501518316820290841617600587015560808901518051908501518316820290841617600687015560a08901518051908501518316820290841617600787015560c08901518051940151909116029116176008830155506107c36107be602c90565b610b78565b600a820180546001600160a01b0319166001600160a01b03929092169190911790556107f06107be601490565b600b820180546001600160a01b0319166001600160a01b039290921691909117905561081d6107be601590565b600c820180546001600160a01b0319166001600160a01b039290921691909117905561084a6107be602d90565b600d820180546001600160a01b0319166001600160a01b03929092169190911790556108776107be602a90565b600e820180546001600160a01b0319166001600160a01b03929092169190911790556108a46107be600b90565b6009820180546001600160a01b0319166001600160a01b03929092169190911790556108d6630cdf80bd60e31b610c0f565b5050505050505050565b5f5160206175f05f395f51905f525468010000000000000000900460ff1661091b57604051631afcd79f60e31b815260040160405180910390fd5b565b6109256108e0565b5f610931888887610c42565b90505f7fffe3d4462bded26a47154f4b8f6db494d2f772496965791d25bd456e342b7f0060405163bf8e179760e01b81526001600160601b03841660048201529091506001600160a01b038a169063bf8e179790602401602060405180830381865afa1580156109a3573d5f5f3e3d5ffd5b505050506040513d601f19601f820116820180604052508101906109c79190611530565b81546001600160a01b0319166001600160a01b039190911690811782556040805163bf7e214f60e01b81529051610a65929163bf7e214f9160048083019260209291908290030181865afa158015610a21573d5f5f3e3d5ffd5b505050506040513d601f19601f82011682018060405250810190610a459190611530565b8a8a8a8a898960405180602001604052805f815250610ced60201b60201c565b8054604080516302cd307160e01b815290516001600160a01b03909216916302cd3071916004808201926020929091908290030181865afa158015610aac573d5f5f3e3d5ffd5b505050506040513d601f19601f82011682018060405250810190610ad09190611530565b6001820180546001600160a01b03199081166001600160a01b0393841617909155600283018054909116918716919091179055610b0e6107be600b90565b6003820180546001600160a01b0319166001600160a01b0392909216919091179055610b3b6107be600d90565b6004820180546001600160a01b0319166001600160a01b0392909216919091179055610b6d6330841f2160e21b610c0f565b505050505050505050565b5f610b8b6001546001600160a01b031690565b6001600160a01b031663d39e604383610ba2610db6565b6040516001600160e01b031960e085901b16815260ff928316600482015291166024820152604401602060405180830381865afa158015610be5573d5f5f3e3d5ffd5b505050506040513d601f19601f82011682018060405250810190610c099190611530565b92915050565b610c176108e0565b610c3f816001600160e01b0319165f908152602081905260409020805460ff19166001179055565b50565b5f60ff8216600c03610c6357610c5a8484600a610e39565b50829050610ce6565b5f610c708585600c610e39565b60405163677d3feb60e11b81526001600160601b03861660048201529091506001600160a01b0382169063cefa7fd690602401602060405180830381865afa158015610cbe573d5f5f3e3d5ffd5b505050506040513d601f19601f82011682018060405250810190610ce291906114b7565b9150505b9392505050565b610cf56108e0565b84515f03610d165760405163591eebf360e11b815260040160405180910390fd5b610d2588888887878787610f03565b7fffe8d4462baed26a47154f4b8f6db497d2f772496965791d25bd456e342b7f0080610d5187826115cf565b5060018101805460ff1916851515179055610d6d6107be600b90565b6001820180546001600160a01b039290921661010002610100600160a81b0319909216919091179055610da6634a531f3360e01b610c0f565b610b6d6306e9e5ff60e31b610c0f565b5f610dd55f5160206175d05f395f51905f52546001600160a01b031690565b6001600160a01b03166376b707b76040518163ffffffff1660e01b8152600401602060405180830381865afa158015610e10573d5f5f3e3d5ffd5b505050506040513d601f19601f82011682018060405250810190610e3491906116a2565b905090565b6040516305247a1760e51b81526001600160601b038316600482015283905f906001600160a01b0383169063a48f42e0906024015f60405180830381865afa158015610e87573d5f5f3e3d5ffd5b505050506040513d5f823e601f3d908101601f19168201604052610eae91908101906116ea565b9050610ec581604001518460ff9081169116141590565b15610efb57604080820151905163b0c1f6eb60e01b815260ff808616600483015290911660248201526044015b60405180910390fd5b509392505050565b610f0b6108e0565b604051632330f24760e01b81526001600160a01b038816600482015273__$fb599632d08395912d9d70eb2f0f93b5e2$__90632330f24790602401602060405180830381865af4158015610f61573d5f5f3e3d5ffd5b505050506040513d601f19601f82011682018060405250810190610f8591906117ba565b610fad5760405163cf6935e560e01b81526001600160a01b0388166004820152602401610ef2565b610fb68761104d565b610fc0868361105e565b5f7f6548007c3f4340f82f348c576c0ff69f4f529cadd5ad41f96aae61abceeaa30080546001600160601b0388166001600160681b0319909116176c0100000000000000000000000060ff8816021760ff60681b19166d01000000000000000000000000008615150217815590506001810161103c83826115cf565b506108d6634a531f3360e01b610c0f565b6110556108e0565b610c3f816110f0565b6110666108e0565b61106e611101565b61107782611149565b6001600160a01b03811661109e5760405163f17ef42d60e01b815260040160405180910390fd5b7f07ebcf49758b6ed3af50fa146bec0abe157c0218fe65dc0874c286e9d5da4f0080546001600160601b03166c010000000000000000000000006001600160a01b039093169290920291909117905550565b6110f86108e0565b610c3f81611215565b6111096108e0565b61091b6301ffc9a760e01b5f9081526020527f67be87c3ff9960ca1e9cfac5cab2ff4747269cf9ed20c9b7306235ac35a491c5805460ff19166001179055565b6111516108e0565b604051633334d16b60e01b81526001600160a01b038216600482015273__$fb599632d08395912d9d70eb2f0f93b5e2$__90633334d16b90602401602060405180830381865af41580156111a7573d5f5f3e3d5ffd5b505050506040513d601f19601f820116820180604052508101906111cb91906117ba565b6111f35760405163fdeac91f60e01b81526001600160a01b0382166004820152602401610ef2565b600180546001600160a01b0319166001600160a01b0392909216919091179055565b5f5160206175d05f395f51905f5280546001600160a01b0383166001600160a01b03199091168117825560408051918252517f2f658b440c35314f52658ea8a740e05b284cdc84dc9ae01e891f21b8933e7cad9181900360200190a15050565b828054828255905f5260205f209060010160029004810192821561131a579160200282015f5b838211156112e557835183826101000a8154816001600160601b0302191690836001600160601b031602179055509260200192600c01602081600b0104928301926001030261129b565b80156113185782816101000a8154906001600160601b030219169055600c01602081600b010492830192600103026112e5565b505b5061132692915061132a565b5090565b5b80821115611326575f815560010161132b565b6001600160a01b0381168114610c3f575f5ffd5b805161135d8161133e565b919050565b6001600160601b0381168114610c3f575f5ffd5b805161135d81611362565b634e487b7160e01b5f52604160045260245ffd5b60405160e081016001600160401b03811182821017156113b7576113b7611381565b60405290565b5f806001600160401b038411156113d6576113d6611381565b50604051601f19601f85018116603f011681018181106001600160401b038211171561140457611404611381565b60405283815290508082840185101561141b575f5ffd5b8383602083015e5f60208583010152509392505050565b5f5f5f5f60808587031215611445575f5ffd5b84516114508161133e565b602086015190945061146181611362565b60408601519093506001600160401b0381111561147c575f5ffd5b8501601f8101871361148c575f5ffd5b61149b878251602084016113bd565b92505060608501516114ac8161133e565b939692955090935050565b5f602082840312156114c7575f5ffd5b8151610ce681611362565b5f60408284031280156114e3575f5ffd5b50604080519081016001600160401b038111828210171561150657611506611381565b60405282516115148161133e565b8152602083015161152481611362565b60208201529392505050565b5f60208284031215611540575f5ffd5b8151610ce68161133e565b600181811c9082168061155f57607f821691505b60208210810361157d57634e487b7160e01b5f52602260045260245ffd5b50919050565b601f8211156115ca57805f5260205f20601f840160051c810160208510156115a85750805b601f840160051c820191505b818110156115c7575f81556001016115b4565b50505b505050565b81516001600160401b038111156115e8576115e8611381565b6115fc816115f6845461154b565b84611583565b6020601f82116001811461162e575f83156116175750848201515b5f19600385901b1c1916600184901b1784556115c7565b5f84815260208120601f198516915b8281101561165d578785015182556020948501946001909201910161163d565b508482101561167a57868401515f19600387901b60f8161c191681555b50505050600190811b01905550565b60ff81168114610c3f575f5ffd5b805161135d81611689565b5f602082840312156116b2575f5ffd5b8151610ce681611689565b8051801515811461135d575f5ffd5b5f82601f8301126116db575f5ffd5b610ce6838351602085016113bd565b5f602082840312156116fa575f5ffd5b81516001600160401b0381111561170f575f5ffd5b820160e08185031215611720575f5ffd5b611728611395565b61173182611376565b815261173f60208301611376565b602082015261175060408301611697565b6040820152611761606083016116bd565b606082015261177260808301611352565b608082015261178360a08301611352565b60a082015260c08201516001600160401b038111156117a0575f5ffd5b6117ac868285016116cc565b60c083015250949350505050565b5f602082840312156117ca575f5ffd5b610ce6826116bd565b615df0806117e05f395ff3fe608060405234801561000f575f5ffd5b50600436106103b4575f3560e01c8063694ac999116101f5578063b277d78011610114578063deaa59df116100a9578063ea15869f11610079578063ea15869f14610979578063f179d0641461098d578063f44f30cd146109a0578063ffa1805e146109a8575f5ffd5b8063deaa59df14610925578063def6aeca14610938578063e1f216fa14610952578063e9b2460c14610965575f5ffd5b8063c108bd4c116100e4578063c108bd4c146108b2578063ccfae201146108c7578063cdc23e69146108e2578063de7b5d14146108f5575f5ffd5b8063b277d78014610875578063b423086c14610888578063be5c8f4414610890578063bf7e214f146108aa575f5ffd5b8063844e0f201161018a578063a4846cbf1161015a578063a4846cbf14610828578063ad12ad601461083b578063ada9652e1461084e578063b11a19e814610862575f5ffd5b8063844e0f20146107d5578063893d20e8146107ea5780638fb36037146107f257806390edbd3514610813575f5ffd5b806376b707b7116101c557806376b707b7146107945780637a9e5e4b1461079c5780637d1c5290146107af5780637f73fa9c146107c2575f5ffd5b8063694ac999146106d35780636bd1c0eb146106f55780636f336d7c14610725578063729ff16c14610738575f5ffd5b806323c9bc52116102e15780634b396c4f116102765780635ab1bd53116102465780635ab1bd531461067f5780635be6405e146106905780636078a3b2146106b8578063644c45e0146106cb575f5ffd5b80634b396c4f1461062b5780634cdabb16146106515780635349d2a8146106645780635741e5e914610677575f5ffd5b80633c2dd0e9116102b15780633c2dd0e9146105ea578063419197fe146105fd578063422e9f411461061057806343d752d314610623575f5ffd5b806323c9bc52146105625780632a6f8ef2146105775780632eb3e6f4146105a25780633405f20c146105c9575f5ffd5b806315539f6911610357578063211e28b611610327578063211e28b61461053757806321df0da71461054a578063223668441461055257806322f3e2d41461055a575f5ffd5b806315539f69146104c557806317d7de7c146104da5780631c6b2190146104ef5780631eff4b2214610502575f5ffd5b80630fec111c116103925780630fec111c14610435578063132996041461044a578063138461e01461046a578063152240da1461048a575f5ffd5b806301ffc9a7146103b85780630228ec7b146103f95780630d8e6e2c14610419575b5f5ffd5b6103e46103c6366004614679565b6001600160e01b0319165f9081526020819052604090205460ff1690565b60405190151581526020015b60405180910390f35b61040c6104073660046146bd565b6109bb565b6040516103f09190614706565b610421610df6565b60405162ffffff90911681526020016103f0565b61043d610e7d565b6040516103f09190614749565b610452611037565b6040516001600160a01b0390911681526020016103f0565b61047261109f565b6040516001600160601b0390911681526020016103f0565b61049d6104983660046147f5565b6110a9565b60408051941515855292151560208501529015159183019190915260608201526080016103f0565b6104d86104d336600461483e565b611230565b005b6104e2611245565b6040516103f09190614859565b6104726104fd36600461483e565b611255565b6105297f6548007c3f4340f82f348c576c0ff69f4f529cadd5ad41f96aae61abceeaa30081565b6040519081526020016103f0565b6104d8610545366004614878565b6112ab565b6104526112ef565b6103e4611333565b6103e4611429565b61056a6114a0565b6040516103f09190614893565b61058a6105853660046148e6565b6114f6565b6040516001600160401b0390911681526020016103f0565b6105297fffe3d4462bded26a47154f4b8f6db494d2f772496965791d25bd456e342b7f0081565b6105dc6105d736600461491f565b61165d565b6040516103f0929190614983565b6104d86105f83660046149ad565b611793565b6104d861060b3660046149e4565b611812565b61047261061e366004614a10565b611865565b610452611c7b565b60035461063f90600160601b900460ff1681565b60405160ff90911681526020016103f0565b600254610472906001600160601b031681565b610472610672366004614bc2565b611c8d565b6103e4611d4f565b6001546001600160a01b0316610452565b61058a61069e366004614c57565b5f908152600660205260409020546001600160401b031690565b6104726106c6366004614c6e565b611e05565b610472611ed7565b61040c6106e1366004614c57565b5f9081526009602052604090205460c01b90565b7fffe3d4462bded26a47154f4b8f6db494d2f772496965791d25bd456e342b7f02546001600160a01b0316610452565b6104d8610733366004614ca3565b611ef2565b61074b610746366004614c57565b612383565b6040516103f091905f60a08201905061ffff835116825260208301516020830152604083015160408301526060830151606083015261ffff608084015116608083015292915050565b61063f61240b565b6104d86107aa366004614c6e565b612473565b6104d86107bd366004614cfd565b6124f9565b6104d86107d0366004614c57565b6125a9565b6107dd6126fc565b6040516103f09190614d7d565b6104526128d5565b6107fa612a06565b6040516001600160e01b031990911681526020016103f0565b61081b612a3b565b6040516103f09190614e0b565b600354610472906001600160601b031681565b6104d8610849366004614e47565b612a6c565b6105295f516020615d3b5f395f51905f5281565b6104e2610870366004614c57565b612b0e565b6104d861088336600461483e565b612b85565b61081b612bf0565b60015461047290600160a01b90046001600160601b031681565b610452612c0c565b6108ba612c27565b6040516103f09190614eda565b6108cf603c81565b60405161ffff90911681526020016103f0565b6105296108f0366004614f6a565b612d7b565b7fffe3d4462bded26a47154f4b8f6db494d2f772496965791d25bd456e342b7f00546001600160a01b0316610452565b6104d8610933366004614c6e565b612df3565b60025461047290600160601b90046001600160601b031681565b6104d8610960366004614fae565b612e40565b6105295f516020615d9b5f395f51905f5281565b6105295f516020615d5b5f395f51905f5281565b61047261099b366004614ff6565b612e5d565b61056a612e7b565b6104726109b63660046150d7565b612ecf565b5f6109c8335b5f36613064565b60405163a9dbaf2560e01b81526004810187905273__$9a094f9b231ed0f5f85a69be8408d93180$__9063a9dbaf2590602401602060405180830381865af4158015610a16573d5f5f3e3d5ffd5b505050506040513d601f19601f82011682018060405250810190610a3a919061527d565b5f03610ad857604051631623433d60e31b81526004810187905273__$9a094f9b231ed0f5f85a69be8408d93180$__9063b11a19e8906024015b5f60405180830381865af4158015610a8e573d5f5f3e3d5ffd5b505050506040513d5f823e601f3d908101601f19168201604052610ab591908101906152e3565b6040516360c9938f60e11b8152600401610acf9190614859565b60405180910390fd5b5f8581526004602052604081205461ffff169003610b7e57604051631623433d60e31b81526004810186905273__$9a094f9b231ed0f5f85a69be8408d93180$__9063b11a19e8906024015f60405180830381865af4158015610b3d573d5f5f3e3d5ffd5b505050506040513d5f823e601f3d908101601f19168201604052610b6491908101906152e3565b604051639ff9238560e01b8152600401610acf9190614859565b5f8381526007602052604090205460ff16610c2157604051631623433d60e31b81526004810184905273__$9a094f9b231ed0f5f85a69be8408d93180$__9063b11a19e8906024015f60405180830381865af4158015610be0573d5f5f3e3d5ffd5b505050506040513d5f823e601f3d908101601f19168201604052610c0791908101906152e3565b604051635ecca8b160e01b8152600401610acf9190614859565b610c9f8273__$91d01b1eccbca8d6f94a5eb2a0acb040e9$__639fa6a6e36040518163ffffffff1660e01b8152600401602060405180830381865af4158015610c6c573d5f5f3e3d5ffd5b505050506040513d601f19601f82011682018060405250810190610c90919061531f565b64ffffffffff90811691161090565b15610cc657604051631a30abb560e01b815264ffffffffff83166004820152602401610acf565b5f86604051602001610cda91815260200190565b6040516020818303038152906040528051906020012090505f6040518060c001604052808881526020018781526020018681526020018564ffffffffff16815260200173__$bf7bc340cbb9229ef1de2c568356e67902$__63bc1b392d6040518163ffffffff1660e01b8152600401602060405180830381865af4158015610d64573d5f5f3e3d5ffd5b505050506040513d601f19601f82011682018060405250810190610d88919061533a565b6001600160a01b031681526020015f15158152509050610dc78282604051602001610db39190615355565b604051602081830303815290604052613162565b5f98895260096020526040909820805467ffffffffffffffff191660c08a901c17905550959695505050505050565b604051632efe011360e01b8152600160048201525f60248201819052604482018190529073__$8eede297b65ed5a56eb3f84d8232ae93f5$__90632efe011390606401602060405180830381865af4158015610e54573d5f5f3e3d5ffd5b505050506040513d601f19601f82011682018060405250810190610e789190615363565b905090565b6040805160e0810182525f8082526020820181905291810182905260608082018390526080820183905260a0820183905260c0820152907f6548007c3f4340f82f348c576c0ff69f4f529cadd5ad41f96aae61abceeaa30090506040518060e0016040528073__$94a2c899be079b00d952d0d84fffaa5c34$__63bc1b392d6040518163ffffffff1660e01b8152600401602060405180830381865af4158015610f29573d5f5f3e3d5ffd5b505050506040513d601f19601f82011682018060405250810190610f4d9190615390565b6001600160601b0390811682528354908116602083015260ff600160601b820481166040840152600160681b909104161515606082015230608082015260a001610f956128d5565b6001600160a01b03168152602001826001018054610fb2906153ab565b80601f0160208091040260200160405190810160405280929190818152602001828054610fde906153ab565b80156110295780601f1061100057610100808354040283529160200191611029565b820191905f5260205f20905b81548152906001019060200180831161100c57829003601f168201915b505050505081525091505090565b5f611040611c7b565b6001600160a01b031663132996046040518163ffffffff1660e01b8152600401602060405180830381865afa15801561107b573d5f5f3e3d5ffd5b505050506040513d601f19601f82011682018060405250810190610e78919061533a565b5f610e78306131fa565b5f5f5f5f6110b561455f565b6110be8761165d565b9094509050836110da575f5f5f5f945094509450945050611227565b8060a001516110f6575f60015f5f945094509450945050611227565b5f6110ff613445565b90505f816001600160a01b0316636553994c8a6040518263ffffffff1660e01b815260040161112e9190614706565b602060405180830381865afa158015611149573d5f5f3e3d5ffd5b505050506040513d601f19601f8201168201806040525081019061116d919061527d565b905087811061117c578761117e565b805b93505f5b84811015611217576040516325fb9d0d60e11b81526001600160c01b03198b166004820152602481018290525f906001600160a01b03851690634bf73a1a90604401602060405180830381865afa1580156111df573d5f5f3e3d5ffd5b505050506040513d601f19601f820116820180604052508101906112039190615390565b905061120e81613473565b50600101611182565b5060018060019650965096505050505b92959194509250565b611239336109c1565b61124281613473565b50565b606061124f612a3b565b51919050565b5f61125f336109c1565b6112676128d5565b6001600160a01b0316336001600160a01b03161461129a5760405163086391f760e31b8152336004820152602401610acf565b6112a3826135d9565b90505b919050565b6112b36128d5565b6001600160a01b0316336001600160a01b0316146112e65760405163086391f760e31b8152336004820152602401610acf565b61124281613631565b5f6112f8611c7b565b6001600160a01b03166382bfefc86040518163ffffffff1660e01b8152600401602060405180830381865afa15801561107b573d5f5f3e3d5ffd5b5f6113466001546001600160a01b031690565b604051632f2a35f760e11b81523060048201526001600160a01b039190911690635e546bee90602401602060405180830381865afa15801561138a573d5f5f3e3d5ffd5b505050506040513d601f19601f820116820180604052508101906113ae9190615390565b6040516330b8415f60e01b81526001600160601b03909116600482015273__$94a2c899be079b00d952d0d84fffaa5c34$__906330b8415f90602401602060405180830381865af4158015611405573d5f5f3e3d5ffd5b505050506040513d601f19601f82011682018060405250810190610e7891906153f9565b5f611432612c0c565b60405163a166aa8960e01b81523060048201526001600160a01b03919091169063a166aa8990602401602060405180830381865afa158015611476573d5f5f3e3d5ffd5b505050506040513d601f19601f8201168201806040525081019061149a91906153f9565b15905090565b606060088054806020026020016040519081016040528092919081815260200182805480156114ec57602002820191905f5260205f20905b8154815260200190600101908083116114d8575b5050505050905090565b5f611500336109c1565b60405163a9dbaf2560e01b81526004810185905273__$9a094f9b231ed0f5f85a69be8408d93180$__9063a9dbaf2590602401602060405180830381865af415801561154e573d5f5f3e3d5ffd5b505050506040513d601f19601f82011682018060405250810190611572919061527d565b5f036115b057604051631623433d60e31b81526004810185905273__$9a094f9b231ed0f5f85a69be8408d93180$__9063b11a19e890602401610a74565b60405163f49e602360e01b8152600384810b600483015283900b602482015273__$75525840104d22528dd0aa3d83b7710f11$__9063f49e602390604401602060405180830381865af4158015611609573d5f5f3e3d5ffd5b505050506040513d601f19601f8201168201806040525081019061162d9190615414565b5f94855260066020526040909420805467ffffffffffffffff19166001600160401b038616179055509192915050565b5f61166661455f565b5f61166f613445565b9050806001600160a01b031663028106fd611688611ed7565b6040516001600160e01b031960e084901b1681526001600160601b0390911660048201526001600160c01b031987166024820152604401602060405180830381865afa1580156116da573d5f5f3e3d5ffd5b505050506040513d601f19601f820116820180604052508101906116fe91906153f9565b9250821561178d5760405163887b1fa960e01b81526001600160a01b0382169063887b1fa990611732908790600401614706565b5f60405180830381865afa15801561174c573d5f5f3e3d5ffd5b505050506040513d5f823e601f3d908101601f19168201604052611773919081019061543a565b6040015180602001905181019061178a91906154e7565b91505b50915091565b61179c336109c1565b5f5f6117a78461165d565b91509150816117cb5783604051637e7b155f60e11b8152600401610acf9190614706565b6001600160a01b0383166080820152600160a082015260405161180c9085906117f8908490602001615355565b60405160208183030381529060405261369b565b50505050565b61181b336109c1565b6118236128d5565b6001600160a01b0316336001600160a01b0316146118565760405163086391f760e31b8152336004820152602401610acf565b6118608282613715565b505050565b5f61186f336109c1565b6001600160a01b03861661189657604051634504b33160e11b815260040160405180910390fd5b5f5f6118a18761165d565b91509150816118c55786604051637e7b155f60e11b8152600401610acf9190614706565b6119108673__$91d01b1eccbca8d6f94a5eb2a0acb040e9$__639fa6a6e36040518163ffffffff1660e01b8152600401602060405180830381865af4158015610c6c573d5f5f3e3d5ffd5b156119375760405163054adc0560e01b815264ffffffffff87166004820152602401610acf565b606081015164ffffffffff90811690871611156119705760405163054adc0560e01b815264ffffffffff87166004820152602401610acf565b60025461198e908690600160601b90046001600160601b0316613896565b806119ab57506003546119ab9086906001600160601b031661391b565b156119d457604051637507ca8960e11b81526001600160601b0386166004820152602401610acf565b6001546119f2908590600160a01b90046001600160601b0316613896565b80611a0f5750600254611a0f9085906001600160601b031661391b565b15611a3857604051633448892160e01b81526001600160601b0385166004820152602401610acf565b80515f9081526004602081905260408220015461ffff169073__$71e292c09eace9601b3e21e68a1278917a$__630c67422c611a75603c8561556d565b611a8090601861558c565b611a8c90610e1061558c565b6040516001600160e01b031960e084901b1681526001600160601b039091166004820152602401602060405180830381865af4158015611ace573d5f5f3e3d5ffd5b505050506040513d601f19601f82011682018060405250810190611af2919061531f565b9050611bb08a8a898985600a5f9054906101000a90046001600160601b031673__$05887d5853069c88bcd4c0a2107db45f29$__63bc1b392d6040518163ffffffff1660e01b8152600401602060405180830381865af4158015611b58573d5f5f3e3d5ffd5b505050506040513d601f19601f82011682018060405250810190611b7c91906155b9565b8d604051602001611b9c91906001600160601b0391909116815260200190565b604051602081830303815290604052613965565b9450611bbd858988613a0f565b50611c328573__$91d01b1eccbca8d6f94a5eb2a0acb040e9$__63bc1b392d6040518163ffffffff1660e01b8152600401602060405180830381865af4158015611c09573d5f5f3e3d5ffd5b505050506040513d601f19601f82011682018060405250810190611c2d919061531f565b613ab0565b6040516001600160601b03861681527fc31147b2435123798832cf3c9d8ce5cd012cb3d548b18d196793c5a8e65f57d19060200160405180910390a15050505095945050505050565b5f611c84612a3b565b60200151905090565b5f826016611c9b8282613b15565b7f0bb7aafdb8e380f81267337bc5b5dfdf76e6d3a380ecadb51ec665246d9d680e545f906001600160a01b031663f4bfe53a611cd5611ed7565b8b8d8c8c8c8c6040518863ffffffff1660e01b8152600401611cfd97969594939291906155d4565b61024060405180830381865afa158015611d19573d5f5f3e3d5ffd5b505050506040513d601f19601f82011682018060405250810190611d3d9190615651565b60a001519a9950505050505050505050565b5f611d58611333565b15611ddc576001546001600160a01b03166040516308b09a5f60e41b81523060048201526001600160a01b039190911690638b09a5f0906024015f60405180830381865afa158015611dac573d5f5f3e3d5ffd5b505050506040513d5f823e601f3d908101601f19168201604052611dd391908101906157be565b60600151905090565b507fffe8d4462baed26a47154f4b8f6db497d2f772496965791d25bd456e342b7f015460ff1690565b5f611e0f336109c1565b611e176128d5565b6001600160a01b0316336001600160a01b031614611e4a5760405163086391f760e31b8152336004820152602401610acf565b7f0bb7aafdb8e380f81267337bc5b5dfdf76e6d3a380ecadb51ec665246d9d68095460405163303c51d960e11b81526001600160a01b03848116600483015290911690636078a3b2906024015b6020604051808303815f875af1158015611eb3573d5f5f3e3d5ffd5b505050506040513d601f19601f820116820180604052508101906112a39190615390565b5f516020615d3b5f395f51905f52546001600160601b031690565b611efb336109c1565b60405163a9dbaf2560e01b81526004810187905273__$9a094f9b231ed0f5f85a69be8408d93180$__9063a9dbaf2590602401602060405180830381865af4158015611f49573d5f5f3e3d5ffd5b505050506040513d601f19601f82011682018060405250810190611f6d919061527d565b5f03611fab57604051631623433d60e31b81526004810187905273__$9a094f9b231ed0f5f85a69be8408d93180$__9063b11a19e890602401610a74565b5f8681526004602052604090205461ffff161561205157604051631623433d60e31b81526004810187905273__$9a094f9b231ed0f5f85a69be8408d93180$__9063b11a19e8906024015b5f60405180830381865af4158015612010573d5f5f3e3d5ffd5b505050506040513d5f823e601f3d908101601f1916820160405261203791908101906152e3565b604051630aad526d60e11b8152600401610acf9190614859565b6107e78561ffff16108061206a57506107f38561ffff16115b1561208e5760405163f12c259360e01b815261ffff86166004820152602401610acf565b60405163a9dbaf2560e01b81526004810184905273__$9a094f9b231ed0f5f85a69be8408d93180$__9063a9dbaf2590602401602060405180830381865af41580156120dc573d5f5f3e3d5ffd5b505050506040513d601f19601f82011682018060405250810190612100919061527d565b600a1461219557604051631623433d60e31b81526004810184905273__$9a094f9b231ed0f5f85a69be8408d93180$__9063b11a19e8906024015f60405180830381865af4158015612154573d5f5f3e3d5ffd5b505050506040513d5f823e601f3d908101601f1916820160405261217b91908101906152e3565b604051636c37376360e11b8152600401610acf9190614859565b60405163a9dbaf2560e01b81526004810183905273__$9a094f9b231ed0f5f85a69be8408d93180$__9063a9dbaf2590602401602060405180830381865af41580156121e3573d5f5f3e3d5ffd5b505050506040513d601f19601f82011682018060405250810190612207919061527d565b600a1461229c57604051631623433d60e31b81526004810183905273__$9a094f9b231ed0f5f85a69be8408d93180$__9063b11a19e8906024015f60405180830381865af415801561225b573d5f5f3e3d5ffd5b505050506040513d5f823e601f3d908101601f1916820160405261228291908101906152e3565b60405163566052bb60e01b8152600401610acf9190614859565b60328161ffff1610806122b3575060fa8161ffff16115b156122d75760405163a1314dcd60e01b815261ffff82166004820152602401610acf565b6005805460018181019092557f036b6384b5eca791c62761152d0c79bb0604c104a5fb6f4eb0703f3154bb3db0018790556040805160a08101825261ffff9788168152602081810197885281830196875260608201958652938816608082019081525f998a52600494859052919098209751885490881661ffff199182161789559551918801919091559251600287015590516003860155905193018054939092169216919091179055565b6123b86040518060a001604052805f61ffff1681526020015f81526020015f81526020015f81526020015f61ffff1681525090565b505f90815260046020818152604092839020835160a081018552815461ffff9081168252600183015493820193909352600282015494810194909452600381015460608501529091015416608082015290565b5f612414612c0c565b6001600160a01b03166376b707b76040518163ffffffff1660e01b8152600401602060405180830381865afa15801561244f573d5f5f3e3d5ffd5b505050506040513d601f19601f82011682018060405250810190610e78919061588e565b3361247c612c0c565b6001600160a01b0316816001600160a01b0316146124b75760405162d1953b60e31b81526001600160a01b0382166004820152602401610acf565b816001600160a01b03163b5f036124ec576040516361798f2f60e11b81526001600160a01b0383166004820152602401610acf565b6124f582613c49565b5050565b612502336109c1565b61250a6128d5565b6001600160a01b0316336001600160a01b03161461253d5760405163086391f760e31b8152336004820152602401610acf565b600180546001600160a01b0316600160a01b6001600160601b0397881602179055600280549486166001600160c01b031990951694909417600160601b93861684021790935560038054919094166cffffffffffffffffffffffffff199091161760ff90921602179055565b6125b2336109c1565b60405163a9dbaf2560e01b81526004810182905273__$9a094f9b231ed0f5f85a69be8408d93180$__9063a9dbaf2590602401602060405180830381865af4158015612600573d5f5f3e3d5ffd5b505050506040513d601f19601f82011682018060405250810190612624919061527d565b5f0361266257604051631623433d60e31b81526004810182905273__$9a094f9b231ed0f5f85a69be8408d93180$__9063b11a19e890602401610a74565b5f8181526007602052604090205460ff16156126b057604051631623433d60e31b81526004810182905273__$9a094f9b231ed0f5f85a69be8408d93180$__9063b11a19e890602401611ff6565b6008805460018181019092557ff3f7a9fe364faab93b216da50a3214154f22a0a2b415b23a84c8169e8b636ee3018290555f91825260076020526040909120805460ff19169091179055565b6127046145a1565b5060408051610120810182527f0bb7aafdb8e380f81267337bc5b5dfdf76e6d3a380ecadb51ec665246d9d6802546001600160a01b0380821660e084019081526001600160601b03600160a01b938490048116610100860152908452845180860186527f0bb7aafdb8e380f81267337bc5b5dfdf76e6d3a380ecadb51ec665246d9d6803548084168252849004821660208083019190915280860191909152855180870187527f0bb7aafdb8e380f81267337bc5b5dfdf76e6d3a380ecadb51ec665246d9d680454808516825285900483168183015285870152855180870187527f0bb7aafdb8e380f81267337bc5b5dfdf76e6d3a380ecadb51ec665246d9d68055480851682528590048316818301526060860152855180870187527f0bb7aafdb8e380f81267337bc5b5dfdf76e6d3a380ecadb51ec665246d9d68065480851682528590048316818301526080860152855180870187527f0bb7aafdb8e380f81267337bc5b5dfdf76e6d3a380ecadb51ec665246d9d680754808516825285900483168183015260a086015285518087019096527f0bb7aafdb8e380f81267337bc5b5dfdf76e6d3a380ecadb51ec665246d9d680854928316865292909104169083015260c081019190915290565b5f805f516020615d3b5f395f51905f5280546040516330b8415f60e01b81526001600160601b03909116600482015290915073__$94a2c899be079b00d952d0d84fffaa5c34$__906330b8415f90602401602060405180830381865af4158015612941573d5f5f3e3d5ffd5b505050506040513d601f19601f8201168201806040525081019061296591906153f9565b156129f0576001546001600160a01b03168154604051631c5da14d60e11b81526001600160601b0390911660048201526001600160a01b0391909116906338bb429a90602401602060405180830381865afa1580156129c6573d5f5f3e3d5ffd5b505050506040513d601f19601f820116820180604052508101906129ea919061533a565b91505090565b54600160601b90046001600160a01b0316919050565b5f516020615d7b5f395f51905f5280545f9190600160a01b900460ff16612a2d575f6129ea565b638fb3603760e01b91505090565b60408051808201909152606081525f6020820152612a57611333565b15612a6457610e78613ca9565b610e78612bf0565b6001546001600160a01b03166001600160a01b031663120726c36040518163ffffffff1660e01b8152600401602060405180830381865afa158015612ab3573d5f5f3e3d5ffd5b505050506040513d601f19601f82011682018060405250810190612ad7919061533a565b6001600160a01b0316336001600160a01b031614612b095760405162f0630960e01b8152336004820152602401610acf565b61180c565b604051631623433d60e31b81526004810182905260609073__$9a094f9b231ed0f5f85a69be8408d93180$__9063b11a19e8906024015f60405180830381865af4158015612b5e573d5f5f3e3d5ffd5b505050506040513d5f823e601f3d908101601f191682016040526112a391908101906152e3565b612b8e336109c1565b612b966128d5565b6001600160a01b0316336001600160a01b031614612bc95760405163086391f760e31b8152336004820152602401610acf565b600a80546bffffffffffffffffffffffff19166001600160601b0392909216919091179055565b60408051808201909152606081525f6020820152610e78613ca9565b5f516020615d7b5f395f51905f52546001600160a01b031690565b60408051610100810182525f8082526020820181905291810182905260608082018390526080820183905260a0820183905260c082019290925260e08101919091525f516020615d9b5f395f51905f52604080516101008082018352835460ff808216151584529181048216151560208085019190915262010000820483161515848601526301000000820483166060850152640100000000820490921660808401526001600160601b03650100000000008204811660a0850152600160881b9091041660c083015260018401805484518184028101840190955280855292949360e08601939092830182828015612d6d57602002820191905f5260205f20905f905b82829054906101000a90046001600160601b03166001600160601b0316815260200190600c0190602082600b01049283019260010382029150808411612d2a5790505b505050505081525050905090565b60405163cdc23e6960e01b81525f9073__$9a094f9b231ed0f5f85a69be8408d93180$__9063cdc23e6990612db4908590600401614859565b602060405180830381865af4158015612dcf573d5f5f3e3d5ffd5b505050506040513d601f19601f820116820180604052508101906112a3919061527d565b612dfc336109c1565b612e046128d5565b6001600160a01b0316336001600160a01b031614612e375760405163086391f760e31b8152336004820152602401610acf565b61124281613e62565b612e49336109c1565b826015612e568282613b15565b5050505050565b5f81806020019051810190612e729190615390565b95945050505050565b606060058054806020026020016040519081016040528092919081815260200182805480156114ec57602002820191905f5260205f20908154815260200190600101908083116114d8575050505050905090565b60608201516080820151604051636a88f0a760e11b81526001600160a01b03821660048201525f92919073__$bf7bc340cbb9229ef1de2c568356e67902$__9063d511e14e90602401602060405180830381865af4158015612f33573d5f5f3e3d5ffd5b505050506040513d601f19601f82011682018060405250810190612f5791906153f9565b15612fd05773__$3bac17678db7ae928afa209f2f44deec9c$__63bc1b392d6040518163ffffffff1660e01b8152600401602060405180830381865af4158015612fa3573d5f5f3e3d5ffd5b505050506040513d601f19601f82011682018060405250810190612fc79190615390565b9250505061305e565b604051636e5912e760e01b81526001600160601b03831660048201526001600160a01b038216602482015273__$3bac17678db7ae928afa209f2f44deec9c$__90636e5912e790604401602060405180830381865af4158015613035573d5f5f3e3d5ffd5b505050506040513d601f19601f820116820180604052508101906130599190615390565b925050505b92915050565b5f516020615d7b5f395f51905f525f8061309c61307f612c0c565b873061308e60045f8a8c6158a9565b613097916158d0565b613ed7565b915091508161315a5763ffffffff81161561313757825460ff60a01b1916600160a01b1783556130ca612c0c565b6001600160a01b03166394c7d7ee8787876040518463ffffffff1660e01b81526004016130f993929190615906565b5f604051808303815f87803b158015613110575f5ffd5b505af1158015613122573d5f5f3e3d5ffd5b5050845460ff60a01b191685555061315a9050565b60405162d1953b60e31b81526001600160a01b0387166004820152602401610acf565b505050505050565b7f0bb7aafdb8e380f81267337bc5b5dfdf76e6d3a380ecadb51ec665246d9d680a5460405163c3fa12bb60e01b81525f916001600160a01b03169063c3fa12bb906131b39086908690600401615945565b6020604051808303815f875af11580156131cf573d5f5f3e3d5ffd5b505050506040513d601f19601f820116820180604052508101906131f391906155b9565b9392505050565b5f805f516020615d3b5f395f51905f5280546040516330b8415f60e01b81526001600160601b03909116600482015290915073__$94a2c899be079b00d952d0d84fffaa5c34$__906330b8415f90602401602060405180830381865af4158015613266573d5f5f3e3d5ffd5b505050506040513d601f19601f8201168201806040525081019061328a91906153f9565b156132b65780546040516301ab8b6760e21b81526001600160601b039091166004820152602401610acf565b6001546001600160a01b031660405163c3c5a54760e01b81526001600160a01b038581166004830152919091169063c3c5a54790602401602060405180830381865afa158015613308573d5f5f3e3d5ffd5b505050506040513d601f19601f8201168201806040525081019061332c91906153f9565b6133545760405163b9304b0d60e01b81526001600160a01b0384166004820152602401610acf565b6001546001600160a01b0316604051632f2a35f760e11b81526001600160a01b0385811660048301529190911690635e546bee90602401602060405180830381865afa1580156133a6573d5f5f3e3d5ffd5b505050506040513d601f19601f820116820180604052508101906133ca9190615390565b81546bffffffffffffffffffffffff19166001600160601b03919091161781556133f26128d5565b81546040516001600160a01b0392909216916001600160601b03909116907f88857b75cbef7f257c9d5a473e28aaf6a91cc28f717f60f2cda3bcf5623d7b54905f90a3546001600160601b031692915050565b7fffe3d4462bded26a47154f4b8f6db494d2f772496965791d25bd456e342b7f01546001600160a01b031690565b5f61347c613445565b60405163bd7d9d8560e01b81526001600160601b03841660048201526001600160a01b03919091169063bd7d9d85906024015f60405180830381865afa1580156134c8573d5f5f3e3d5ffd5b505050506040513d5f823e601f3d908101601f191682016040526134ef9190810190615968565b90505f5f613500836040015161165d565b9150915081613528578260400151604051637e7b155f60e11b8152600401610acf9190614706565b8060a0015161355057826040015160405163799e0adf60e01b8152600401610acf9190614706565b61355b848483613fdf565b6135cf8473__$91d01b1eccbca8d6f94a5eb2a0acb040e9$__639fa6a6e36040518163ffffffff1660e01b8152600401602060405180830381865af41580156135a6573d5f5f3e3d5ffd5b505050506040513d601f19601f820116820180604052508101906135ca919061531f565b6140d9565b5061180c8461416a565b7fffe3d4462bded26a47154f4b8f6db494d2f772496965791d25bd456e342b7f03546040516301c6b21960e41b81526001600160601b03831660048201525f916001600160a01b031690631c6b219090602401611e97565b5f516020615d5b5f395f51905f526001015460405163108f145b60e11b815282151560048201526101009091046001600160a01b03169063211e28b6906024015b5f604051808303815f87803b158015613689575f5ffd5b505af1158015612e56573d5f5f3e3d5ffd5b7f0bb7aafdb8e380f81267337bc5b5dfdf76e6d3a380ecadb51ec665246d9d680a54604051638f997f6d60e01b81526001600160a01b0390911690638f997f6d906136ec9085908590600401615afb565b5f604051808303815f87803b158015613703575f5ffd5b505af115801561315a573d5f5f3e3d5ffd5b5f73__$3bac17678db7ae928afa209f2f44deec9c$__634c41dd96846001600160a01b031663dd62ed3e613747611c7b565b6040516001600160e01b031960e084901b1681526001600160a01b039091166004820152306024820152604401602060405180830381865afa15801561378f573d5f5f3e3d5ffd5b505050506040513d601f19601f820116820180604052508101906137b3919061527d565b6040518263ffffffff1660e01b81526004016137d191815260200190565b602060405180830381865af41580156137ec573d5f5f3e3d5ffd5b505050506040513d601f19601f820116820180604052508101906138109190615390565b90505f516020615d5b5f395f51905f52600101546040516320c8cbff60e11b81526001600160a01b0385811660048301526001600160601b03851660248301526101009092049091169063419197fe906044015f604051808303815f87803b15801561387a575f5ffd5b505af115801561388c573d5f5f3e3d5ffd5b5050505092915050565b6040516304d40eb160e11b81526001600160601b038084166004830152821660248201525f9073__$3bac17678db7ae928afa209f2f44deec9c$__906309a81d62906044015b602060405180830381865af41580156138f7573d5f5f3e3d5ffd5b505050506040513d601f19601f820116820180604052508101906131f391906153f9565b604051632601631360e21b81526001600160601b038084166004830152821660248201525f9073__$3bac17678db7ae928afa209f2f44deec9c$__906398058c4c906044016138dc565b7f0bb7aafdb8e380f81267337bc5b5dfdf76e6d3a380ecadb51ec665246d9d680b54604051639a83274160e01b81525f916001600160a01b031690639a832741906139c2908c908c908c908c908c908c908c908c90600401615b1f565b6020604051808303815f875af11580156139de573d5f5f3e3d5ffd5b505050506040513d601f19601f82011682018060405250810190613a029190615390565b9998505050505050505050565b5f5f516020615d9b5f395f51905f52600c015460405163d22413e560e01b81526001600160601b03808716600483015264ffffffffff86166024830152841660448201526001600160a01b039091169063d22413e5906064016020604051808303815f875af1158015613a84573d5f5f3e3d5ffd5b505050506040513d601f19601f82011682018060405250810190613aa89190615390565b949350505050565b7f0bb7aafdb8e380f81267337bc5b5dfdf76e6d3a380ecadb51ec665246d9d680c54604051635dfddfdd60e11b81526001600160601b038416600482015264ffffffffff831660248201526001600160a01b039091169063bbfbbfba906044016136ec565b60405163037c8cb160e51b815260ff8216600482015273__$0d958e68cba84670b8f4a3f2f2686b1c6b$__90636f91962090602401602060405180830381865af4158015613b65573d5f5f3e3d5ffd5b505050506040513d601f19601f82011682018060405250810190613b8991906153f9565b80613c1757506001546001600160a01b0316604051635b12715d60e11b81526001600160601b038416600482015260ff831660248201526001600160a01b03919091169063b624e2ba90604401602060405180830381865afa158015613bf1573d5f5f3e3d5ffd5b505050506040513d601f19601f82011682018060405250810190613c1591906153f9565b155b156124f55760405163d711af7560e01b81526001600160601b038316600482015260ff82166024820152604401610acf565b5f516020615d7b5f395f51905f5280546001600160a01b0383166001600160a01b03199091168117825560408051918252517f2f658b440c35314f52658ea8a740e05b284cdc84dc9ae01e891f21b8933e7cad9181900360200190a15050565b60408051808201909152606081525f60208201525f613cd06001546001600160a01b031690565b604051632f2a35f760e11b81523060048201526001600160a01b039190911690635e546bee90602401602060405180830381865afa158015613d14573d5f5f3e3d5ffd5b505050506040513d601f19601f82011682018060405250810190613d389190615390565b6040516330b8415f60e01b81526001600160601b038216600482015290915073__$94a2c899be079b00d952d0d84fffaa5c34$__906330b8415f90602401602060405180830381865af4158015613d91573d5f5f3e3d5ffd5b505050506040513d601f19601f82011682018060405250810190613db591906153f9565b15613e5a57613dc2613445565b6001600160a01b031663f0ea17c3613dd8611ed7565b6040516001600160e01b031960e084901b1681526001600160601b0390911660048201526024015f60405180830381865afa158015613e19573d5f5f3e3d5ffd5b505050506040513d5f823e601f3d908101601f19168201604052613e409190810190615b95565b60208101519092506001600160a01b031615613e5a575090565b6129ea6141c2565b613e6a6128d5565b6001600160a01b0316336001600160a01b031614613e9d5760405163086391f760e31b8152336004820152602401610acf565b613ea7600b61428c565b60405163deaa59df60e01b81526001600160a01b038381166004830152919091169063deaa59df90602401613672565b6040516001600160a01b03848116602483015283811660448301526001600160e01b0319831660648301525f9182918291829189169060840160408051601f198184030181529181526020820180516001600160e01b031663b700961360e01b17905251613f459190615c33565b5f60405180830381855afa9150503d805f8114613f7d576040519150601f19603f3d011682016040523d82523d5f602084013e613f82565b606091505b50915091508115613fd4576040815110613fb45780806020019051810190613faa9190615c49565b9094509250613fd4565b6020815110613fd45780806020019051810190613fd191906153f9565b93505b505094509492505050565b5f613fea8383612ecf565b604051630a4d29dd60e31b81526001600160601b038216600482015290915073__$3bac17678db7ae928afa209f2f44deec9c$__906352694ee890602401602060405180830381865af4158015614043573d5f5f3e3d5ffd5b505050506040513d601f19601f8201168201806040525081019061406791906153f9565b156140725750505050565b5f61408c858360405180602001604052805f81525061431d565b90506140a885828460405180602001604052805f8152506143b0565b5f6140c386838560405180602001604052805f81525061442e565b90506140cf86826144c3565b5050505050505050565b5f5f516020615d9b5f395f51905f52600c0154604051637baa9a0b60e01b81526001600160601b038516600482015264ffffffffff841660248201526001600160a01b0390911690637baa9a0b906044016020604051808303815f875af1158015614146573d5f5f3e3d5ffd5b505050506040513d601f19601f820116820180604052508101906131f3919061531f565b7f0bb7aafdb8e380f81267337bc5b5dfdf76e6d3a380ecadb51ec665246d9d680c54604051630155751d60e31b81526001600160601b03831660048201526001600160a01b0390911690630aaba8e890602401613672565b60408051808201909152606081525f60208201525f5f516020615d5b5f395f51905f5290506040518060400160405280825f018054614200906153ab565b80601f016020809104026020016040519081016040528092919081815260200182805461422c906153ab565b80156142775780601f1061424e57610100808354040283529160200191614277565b820191905f5260205f20905b81548152906001019060200180831161425a57829003601f168201915b50505091835250505f60209091015292915050565b5f61429f6001546001600160a01b031690565b6001600160a01b031663d39e6043836142b661240b565b6040516001600160e01b031960e085901b16815260ff928316600482015291166024820152604401602060405180830381865afa1580156142f9573d5f5f3e3d5ffd5b505050506040513d601f19601f820116820180604052508101906112a3919061533a565b7f0bb7aafdb8e380f81267337bc5b5dfdf76e6d3a380ecadb51ec665246d9d680d546040516374b775eb60e01b81525f916001600160a01b0316906374b775eb9061437090879087908790600401615c7e565b6020604051808303815f875af115801561438c573d5f5f3e3d5ffd5b505050506040513d601f19601f82011682018060405250810190613aa89190615cae565b7f0bb7aafdb8e380f81267337bc5b5dfdf76e6d3a380ecadb51ec665246d9d680d54604051636e2cdce760e01b81526001600160a01b0390911690636e2cdce790614405908790879087908790600401615cc9565b5f604051808303815f87803b15801561441c575f5ffd5b505af11580156140cf573d5f5f3e3d5ffd5b7f0bb7aafdb8e380f81267337bc5b5dfdf76e6d3a380ecadb51ec665246d9d680d54604051631e2992c760e11b81525f916001600160a01b031690633c53258e90614483908890889088908890600401615cc9565b6020604051808303815f875af115801561449f573d5f5f3e3d5ffd5b505050506040513d601f19601f82011682018060405250810190612e72919061531f565b5f805f516020615d9b5f395f51905f52600d015460405163137a92a760e01b81526001600160601b038616600482015264ffffffffff851660248201526001600160a01b039091169063137a92a79060440160408051808303815f875af1158015614530573d5f5f3e3d5ffd5b505050506040513d601f19601f820116820180604052508101906145549190615d0d565b909590945092505050565b6040518060c001604052805f81526020015f81526020015f81526020015f64ffffffffff1681526020015f6001600160a01b031681526020015f151581525090565b6040805161012081019091525f60e08201818152610100830191909152819081526020016145de604080518082019091525f808252602082015290565b81526020016145fc604080518082019091525f808252602082015290565b815260200161461a604080518082019091525f808252602082015290565b8152602001614638604080518082019091525f808252602082015290565b8152602001614656604080518082019091525f808252602082015290565b8152602001614674604080518082019091525f808252602082015290565b905290565b5f60208284031215614689575f5ffd5b81356001600160e01b0319811681146131f3575f5ffd5b64ffffffffff81168114611242575f5ffd5b80356112a6816146a0565b5f5f5f5f5f60a086880312156146d1575f5ffd5b8535945060208601359350604086013592506060860135915060808601356146f8816146a0565b809150509295509295909350565b6001600160c01b031991909116815260200190565b5f81518084528060208401602086015e5f602082860101526020601f19601f83011685010191505092915050565b602081526001600160601b0382511660208201526001600160601b03602083015116604082015260ff60408301511660608201525f6060830151614791608084018215159052565b5060808301516001600160a01b03811660a08401525060a08301516001600160a01b03811660c08401525060c083015160e080840152613aa861010084018261471b565b6001600160c01b031981168114611242575f5ffd5b80356112a6816147d5565b5f5f60408385031215614806575f5ffd5b8235614811816147d5565b946020939093013593505050565b6001600160601b0381168114611242575f5ffd5b80356112a68161481f565b5f6020828403121561484e575f5ffd5b81356131f38161481f565b602081525f6131f3602083018461471b565b8015158114611242575f5ffd5b5f60208284031215614888575f5ffd5b81356131f38161486b565b602080825282518282018190525f918401906040840190835b818110156148ca5783518352602093840193909201916001016148ac565b509095945050505050565b8035600381900b81146112a6575f5ffd5b5f5f5f606084860312156148f8575f5ffd5b83359250614908602085016148d5565b9150614916604085016148d5565b90509250925092565b5f6020828403121561492f575f5ffd5b81356131f3816147d5565b80518252602080820151908301526040808201519083015260608082015164ffffffffff16908301526080808201516001600160a01b03169083015260a0908101511515910152565b821515815260e081016131f3602083018461493a565b6001600160a01b0381168114611242575f5ffd5b5f5f604083850312156149be575f5ffd5b82356149c9816147d5565b915060208301356149d981614999565b809150509250929050565b5f5f604083850312156149f5575f5ffd5b8235614a0081614999565b915060208301356149d98161481f565b5f5f5f5f5f60a08688031215614a24575f5ffd5b8535614a2f81614999565b94506020860135614a3f816147d5565b93506040860135614a4f816146a0565b92506060860135614a5f8161481f565b915060808601356146f88161481f565b634e487b7160e01b5f52604160045260245ffd5b60405160c081016001600160401b0381118282101715614aa557614aa5614a6f565b60405290565b60405161020081016001600160401b0381118282101715614aa557614aa5614a6f565b60405161024081016001600160401b0381118282101715614aa557614aa5614a6f565b60405160e081016001600160401b0381118282101715614aa557614aa5614a6f565b604051601f8201601f191681016001600160401b0381118282101715614b3b57614b3b614a6f565b604052919050565b5f6001600160401b03821115614b5b57614b5b614a6f565b50601f01601f191660200190565b5f614b7b614b7684614b43565b614b13565b9050828152838383011115614b8e575f5ffd5b828260208301375f602084830101529392505050565b5f82601f830112614bb3575f5ffd5b6131f383833560208501614b69565b5f5f5f5f5f5f60c08789031215614bd7575f5ffd5b8635614be28161481f565b95506020870135614bf2816147d5565b94506040870135614c02816146a0565b935060608701356001600160401b03811115614c1c575f5ffd5b614c2889828a01614ba4565b9350506080870135614c398161481f565b915060a0870135614c49816147d5565b809150509295509295509295565b5f60208284031215614c67575f5ffd5b5035919050565b5f60208284031215614c7e575f5ffd5b81356131f381614999565b61ffff81168114611242575f5ffd5b80356112a681614c89565b5f5f5f5f5f5f60c08789031215614cb8575f5ffd5b863595506020870135614cca81614c89565b945060408701359350606087013592506080870135915060a0870135614c4981614c89565b60ff81168114611242575f5ffd5b5f5f5f5f5f60a08688031215614d11575f5ffd5b8535614d1c8161481f565b94506020860135614d2c8161481f565b93506040860135614d3c8161481f565b92506060860135614d4c8161481f565b915060808601356146f881614cef565b80516001600160a01b031682526020908101516001600160601b0316910152565b5f6101c082019050614d90828451614d5c565b6020830151614da26040840182614d5c565b506040830151614db56080840182614d5c565b506060830151614dc860c0840182614d5c565b506080830151614ddc610100840182614d5c565b5060a0830151614df0610140840182614d5c565b5060c0830151614e04610180840182614d5c565b5092915050565b602081525f825160406020840152614e26606084018261471b565b602094909401516001600160a01b0316604093909301929092525090919050565b5f5f5f5f60808587031215614e5a575f5ffd5b8435614e6581614999565b93506020850135614e7581614999565b9250604085013591506060850135614e8c81614999565b939692955090935050565b5f8151808452602084019350602083015f5b82811015614ed05781516001600160601b0316865260209586019590910190600101614ea9565b5093949350505050565b602081528151151560208201526020820151151560408201525f6040830151614f07606084018215159052565b50606083015160ff8116608084015250608083015160ff811660a08401525060a08301516001600160601b03811660c08401525060c08301516001600160601b03811660e08401525060e083015161010080840152613aa8610120840182614e97565b5f60208284031215614f7a575f5ffd5b81356001600160401b03811115614f8f575f5ffd5b8201601f81018413614f9f575f5ffd5b613aa884823560208401614b69565b5f5f5f60608486031215614fc0575f5ffd5b8335614fcb8161481f565b92506020840135614fdb81614c89565b91506040840135614feb8161481f565b809150509250925092565b5f5f5f5f60808587031215615009575f5ffd5b84356150148161481f565b93506020850135615024816147d5565b92506040850135615034816146a0565b915060608501356001600160401b0381111561504e575f5ffd5b61505a87828801614ba4565b91505092959194509250565b5f60c08284031215615076575f5ffd5b61507e614a83565b823581526020808401359082015260408084013590820152905060608201356150a6816146a0565b606082015260808201356150b981614999565b608082015260a08201356150cc8161486b565b60a082015292915050565b5f5f60e083850312156150e8575f5ffd5b82356001600160401b038111156150fd575f5ffd5b8301610200818603121561510f575f5ffd5b615117614aab565b61512082614833565b815261512e60208301614833565b602082015261513f604083016147ea565b604082015261515060608301614833565b606082015261516160808301614833565b608082015261517260a083016147ea565b60a082015261518360c08301614c98565b60c082015261519460e08301614c98565b60e08201526151a66101008301614833565b6101008201526151b96101208301614833565b6101208201526151cc61014083016146b2565b6101408201526151df61016083016146b2565b6101608201526151f261018083016146b2565b6101808201526152056101a083016146b2565b6101a08201526101c08201356001600160401b03811115615224575f5ffd5b61523087828501614ba4565b6101c0830152506101e08201356001600160401b03811115615250575f5ffd5b61525c87828501614ba4565b6101e083015250925061527490508460208501615066565b90509250929050565b5f6020828403121561528d575f5ffd5b5051919050565b5f82601f8301126152a3575f5ffd5b8151602083015f6152b6614b7684614b43565b90508281528583830111156152c9575f5ffd5b8282602083015e5f92810160200192909252509392505050565b5f602082840312156152f3575f5ffd5b81516001600160401b03811115615308575f5ffd5b613aa884828501615294565b80516112a6816146a0565b5f6020828403121561532f575f5ffd5b81516131f3816146a0565b5f6020828403121561534a575f5ffd5b81516131f381614999565b60c0810161305e828461493a565b5f60208284031215615373575f5ffd5b815162ffffff811681146131f3575f5ffd5b80516112a68161481f565b5f602082840312156153a0575f5ffd5b81516131f38161481f565b600181811c908216806153bf57607f821691505b6020821081036153dd57634e487b7160e01b5f52602260045260245ffd5b50919050565b80516112a681614999565b80516112a68161486b565b5f60208284031215615409575f5ffd5b81516131f38161486b565b5f60208284031215615424575f5ffd5b81516001600160401b03811681146131f3575f5ffd5b5f6020828403121561544a575f5ffd5b81516001600160401b0381111561545f575f5ffd5b820160608185031215615470575f5ffd5b604051606081016001600160401b038111828210171561549257615492614a6f565b60405281516154a08161481f565b815260208201516154b0816146a0565b602082015260408201516001600160401b038111156154cd575f5ffd5b6154d986828501615294565b604083015250949350505050565b5f60c08284031280156154f8575f5ffd5b50615501614a83565b8251815260208084015190820152604080840151908201526060830151615527816146a0565b6060820152608083015161553a81614999565b608082015260a083015161554d8161486b565b60a08201529392505050565b634e487b7160e01b5f52601160045260245ffd5b6001600160601b03818116838216019081111561305e5761305e615559565b6001600160601b038181168382160290811690818114614e0457614e04615559565b80516112a6816147d5565b5f602082840312156155c9575f5ffd5b81516131f3816147d5565b6001600160601b03881681526001600160401b0360c01b871660208201526001600160601b038616604082015264ffffffffff8516606082015260e060808201525f61562360e083018661471b565b6001600160601b039490941660a0830152506001600160c01b03199190911660c09091015295945050505050565b5f610240828403128015615663575f5ffd5b5061566c614ace565b61567583615385565b815261568360208401615385565b602082015261569460408401615385565b60408201526156a560608401615385565b60608201526156b660808401615385565b60808201526156c760a08401615385565b60a08201526156d860c08401615385565b60c08201526156e960e08401615385565b60e08201526156fb6101008401615385565b61010082015261570e6101208401615385565b6101208201526157216101408401615385565b6101408201526157346101608401615385565b6101608201526157476101808401615385565b61018082015261575a6101a08401615385565b6101a082015261576d6101c08401615385565b6101c08201526157806101e08401615385565b6101e08201526157936102008401615385565b6102008201526157a66102208401615385565b6102208201529392505050565b80516112a681614cef565b5f602082840312156157ce575f5ffd5b81516001600160401b038111156157e3575f5ffd5b820160e081850312156157f4575f5ffd5b6157fc614af1565b61580582615385565b815261581360208301615385565b6020820152615824604083016157b3565b6040820152615835606083016153ee565b6060820152615846608083016153e3565b608082015261585760a083016153e3565b60a082015260c08201516001600160401b03811115615874575f5ffd5b61588086828501615294565b60c083015250949350505050565b5f6020828403121561589e575f5ffd5b81516131f381614cef565b5f5f858511156158b7575f5ffd5b838611156158c3575f5ffd5b5050820193919092039150565b80356001600160e01b03198116906004841015614e04576001600160e01b031960049490940360031b84901b1690921692915050565b6001600160a01b03841681526040602082018190528101829052818360608301375f818301606090810191909152601f909201601f1916010192915050565b828152604060208201525f613aa8604083018461471b565b80516112a681614c89565b5f60208284031215615978575f5ffd5b81516001600160401b0381111561598d575f5ffd5b8201610200818503121561599f575f5ffd5b6159a7614aab565b6159b082615385565b81526159be60208301615385565b60208201526159cf604083016155ae565b60408201526159e060608301615385565b60608201526159f160808301615385565b6080820152615a0260a083016155ae565b60a0820152615a1360c0830161595d565b60c0820152615a2460e0830161595d565b60e0820152615a366101008301615385565b610100820152615a496101208301615385565b610120820152615a5c6101408301615314565b610140820152615a6f6101608301615314565b610160820152615a826101808301615314565b610180820152615a956101a08301615314565b6101a08201526101c08201516001600160401b03811115615ab4575f5ffd5b615ac086828501615294565b6101c0830152506101e08201516001600160401b03811115615ae0575f5ffd5b615aec86828501615294565b6101e083015250949350505050565b6001600160401b0360c01b83168152604060208201525f613aa8604083018461471b565b6001600160a01b03891681526001600160c01b031988811660208301526001600160601b038881166040840152878116606084015264ffffffffff87166080840152851660a0830152831660c082015261010060e082018190525f90615b879083018461471b565b9a9950505050505050505050565b5f60208284031215615ba5575f5ffd5b81516001600160401b03811115615bba575f5ffd5b820160408185031215615bcb575f5ffd5b604080519081016001600160401b0381118282101715615bed57615bed614a6f565b60405281516001600160401b03811115615c05575f5ffd5b615c1186828501615294565b82525060208201519150615c2482614999565b60208101919091529392505050565b5f82518060208501845e5f920191825250919050565b5f5f60408385031215615c5a575f5ffd5b8251615c658161486b565b602084015190925063ffffffff811681146149d9575f5ffd5b6001600160601b03841681526001600160601b0383166020820152606060408201525f612e72606083018461471b565b5f60208284031215615cbe575f5ffd5b81516131f381614c89565b6001600160601b038516815261ffff841660208201526001600160601b0383166040820152608060608201525f615d03608083018461471b565b9695505050505050565b5f5f60408385031215615d1e575f5ffd5b8251615d298161481f565b60208401519092506149d98161481f56fe07ebcf49758b6ed3af50fa146bec0abe157c0218fe65dc0874c286e9d5da4f00ffe8d4462baed26a47154f4b8f6db497d2f772496965791d25bd456e342b7f00f3177357ab46d8af007ab3fdb9af81da189e1068fefdc0073dca88a2cab40a000bb7aafdb8e380f81267337bc5b5dfdf76e6d3a380ecadb51ec665246d9d6800a2646970667358221220a572b2229acd9ab5099088396fe58e8b6385660d1485945bb8b8ea535e79413864736f6c634300081b0033f3177357ab46d8af007ab3fdb9af81da189e1068fefdc0073dca88a2cab40a00f0c57e16840df040f15088dc2f81fe391c3923bec73e23a9662efc9c229c6a00","linkReferences":{"contracts/examples/crop/Location.sol":{"LocationLib":[{"start":11697,"length":20}]},"contracts/shared/ContractLib.sol":{"ContractLib":[{"start":3881,"length":20},{"start":4463,"length":20}]},"contracts/type/Amount.sol":{"AmountLib":[{"start":18238,"length":20},{"start":18397,"length":20},{"start":20216,"length":20},{"start":20638,"length":20},{"start":20771,"length":20},{"start":22507,"length":20}]},"contracts/type/Fee.sol":{"FeeLib":[{"start":630,"length":20},{"start":741,"length":20},{"start":852,"length":20},{"start":963,"length":20},{"start":1074,"length":20},{"start":1185,"length":20},{"start":1296,"length":20}]},"contracts/type/NftId.sol":{"NftIdLib":[{"start":331,"length":20},{"start":452,"length":20},{"start":9924,"length":20},{"start":11181,"length":20},{"start":16617,"length":20},{"start":18958,"length":20},{"start":21817,"length":20}]},"contracts/type/ObjectType.sol":{"ObjectTypeLib":[{"start":21261,"length":20}]},"contracts/type/Referral.sol":{"ReferralLib":[{"start":13043,"length":20}]},"contracts/type/Seconds.sol":{"SecondsLib":[{"start":12850,"length":20}]},"contracts/type/String.sol":{"StrLib":[{"start":8638,"length":20},{"start":8758,"length":20},{"start":8934,"length":20},{"start":9097,"length":20},{"start":11510,"length":20},{"start":11630,"length":20},{"start":14065,"length":20},{"start":14185,"length":20},{"start":14264,"length":20},{"start":14468,"length":20},{"start":14589,"length":20},{"start":14731,"length":20},{"start":14852,"length":20},{"start":15784,"length":20},{"start":15904,"length":20},{"start":15982,"length":20},{"start":17159,"length":20},{"start":17772,"length":20}]},"contracts/type/Timestamp.sol":{"TimestampLib":[{"start":9223,"length":20},{"start":12459,"length":20},{"start":13220,"length":20},{"start":19777,"length":20}]},"contracts/type/UFixed.sol":{"UFixedLib":[{"start":9471,"length":20},{"start":18139,"length":20}]},"contracts/type/Version.sol":{"VersionLib":[{"start":9724,"length":20}]}}},"methodIdentifiers":{"COMPONENT_LOCATION_V1()":"ea15869f","GRACE_PERIOD_DAYS()":"ccfae201","INSTANCE_LINKED_COMPONENT_LOCATION_V1()":"2eb3e6f4","MAX_POLICIES_TO_PROCESS()":"4b396c4f","MAX_PREMIUM()":"4cdabb16","MAX_SUM_INSURED()":"a4846cbf","MIN_PREMIUM()":"be5c8f44","MIN_SUM_INSURED()":"def6aeca","NFT_OWNABLE_STORAGE_LOCATION_V1()":"ada9652e","PRODUCT_STORAGE_LOCATION_V1()":"e9b2460c","REGISTERABLE_LOCATION_V1()":"1eff4b22","approveTokenHandler(address,uint96)":"419197fe","authority()":"bf7e214f","calculateNetPremium(uint96,bytes8,uint40,bytes)":"f179d064","calculatePayout((uint96,uint96,bytes8,uint96,uint96,bytes8,uint16,uint16,uint96,uint96,uint40,uint40,uint40,uint40,bytes,bytes),(bytes32,bytes32,bytes32,uint40,uint160,bool))":"ffa1805e","calculatePremium(uint96,bytes8,uint40,bytes,uint96,bytes8)":"5349d2a8","createCrop(bytes32)":"7f73fa9c","createLocation(bytes32,int32,int32)":"2a6f8ef2","createPolicy(address,bytes8,uint40,uint96,uint96)":"422e9f41","createRisk(bytes32,bytes32,bytes32,bytes32,uint40)":"0228ec7b","createSeason(bytes32,uint16,bytes32,bytes32,bytes32,uint16)":"6f336d7c","crops()":"23c9bc52","getAuthorization()":"6bd1c0eb","getComponentInfo()":"90edbd35","getInitialComponentInfo()":"b423086c","getInitialFeeInfo()":"844e0f20","getInitialInfo()":"0fec111c","getInitialProductInfo()":"c108bd4c","getInstance()":"de7b5d14","getLocation(bytes32)":"5be6405e","getName()":"17d7de7c","getNftId()":"644c45e0","getOwner()":"893d20e8","getRegistry()":"5ab1bd53","getRelease()":"76b707b7","getRisk(bytes8)":"3405f20c","getRiskId(bytes32)":"694ac999","getSeason(bytes32)":"729ff16c","getToken()":"21df0da7","getTokenHandler()":"43d752d3","getVersion()":"0d8e6e2c","getWallet()":"13299604","isActive()":"22f3e2d4","isConsumingScheduledOp()":"8fb36037","isNftInterceptor()":"5741e5e9","isRegistered()":"22366844","linkToRegisteredNftId()":"138461e0","nftTransferFrom(address,address,uint256,address)":"ad12ad60","processFundedClaim(uint96,uint16,uint96)":"e1f216fa","processPoliciesForRisk(bytes8,uint256)":"152240da","processPolicy(uint96)":"15539f69","registerComponent(address)":"6078a3b2","seasons()":"f44f30cd","setAuthority(address)":"7a9e5e4b","setConstants(uint96,uint96,uint96,uint96,uint8)":"7d1c5290","setDefaultBundle(uint96)":"b277d780","setLocked(bool)":"211e28b6","setWallet(address)":"deaa59df","supportsInterface(bytes4)":"01ffc9a7","toStr(string)":"cdc23e69","toString(bytes32)":"b11a19e8","updatePayoutFactor(bytes8,uint160)":"3c2dd0e9","withdrawFees(uint96)":"1c6b2190"},"id":23}