{"abi":[{"type":"function","name":"MAX_POLICIES_TO_PROCESS","inputs":[],"outputs":[{"name":"","type":"uint8","internalType":"uint8"}],"stateMutability":"view"},{"type":"function","name":"MAX_PREMIUM","inputs":[],"outputs":[{"name":"","type":"uint96","internalType":"Amount"}],"stateMutability":"view"},{"type":"function","name":"MAX_SUM_INSURED","inputs":[],"outputs":[{"name":"","type":"uint96","internalType":"Amount"}],"stateMutability":"view"},{"type":"function","name":"MIN_PREMIUM","inputs":[],"outputs":[{"name":"","type":"uint96","internalType":"Amount"}],"stateMutability":"view"},{"type":"function","name":"MIN_SUM_INSURED","inputs":[],"outputs":[{"name":"","type":"uint96","internalType":"Amount"}],"stateMutability":"view"},{"type":"function","name":"createCrop","inputs":[{"name":"crop","type":"bytes32","internalType":"Str"}],"outputs":[],"stateMutability":"nonpayable"},{"type":"function","name":"createLocation","inputs":[{"name":"locationId","type":"bytes32","internalType":"Str"},{"name":"latitude","type":"int32","internalType":"int32"},{"name":"longitude","type":"int32","internalType":"int32"}],"outputs":[{"name":"location","type":"uint64","internalType":"Location"}],"stateMutability":"nonpayable"},{"type":"function","name":"createPolicy","inputs":[{"name":"policyHolder","type":"address","internalType":"address"},{"name":"riskId","type":"bytes8","internalType":"RiskId"},{"name":"activateAt","type":"uint40","internalType":"Timestamp"},{"name":"sumInsuredAmount","type":"uint96","internalType":"Amount"},{"name":"premiumAmount","type":"uint96","internalType":"Amount"}],"outputs":[{"name":"policyNftId","type":"uint96","internalType":"NftId"}],"stateMutability":"nonpayable"},{"type":"function","name":"createRisk","inputs":[{"name":"id","type":"bytes32","internalType":"Str"},{"name":"seasonId","type":"bytes32","internalType":"Str"},{"name":"locationId","type":"bytes32","internalType":"Str"},{"name":"crop","type":"bytes32","internalType":"Str"},{"name":"seasonEndAt","type":"uint40","internalType":"Timestamp"}],"outputs":[{"name":"riskId","type":"bytes8","internalType":"RiskId"}],"stateMutability":"nonpayable"},{"type":"function","name":"createSeason","inputs":[{"name":"seasonId","type":"bytes32","internalType":"Str"},{"name":"year","type":"uint16","internalType":"uint16"},{"name":"name","type":"bytes32","internalType":"Str"},{"name":"seasonStart","type":"bytes32","internalType":"Str"},{"name":"seasonEnd","type":"bytes32","internalType":"Str"},{"name":"seasonDays","type":"uint16","internalType":"uint16"}],"outputs":[],"stateMutability":"nonpayable"},{"type":"function","name":"crops","inputs":[],"outputs":[{"name":"","type":"bytes32[]","internalType":"Str[]"}],"stateMutability":"view"},{"type":"function","name":"getLocation","inputs":[{"name":"locationId","type":"bytes32","internalType":"Str"}],"outputs":[{"name":"location","type":"uint64","internalType":"Location"}],"stateMutability":"view"},{"type":"function","name":"getRisk","inputs":[{"name":"riskId","type":"bytes8","internalType":"RiskId"}],"outputs":[{"name":"exists","type":"bool","internalType":"bool"},{"name":"cropRisk","type":"tuple","internalType":"struct CropProduct.CropRisk","components":[{"name":"seasonId","type":"bytes32","internalType":"Str"},{"name":"locationId","type":"bytes32","internalType":"Str"},{"name":"crop","type":"bytes32","internalType":"Str"},{"name":"seasonEndAt","type":"uint40","internalType":"Timestamp"},{"name":"payoutFactor","type":"uint160","internalType":"UFixed"},{"name":"payoutDefined","type":"bool","internalType":"bool"}]}],"stateMutability":"view"},{"type":"function","name":"getRiskId","inputs":[{"name":"id","type":"bytes32","internalType":"Str"}],"outputs":[{"name":"riskId","type":"bytes8","internalType":"RiskId"}],"stateMutability":"view"},{"type":"function","name":"getSeason","inputs":[{"name":"seasonId","type":"bytes32","internalType":"Str"}],"outputs":[{"name":"season","type":"tuple","internalType":"struct CropProduct.Season","components":[{"name":"year","type":"uint16","internalType":"uint16"},{"name":"name","type":"bytes32","internalType":"Str"},{"name":"seasonStart","type":"bytes32","internalType":"Str"},{"name":"seasonEnd","type":"bytes32","internalType":"Str"},{"name":"seasonDays","type":"uint16","internalType":"uint16"}]}],"stateMutability":"view"},{"type":"function","name":"getTokenHandler","inputs":[],"outputs":[{"name":"tokenHandler","type":"address","internalType":"address"}],"stateMutability":"view"},{"type":"function","name":"length","inputs":[{"name":"sstr","type":"bytes32","internalType":"Str"}],"outputs":[{"name":"","type":"uint256","internalType":"uint256"}],"stateMutability":"pure"},{"type":"function","name":"policyNftCounter","inputs":[],"outputs":[{"name":"","type":"uint96","internalType":"uint96"}],"stateMutability":"view"},{"type":"function","name":"riskCounter","inputs":[],"outputs":[{"name":"","type":"uint256","internalType":"uint256"}],"stateMutability":"view"},{"type":"function","name":"seasons","inputs":[],"outputs":[{"name":"","type":"bytes32[]","internalType":"Str[]"}],"stateMutability":"view"},{"type":"function","name":"setConstants","inputs":[{"name":"minPremium","type":"uint96","internalType":"Amount"},{"name":"maxPremium","type":"uint96","internalType":"Amount"},{"name":"minSumInsured","type":"uint96","internalType":"Amount"},{"name":"maxSumInsured","type":"uint96","internalType":"Amount"},{"name":"maxPoliciesToProcess","type":"uint8","internalType":"uint8"}],"outputs":[],"stateMutability":"nonpayable"},{"type":"function","name":"toStr","inputs":[{"name":"str","type":"string","internalType":"string"}],"outputs":[{"name":"","type":"bytes32","internalType":"Str"}],"stateMutability":"pure"},{"type":"function","name":"toString","inputs":[{"name":"sstr","type":"bytes32","internalType":"Str"}],"outputs":[{"name":"","type":"string","internalType":"string"}],"stateMutability":"pure"},{"type":"event","name":"LogCropPolicyCreated","inputs":[{"name":"policyNftId","type":"uint96","indexed":false,"internalType":"NftId"}],"anonymous":false},{"type":"error","name":"InvalidShortString","inputs":[]},{"type":"error","name":"StringTooLong","inputs":[{"name":"str","type":"string","internalType":"string"}]}],"bytecode":{"object":"0x60806040526001805460ff60c01b1916600160c01b179055600380546001600160601b03191660641790553480156034575f5ffd5b50610abb806100425f395ff3fe608060405234801561000f575f5ffd5b5060043610610148575f3560e01c8063729ff16c116100bf578063bb31332111610079578063bb31332114610400578063be5c8f4414610413578063cdc23e6914610425578063def6aeca14610438578063f1338cda1461044b578063f44f30cd1461017d575f5ffd5b8063729ff16c146103235780637d1c52901461037f5780637f73fa9c14610394578063a4846cbf146103a5578063a9dbaf25146103bf578063b11a19e8146103e0575f5ffd5b806343d752d31161011057806343d752d3146102895780634b396c4f146102975780634cdabb16146102bd5780635be6405e146102d6578063694ac999146102e95780636f336d7c1461030b575f5ffd5b80630228ec7b1461014c57806323c9bc521461017d5780632a6f8ef21461018c5780633405f20c146101bb578063422e9f411461025e575b5f5ffd5b61015f61015a36600461065f565b610454565b6040516001600160c01b031990911681526020015b60405180910390f35b606060405161017491906106a4565b6101a261019a3660046106f7565b5f9392505050565b60405167ffffffffffffffff9091168152602001610174565b6101fe6101c9366004610747565b6040805160c0810182525f80825260208201819052918101829052606081018290526080810182905260a08101829052915091565b60408051921515835281516020808501919091528201518382015281015160608084019190915281015164ffffffffff166080808401919091528101516001600160a01b031660a0808401919091520151151560c082015260e001610174565b61027161026c36600461077d565b6104c1565b6040516001600160601b039091168152602001610174565b6040515f8152602001610174565b6001546102ab90600160c01b900460ff1681565b60405160ff9091168152602001610174565b5f5461027190600160601b90046001600160601b031681565b6101a26102e43660046107df565b505f90565b61015f6102f73660046107df565b5f9081526004602052604090205460c01b90565b610321610319366004610807565b505050505050565b005b6103366103313660046107df565b610561565b60405161017491905f60a08201905061ffff835116825260208301516020830152604083015160408301526060830151606083015261ffff608084015116608083015292915050565b61032161038d36600461085b565b5050505050565b6103216103a23660046107df565b50565b60015461027190600160601b90046001600160601b031681565b6103d26103cd3660046107df565b61059b565b604051908152602001610174565b6103f36103ee3660046107df565b6105c8565b60405161017491906108c5565b600354610271906001600160601b031681565b5f54610271906001600160601b031681565b6103d261043336600461090e565b610605565b600154610271906001600160601b031681565b6103d260025481565b600280545f9182610464836109d5565b919050555060025460405160200161047e91815260200190565b60408051808303601f1901815291815281516020928301205f9889526004909252909620805467ffffffffffffffff191660c088901c1790555093949350505050565b600380545f916001600160601b0390911690826104dd836109ed565b82546101009290920a6001600160601b0381810219909316918316021790915560035461050e9250166103e8610a17565b610519906065610a40565b6040516001600160601b03821681529091507fc31147b2435123798832cf3c9d8ce5cd012cb3d548b18d196793c5a8e65f57d19060200160405180910390a195945050505050565b6105966040518060a001604052805f61ffff1681526020015f81526020015f81526020015f81526020015f61ffff1681525090565b919050565b5f60ff8216601f8111156105c257604051632cd44ac360e21b815260040160405180910390fd5b92915050565b60605f6105d48361059b565b6040805160208082528183019092529192505f91906020820181803683375050509182525060208101929092525090565b5f5f829050601f81511115610638578260405163305a27a960e01b815260040161062f91906108c5565b60405180910390fd5b805161064382610a5f565b179392505050565b803564ffffffffff81168114610596575f5ffd5b5f5f5f5f5f60a08688031215610673575f5ffd5b853594506020860135935060408601359250606086013591506106986080870161064b565b90509295509295909350565b602080825282518282018190525f918401906040840190835b818110156106db5783518352602093840193909201916001016106bd565b509095945050505050565b8035600381900b8114610596575f5ffd5b5f5f5f60608486031215610709575f5ffd5b83359250610719602085016106e6565b9150610727604085016106e6565b90509250925092565b80356001600160c01b031981168114610596575f5ffd5b5f60208284031215610757575f5ffd5b61076082610730565b9392505050565b80356001600160601b0381168114610596575f5ffd5b5f5f5f5f5f60a08688031215610791575f5ffd5b85356001600160a01b03811681146107a7575f5ffd5b94506107b560208701610730565b93506107c36040870161064b565b92506107d160608701610767565b915061069860808701610767565b5f602082840312156107ef575f5ffd5b5035919050565b803561ffff81168114610596575f5ffd5b5f5f5f5f5f5f60c0878903121561081c575f5ffd5b8635955061082c602088016107f6565b945060408701359350606087013592506080870135915061084f60a088016107f6565b90509295509295509295565b5f5f5f5f5f60a0868803121561086f575f5ffd5b61087886610767565b945061088660208701610767565b935061089460408701610767565b92506108a260608701610767565b9150608086013560ff811681146108b7575f5ffd5b809150509295509295909350565b602081525f82518060208401528060208501604085015e5f604082850101526040601f19601f83011684010191505092915050565b634e487b7160e01b5f52604160045260245ffd5b5f6020828403121561091e575f5ffd5b813567ffffffffffffffff811115610934575f5ffd5b8201601f81018413610944575f5ffd5b803567ffffffffffffffff81111561095e5761095e6108fa565b604051601f8201601f19908116603f0116810167ffffffffffffffff8111828210171561098d5761098d6108fa565b6040528181528282016020018610156109a4575f5ffd5b816020840160208301375f91810160200191909152949350505050565b634e487b7160e01b5f52601160045260245ffd5b5f600182016109e6576109e66109c1565b5060010190565b5f6001600160601b0382166001600160601b038103610a0e57610a0e6109c1565b60010192915050565b6001600160601b038181168382160290811690818114610a3957610a396109c1565b5092915050565b6001600160601b0381811683821601908111156105c2576105c26109c1565b80516020808301519190811015610a7f575f198160200360031b1b821691505b5091905056fea26469706673582212203658213bf9e0912bf136fd4ad3edaa13f6a571b5b1c78364af57352b0650c14564736f6c634300081b0033","linkReferences":{}},"methodIdentifiers":{"MAX_POLICIES_TO_PROCESS()":"4b396c4f","MAX_PREMIUM()":"4cdabb16","MAX_SUM_INSURED()":"a4846cbf","MIN_PREMIUM()":"be5c8f44","MIN_SUM_INSURED()":"def6aeca","createCrop(bytes32)":"7f73fa9c","createLocation(bytes32,int32,int32)":"2a6f8ef2","createPolicy(address,bytes8,uint40,uint96,uint96)":"422e9f41","createRisk(bytes32,bytes32,bytes32,bytes32,uint40)":"0228ec7b","createSeason(bytes32,uint16,bytes32,bytes32,bytes32,uint16)":"6f336d7c","crops()":"23c9bc52","getLocation(bytes32)":"5be6405e","getRisk(bytes8)":"3405f20c","getRiskId(bytes32)":"694ac999","getSeason(bytes32)":"729ff16c","getTokenHandler()":"43d752d3","length(bytes32)":"a9dbaf25","policyNftCounter()":"bb313321","riskCounter()":"f1338cda","seasons()":"f44f30cd","setConstants(uint96,uint96,uint96,uint96,uint8)":"7d1c5290","toStr(string)":"cdc23e69","toString(bytes32)":"b11a19e8"},"id":26}