{"abi":[{"type":"function","name":"MAX_POLICIES_TO_PROCESS","inputs":[],"outputs":[{"name":"","type":"uint8","internalType":"uint8"}],"stateMutability":"view"},{"type":"function","name":"MAX_PREMIUM","inputs":[],"outputs":[{"name":"","type":"uint96","internalType":"Amount"}],"stateMutability":"view"},{"type":"function","name":"MAX_SUM_INSURED","inputs":[],"outputs":[{"name":"","type":"uint96","internalType":"Amount"}],"stateMutability":"view"},{"type":"function","name":"MIN_PREMIUM","inputs":[],"outputs":[{"name":"","type":"uint96","internalType":"Amount"}],"stateMutability":"view"},{"type":"function","name":"MIN_SUM_INSURED","inputs":[],"outputs":[{"name":"","type":"uint96","internalType":"Amount"}],"stateMutability":"view"},{"type":"function","name":"createCrop","inputs":[{"name":"crop","type":"bytes32","internalType":"Str"}],"outputs":[],"stateMutability":"nonpayable"},{"type":"function","name":"createLocation","inputs":[{"name":"locationId","type":"bytes32","internalType":"Str"},{"name":"latitude","type":"int32","internalType":"int32"},{"name":"longitude","type":"int32","internalType":"int32"}],"outputs":[{"name":"location","type":"uint64","internalType":"Location"}],"stateMutability":"nonpayable"},{"type":"function","name":"createPolicy","inputs":[{"name":"policyHolder","type":"address","internalType":"address"},{"name":"riskId","type":"bytes8","internalType":"RiskId"},{"name":"activateAt","type":"uint40","internalType":"Timestamp"},{"name":"sumInsuredAmount","type":"uint96","internalType":"Amount"},{"name":"premiumAmount","type":"uint96","internalType":"Amount"}],"outputs":[{"name":"policyNftId","type":"uint96","internalType":"NftId"}],"stateMutability":"nonpayable"},{"type":"function","name":"createRisk","inputs":[{"name":"id","type":"bytes32","internalType":"Str"},{"name":"seasonId","type":"bytes32","internalType":"Str"},{"name":"locationId","type":"bytes32","internalType":"Str"},{"name":"crop","type":"bytes32","internalType":"Str"},{"name":"seasonEndAt","type":"uint40","internalType":"Timestamp"}],"outputs":[{"name":"riskId","type":"bytes8","internalType":"RiskId"}],"stateMutability":"nonpayable"},{"type":"function","name":"createSeason","inputs":[{"name":"seasonId","type":"bytes32","internalType":"Str"},{"name":"year","type":"uint16","internalType":"uint16"},{"name":"name","type":"bytes32","internalType":"Str"},{"name":"seasonStart","type":"bytes32","internalType":"Str"},{"name":"seasonEnd","type":"bytes32","internalType":"Str"},{"name":"seasonDays","type":"uint16","internalType":"uint16"}],"outputs":[],"stateMutability":"nonpayable"},{"type":"function","name":"crops","inputs":[],"outputs":[{"name":"","type":"bytes32[]","internalType":"Str[]"}],"stateMutability":"view"},{"type":"function","name":"getLocation","inputs":[{"name":"locationId","type":"bytes32","internalType":"Str"}],"outputs":[{"name":"location","type":"uint64","internalType":"Location"}],"stateMutability":"view"},{"type":"function","name":"getRisk","inputs":[{"name":"riskId","type":"bytes8","internalType":"RiskId"}],"outputs":[{"name":"exists","type":"bool","internalType":"bool"},{"name":"cropRisk","type":"tuple","internalType":"struct CropProduct.CropRisk","components":[{"name":"seasonId","type":"bytes32","internalType":"Str"},{"name":"locationId","type":"bytes32","internalType":"Str"},{"name":"crop","type":"bytes32","internalType":"Str"},{"name":"seasonEndAt","type":"uint40","internalType":"Timestamp"},{"name":"payoutFactor","type":"uint160","internalType":"UFixed"},{"name":"payoutDefined","type":"bool","internalType":"bool"}]}],"stateMutability":"view"},{"type":"function","name":"getRiskId","inputs":[{"name":"id","type":"bytes32","internalType":"Str"}],"outputs":[{"name":"riskId","type":"bytes8","internalType":"RiskId"}],"stateMutability":"view"},{"type":"function","name":"getSeason","inputs":[{"name":"seasonId","type":"bytes32","internalType":"Str"}],"outputs":[{"name":"season","type":"tuple","internalType":"struct CropProduct.Season","components":[{"name":"year","type":"uint16","internalType":"uint16"},{"name":"name","type":"bytes32","internalType":"Str"},{"name":"seasonStart","type":"bytes32","internalType":"Str"},{"name":"seasonEnd","type":"bytes32","internalType":"Str"},{"name":"seasonDays","type":"uint16","internalType":"uint16"}]}],"stateMutability":"view"},{"type":"function","name":"length","inputs":[{"name":"sstr","type":"bytes32","internalType":"Str"}],"outputs":[{"name":"","type":"uint256","internalType":"uint256"}],"stateMutability":"pure"},{"type":"function","name":"policyNftCounter","inputs":[],"outputs":[{"name":"","type":"uint96","internalType":"uint96"}],"stateMutability":"view"},{"type":"function","name":"riskCounter","inputs":[],"outputs":[{"name":"","type":"uint256","internalType":"uint256"}],"stateMutability":"view"},{"type":"function","name":"seasons","inputs":[],"outputs":[{"name":"","type":"bytes32[]","internalType":"Str[]"}],"stateMutability":"view"},{"type":"function","name":"setConstants","inputs":[{"name":"minPremium","type":"uint96","internalType":"Amount"},{"name":"maxPremium","type":"uint96","internalType":"Amount"},{"name":"minSumInsured","type":"uint96","internalType":"Amount"},{"name":"maxSumInsured","type":"uint96","internalType":"Amount"},{"name":"maxPoliciesToProcess","type":"uint8","internalType":"uint8"}],"outputs":[],"stateMutability":"nonpayable"},{"type":"function","name":"toStr","inputs":[{"name":"str","type":"string","internalType":"string"}],"outputs":[{"name":"","type":"bytes32","internalType":"Str"}],"stateMutability":"pure"},{"type":"function","name":"toString","inputs":[{"name":"sstr","type":"bytes32","internalType":"Str"}],"outputs":[{"name":"","type":"string","internalType":"string"}],"stateMutability":"pure"},{"type":"event","name":"LogCropPolicyCreated","inputs":[{"name":"policyNftId","type":"uint96","indexed":false,"internalType":"NftId"}],"anonymous":false},{"type":"error","name":"InvalidShortString","inputs":[]},{"type":"error","name":"StringTooLong","inputs":[{"name":"str","type":"string","internalType":"string"}]}],"bytecode":{"object":"0x60806040526001805460ff60c01b1916600160c01b179055600380546001600160601b03191660641790553480156034575f5ffd5b50610aa2806100425f395ff3fe608060405234801561000f575f5ffd5b506004361061013d575f3560e01c80637d1c5290116100b4578063bb31332111610079578063bb313321146103e7578063be5c8f44146103fa578063cdc23e691461040c578063def6aeca1461041f578063f1338cda14610432578063f44f30cd14610172575f5ffd5b80637d1c5290146103665780637f73fa9c1461037b578063a4846cbf1461038c578063a9dbaf25146103a6578063b11a19e8146103c7575f5ffd5b80634b396c4f116101055780634b396c4f1461027e5780634cdabb16146102a45780635be6405e146102bd578063694ac999146102d05780636f336d7c146102f2578063729ff16c1461030a575f5ffd5b80630228ec7b1461014157806323c9bc52146101725780632a6f8ef2146101815780633405f20c146101b0578063422e9f4114610253575b5f5ffd5b61015461014f366004610646565b61043b565b6040516001600160c01b031990911681526020015b60405180910390f35b6060604051610169919061068b565b61019761018f3660046106de565b5f9392505050565b60405167ffffffffffffffff9091168152602001610169565b6101f36101be36600461072e565b6040805160c0810182525f80825260208201819052918101829052606081018290526080810182905260a08101829052915091565b60408051921515835281516020808501919091528201518382015281015160608084019190915281015164ffffffffff166080808401919091528101516001600160a01b031660a0808401919091520151151560c082015260e001610169565b610266610261366004610764565b6104a8565b6040516001600160601b039091168152602001610169565b60015461029290600160c01b900460ff1681565b60405160ff9091168152602001610169565b5f5461026690600160601b90046001600160601b031681565b6101976102cb3660046107c6565b505f90565b6101546102de3660046107c6565b5f9081526004602052604090205460c01b90565b6103086103003660046107ee565b505050505050565b005b61031d6103183660046107c6565b610548565b60405161016991905f60a08201905061ffff835116825260208301516020830152604083015160408301526060830151606083015261ffff608084015116608083015292915050565b610308610374366004610842565b5050505050565b6103086103893660046107c6565b50565b60015461026690600160601b90046001600160601b031681565b6103b96103b43660046107c6565b610582565b604051908152602001610169565b6103da6103d53660046107c6565b6105af565b60405161016991906108ac565b600354610266906001600160601b031681565b5f54610266906001600160601b031681565b6103b961041a3660046108f5565b6105ec565b600154610266906001600160601b031681565b6103b960025481565b600280545f918261044b836109bc565b919050555060025460405160200161046591815260200190565b60408051808303601f1901815291815281516020928301205f9889526004909252909620805467ffffffffffffffff191660c088901c1790555093949350505050565b600380545f916001600160601b0390911690826104c4836109d4565b82546101009290920a6001600160601b038181021990931691831602179091556003546104f59250166103e86109fe565b610500906065610a27565b6040516001600160601b03821681529091507fc31147b2435123798832cf3c9d8ce5cd012cb3d548b18d196793c5a8e65f57d19060200160405180910390a195945050505050565b61057d6040518060a001604052805f61ffff1681526020015f81526020015f81526020015f81526020015f61ffff1681525090565b919050565b5f60ff8216601f8111156105a957604051632cd44ac360e21b815260040160405180910390fd5b92915050565b60605f6105bb83610582565b6040805160208082528183019092529192505f91906020820181803683375050509182525060208101929092525090565b5f5f829050601f8151111561061f578260405163305a27a960e01b815260040161061691906108ac565b60405180910390fd5b805161062a82610a46565b179392505050565b803564ffffffffff8116811461057d575f5ffd5b5f5f5f5f5f60a0868803121561065a575f5ffd5b8535945060208601359350604086013592506060860135915061067f60808701610632565b90509295509295909350565b602080825282518282018190525f918401906040840190835b818110156106c25783518352602093840193909201916001016106a4565b509095945050505050565b8035600381900b811461057d575f5ffd5b5f5f5f606084860312156106f0575f5ffd5b83359250610700602085016106cd565b915061070e604085016106cd565b90509250925092565b80356001600160c01b03198116811461057d575f5ffd5b5f6020828403121561073e575f5ffd5b61074782610717565b9392505050565b80356001600160601b038116811461057d575f5ffd5b5f5f5f5f5f60a08688031215610778575f5ffd5b85356001600160a01b038116811461078e575f5ffd5b945061079c60208701610717565b93506107aa60408701610632565b92506107b86060870161074e565b915061067f6080870161074e565b5f602082840312156107d6575f5ffd5b5035919050565b803561ffff8116811461057d575f5ffd5b5f5f5f5f5f5f60c08789031215610803575f5ffd5b86359550610813602088016107dd565b945060408701359350606087013592506080870135915061083660a088016107dd565b90509295509295509295565b5f5f5f5f5f60a08688031215610856575f5ffd5b61085f8661074e565b945061086d6020870161074e565b935061087b6040870161074e565b92506108896060870161074e565b9150608086013560ff8116811461089e575f5ffd5b809150509295509295909350565b602081525f82518060208401528060208501604085015e5f604082850101526040601f19601f83011684010191505092915050565b634e487b7160e01b5f52604160045260245ffd5b5f60208284031215610905575f5ffd5b813567ffffffffffffffff81111561091b575f5ffd5b8201601f8101841361092b575f5ffd5b803567ffffffffffffffff811115610945576109456108e1565b604051601f8201601f19908116603f0116810167ffffffffffffffff81118282101715610974576109746108e1565b60405281815282820160200186101561098b575f5ffd5b816020840160208301375f91810160200191909152949350505050565b634e487b7160e01b5f52601160045260245ffd5b5f600182016109cd576109cd6109a8565b5060010190565b5f6001600160601b0382166001600160601b0381036109f5576109f56109a8565b60010192915050565b6001600160601b038181168382160290811690818114610a2057610a206109a8565b5092915050565b6001600160601b0381811683821601908111156105a9576105a96109a8565b80516020808301519190811015610a66575f198160200360031b1b821691505b5091905056fea26469706673582212208a575d28cf0af91451bc9215bec1316c5249aba27cccafac383a04ca94ba70fd64736f6c634300081b0033","linkReferences":{}},"methodIdentifiers":{"MAX_POLICIES_TO_PROCESS()":"4b396c4f","MAX_PREMIUM()":"4cdabb16","MAX_SUM_INSURED()":"a4846cbf","MIN_PREMIUM()":"be5c8f44","MIN_SUM_INSURED()":"def6aeca","createCrop(bytes32)":"7f73fa9c","createLocation(bytes32,int32,int32)":"2a6f8ef2","createPolicy(address,bytes8,uint40,uint96,uint96)":"422e9f41","createRisk(bytes32,bytes32,bytes32,bytes32,uint40)":"0228ec7b","createSeason(bytes32,uint16,bytes32,bytes32,bytes32,uint16)":"6f336d7c","crops()":"23c9bc52","getLocation(bytes32)":"5be6405e","getRisk(bytes8)":"3405f20c","getRiskId(bytes32)":"694ac999","getSeason(bytes32)":"729ff16c","length(bytes32)":"a9dbaf25","policyNftCounter()":"bb313321","riskCounter()":"f1338cda","seasons()":"f44f30cd","setConstants(uint96,uint96,uint96,uint96,uint8)":"7d1c5290","toStr(string)":"cdc23e69","toString(bytes32)":"b11a19e8"},"id":24}