{
  "abi": [
    {
      "inputs": [],
      "stateMutability": "nonpayable",
      "type": "constructor"
    },
    {
      "anonymous": false,
      "inputs": [
        {
          "indexed": false,
          "internalType": "bytes16",
          "name": "beneficiaryId",
          "type": "bytes16"
        },
        {
          "indexed": false,
          "internalType": "address",
          "name": "wallet",
          "type": "address"
        },
        {
          "indexed": false,
          "internalType": "uint8",
          "name": "sex",
          "type": "uint8"
        }
      ],
      "name": "LogArcBeneficiaryCreated",
      "type": "event"
    },
    {
      "anonymous": false,
      "inputs": [
        {
          "indexed": false,
          "internalType": "bytes16",
          "name": "configId",
          "type": "bytes16"
        },
        {
          "indexed": false,
          "internalType": "string",
          "name": "name",
          "type": "string"
        },
        {
          "indexed": false,
          "internalType": "uint16",
          "name": "year",
          "type": "uint16"
        }
      ],
      "name": "LogArcConfigCreated",
      "type": "event"
    },
    {
      "anonymous": false,
      "inputs": [
        {
          "indexed": false,
          "internalType": "bytes16",
          "name": "riskId",
          "type": "bytes16"
        },
        {
          "indexed": false,
          "internalType": "bytes16",
          "name": "configId",
          "type": "bytes16"
        },
        {
          "indexed": false,
          "internalType": "bytes32",
          "name": "locationId",
          "type": "bytes32"
        },
        {
          "indexed": false,
          "internalType": "string",
          "name": "crop",
          "type": "string"
        }
      ],
      "name": "LogArcRiskCreated",
      "type": "event"
    },
    {
      "anonymous": false,
      "inputs": [
        {
          "indexed": true,
          "internalType": "address",
          "name": "previousOwner",
          "type": "address"
        },
        {
          "indexed": true,
          "internalType": "address",
          "name": "newOwner",
          "type": "address"
        }
      ],
      "name": "OwnershipTransferred",
      "type": "event"
    },
    {
      "inputs": [],
      "name": "SEX_FEMALE",
      "outputs": [
        {
          "internalType": "uint8",
          "name": "",
          "type": "uint8"
        }
      ],
      "stateMutability": "view",
      "type": "function"
    },
    {
      "inputs": [],
      "name": "SEX_MALE",
      "outputs": [
        {
          "internalType": "uint8",
          "name": "",
          "type": "uint8"
        }
      ],
      "stateMutability": "view",
      "type": "function"
    },
    {
      "inputs": [],
      "name": "UFIXED_DECIMALS",
      "outputs": [
        {
          "internalType": "uint256",
          "name": "",
          "type": "uint256"
        }
      ],
      "stateMutability": "view",
      "type": "function"
    },
    {
      "inputs": [],
      "name": "beneficiaries",
      "outputs": [
        {
          "internalType": "uint256",
          "name": "",
          "type": "uint256"
        }
      ],
      "stateMutability": "view",
      "type": "function"
    },
    {
      "inputs": [],
      "name": "configs",
      "outputs": [
        {
          "internalType": "uint256",
          "name": "",
          "type": "uint256"
        }
      ],
      "stateMutability": "view",
      "type": "function"
    },
    {
      "inputs": [
        {
          "internalType": "bytes16",
          "name": "beneficiaryId",
          "type": "bytes16"
        },
        {
          "internalType": "address",
          "name": "wallet",
          "type": "address"
        },
        {
          "internalType": "uint8",
          "name": "sex",
          "type": "uint8"
        }
      ],
      "name": "createBeneficiary",
      "outputs": [],
      "stateMutability": "nonpayable",
      "type": "function"
    },
    {
      "inputs": [
        {
          "internalType": "string",
          "name": "name",
          "type": "string"
        },
        {
          "internalType": "uint16",
          "name": "year",
          "type": "uint16"
        },
        {
          "internalType": "uint8",
          "name": "startOfSeason",
          "type": "uint8"
        },
        {
          "internalType": "uint8",
          "name": "endOfSeason",
          "type": "uint8"
        },
        {
          "internalType": "string",
          "name": "indexType",
          "type": "string"
        },
        {
          "internalType": "string",
          "name": "dataSource",
          "type": "string"
        },
        {
          "internalType": "uint256",
          "name": "triggerSevereLevel",
          "type": "uint256"
        },
        {
          "internalType": "uint256",
          "name": "triggerSeverePayout",
          "type": "uint256"
        },
        {
          "internalType": "uint256",
          "name": "triggerMediumLevel",
          "type": "uint256"
        },
        {
          "internalType": "uint256",
          "name": "triggerMediumPayout",
          "type": "uint256"
        },
        {
          "internalType": "uint256",
          "name": "triggerWeakLevel",
          "type": "uint256"
        },
        {
          "internalType": "uint256",
          "name": "triggerWeakPayout",
          "type": "uint256"
        }
      ],
      "name": "createConfig",
      "outputs": [
        {
          "internalType": "bytes16",
          "name": "configId",
          "type": "bytes16"
        }
      ],
      "stateMutability": "nonpayable",
      "type": "function"
    },
    {
      "inputs": [
        {
          "internalType": "bytes16",
          "name": "configId",
          "type": "bytes16"
        },
        {
          "internalType": "bytes16",
          "name": "locationId",
          "type": "bytes16"
        },
        {
          "internalType": "string",
          "name": "crop",
          "type": "string"
        },
        {
          "internalType": "uint256",
          "name": "indexReferenceValue",
          "type": "uint256"
        },
        {
          "internalType": "uint256",
          "name": "indexSeasonValue",
          "type": "uint256"
        },
        {
          "internalType": "bool",
          "name": "isFinal",
          "type": "bool"
        }
      ],
      "name": "createRisk",
      "outputs": [
        {
          "internalType": "bytes16",
          "name": "riskId",
          "type": "bytes16"
        }
      ],
      "stateMutability": "nonpayable",
      "type": "function"
    },
    {
      "inputs": [],
      "name": "decimals",
      "outputs": [
        {
          "internalType": "uint256",
          "name": "",
          "type": "uint256"
        }
      ],
      "stateMutability": "pure",
      "type": "function"
    },
    {
      "inputs": [
        {
          "internalType": "bytes16",
          "name": "benficiaryId",
          "type": "bytes16"
        }
      ],
      "name": "getBeneficiary",
      "outputs": [
        {
          "components": [
            {
              "internalType": "address",
              "name": "wallet",
              "type": "address"
            },
            {
              "internalType": "uint8",
              "name": "sex",
              "type": "uint8"
            }
          ],
          "internalType": "struct ArcModel.Beneficiary",
          "name": "beneficiary",
          "type": "tuple"
        }
      ],
      "stateMutability": "view",
      "type": "function"
    },
    {
      "inputs": [
        {
          "internalType": "uint256",
          "name": "idx",
          "type": "uint256"
        }
      ],
      "name": "getBeneficiaryId",
      "outputs": [
        {
          "internalType": "bytes16",
          "name": "benficiaryId",
          "type": "bytes16"
        }
      ],
      "stateMutability": "view",
      "type": "function"
    },
    {
      "inputs": [
        {
          "internalType": "bytes16",
          "name": "configId",
          "type": "bytes16"
        }
      ],
      "name": "getConfig",
      "outputs": [
        {
          "components": [
            {
              "internalType": "bool",
              "name": "valid",
              "type": "bool"
            },
            {
              "internalType": "string",
              "name": "name",
              "type": "string"
            },
            {
              "internalType": "uint16",
              "name": "year",
              "type": "uint16"
            },
            {
              "internalType": "uint8",
              "name": "startOfSeason",
              "type": "uint8"
            },
            {
              "internalType": "uint8",
              "name": "endOfSeason",
              "type": "uint8"
            },
            {
              "internalType": "string",
              "name": "indexType",
              "type": "string"
            },
            {
              "internalType": "string",
              "name": "dataSource",
              "type": "string"
            },
            {
              "internalType": "uint256",
              "name": "triggerSevereLevel",
              "type": "uint256"
            },
            {
              "internalType": "uint256",
              "name": "triggerSeverePayout",
              "type": "uint256"
            },
            {
              "internalType": "uint256",
              "name": "triggerMediumLevel",
              "type": "uint256"
            },
            {
              "internalType": "uint256",
              "name": "triggerMediumPayout",
              "type": "uint256"
            },
            {
              "internalType": "uint256",
              "name": "triggerWeakLevel",
              "type": "uint256"
            },
            {
              "internalType": "uint256",
              "name": "triggerWeakPayout",
              "type": "uint256"
            },
            {
              "internalType": "uint32",
              "name": "createdAt",
              "type": "uint32"
            },
            {
              "internalType": "uint32",
              "name": "updatedAt",
              "type": "uint32"
            }
          ],
          "internalType": "struct ArcModel.Config",
          "name": "config",
          "type": "tuple"
        }
      ],
      "stateMutability": "view",
      "type": "function"
    },
    {
      "inputs": [
        {
          "internalType": "uint256",
          "name": "idx",
          "type": "uint256"
        }
      ],
      "name": "getConfigId",
      "outputs": [
        {
          "internalType": "bytes16",
          "name": "configId",
          "type": "bytes16"
        }
      ],
      "stateMutability": "view",
      "type": "function"
    },
    {
      "inputs": [
        {
          "internalType": "bytes16",
          "name": "riskId",
          "type": "bytes16"
        }
      ],
      "name": "getRisk",
      "outputs": [
        {
          "components": [
            {
              "internalType": "bool",
              "name": "valid",
              "type": "bool"
            },
            {
              "internalType": "bytes16",
              "name": "configId",
              "type": "bytes16"
            },
            {
              "internalType": "bytes16",
              "name": "locationId",
              "type": "bytes16"
            },
            {
              "internalType": "string",
              "name": "crop",
              "type": "string"
            },
            {
              "internalType": "uint256",
              "name": "indexReferenceValue",
              "type": "uint256"
            },
            {
              "internalType": "uint256",
              "name": "indexSeasonValue",
              "type": "uint256"
            },
            {
              "internalType": "bool",
              "name": "isFinal",
              "type": "bool"
            },
            {
              "internalType": "uint32",
              "name": "createdAt",
              "type": "uint32"
            },
            {
              "internalType": "uint32",
              "name": "updatedAt",
              "type": "uint32"
            }
          ],
          "internalType": "struct ArcModel.Risk",
          "name": "risk",
          "type": "tuple"
        }
      ],
      "stateMutability": "view",
      "type": "function"
    },
    {
      "inputs": [
        {
          "internalType": "uint256",
          "name": "idx",
          "type": "uint256"
        }
      ],
      "name": "getRiskId",
      "outputs": [
        {
          "internalType": "bytes16",
          "name": "riskId",
          "type": "bytes16"
        }
      ],
      "stateMutability": "view",
      "type": "function"
    },
    {
      "inputs": [],
      "name": "getTimestamp",
      "outputs": [
        {
          "internalType": "uint32",
          "name": "timestamp",
          "type": "uint32"
        }
      ],
      "stateMutability": "view",
      "type": "function"
    },
    {
      "inputs": [
        {
          "internalType": "bytes16",
          "name": "configId",
          "type": "bytes16"
        }
      ],
      "name": "isValidConfig",
      "outputs": [
        {
          "internalType": "bool",
          "name": "isValid",
          "type": "bool"
        }
      ],
      "stateMutability": "view",
      "type": "function"
    },
    {
      "inputs": [
        {
          "internalType": "string",
          "name": "crop",
          "type": "string"
        }
      ],
      "name": "isValidCrop",
      "outputs": [
        {
          "internalType": "bool",
          "name": "isValid",
          "type": "bool"
        }
      ],
      "stateMutability": "view",
      "type": "function"
    },
    {
      "inputs": [
        {
          "internalType": "bytes16",
          "name": "locationId",
          "type": "bytes16"
        }
      ],
      "name": "isValidLocation",
      "outputs": [
        {
          "internalType": "bool",
          "name": "isValid",
          "type": "bool"
        }
      ],
      "stateMutability": "view",
      "type": "function"
    },
    {
      "inputs": [
        {
          "internalType": "bytes16",
          "name": "riskId",
          "type": "bytes16"
        }
      ],
      "name": "isValidRisk",
      "outputs": [
        {
          "internalType": "bool",
          "name": "isValid",
          "type": "bool"
        }
      ],
      "stateMutability": "view",
      "type": "function"
    },
    {
      "inputs": [],
      "name": "owner",
      "outputs": [
        {
          "internalType": "address",
          "name": "",
          "type": "address"
        }
      ],
      "stateMutability": "view",
      "type": "function"
    },
    {
      "inputs": [],
      "name": "renounceOwnership",
      "outputs": [],
      "stateMutability": "nonpayable",
      "type": "function"
    },
    {
      "inputs": [],
      "name": "risks",
      "outputs": [
        {
          "internalType": "uint256",
          "name": "",
          "type": "uint256"
        }
      ],
      "stateMutability": "view",
      "type": "function"
    },
    {
      "inputs": [
        {
          "internalType": "bytes16",
          "name": "configId",
          "type": "bytes16"
        },
        {
          "internalType": "bool",
          "name": "isValid",
          "type": "bool"
        }
      ],
      "name": "setConfig",
      "outputs": [],
      "stateMutability": "nonpayable",
      "type": "function"
    },
    {
      "inputs": [
        {
          "internalType": "string",
          "name": "crop",
          "type": "string"
        },
        {
          "internalType": "bool",
          "name": "isValid",
          "type": "bool"
        }
      ],
      "name": "setCrop",
      "outputs": [],
      "stateMutability": "nonpayable",
      "type": "function"
    },
    {
      "inputs": [
        {
          "internalType": "bytes16",
          "name": "locationId",
          "type": "bytes16"
        },
        {
          "internalType": "bool",
          "name": "isValid",
          "type": "bool"
        }
      ],
      "name": "setLocation",
      "outputs": [],
      "stateMutability": "nonpayable",
      "type": "function"
    },
    {
      "inputs": [
        {
          "internalType": "bytes16",
          "name": "riskId",
          "type": "bytes16"
        },
        {
          "internalType": "bool",
          "name": "isFinal",
          "type": "bool"
        },
        {
          "internalType": "bool",
          "name": "isValid",
          "type": "bool"
        }
      ],
      "name": "setRisk",
      "outputs": [],
      "stateMutability": "nonpayable",
      "type": "function"
    },
    {
      "inputs": [
        {
          "internalType": "string",
          "name": "id",
          "type": "string"
        },
        {
          "internalType": "string",
          "name": "phone",
          "type": "string"
        },
        {
          "internalType": "string",
          "name": "salt",
          "type": "string"
        }
      ],
      "name": "toBeneficiaryId",
      "outputs": [
        {
          "internalType": "bytes16",
          "name": "beneficiaryId",
          "type": "bytes16"
        }
      ],
      "stateMutability": "pure",
      "type": "function"
    },
    {
      "inputs": [
        {
          "internalType": "string",
          "name": "name",
          "type": "string"
        },
        {
          "internalType": "uint16",
          "name": "year",
          "type": "uint16"
        }
      ],
      "name": "toConfigId",
      "outputs": [
        {
          "internalType": "bytes16",
          "name": "locationId",
          "type": "bytes16"
        }
      ],
      "stateMutability": "view",
      "type": "function"
    },
    {
      "inputs": [
        {
          "internalType": "string",
          "name": "region",
          "type": "string"
        },
        {
          "internalType": "string",
          "name": "province",
          "type": "string"
        },
        {
          "internalType": "string",
          "name": "department",
          "type": "string"
        },
        {
          "internalType": "string",
          "name": "village",
          "type": "string"
        },
        {
          "internalType": "string",
          "name": "salt",
          "type": "string"
        }
      ],
      "name": "toLocationId",
      "outputs": [
        {
          "internalType": "bytes16",
          "name": "locationId",
          "type": "bytes16"
        }
      ],
      "stateMutability": "view",
      "type": "function"
    },
    {
      "inputs": [
        {
          "internalType": "bytes16",
          "name": "configId",
          "type": "bytes16"
        },
        {
          "internalType": "bytes16",
          "name": "locationId",
          "type": "bytes16"
        },
        {
          "internalType": "string",
          "name": "crop",
          "type": "string"
        }
      ],
      "name": "toRiskId",
      "outputs": [
        {
          "internalType": "bytes16",
          "name": "riskId",
          "type": "bytes16"
        }
      ],
      "stateMutability": "view",
      "type": "function"
    },
    {
      "inputs": [
        {
          "internalType": "address",
          "name": "newOwner",
          "type": "address"
        }
      ],
      "name": "transferOwnership",
      "outputs": [],
      "stateMutability": "nonpayable",
      "type": "function"
    }
  ],
  "bytecode": "60806040523480156200001157600080fd5b506200001d3362000037565b6200002762000087565b620000316200013f565b6200072a565b600080546001600160a01b038381166001600160a01b0319831681178455604051919092169283917f8be0079c531659141344cd1fd0a4f28419497f9722a3daafe3b4186f6b6457e09190a35050565b60016008604051620000a59065233ab9b4b7b760d11b815260060190565b90815260408051918290036020018220805493151560ff19948516179055644d61697a6560d81b8252600860058301819052815192839003602501832080548516600190811790915565135a5b1b195d60d21b8452600684018290528251938490036026018420805486168217905566536f726768756d60c81b845260078401919091529051918290036027019091208054909216179055565b620001d26040518060400160405280600f81526020016e4d61696e536561736f6e733230323360881b8152506107e7600d6020604051806040016040528060048152602001635752534960e01b8152506040518060400160405280600681526020016543484952505360d01b815250620aae60620f4240620c35006203d090620dbba0620186a0620001d560201b60201c565b50565b6000620001e38d8d6200050a565b6001600160801b031981166000908152600660205260409020600b0154909150429063ffffffff16156200026a5760405162461bcd60e51b815260206004820152602360248201527f4552524f523a41524d2d3032303a434f4e4649475f414c52454144595f45584960448201526253545360e81b60648201526084015b60405180910390fd5b604051806101e001604052806001151581526020018f81526020018e61ffff1681526020018d60ff1681526020018c60ff1681526020018b81526020018a81526020018981526020018881526020018781526020018681526020018581526020018481526020018263ffffffff1681526020018263ffffffff1681525060066000846001600160801b0319166001600160801b031916815260200190815260200160002060008201518160000160006101000a81548160ff02191690831515021790555060208201518160010190805190602001906200034c92919062000596565b5060408201516002820180546060850151608086015161ffff1990921661ffff9094169390931762ff000019166201000060ff948516021763ff00000019166301000000939091169290920291909117905560a08201518051620003bb91600384019160209091019062000596565b5060c08201518051620003d991600484019160209091019062000596565b5060e08201518160050155610100820151816006015561012082015181600701556101408201518160080155610160820151816009015561018082015181600a01556101a082015181600b0160006101000a81548163ffffffff021916908363ffffffff1602179055506101c082015181600b0160046101000a81548163ffffffff021916908363ffffffff16021790555090505060058290806001815401808255809150506001900390600052602060002090600291828204019190066010029091909190916101000a8154816001600160801b03021916908360801c02179055507fa3a5a22f1ef05d9adfd1637098712ea11223cfca2eceae211a35649bbfcdee30828f8f604051620004f1939291906200068a565b60405180910390a1509c9b505050505050505050505050565b60008161ffff166107e714620005635760405162461bcd60e51b815260206004820152601a60248201527f4552524f523a41524d2d3131303a594541525f494e56414c4944000000000000604482015260640162000261565b828260405160200162000578929190620006c5565b60405160208183030381529060405280519060200120905092915050565b828054620005a490620006ed565b90600052602060002090601f016020900481019282620005c8576000855562000613565b82601f10620005e357805160ff191683800117855562000613565b8280016001018555821562000613579182015b8281111562000613578251825591602001919060010190620005f6565b506200062192915062000625565b5090565b5b8082111562000621576000815560010162000626565b60008151808452815b81811015620006635760208185018101518683018201520162000645565b81811115620006755782602083870101525b50601f01601f19169290920160200192915050565b6001600160801b031984168152606060208201819052600090620006b1908301856200063c565b905061ffff83166040830152949350505050565b600060408252620006da60408301856200063c565b905061ffff831660208301529392505050565b6002810460018216806200070257607f821691505b602082108114156200072457634e487b7160e01b600052602260045260246000fd5b50919050565b61225d806200073a6000396000f3fe608060405234801561001057600080fd5b50600436106101f05760003560e01c80638b6c20ea1161010f578063c83b7211116100a2578063eb80733911610071578063eb807339146104f1578063f0640ef614610504578063f2fde38b14610517578063f9d7ff891461052a576101f0565b8063c83b72111461041f578063d25f214b146104ab578063d7f8dca6146104cb578063da1e70d7146104de576101f0565b8063b72ead9c116100de578063b72ead9c146103c4578063bd09bf25146103f1578063c157c7c114610404578063c51ec15f14610417576101f0565b80638b6c20ea1461037b5780638da5cb5b1461038e57806390164bad146103a9578063937c6e81146103bc576101f0565b806342cf5cba116101875780637c37f243116101565780637c37f2431461032d5780637eda2f40146103405780637ff873f714610353578063827658a914610373576101f0565b806342cf5cba146102d25780634aef83d5146102e55780635faf01da14610312578063715018a614610325576101f0565b80631d29bd5a116101c35780631d29bd5a1461028c578063313ce5671461029e5780633a962f93146102a55780633f6efe56146102bf576101f0565b806310b4931f146101f5578063188ec3561461020a57806319034021146102235780631ac31a491461024f575b600080fd5b6102086102033660046119b3565b610532565b005b60405163ffffffff421681526020015b60405180910390f35b610236610231366004611e01565b610566565b6040516001600160801b0319909116815260200161021a565b61027c61025d366004611957565b6001600160801b03191660009081526004602052604090205460ff1690565b604051901515815260200161021a565b6001545b60405190815260200161021a565b6006610290565b6102ad601481565b60405160ff909116815260200161021a565b6102366102cd366004611e01565b6105b4565b6102086102e0366004611b34565b6105d7565b61027c6102f3366004611957565b6001600160801b03191660009081526006602052604090205460ff1690565b610236610320366004611b77565b610614565b61020861064a565b61023661033b366004611a7a565b61065e565b61020861034e366004611971565b6108e3565b610366610361366004611957565b610a7a565b60405161021a9190611fe3565b6102ad600a81565b6102086103893660046119b3565b610d8a565b6000546040516001600160a01b03909116815260200161021a565b6102366103b7366004611d00565b610e73565b610290600681565b61027c6103d2366004611957565b6001600160801b03191660009081526007602052604090205460ff1690565b6102366103ff366004611cbd565b610ea2565b610236610412366004611a1e565b610f2a565b600554610290565b61048461042d366004611957565b6040805180820190915260008082526020820152506001600160801b0319166000908152600260209081526040918290208251808401909352546001600160a01b0381168352600160a01b900460ff169082015290565b6040805182516001600160a01b0316815260209283015160ff16928101929092520161021a565b6104be6104b9366004611957565b611066565b60405161021a9190612106565b6102086104d93660046119e5565b6111e0565b6102366104ec366004611bf1565b6112e1565b6102366104ff366004611e01565b61131d565b61027c610512366004611af9565b611340565b610208610525366004611936565b61136c565b600354610290565b61053a6113e5565b6001600160801b0319919091166000908152600760205260409020805460ff1916911515919091179055565b60006005828154811061058957634e487b7160e01b600052603260045260246000fd5b90600052602060002090600291828204019190066010029054906101000a900460801b90505b919050565b60006001828154811061058957634e487b7160e01b600052603260045260246000fd5b6105df6113e5565b806008836040516105f09190611e45565b908152604051908190036020019020805491151560ff199092169190911790555050565b600083838360405160200161062b93929190611e61565b6040516020818303038152906040528051906020012090509392505050565b6106526113e5565b61065c600061143f565b565b60006106686113e5565b610673878787610f2a565b6001600160801b031981166000908152600460205260409020600501549091504290610100900463ffffffff16156106fc5760405162461bcd60e51b815260206004820152602160248201527f4552524f523a41524d2d3032353a5249534b5f414c52454144595f45584953546044820152605360f81b60648201526084015b60405180910390fd5b604080516101208101825260018082526001600160801b03198b811660208085019182528c8316858701908152606086018d815260808088018e905260a088018d90528b151560c089015263ffffffff8a1660e08901819052610100808a01919091528b87166000908152600486529990992088518154965160ff19979097169015151770ffffffffffffffffffffffffffffffff00191695821c909902949094178855905194870180549094169490921c939093179091555180519293926107cb92600285019201906117b4565b5060808281015160038381019190915560a0840151600484015560c08401516005909301805460e08601516101009687015160ff199092169515159590951764ffffffff00191663ffffffff95861687021768ffffffff00000000001916650100000000009590911694909402939093179092558154600181810184556000939093527fc2575a0e9e593c00f959f8c92f12db2869c3395a3b0502d05e2516446f71f85b600282040180546001600160801b039290941660100290940a908102199092169085901c919091021790556040517f69b6a77fbf448c1bb5b1979c9e13568ed47d20884f2b6701d78c1f964a88190e906108d09084908b908b908b90611ea4565b60405180910390a1509695505050505050565b6108eb6113e5565b6001600160801b031983166000908152600260205260409020546001600160a01b03161561096c5760405162461bcd60e51b815260206004820152602860248201527f4552524f523a41524d2d3032353a42454e45464943494152595f414c52454144604482015267595f45584953545360c01b60648201526084016106f3565b6040805180820182526001600160a01b0384811680835260ff85811660208086018281526001600160801b03198b16600081815260028085528a822099518a5494516001600160a01b031990951699169890981760ff60a01b1916600160a01b939096169290920294909417909655600180548082018255968190527fb10e2d527612073b26eecdfd717e6a320cf44b4afac2b0732d9fcbe2b7fa0cf69587049590950180546001600160801b03979096166010026101000a9687021990951660808b901c96909602959095179093558451908152928301528183015290517fa14e34c7bc3076832845fd32c1a63f0c9669b4c26e457c3332a239ab935b47099181900360600190a1505050565b610b0b604051806101e0016040528060001515815260200160608152602001600061ffff168152602001600060ff168152602001600060ff1681526020016060815260200160608152602001600081526020016000815260200160008152602001600081526020016000815260200160008152602001600063ffffffff168152602001600063ffffffff1681525090565b6001600160801b0319821660009081526006602090815260409182902082516101e08101909352805460ff16151583526001810180549192840191610b4f906121d6565b80601f0160208091040260200160405190810160405280929190818152602001828054610b7b906121d6565b8015610bc85780601f10610b9d57610100808354040283529160200191610bc8565b820191906000526020600020905b815481529060010190602001808311610bab57829003601f168201915b5050509183525050600282015461ffff8116602083015260ff620100008204811660408401526301000000909104166060820152600382018054608090920191610c11906121d6565b80601f0160208091040260200160405190810160405280929190818152602001828054610c3d906121d6565b8015610c8a5780601f10610c5f57610100808354040283529160200191610c8a565b820191906000526020600020905b815481529060010190602001808311610c6d57829003601f168201915b50505050508152602001600482018054610ca3906121d6565b80601f0160208091040260200160405190810160405280929190818152602001828054610ccf906121d6565b8015610d1c5780601f10610cf157610100808354040283529160200191610d1c565b820191906000526020600020905b815481529060010190602001808311610cff57829003601f168201915b505050918352505060058201546020820152600682015460408201526007820154606082015260088201546080820152600982015460a0820152600a82015460c0820152600b9091015463ffffffff80821660e0840152640100000000909104166101009091015292915050565b610d926113e5565b6001600160801b031982166000908152600660205260409020600b015463ffffffff16610e015760405162461bcd60e51b815260206004820152601c60248201527f4552524f523a41524d2d3031303a434f4e4649475f554e4b4e4f574e0000000060448201526064016106f3565b6001600160801b031982166000908152600660205260409020805460ff1916821515179055610e2d4290565b6001600160801b03199092166000908152600660205260409020600b01805463ffffffff939093166401000000000267ffffffff00000000199093169290921790915550565b6000610e7d6113e5565b610e918d8d8d8d8d8d8d8d8d8d8d8d61148f565b9d9c50505050505050505050505050565b60008161ffff166107e714610ef95760405162461bcd60e51b815260206004820152601a60248201527f4552524f523a41524d2d3131303a594541525f494e56414c494400000000000060448201526064016106f3565b8282604051602001610f0c929190611fbd565b60405160208183030381529060405280519060200120905092915050565b6001600160801b0319831660009081526006602052604081205460ff16610f935760405162461bcd60e51b815260206004820152601c60248201527f4552524f523a41524d2d3131303a434f4e4649475f494e56414c49440000000060448201526064016106f3565b6001600160801b0319831660009081526007602052604090205460ff16610ffc5760405162461bcd60e51b815260206004820152601e60248201527f4552524f523a41524d2d3131313a4c4f434154494f4e5f494e56414c4944000060448201526064016106f3565b61100582611340565b6110515760405162461bcd60e51b815260206004820152601a60248201527f4552524f523a41524d2d3131323a43524f505f494e56414c494400000000000060448201526064016106f3565b83838360405160200161062b93929190611ee3565b604080516101208082018352600080835260208084018290528385018290526060808501819052608080860184905260a0860184905260c0860184905260e086018490526101008087018590526001600160801b03198981168652600485529488902088519687018952805460ff81161515885291909104821b8516938601939093526001830154901b909216948301949094526002840180549394929391840191611111906121d6565b80601f016020809104026020016040519081016040528092919081815260200182805461113d906121d6565b801561118a5780601f1061115f5761010080835404028352916020019161118a565b820191906000526020600020905b81548152906001019060200180831161116d57829003601f168201915b5050509183525050600382015460208201526004820154604082015260059091015460ff81161515606083015263ffffffff610100820481166080840152650100000000009091041660a0909101529050919050565b6111e86113e5565b6001600160801b03198316600090815260046020526040902060050154610100900463ffffffff1661125c5760405162461bcd60e51b815260206004820152601a60248201527f4552524f523a41524d2d3031353a5249534b5f554e4b4e4f574e00000000000060448201526064016106f3565b6001600160801b03198316600090815260046020526040902060058101805460ff19908116851515179091558154168215151790556112984290565b6001600160801b03199093166000908152600460205260409020600501805463ffffffff94909416650100000000000268ffffffff000000000019909416939093179092555050565b600085858585856040516020016112fc959493929190611f50565b60405160208183030381529060405280519060200120905095945050505050565b60006003828154811061058957634e487b7160e01b600052603260045260246000fd5b60006008826040516113529190611e45565b9081526040519081900360200190205460ff169050919050565b6113746113e5565b6001600160a01b0381166113d95760405162461bcd60e51b815260206004820152602660248201527f4f776e61626c653a206e6577206f776e657220697320746865207a65726f206160448201526564647265737360d01b60648201526084016106f3565b6113e28161143f565b50565b6000546001600160a01b0316331461065c5760405162461bcd60e51b815260206004820181905260248201527f4f776e61626c653a2063616c6c6572206973206e6f7420746865206f776e657260448201526064016106f3565b600080546001600160a01b038381166001600160a01b0319831681178455604051919092169283917f8be0079c531659141344cd1fd0a4f28419497f9722a3daafe3b4186f6b6457e09190a35050565b600061149b8d8d610ea2565b6001600160801b031981166000908152600660205260409020600b0154909150429063ffffffff161561151c5760405162461bcd60e51b815260206004820152602360248201527f4552524f523a41524d2d3032303a434f4e4649475f414c52454144595f45584960448201526253545360e81b60648201526084016106f3565b604051806101e001604052806001151581526020018f81526020018e61ffff1681526020018d60ff1681526020018c60ff1681526020018b81526020018a81526020018981526020018881526020018781526020018681526020018581526020018481526020018263ffffffff1681526020018263ffffffff1681525060066000846001600160801b0319166001600160801b031916815260200190815260200160002060008201518160000160006101000a81548160ff02191690831515021790555060208201518160010190805190602001906115fc9291906117b4565b5060408201516002820180546060850151608086015161ffff1990921661ffff9094169390931762ff000019166201000060ff948516021763ff00000019166301000000939091169290920291909117905560a082015180516116699160038401916020909101906117b4565b5060c082015180516116859160048401916020909101906117b4565b5060e08201518160050155610100820151816006015561012082015181600701556101408201518160080155610160820151816009015561018082015181600a01556101a082015181600b0160006101000a81548163ffffffff021916908363ffffffff1602179055506101c082015181600b0160046101000a81548163ffffffff021916908363ffffffff16021790555090505060058290806001815401808255809150506001900390600052602060002090600291828204019190066010029091909190916101000a8154816001600160801b03021916908360801c02179055507fa3a5a22f1ef05d9adfd1637098712ea11223cfca2eceae211a35649bbfcdee30828f8f60405161179b93929190611f19565b60405180910390a1509c9b505050505050505050505050565b8280546117c0906121d6565b90600052602060002090601f0160209004810192826117e25760008555611828565b82601f106117fb57805160ff1916838001178555611828565b82800160010185558215611828579182015b8281111561182857825182559160200191906001019061180d565b50611834929150611838565b5090565b5b808211156118345760008155600101611839565b80356001600160a01b03811681146105af57600080fd5b803580151581146105af57600080fd5b80356001600160801b0319811681146105af57600080fd5b600082601f83011261189c578081fd5b813567ffffffffffffffff808211156118b7576118b7612211565b604051601f8301601f19908116603f011681019082821181831017156118df576118df612211565b816040528381528660208588010111156118f7578485fd5b8360208701602083013792830160200193909352509392505050565b803561ffff811681146105af57600080fd5b803560ff811681146105af57600080fd5b600060208284031215611947578081fd5b6119508261184d565b9392505050565b600060208284031215611968578081fd5b61195082611874565b600080600060608486031215611985578182fd5b61198e84611874565b925061199c6020850161184d565b91506119aa60408501611925565b90509250925092565b600080604083850312156119c5578182fd5b6119ce83611874565b91506119dc60208401611864565b90509250929050565b6000806000606084860312156119f9578283fd5b611a0284611874565b9250611a1060208501611864565b91506119aa60408501611864565b600080600060608486031215611a32578283fd5b611a3b84611874565b9250611a4960208501611874565b9150604084013567ffffffffffffffff811115611a64578182fd5b611a708682870161188c565b9150509250925092565b60008060008060008060c08789031215611a92578182fd5b611a9b87611874565b9550611aa960208801611874565b9450604087013567ffffffffffffffff811115611ac4578283fd5b611ad089828a0161188c565b9450506060870135925060808701359150611aed60a08801611864565b90509295509295509295565b600060208284031215611b0a578081fd5b813567ffffffffffffffff811115611b20578182fd5b611b2c8482850161188c565b949350505050565b60008060408385031215611b46578182fd5b823567ffffffffffffffff811115611b5c578283fd5b611b688582860161188c565b9250506119dc60208401611864565b600080600060608486031215611b8b578283fd5b833567ffffffffffffffff80821115611ba2578485fd5b611bae8783880161188c565b94506020860135915080821115611bc3578384fd5b611bcf8783880161188c565b93506040860135915080821115611be4578283fd5b50611a708682870161188c565b600080600080600060a08688031215611c08578081fd5b853567ffffffffffffffff80821115611c1f578283fd5b611c2b89838a0161188c565b96506020880135915080821115611c40578283fd5b611c4c89838a0161188c565b95506040880135915080821115611c61578283fd5b611c6d89838a0161188c565b94506060880135915080821115611c82578283fd5b611c8e89838a0161188c565b93506080880135915080821115611ca3578283fd5b50611cb08882890161188c565b9150509295509295909350565b60008060408385031215611ccf578182fd5b823567ffffffffffffffff811115611ce5578283fd5b611cf18582860161188c565b9250506119dc60208401611913565b6000806000806000806000806000806000806101808d8f031215611d2257898afd5b67ffffffffffffffff8d351115611d3757898afd5b611d448e8e358f0161188c565b9b50611d5260208e01611913565b9a50611d6060408e01611925565b9950611d6e60608e01611925565b985067ffffffffffffffff60808e01351115611d88578586fd5b611d988e60808f01358f0161188c565b975067ffffffffffffffff60a08e01351115611db2578586fd5b611dc28e60a08f01358f0161188c565b9b9e9a9d50989b979a969996985050505060c08501359460e0810135946101008201359450610120820135935061014082013592506101609091013590565b600060208284031215611e12578081fd5b5035919050565b60008151808452611e318160208601602086016121a6565b601f01601f19169290920160200192915050565b60008251611e578184602087016121a6565b9190910192915050565b60008451611e738184602089016121a6565b845190830190611e878183602089016121a6565b8451910190611e9a8183602088016121a6565b0195945050505050565b60006001600160801b03198087168352808616602084015280851660408401525060806060830152611ed96080830184611e19565b9695505050505050565b60006001600160801b0319808616835280851660208401525060606040830152611f106060830184611e19565b95945050505050565b60006001600160801b03198516825260606020830152611f3c6060830185611e19565b905061ffff83166040830152949350505050565b600060a08252611f6360a0830188611e19565b8281036020840152611f758188611e19565b90508281036040840152611f898187611e19565b90508281036060840152611f9d8186611e19565b90508281036080840152611fb18185611e19565b98975050505050505050565b600060408252611fd06040830185611e19565b905061ffff831660208301529392505050565b600060208252611ff860208301845115159052565b60208301516101e0806040850152612014610200850183611e19565b9150604085015161202b606086018261ffff169052565b50606085015160ff8116608086015250608085015160ff811660a08601525060a0850151601f19808685030160c08701526120668483611e19565b935060c08701519150808685030160e0870152506120848382611e19565b60e087015161010087810191909152870151610120808801919091528701516101408088019190915287015161016080880191909152870151610180808801919091528701516101a08088019190915287015190935090506101c06120f08187018363ffffffff169052565b9095015163ffffffff1693019290925250919050565b60006020825261211b60208301845115159052565b60208301516001600160801b0319811660408401525060408301516001600160801b031981166060840152506060830151610120806080850152612163610140850183611e19565b9150608085015160a085015260a085015160c085015260c085015161218c60e086018215159052565b5060e08501516101006120f08187018363ffffffff169052565b60005b838110156121c15781810151838201526020016121a9565b838111156121d0576000848401525b50505050565b6002810460018216806121ea57607f821691505b6020821081141561220b57634e487b7160e01b600052602260045260246000fd5b50919050565b634e487b7160e01b600052604160045260246000fdfea26469706673582212200eff0b2391276859d4bb43962b30fe1ad1d10a30c2c8a22d41b520e2b034b74364736f6c63430008020033",
  "bytecodeSha1": "b12e3d7fce60eb1f6115563cee331a1a9abd6df9",
  "compiler": {
    "evm_version": "istanbul",
    "optimizer": {
      "enabled": true,
      "runs": 200
    },
    "version": "0.8.2+commit.661d1103"
  },
  "contractName": "ArcModel",
  "language": "Solidity",
  "natspec": {
    "kind": "dev",
    "methods": {
      "owner()": {
        "details": "Returns the address of the current owner."
      },
      "renounceOwnership()": {
        "details": "Leaves the contract without owner. It will not be possible to call `onlyOwner` functions anymore. Can only be called by the current owner. NOTE: Renouncing ownership will leave the contract without an owner, thereby removing any functionality that is only available to the owner."
      },
      "transferOwnership(address)": {
        "details": "Transfers ownership of the contract to a new account (`newOwner`). Can only be called by the current owner."
      }
    },
    "version": 1
  },
  "opcodes": "PUSH1 0x80 PUSH1 0x40 MSTORE CALLVALUE DUP1 ISZERO PUSH2 0x10 JUMPI PUSH1 0x0 DUP1 REVERT JUMPDEST POP PUSH1 0x4 CALLDATASIZE LT PUSH2 0x1F0 JUMPI PUSH1 0x0 CALLDATALOAD PUSH1 0xE0 SHR DUP1 PUSH4 0x8B6C20EA GT PUSH2 0x10F JUMPI DUP1 PUSH4 0xC83B7211 GT PUSH2 0xA2 JUMPI DUP1 PUSH4 0xEB807339 GT PUSH2 0x71 JUMPI DUP1 PUSH4 0xEB807339 EQ PUSH2 0x4F1 JUMPI DUP1 PUSH4 0xF0640EF6 EQ PUSH2 0x504 JUMPI DUP1 PUSH4 0xF2FDE38B EQ PUSH2 0x517 JUMPI DUP1 PUSH4 0xF9D7FF89 EQ PUSH2 0x52A JUMPI PUSH2 0x1F0 JUMP JUMPDEST DUP1 PUSH4 0xC83B7211 EQ PUSH2 0x41F JUMPI DUP1 PUSH4 0xD25F214B EQ PUSH2 0x4AB JUMPI DUP1 PUSH4 0xD7F8DCA6 EQ PUSH2 0x4CB JUMPI DUP1 PUSH4 0xDA1E70D7 EQ PUSH2 0x4DE JUMPI PUSH2 0x1F0 JUMP JUMPDEST DUP1 PUSH4 0xB72EAD9C GT PUSH2 0xDE JUMPI DUP1 PUSH4 0xB72EAD9C EQ PUSH2 0x3C4 JUMPI DUP1 PUSH4 0xBD09BF25 EQ PUSH2 0x3F1 JUMPI DUP1 PUSH4 0xC157C7C1 EQ PUSH2 0x404 JUMPI DUP1 PUSH4 0xC51EC15F EQ PUSH2 0x417 JUMPI PUSH2 0x1F0 JUMP JUMPDEST DUP1 PUSH4 0x8B6C20EA EQ PUSH2 0x37B JUMPI DUP1 PUSH4 0x8DA5CB5B EQ PUSH2 0x38E JUMPI DUP1 PUSH4 0x90164BAD EQ PUSH2 0x3A9 JUMPI DUP1 PUSH4 0x937C6E81 EQ PUSH2 0x3BC JUMPI PUSH2 0x1F0 JUMP JUMPDEST DUP1 PUSH4 0x42CF5CBA GT PUSH2 0x187 JUMPI DUP1 PUSH4 0x7C37F243 GT PUSH2 0x156 JUMPI DUP1 PUSH4 0x7C37F243 EQ PUSH2 0x32D JUMPI DUP1 PUSH4 0x7EDA2F40 EQ PUSH2 0x340 JUMPI DUP1 PUSH4 0x7FF873F7 EQ PUSH2 0x353 JUMPI DUP1 PUSH4 0x827658A9 EQ PUSH2 0x373 JUMPI PUSH2 0x1F0 JUMP JUMPDEST DUP1 PUSH4 0x42CF5CBA EQ PUSH2 0x2D2 JUMPI DUP1 PUSH4 0x4AEF83D5 EQ PUSH2 0x2E5 JUMPI DUP1 PUSH4 0x5FAF01DA EQ PUSH2 0x312 JUMPI DUP1 PUSH4 0x715018A6 EQ PUSH2 0x325 JUMPI PUSH2 0x1F0 JUMP JUMPDEST DUP1 PUSH4 0x1D29BD5A GT PUSH2 0x1C3 JUMPI DUP1 PUSH4 0x1D29BD5A EQ PUSH2 0x28C JUMPI DUP1 PUSH4 0x313CE567 EQ PUSH2 0x29E JUMPI DUP1 PUSH4 0x3A962F93 EQ PUSH2 0x2A5 JUMPI DUP1 PUSH4 0x3F6EFE56 EQ PUSH2 0x2BF JUMPI PUSH2 0x1F0 JUMP JUMPDEST DUP1 PUSH4 0x10B4931F EQ PUSH2 0x1F5 JUMPI DUP1 PUSH4 0x188EC356 EQ PUSH2 0x20A JUMPI DUP1 PUSH4 0x19034021 EQ PUSH2 0x223 JUMPI DUP1 PUSH4 0x1AC31A49 EQ PUSH2 0x24F JUMPI JUMPDEST PUSH1 0x0 DUP1 REVERT JUMPDEST PUSH2 0x208 PUSH2 0x203 CALLDATASIZE PUSH1 0x4 PUSH2 0x19B3 JUMP JUMPDEST PUSH2 0x532 JUMP JUMPDEST STOP JUMPDEST PUSH1 0x40 MLOAD PUSH4 0xFFFFFFFF TIMESTAMP AND DUP2 MSTORE PUSH1 0x20 ADD JUMPDEST PUSH1 0x40 MLOAD DUP1 SWAP2 SUB SWAP1 RETURN JUMPDEST PUSH2 0x236 PUSH2 0x231 CALLDATASIZE PUSH1 0x4 PUSH2 0x1E01 JUMP JUMPDEST PUSH2 0x566 JUMP JUMPDEST PUSH1 0x40 MLOAD PUSH1 0x1 PUSH1 0x1 PUSH1 0x80 SHL SUB NOT SWAP1 SWAP2 AND DUP2 MSTORE PUSH1 0x20 ADD PUSH2 0x21A JUMP JUMPDEST PUSH2 0x27C PUSH2 0x25D CALLDATASIZE PUSH1 0x4 PUSH2 0x1957 JUMP JUMPDEST PUSH1 0x1 PUSH1 0x1 PUSH1 0x80 SHL SUB NOT AND PUSH1 0x0 SWAP1 DUP2 MSTORE PUSH1 0x4 PUSH1 0x20 MSTORE PUSH1 0x40 SWAP1 KECCAK256 SLOAD PUSH1 0xFF AND SWAP1 JUMP JUMPDEST PUSH1 0x40 MLOAD SWAP1 ISZERO ISZERO DUP2 MSTORE PUSH1 0x20 ADD PUSH2 0x21A JUMP JUMPDEST PUSH1 0x1 SLOAD JUMPDEST PUSH1 0x40 MLOAD SWAP1 DUP2 MSTORE PUSH1 0x20 ADD PUSH2 0x21A JUMP JUMPDEST PUSH1 0x6 PUSH2 0x290 JUMP JUMPDEST PUSH2 0x2AD PUSH1 0x14 DUP2 JUMP JUMPDEST PUSH1 0x40 MLOAD PUSH1 0xFF SWAP1 SWAP2 AND DUP2 MSTORE PUSH1 0x20 ADD PUSH2 0x21A JUMP JUMPDEST PUSH2 0x236 PUSH2 0x2CD CALLDATASIZE PUSH1 0x4 PUSH2 0x1E01 JUMP JUMPDEST PUSH2 0x5B4 JUMP JUMPDEST PUSH2 0x208 PUSH2 0x2E0 CALLDATASIZE PUSH1 0x4 PUSH2 0x1B34 JUMP JUMPDEST PUSH2 0x5D7 JUMP JUMPDEST PUSH2 0x27C PUSH2 0x2F3 CALLDATASIZE PUSH1 0x4 PUSH2 0x1957 JUMP JUMPDEST PUSH1 0x1 PUSH1 0x1 PUSH1 0x80 SHL SUB NOT AND PUSH1 0x0 SWAP1 DUP2 MSTORE PUSH1 0x6 PUSH1 0x20 MSTORE PUSH1 0x40 SWAP1 KECCAK256 SLOAD PUSH1 0xFF AND SWAP1 JUMP JUMPDEST PUSH2 0x236 PUSH2 0x320 CALLDATASIZE PUSH1 0x4 PUSH2 0x1B77 JUMP JUMPDEST PUSH2 0x614 JUMP JUMPDEST PUSH2 0x208 PUSH2 0x64A JUMP JUMPDEST PUSH2 0x236 PUSH2 0x33B CALLDATASIZE PUSH1 0x4 PUSH2 0x1A7A JUMP JUMPDEST PUSH2 0x65E JUMP JUMPDEST PUSH2 0x208 PUSH2 0x34E CALLDATASIZE PUSH1 0x4 PUSH2 0x1971 JUMP JUMPDEST PUSH2 0x8E3 JUMP JUMPDEST PUSH2 0x366 PUSH2 0x361 CALLDATASIZE PUSH1 0x4 PUSH2 0x1957 JUMP JUMPDEST PUSH2 0xA7A JUMP JUMPDEST PUSH1 0x40 MLOAD PUSH2 0x21A SWAP2 SWAP1 PUSH2 0x1FE3 JUMP JUMPDEST PUSH2 0x2AD PUSH1 0xA DUP2 JUMP JUMPDEST PUSH2 0x208 PUSH2 0x389 CALLDATASIZE PUSH1 0x4 PUSH2 0x19B3 JUMP JUMPDEST PUSH2 0xD8A JUMP JUMPDEST PUSH1 0x0 SLOAD PUSH1 0x40 MLOAD PUSH1 0x1 PUSH1 0x1 PUSH1 0xA0 SHL SUB SWAP1 SWAP2 AND DUP2 MSTORE PUSH1 0x20 ADD PUSH2 0x21A JUMP JUMPDEST PUSH2 0x236 PUSH2 0x3B7 CALLDATASIZE PUSH1 0x4 PUSH2 0x1D00 JUMP JUMPDEST PUSH2 0xE73 JUMP JUMPDEST PUSH2 0x290 PUSH1 0x6 DUP2 JUMP JUMPDEST PUSH2 0x27C PUSH2 0x3D2 CALLDATASIZE PUSH1 0x4 PUSH2 0x1957 JUMP JUMPDEST PUSH1 0x1 PUSH1 0x1 PUSH1 0x80 SHL SUB NOT AND PUSH1 0x0 SWAP1 DUP2 MSTORE PUSH1 0x7 PUSH1 0x20 MSTORE PUSH1 0x40 SWAP1 KECCAK256 SLOAD PUSH1 0xFF AND SWAP1 JUMP JUMPDEST PUSH2 0x236 PUSH2 0x3FF CALLDATASIZE PUSH1 0x4 PUSH2 0x1CBD JUMP JUMPDEST PUSH2 0xEA2 JUMP JUMPDEST PUSH2 0x236 PUSH2 0x412 CALLDATASIZE PUSH1 0x4 PUSH2 0x1A1E JUMP JUMPDEST PUSH2 0xF2A JUMP JUMPDEST PUSH1 0x5 SLOAD PUSH2 0x290 JUMP JUMPDEST PUSH2 0x484 PUSH2 0x42D CALLDATASIZE PUSH1 0x4 PUSH2 0x1957 JUMP JUMPDEST PUSH1 0x40 DUP1 MLOAD DUP1 DUP3 ADD SWAP1 SWAP2 MSTORE PUSH1 0x0 DUP1 DUP3 MSTORE PUSH1 0x20 DUP3 ADD MSTORE POP PUSH1 0x1 PUSH1 0x1 PUSH1 0x80 SHL SUB NOT AND PUSH1 0x0 SWAP1 DUP2 MSTORE PUSH1 0x2 PUSH1 0x20 SWAP1 DUP2 MSTORE PUSH1 0x40 SWAP2 DUP3 SWAP1 KECCAK256 DUP3 MLOAD DUP1 DUP5 ADD SWAP1 SWAP4 MSTORE SLOAD PUSH1 0x1 PUSH1 0x1 PUSH1 0xA0 SHL SUB DUP2 AND DUP4 MSTORE PUSH1 0x1 PUSH1 0xA0 SHL SWAP1 DIV PUSH1 0xFF AND SWAP1 DUP3 ADD MSTORE SWAP1 JUMP JUMPDEST PUSH1 0x40 DUP1 MLOAD DUP3 MLOAD PUSH1 0x1 PUSH1 0x1 PUSH1 0xA0 SHL SUB AND DUP2 MSTORE PUSH1 0x20 SWAP3 DUP4 ADD MLOAD PUSH1 0xFF AND SWAP3 DUP2 ADD SWAP3 SWAP1 SWAP3 MSTORE ADD PUSH2 0x21A JUMP JUMPDEST PUSH2 0x4BE PUSH2 0x4B9 CALLDATASIZE PUSH1 0x4 PUSH2 0x1957 JUMP JUMPDEST PUSH2 0x1066 JUMP JUMPDEST PUSH1 0x40 MLOAD PUSH2 0x21A SWAP2 SWAP1 PUSH2 0x2106 JUMP JUMPDEST PUSH2 0x208 PUSH2 0x4D9 CALLDATASIZE PUSH1 0x4 PUSH2 0x19E5 JUMP JUMPDEST PUSH2 0x11E0 JUMP JUMPDEST PUSH2 0x236 PUSH2 0x4EC CALLDATASIZE PUSH1 0x4 PUSH2 0x1BF1 JUMP JUMPDEST PUSH2 0x12E1 JUMP JUMPDEST PUSH2 0x236 PUSH2 0x4FF CALLDATASIZE PUSH1 0x4 PUSH2 0x1E01 JUMP JUMPDEST PUSH2 0x131D JUMP JUMPDEST PUSH2 0x27C PUSH2 0x512 CALLDATASIZE PUSH1 0x4 PUSH2 0x1AF9 JUMP JUMPDEST PUSH2 0x1340 JUMP JUMPDEST PUSH2 0x208 PUSH2 0x525 CALLDATASIZE PUSH1 0x4 PUSH2 0x1936 JUMP JUMPDEST PUSH2 0x136C JUMP JUMPDEST PUSH1 0x3 SLOAD PUSH2 0x290 JUMP JUMPDEST PUSH2 0x53A PUSH2 0x13E5 JUMP JUMPDEST PUSH1 0x1 PUSH1 0x1 PUSH1 0x80 SHL SUB NOT SWAP2 SWAP1 SWAP2 AND PUSH1 0x0 SWAP1 DUP2 MSTORE PUSH1 0x7 PUSH1 0x20 MSTORE PUSH1 0x40 SWAP1 KECCAK256 DUP1 SLOAD PUSH1 0xFF NOT AND SWAP2 ISZERO ISZERO SWAP2 SWAP1 SWAP2 OR SWAP1 SSTORE JUMP JUMPDEST PUSH1 0x0 PUSH1 0x5 DUP3 DUP2 SLOAD DUP2 LT PUSH2 0x589 JUMPI PUSH4 0x4E487B71 PUSH1 0xE0 SHL PUSH1 0x0 MSTORE PUSH1 0x32 PUSH1 0x4 MSTORE PUSH1 0x24 PUSH1 0x0 REVERT JUMPDEST SWAP1 PUSH1 0x0 MSTORE PUSH1 0x20 PUSH1 0x0 KECCAK256 SWAP1 PUSH1 0x2 SWAP2 DUP3 DUP3 DIV ADD SWAP2 SWAP1 MOD PUSH1 0x10 MUL SWAP1 SLOAD SWAP1 PUSH2 0x100 EXP SWAP1 DIV PUSH1 0x80 SHL SWAP1 POP JUMPDEST SWAP2 SWAP1 POP JUMP JUMPDEST PUSH1 0x0 PUSH1 0x1 DUP3 DUP2 SLOAD DUP2 LT PUSH2 0x589 JUMPI PUSH4 0x4E487B71 PUSH1 0xE0 SHL PUSH1 0x0 MSTORE PUSH1 0x32 PUSH1 0x4 MSTORE PUSH1 0x24 PUSH1 0x0 REVERT JUMPDEST PUSH2 0x5DF PUSH2 0x13E5 JUMP JUMPDEST DUP1 PUSH1 0x8 DUP4 PUSH1 0x40 MLOAD PUSH2 0x5F0 SWAP2 SWAP1 PUSH2 0x1E45 JUMP JUMPDEST SWAP1 DUP2 MSTORE PUSH1 0x40 MLOAD SWAP1 DUP2 SWAP1 SUB PUSH1 0x20 ADD SWAP1 KECCAK256 DUP1 SLOAD SWAP2 ISZERO ISZERO PUSH1 0xFF NOT SWAP1 SWAP3 AND SWAP2 SWAP1 SWAP2 OR SWAP1 SSTORE POP POP JUMP JUMPDEST PUSH1 0x0 DUP4 DUP4 DUP4 PUSH1 0x40 MLOAD PUSH1 0x20 ADD PUSH2 0x62B SWAP4 SWAP3 SWAP2 SWAP1 PUSH2 0x1E61 JUMP JUMPDEST PUSH1 0x40 MLOAD PUSH1 0x20 DUP2 DUP4 SUB SUB DUP2 MSTORE SWAP1 PUSH1 0x40 MSTORE DUP1 MLOAD SWAP1 PUSH1 0x20 ADD KECCAK256 SWAP1 POP SWAP4 SWAP3 POP POP POP JUMP JUMPDEST PUSH2 0x652 PUSH2 0x13E5 JUMP JUMPDEST PUSH2 0x65C PUSH1 0x0 PUSH2 0x143F JUMP JUMPDEST JUMP JUMPDEST PUSH1 0x0 PUSH2 0x668 PUSH2 0x13E5 JUMP JUMPDEST PUSH2 0x673 DUP8 DUP8 DUP8 PUSH2 0xF2A JUMP JUMPDEST PUSH1 0x1 PUSH1 0x1 PUSH1 0x80 SHL SUB NOT DUP2 AND PUSH1 0x0 SWAP1 DUP2 MSTORE PUSH1 0x4 PUSH1 0x20 MSTORE PUSH1 0x40 SWAP1 KECCAK256 PUSH1 0x5 ADD SLOAD SWAP1 SWAP2 POP TIMESTAMP SWAP1 PUSH2 0x100 SWAP1 DIV PUSH4 0xFFFFFFFF AND ISZERO PUSH2 0x6FC JUMPI PUSH1 0x40 MLOAD PUSH3 0x461BCD PUSH1 0xE5 SHL DUP2 MSTORE PUSH1 0x20 PUSH1 0x4 DUP3 ADD MSTORE PUSH1 0x21 PUSH1 0x24 DUP3 ADD MSTORE PUSH32 0x4552524F523A41524D2D3032353A5249534B5F414C52454144595F4558495354 PUSH1 0x44 DUP3 ADD MSTORE PUSH1 0x53 PUSH1 0xF8 SHL PUSH1 0x64 DUP3 ADD MSTORE PUSH1 0x84 ADD JUMPDEST PUSH1 0x40 MLOAD DUP1 SWAP2 SUB SWAP1 REVERT JUMPDEST PUSH1 0x40 DUP1 MLOAD PUSH2 0x120 DUP2 ADD DUP3 MSTORE PUSH1 0x1 DUP1 DUP3 MSTORE PUSH1 0x1 PUSH1 0x1 PUSH1 0x80 SHL SUB NOT DUP12 DUP2 AND PUSH1 0x20 DUP1 DUP6 ADD SWAP2 DUP3 MSTORE DUP13 DUP4 AND DUP6 DUP8 ADD SWAP1 DUP2 MSTORE PUSH1 0x60 DUP7 ADD DUP14 DUP2 MSTORE PUSH1 0x80 DUP1 DUP9 ADD DUP15 SWAP1 MSTORE PUSH1 0xA0 DUP9 ADD DUP14 SWAP1 MSTORE DUP12 ISZERO ISZERO PUSH1 0xC0 DUP10 ADD MSTORE PUSH4 0xFFFFFFFF DUP11 AND PUSH1 0xE0 DUP10 ADD DUP2 SWAP1 MSTORE PUSH2 0x100 DUP1 DUP11 ADD SWAP2 SWAP1 SWAP2 MSTORE DUP12 DUP8 AND PUSH1 0x0 SWAP1 DUP2 MSTORE PUSH1 0x4 DUP7 MSTORE SWAP10 SWAP1 SWAP10 KECCAK256 DUP9 MLOAD DUP2 SLOAD SWAP7 MLOAD PUSH1 0xFF NOT SWAP8 SWAP1 SWAP8 AND SWAP1 ISZERO ISZERO OR PUSH17 0xFFFFFFFFFFFFFFFFFFFFFFFFFFFFFFFF00 NOT AND SWAP6 DUP3 SHR SWAP1 SWAP10 MUL SWAP5 SWAP1 SWAP5 OR DUP9 SSTORE SWAP1 MLOAD SWAP5 DUP8 ADD DUP1 SLOAD SWAP1 SWAP5 AND SWAP5 SWAP1 SWAP3 SHR SWAP4 SWAP1 SWAP4 OR SWAP1 SWAP2 SSTORE MLOAD DUP1 MLOAD SWAP3 SWAP4 SWAP3 PUSH2 0x7CB SWAP3 PUSH1 0x2 DUP6 ADD SWAP3 ADD SWAP1 PUSH2 0x17B4 JUMP JUMPDEST POP PUSH1 0x80 DUP3 DUP2 ADD MLOAD PUSH1 0x3 DUP4 DUP2 ADD SWAP2 SWAP1 SWAP2 SSTORE PUSH1 0xA0 DUP5 ADD MLOAD PUSH1 0x4 DUP5 ADD SSTORE PUSH1 0xC0 DUP5 ADD MLOAD PUSH1 0x5 SWAP1 SWAP4 ADD DUP1 SLOAD PUSH1 0xE0 DUP7 ADD MLOAD PUSH2 0x100 SWAP7 DUP8 ADD MLOAD PUSH1 0xFF NOT SWAP1 SWAP3 AND SWAP6 ISZERO ISZERO SWAP6 SWAP1 SWAP6 OR PUSH5 0xFFFFFFFF00 NOT AND PUSH4 0xFFFFFFFF SWAP6 DUP7 AND DUP8 MUL OR PUSH9 0xFFFFFFFF0000000000 NOT AND PUSH6 0x10000000000 SWAP6 SWAP1 SWAP2 AND SWAP5 SWAP1 SWAP5 MUL SWAP4 SWAP1 SWAP4 OR SWAP1 SWAP3 SSTORE DUP2 SLOAD PUSH1 0x1 DUP2 DUP2 ADD DUP5 SSTORE PUSH1 0x0 SWAP4 SWAP1 SWAP4 MSTORE PUSH32 0xC2575A0E9E593C00F959F8C92F12DB2869C3395A3B0502D05E2516446F71F85B PUSH1 0x2 DUP3 DIV ADD DUP1 SLOAD PUSH1 0x1 PUSH1 0x1 PUSH1 0x80 SHL SUB SWAP3 SWAP1 SWAP5 AND PUSH1 0x10 MUL SWAP1 SWAP5 EXP SWAP1 DUP2 MUL NOT SWAP1 SWAP3 AND SWAP1 DUP6 SWAP1 SHR SWAP2 SWAP1 SWAP2 MUL OR SWAP1 SSTORE PUSH1 0x40 MLOAD PUSH32 0x69B6A77FBF448C1BB5B1979C9E13568ED47D20884F2B6701D78C1F964A88190E SWAP1 PUSH2 0x8D0 SWAP1 DUP5 SWAP1 DUP12 SWAP1 DUP12 SWAP1 DUP12 SWAP1 PUSH2 0x1EA4 JUMP JUMPDEST PUSH1 0x40 MLOAD DUP1 SWAP2 SUB SWAP1 LOG1 POP SWAP7 SWAP6 POP POP POP POP POP POP JUMP JUMPDEST PUSH2 0x8EB PUSH2 0x13E5 JUMP JUMPDEST PUSH1 0x1 PUSH1 0x1 PUSH1 0x80 SHL SUB NOT DUP4 AND PUSH1 0x0 SWAP1 DUP2 MSTORE PUSH1 0x2 PUSH1 0x20 MSTORE PUSH1 0x40 SWAP1 KECCAK256 SLOAD PUSH1 0x1 PUSH1 0x1 PUSH1 0xA0 SHL SUB AND ISZERO PUSH2 0x96C JUMPI PUSH1 0x40 MLOAD PUSH3 0x461BCD PUSH1 0xE5 SHL DUP2 MSTORE PUSH1 0x20 PUSH1 0x4 DUP3 ADD MSTORE PUSH1 0x28 PUSH1 0x24 DUP3 ADD MSTORE PUSH32 0x4552524F523A41524D2D3032353A42454E45464943494152595F414C52454144 PUSH1 0x44 DUP3 ADD MSTORE PUSH8 0x595F455849535453 PUSH1 0xC0 SHL PUSH1 0x64 DUP3 ADD MSTORE PUSH1 0x84 ADD PUSH2 0x6F3 JUMP JUMPDEST PUSH1 0x40 DUP1 MLOAD DUP1 DUP3 ADD DUP3 MSTORE PUSH1 0x1 PUSH1 0x1 PUSH1 0xA0 SHL SUB DUP5 DUP2 AND DUP1 DUP4 MSTORE PUSH1 0xFF DUP6 DUP2 AND PUSH1 0x20 DUP1 DUP7 ADD DUP3 DUP2 MSTORE PUSH1 0x1 PUSH1 0x1 PUSH1 0x80 SHL SUB NOT DUP12 AND PUSH1 0x0 DUP2 DUP2 MSTORE PUSH1 0x2 DUP1 DUP6 MSTORE DUP11 DUP3 KECCAK256 SWAP10 MLOAD DUP11 SLOAD SWAP5 MLOAD PUSH1 0x1 PUSH1 0x1 PUSH1 0xA0 SHL SUB NOT SWAP1 SWAP6 AND SWAP10 AND SWAP9 SWAP1 SWAP9 OR PUSH1 0xFF PUSH1 0xA0 SHL NOT AND PUSH1 0x1 PUSH1 0xA0 SHL SWAP4 SWAP1 SWAP7 AND SWAP3 SWAP1 SWAP3 MUL SWAP5 SWAP1 SWAP5 OR SWAP1 SWAP7 SSTORE PUSH1 0x1 DUP1 SLOAD DUP1 DUP3 ADD DUP3 SSTORE SWAP7 DUP2 SWAP1 MSTORE PUSH32 0xB10E2D527612073B26EECDFD717E6A320CF44B4AFAC2B0732D9FCBE2B7FA0CF6 SWAP6 DUP8 DIV SWAP6 SWAP1 SWAP6 ADD DUP1 SLOAD PUSH1 0x1 PUSH1 0x1 PUSH1 0x80 SHL SUB SWAP8 SWAP1 SWAP7 AND PUSH1 0x10 MUL PUSH2 0x100 EXP SWAP7 DUP8 MUL NOT SWAP1 SWAP6 AND PUSH1 0x80 DUP12 SWAP1 SHR SWAP7 SWAP1 SWAP7 MUL SWAP6 SWAP1 SWAP6 OR SWAP1 SWAP4 SSTORE DUP5 MLOAD SWAP1 DUP2 MSTORE SWAP3 DUP4 ADD MSTORE DUP2 DUP4 ADD MSTORE SWAP1 MLOAD PUSH32 0xA14E34C7BC3076832845FD32C1A63F0C9669B4C26E457C3332A239AB935B4709 SWAP2 DUP2 SWAP1 SUB PUSH1 0x60 ADD SWAP1 LOG1 POP POP POP JUMP JUMPDEST PUSH2 0xB0B PUSH1 0x40 MLOAD DUP1 PUSH2 0x1E0 ADD PUSH1 0x40 MSTORE DUP1 PUSH1 0x0 ISZERO ISZERO DUP2 MSTORE PUSH1 0x20 ADD PUSH1 0x60 DUP2 MSTORE PUSH1 0x20 ADD PUSH1 0x0 PUSH2 0xFFFF AND DUP2 MSTORE PUSH1 0x20 ADD PUSH1 0x0 PUSH1 0xFF AND DUP2 MSTORE PUSH1 0x20 ADD PUSH1 0x0 PUSH1 0xFF AND DUP2 MSTORE PUSH1 0x20 ADD PUSH1 0x60 DUP2 MSTORE PUSH1 0x20 ADD PUSH1 0x60 DUP2 MSTORE PUSH1 0x20 ADD PUSH1 0x0 DUP2 MSTORE PUSH1 0x20 ADD PUSH1 0x0 DUP2 MSTORE PUSH1 0x20 ADD PUSH1 0x0 DUP2 MSTORE PUSH1 0x20 ADD PUSH1 0x0 DUP2 MSTORE PUSH1 0x20 ADD PUSH1 0x0 DUP2 MSTORE PUSH1 0x20 ADD PUSH1 0x0 DUP2 MSTORE PUSH1 0x20 ADD PUSH1 0x0 PUSH4 0xFFFFFFFF AND DUP2 MSTORE PUSH1 0x20 ADD PUSH1 0x0 PUSH4 0xFFFFFFFF AND DUP2 MSTORE POP SWAP1 JUMP JUMPDEST PUSH1 0x1 PUSH1 0x1 PUSH1 0x80 SHL SUB NOT DUP3 AND PUSH1 0x0 SWAP1 DUP2 MSTORE PUSH1 0x6 PUSH1 0x20 SWAP1 DUP2 MSTORE PUSH1 0x40 SWAP2 DUP3 SWAP1 KECCAK256 DUP3 MLOAD PUSH2 0x1E0 DUP2 ADD SWAP1 SWAP4 MSTORE DUP1 SLOAD PUSH1 0xFF AND ISZERO ISZERO DUP4 MSTORE PUSH1 0x1 DUP2 ADD DUP1 SLOAD SWAP2 SWAP3 DUP5 ADD SWAP2 PUSH2 0xB4F SWAP1 PUSH2 0x21D6 JUMP JUMPDEST DUP1 PUSH1 0x1F ADD PUSH1 0x20 DUP1 SWAP2 DIV MUL PUSH1 0x20 ADD PUSH1 0x40 MLOAD SWAP1 DUP2 ADD PUSH1 0x40 MSTORE DUP1 SWAP3 SWAP2 SWAP1 DUP2 DUP2 MSTORE PUSH1 0x20 ADD DUP3 DUP1 SLOAD PUSH2 0xB7B SWAP1 PUSH2 0x21D6 JUMP JUMPDEST DUP1 ISZERO PUSH2 0xBC8 JUMPI DUP1 PUSH1 0x1F LT PUSH2 0xB9D JUMPI PUSH2 0x100 DUP1 DUP4 SLOAD DIV MUL DUP4 MSTORE SWAP2 PUSH1 0x20 ADD SWAP2 PUSH2 0xBC8 JUMP JUMPDEST DUP3 ADD SWAP2 SWAP1 PUSH1 0x0 MSTORE PUSH1 0x20 PUSH1 0x0 KECCAK256 SWAP1 JUMPDEST DUP2 SLOAD DUP2 MSTORE SWAP1 PUSH1 0x1 ADD SWAP1 PUSH1 0x20 ADD DUP1 DUP4 GT PUSH2 0xBAB JUMPI DUP3 SWAP1 SUB PUSH1 0x1F AND DUP3 ADD SWAP2 JUMPDEST POP POP POP SWAP2 DUP4 MSTORE POP POP PUSH1 0x2 DUP3 ADD SLOAD PUSH2 0xFFFF DUP2 AND PUSH1 0x20 DUP4 ADD MSTORE PUSH1 0xFF PUSH3 0x10000 DUP3 DIV DUP2 AND PUSH1 0x40 DUP5 ADD MSTORE PUSH4 0x1000000 SWAP1 SWAP2 DIV AND PUSH1 0x60 DUP3 ADD MSTORE PUSH1 0x3 DUP3 ADD DUP1 SLOAD PUSH1 0x80 SWAP1 SWAP3 ADD SWAP2 PUSH2 0xC11 SWAP1 PUSH2 0x21D6 JUMP JUMPDEST DUP1 PUSH1 0x1F ADD PUSH1 0x20 DUP1 SWAP2 DIV MUL PUSH1 0x20 ADD PUSH1 0x40 MLOAD SWAP1 DUP2 ADD PUSH1 0x40 MSTORE DUP1 SWAP3 SWAP2 SWAP1 DUP2 DUP2 MSTORE PUSH1 0x20 ADD DUP3 DUP1 SLOAD PUSH2 0xC3D SWAP1 PUSH2 0x21D6 JUMP JUMPDEST DUP1 ISZERO PUSH2 0xC8A JUMPI DUP1 PUSH1 0x1F LT PUSH2 0xC5F JUMPI PUSH2 0x100 DUP1 DUP4 SLOAD DIV MUL DUP4 MSTORE SWAP2 PUSH1 0x20 ADD SWAP2 PUSH2 0xC8A JUMP JUMPDEST DUP3 ADD SWAP2 SWAP1 PUSH1 0x0 MSTORE PUSH1 0x20 PUSH1 0x0 KECCAK256 SWAP1 JUMPDEST DUP2 SLOAD DUP2 MSTORE SWAP1 PUSH1 0x1 ADD SWAP1 PUSH1 0x20 ADD DUP1 DUP4 GT PUSH2 0xC6D JUMPI DUP3 SWAP1 SUB PUSH1 0x1F AND DUP3 ADD SWAP2 JUMPDEST POP POP POP POP POP DUP2 MSTORE PUSH1 0x20 ADD PUSH1 0x4 DUP3 ADD DUP1 SLOAD PUSH2 0xCA3 SWAP1 PUSH2 0x21D6 JUMP JUMPDEST DUP1 PUSH1 0x1F ADD PUSH1 0x20 DUP1 SWAP2 DIV MUL PUSH1 0x20 ADD PUSH1 0x40 MLOAD SWAP1 DUP2 ADD PUSH1 0x40 MSTORE DUP1 SWAP3 SWAP2 SWAP1 DUP2 DUP2 MSTORE PUSH1 0x20 ADD DUP3 DUP1 SLOAD PUSH2 0xCCF SWAP1 PUSH2 0x21D6 JUMP JUMPDEST DUP1 ISZERO PUSH2 0xD1C JUMPI DUP1 PUSH1 0x1F LT PUSH2 0xCF1 JUMPI PUSH2 0x100 DUP1 DUP4 SLOAD DIV MUL DUP4 MSTORE SWAP2 PUSH1 0x20 ADD SWAP2 PUSH2 0xD1C JUMP JUMPDEST DUP3 ADD SWAP2 SWAP1 PUSH1 0x0 MSTORE PUSH1 0x20 PUSH1 0x0 KECCAK256 SWAP1 JUMPDEST DUP2 SLOAD DUP2 MSTORE SWAP1 PUSH1 0x1 ADD SWAP1 PUSH1 0x20 ADD DUP1 DUP4 GT PUSH2 0xCFF JUMPI DUP3 SWAP1 SUB PUSH1 0x1F AND DUP3 ADD SWAP2 JUMPDEST POP POP POP SWAP2 DUP4 MSTORE POP POP PUSH1 0x5 DUP3 ADD SLOAD PUSH1 0x20 DUP3 ADD MSTORE PUSH1 0x6 DUP3 ADD SLOAD PUSH1 0x40 DUP3 ADD MSTORE PUSH1 0x7 DUP3 ADD SLOAD PUSH1 0x60 DUP3 ADD MSTORE PUSH1 0x8 DUP3 ADD SLOAD PUSH1 0x80 DUP3 ADD MSTORE PUSH1 0x9 DUP3 ADD SLOAD PUSH1 0xA0 DUP3 ADD MSTORE PUSH1 0xA DUP3 ADD SLOAD PUSH1 0xC0 DUP3 ADD MSTORE PUSH1 0xB SWAP1 SWAP2 ADD SLOAD PUSH4 0xFFFFFFFF DUP1 DUP3 AND PUSH1 0xE0 DUP5 ADD MSTORE PUSH5 0x100000000 SWAP1 SWAP2 DIV AND PUSH2 0x100 SWAP1 SWAP2 ADD MSTORE SWAP3 SWAP2 POP POP JUMP JUMPDEST PUSH2 0xD92 PUSH2 0x13E5 JUMP JUMPDEST PUSH1 0x1 PUSH1 0x1 PUSH1 0x80 SHL SUB NOT DUP3 AND PUSH1 0x0 SWAP1 DUP2 MSTORE PUSH1 0x6 PUSH1 0x20 MSTORE PUSH1 0x40 SWAP1 KECCAK256 PUSH1 0xB ADD SLOAD PUSH4 0xFFFFFFFF AND PUSH2 0xE01 JUMPI PUSH1 0x40 MLOAD PUSH3 0x461BCD PUSH1 0xE5 SHL DUP2 MSTORE PUSH1 0x20 PUSH1 0x4 DUP3 ADD MSTORE PUSH1 0x1C PUSH1 0x24 DUP3 ADD MSTORE PUSH32 0x4552524F523A41524D2D3031303A434F4E4649475F554E4B4E4F574E00000000 PUSH1 0x44 DUP3 ADD MSTORE PUSH1 0x64 ADD PUSH2 0x6F3 JUMP JUMPDEST PUSH1 0x1 PUSH1 0x1 PUSH1 0x80 SHL SUB NOT DUP3 AND PUSH1 0x0 SWAP1 DUP2 MSTORE PUSH1 0x6 PUSH1 0x20 MSTORE PUSH1 0x40 SWAP1 KECCAK256 DUP1 SLOAD PUSH1 0xFF NOT AND DUP3 ISZERO ISZERO OR SWAP1 SSTORE PUSH2 0xE2D TIMESTAMP SWAP1 JUMP JUMPDEST PUSH1 0x1 PUSH1 0x1 PUSH1 0x80 SHL SUB NOT SWAP1 SWAP3 AND PUSH1 0x0 SWAP1 DUP2 MSTORE PUSH1 0x6 PUSH1 0x20 MSTORE PUSH1 0x40 SWAP1 KECCAK256 PUSH1 0xB ADD DUP1 SLOAD PUSH4 0xFFFFFFFF SWAP4 SWAP1 SWAP4 AND PUSH5 0x100000000 MUL PUSH8 0xFFFFFFFF00000000 NOT SWAP1 SWAP4 AND SWAP3 SWAP1 SWAP3 OR SWAP1 SWAP2 SSTORE POP JUMP JUMPDEST PUSH1 0x0 PUSH2 0xE7D PUSH2 0x13E5 JUMP JUMPDEST PUSH2 0xE91 DUP14 DUP14 DUP14 DUP14 DUP14 DUP14 DUP14 DUP14 DUP14 DUP14 DUP14 DUP14 PUSH2 0x148F JUMP JUMPDEST SWAP14 SWAP13 POP POP POP POP POP POP POP POP POP POP POP POP POP JUMP JUMPDEST PUSH1 0x0 DUP2 PUSH2 0xFFFF AND PUSH2 0x7E7 EQ PUSH2 0xEF9 JUMPI PUSH1 0x40 MLOAD PUSH3 0x461BCD PUSH1 0xE5 SHL DUP2 MSTORE PUSH1 0x20 PUSH1 0x4 DUP3 ADD MSTORE PUSH1 0x1A PUSH1 0x24 DUP3 ADD MSTORE PUSH32 0x4552524F523A41524D2D3131303A594541525F494E56414C4944000000000000 PUSH1 0x44 DUP3 ADD MSTORE PUSH1 0x64 ADD PUSH2 0x6F3 JUMP JUMPDEST DUP3 DUP3 PUSH1 0x40 MLOAD PUSH1 0x20 ADD PUSH2 0xF0C SWAP3 SWAP2 SWAP1 PUSH2 0x1FBD JUMP JUMPDEST PUSH1 0x40 MLOAD PUSH1 0x20 DUP2 DUP4 SUB SUB DUP2 MSTORE SWAP1 PUSH1 0x40 MSTORE DUP1 MLOAD SWAP1 PUSH1 0x20 ADD KECCAK256 SWAP1 POP SWAP3 SWAP2 POP POP JUMP JUMPDEST PUSH1 0x1 PUSH1 0x1 PUSH1 0x80 SHL SUB NOT DUP4 AND PUSH1 0x0 SWAP1 DUP2 MSTORE PUSH1 0x6 PUSH1 0x20 MSTORE PUSH1 0x40 DUP2 KECCAK256 SLOAD PUSH1 0xFF AND PUSH2 0xF93 JUMPI PUSH1 0x40 MLOAD PUSH3 0x461BCD PUSH1 0xE5 SHL DUP2 MSTORE PUSH1 0x20 PUSH1 0x4 DUP3 ADD MSTORE PUSH1 0x1C PUSH1 0x24 DUP3 ADD MSTORE PUSH32 0x4552524F523A41524D2D3131303A434F4E4649475F494E56414C494400000000 PUSH1 0x44 DUP3 ADD MSTORE PUSH1 0x64 ADD PUSH2 0x6F3 JUMP JUMPDEST PUSH1 0x1 PUSH1 0x1 PUSH1 0x80 SHL SUB NOT DUP4 AND PUSH1 0x0 SWAP1 DUP2 MSTORE PUSH1 0x7 PUSH1 0x20 MSTORE PUSH1 0x40 SWAP1 KECCAK256 SLOAD PUSH1 0xFF AND PUSH2 0xFFC JUMPI PUSH1 0x40 MLOAD PUSH3 0x461BCD PUSH1 0xE5 SHL DUP2 MSTORE PUSH1 0x20 PUSH1 0x4 DUP3 ADD MSTORE PUSH1 0x1E PUSH1 0x24 DUP3 ADD MSTORE PUSH32 0x4552524F523A41524D2D3131313A4C4F434154494F4E5F494E56414C49440000 PUSH1 0x44 DUP3 ADD MSTORE PUSH1 0x64 ADD PUSH2 0x6F3 JUMP JUMPDEST PUSH2 0x1005 DUP3 PUSH2 0x1340 JUMP JUMPDEST PUSH2 0x1051 JUMPI PUSH1 0x40 MLOAD PUSH3 0x461BCD PUSH1 0xE5 SHL DUP2 MSTORE PUSH1 0x20 PUSH1 0x4 DUP3 ADD MSTORE PUSH1 0x1A PUSH1 0x24 DUP3 ADD MSTORE PUSH32 0x4552524F523A41524D2D3131323A43524F505F494E56414C4944000000000000 PUSH1 0x44 DUP3 ADD MSTORE PUSH1 0x64 ADD PUSH2 0x6F3 JUMP JUMPDEST DUP4 DUP4 DUP4 PUSH1 0x40 MLOAD PUSH1 0x20 ADD PUSH2 0x62B SWAP4 SWAP3 SWAP2 SWAP1 PUSH2 0x1EE3 JUMP JUMPDEST PUSH1 0x40 DUP1 MLOAD PUSH2 0x120 DUP1 DUP3 ADD DUP4 MSTORE PUSH1 0x0 DUP1 DUP4 MSTORE PUSH1 0x20 DUP1 DUP5 ADD DUP3 SWAP1 MSTORE DUP4 DUP6 ADD DUP3 SWAP1 MSTORE PUSH1 0x60 DUP1 DUP6 ADD DUP2 SWAP1 MSTORE PUSH1 0x80 DUP1 DUP7 ADD DUP5 SWAP1 MSTORE PUSH1 0xA0 DUP7 ADD DUP5 SWAP1 MSTORE PUSH1 0xC0 DUP7 ADD DUP5 SWAP1 MSTORE PUSH1 0xE0 DUP7 ADD DUP5 SWAP1 MSTORE PUSH2 0x100 DUP1 DUP8 ADD DUP6 SWAP1 MSTORE PUSH1 0x1 PUSH1 0x1 PUSH1 0x80 SHL SUB NOT DUP10 DUP2 AND DUP7 MSTORE PUSH1 0x4 DUP6 MSTORE SWAP5 DUP9 SWAP1 KECCAK256 DUP9 MLOAD SWAP7 DUP8 ADD DUP10 MSTORE DUP1 SLOAD PUSH1 0xFF DUP2 AND ISZERO ISZERO DUP9 MSTORE SWAP2 SWAP1 SWAP2 DIV DUP3 SHL DUP6 AND SWAP4 DUP7 ADD SWAP4 SWAP1 SWAP4 MSTORE PUSH1 0x1 DUP4 ADD SLOAD SWAP1 SHL SWAP1 SWAP3 AND SWAP5 DUP4 ADD SWAP5 SWAP1 SWAP5 MSTORE PUSH1 0x2 DUP5 ADD DUP1 SLOAD SWAP4 SWAP5 SWAP3 SWAP4 SWAP2 DUP5 ADD SWAP2 PUSH2 0x1111 SWAP1 PUSH2 0x21D6 JUMP JUMPDEST DUP1 PUSH1 0x1F ADD PUSH1 0x20 DUP1 SWAP2 DIV MUL PUSH1 0x20 ADD PUSH1 0x40 MLOAD SWAP1 DUP2 ADD PUSH1 0x40 MSTORE DUP1 SWAP3 SWAP2 SWAP1 DUP2 DUP2 MSTORE PUSH1 0x20 ADD DUP3 DUP1 SLOAD PUSH2 0x113D SWAP1 PUSH2 0x21D6 JUMP JUMPDEST DUP1 ISZERO PUSH2 0x118A JUMPI DUP1 PUSH1 0x1F LT PUSH2 0x115F JUMPI PUSH2 0x100 DUP1 DUP4 SLOAD DIV MUL DUP4 MSTORE SWAP2 PUSH1 0x20 ADD SWAP2 PUSH2 0x118A JUMP JUMPDEST DUP3 ADD SWAP2 SWAP1 PUSH1 0x0 MSTORE PUSH1 0x20 PUSH1 0x0 KECCAK256 SWAP1 JUMPDEST DUP2 SLOAD DUP2 MSTORE SWAP1 PUSH1 0x1 ADD SWAP1 PUSH1 0x20 ADD DUP1 DUP4 GT PUSH2 0x116D JUMPI DUP3 SWAP1 SUB PUSH1 0x1F AND DUP3 ADD SWAP2 JUMPDEST POP POP POP SWAP2 DUP4 MSTORE POP POP PUSH1 0x3 DUP3 ADD SLOAD PUSH1 0x20 DUP3 ADD MSTORE PUSH1 0x4 DUP3 ADD SLOAD PUSH1 0x40 DUP3 ADD MSTORE PUSH1 0x5 SWAP1 SWAP2 ADD SLOAD PUSH1 0xFF DUP2 AND ISZERO ISZERO PUSH1 0x60 DUP4 ADD MSTORE PUSH4 0xFFFFFFFF PUSH2 0x100 DUP3 DIV DUP2 AND PUSH1 0x80 DUP5 ADD MSTORE PUSH6 0x10000000000 SWAP1 SWAP2 DIV AND PUSH1 0xA0 SWAP1 SWAP2 ADD MSTORE SWAP1 POP SWAP2 SWAP1 POP JUMP JUMPDEST PUSH2 0x11E8 PUSH2 0x13E5 JUMP JUMPDEST PUSH1 0x1 PUSH1 0x1 PUSH1 0x80 SHL SUB NOT DUP4 AND PUSH1 0x0 SWAP1 DUP2 MSTORE PUSH1 0x4 PUSH1 0x20 MSTORE PUSH1 0x40 SWAP1 KECCAK256 PUSH1 0x5 ADD SLOAD PUSH2 0x100 SWAP1 DIV PUSH4 0xFFFFFFFF AND PUSH2 0x125C JUMPI PUSH1 0x40 MLOAD PUSH3 0x461BCD PUSH1 0xE5 SHL DUP2 MSTORE PUSH1 0x20 PUSH1 0x4 DUP3 ADD MSTORE PUSH1 0x1A PUSH1 0x24 DUP3 ADD MSTORE PUSH32 0x4552524F523A41524D2D3031353A5249534B5F554E4B4E4F574E000000000000 PUSH1 0x44 DUP3 ADD MSTORE PUSH1 0x64 ADD PUSH2 0x6F3 JUMP JUMPDEST PUSH1 0x1 PUSH1 0x1 PUSH1 0x80 SHL SUB NOT DUP4 AND PUSH1 0x0 SWAP1 DUP2 MSTORE PUSH1 0x4 PUSH1 0x20 MSTORE PUSH1 0x40 SWAP1 KECCAK256 PUSH1 0x5 DUP2 ADD DUP1 SLOAD PUSH1 0xFF NOT SWAP1 DUP2 AND DUP6 ISZERO ISZERO OR SWAP1 SWAP2 SSTORE DUP2 SLOAD AND DUP3 ISZERO ISZERO OR SWAP1 SSTORE PUSH2 0x1298 TIMESTAMP SWAP1 JUMP JUMPDEST PUSH1 0x1 PUSH1 0x1 PUSH1 0x80 SHL SUB NOT SWAP1 SWAP4 AND PUSH1 0x0 SWAP1 DUP2 MSTORE PUSH1 0x4 PUSH1 0x20 MSTORE PUSH1 0x40 SWAP1 KECCAK256 PUSH1 0x5 ADD DUP1 SLOAD PUSH4 0xFFFFFFFF SWAP5 SWAP1 SWAP5 AND PUSH6 0x10000000000 MUL PUSH9 0xFFFFFFFF0000000000 NOT SWAP1 SWAP5 AND SWAP4 SWAP1 SWAP4 OR SWAP1 SWAP3 SSTORE POP POP JUMP JUMPDEST PUSH1 0x0 DUP6 DUP6 DUP6 DUP6 DUP6 PUSH1 0x40 MLOAD PUSH1 0x20 ADD PUSH2 0x12FC SWAP6 SWAP5 SWAP4 SWAP3 SWAP2 SWAP1 PUSH2 0x1F50 JUMP JUMPDEST PUSH1 0x40 MLOAD PUSH1 0x20 DUP2 DUP4 SUB SUB DUP2 MSTORE SWAP1 PUSH1 0x40 MSTORE DUP1 MLOAD SWAP1 PUSH1 0x20 ADD KECCAK256 SWAP1 POP SWAP6 SWAP5 POP POP POP POP POP JUMP JUMPDEST PUSH1 0x0 PUSH1 0x3 DUP3 DUP2 SLOAD DUP2 LT PUSH2 0x589 JUMPI PUSH4 0x4E487B71 PUSH1 0xE0 SHL PUSH1 0x0 MSTORE PUSH1 0x32 PUSH1 0x4 MSTORE PUSH1 0x24 PUSH1 0x0 REVERT JUMPDEST PUSH1 0x0 PUSH1 0x8 DUP3 PUSH1 0x40 MLOAD PUSH2 0x1352 SWAP2 SWAP1 PUSH2 0x1E45 JUMP JUMPDEST SWAP1 DUP2 MSTORE PUSH1 0x40 MLOAD SWAP1 DUP2 SWAP1 SUB PUSH1 0x20 ADD SWAP1 KECCAK256 SLOAD PUSH1 0xFF AND SWAP1 POP SWAP2 SWAP1 POP JUMP JUMPDEST PUSH2 0x1374 PUSH2 0x13E5 JUMP JUMPDEST PUSH1 0x1 PUSH1 0x1 PUSH1 0xA0 SHL SUB DUP2 AND PUSH2 0x13D9 JUMPI PUSH1 0x40 MLOAD PUSH3 0x461BCD PUSH1 0xE5 SHL DUP2 MSTORE PUSH1 0x20 PUSH1 0x4 DUP3 ADD MSTORE PUSH1 0x26 PUSH1 0x24 DUP3 ADD MSTORE PUSH32 0x4F776E61626C653A206E6577206F776E657220697320746865207A65726F2061 PUSH1 0x44 DUP3 ADD MSTORE PUSH6 0x646472657373 PUSH1 0xD0 SHL PUSH1 0x64 DUP3 ADD MSTORE PUSH1 0x84 ADD PUSH2 0x6F3 JUMP JUMPDEST PUSH2 0x13E2 DUP2 PUSH2 0x143F JUMP JUMPDEST POP JUMP JUMPDEST PUSH1 0x0 SLOAD PUSH1 0x1 PUSH1 0x1 PUSH1 0xA0 SHL SUB AND CALLER EQ PUSH2 0x65C JUMPI PUSH1 0x40 MLOAD PUSH3 0x461BCD PUSH1 0xE5 SHL DUP2 MSTORE PUSH1 0x20 PUSH1 0x4 DUP3 ADD DUP2 SWAP1 MSTORE PUSH1 0x24 DUP3 ADD MSTORE PUSH32 0x4F776E61626C653A2063616C6C6572206973206E6F7420746865206F776E6572 PUSH1 0x44 DUP3 ADD MSTORE PUSH1 0x64 ADD PUSH2 0x6F3 JUMP JUMPDEST PUSH1 0x0 DUP1 SLOAD PUSH1 0x1 PUSH1 0x1 PUSH1 0xA0 SHL SUB DUP4 DUP2 AND PUSH1 0x1 PUSH1 0x1 PUSH1 0xA0 SHL SUB NOT DUP4 AND DUP2 OR DUP5 SSTORE PUSH1 0x40 MLOAD SWAP2 SWAP1 SWAP3 AND SWAP3 DUP4 SWAP2 PUSH32 0x8BE0079C531659141344CD1FD0A4F28419497F9722A3DAAFE3B4186F6B6457E0 SWAP2 SWAP1 LOG3 POP POP JUMP JUMPDEST PUSH1 0x0 PUSH2 0x149B DUP14 DUP14 PUSH2 0xEA2 JUMP JUMPDEST PUSH1 0x1 PUSH1 0x1 PUSH1 0x80 SHL SUB NOT DUP2 AND PUSH1 0x0 SWAP1 DUP2 MSTORE PUSH1 0x6 PUSH1 0x20 MSTORE PUSH1 0x40 SWAP1 KECCAK256 PUSH1 0xB ADD SLOAD SWAP1 SWAP2 POP TIMESTAMP SWAP1 PUSH4 0xFFFFFFFF AND ISZERO PUSH2 0x151C JUMPI PUSH1 0x40 MLOAD PUSH3 0x461BCD PUSH1 0xE5 SHL DUP2 MSTORE PUSH1 0x20 PUSH1 0x4 DUP3 ADD MSTORE PUSH1 0x23 PUSH1 0x24 DUP3 ADD MSTORE PUSH32 0x4552524F523A41524D2D3032303A434F4E4649475F414C52454144595F455849 PUSH1 0x44 DUP3 ADD MSTORE PUSH3 0x535453 PUSH1 0xE8 SHL PUSH1 0x64 DUP3 ADD MSTORE PUSH1 0x84 ADD PUSH2 0x6F3 JUMP JUMPDEST PUSH1 0x40 MLOAD DUP1 PUSH2 0x1E0 ADD PUSH1 0x40 MSTORE DUP1 PUSH1 0x1 ISZERO ISZERO DUP2 MSTORE PUSH1 0x20 ADD DUP16 DUP2 MSTORE PUSH1 0x20 ADD DUP15 PUSH2 0xFFFF AND DUP2 MSTORE PUSH1 0x20 ADD DUP14 PUSH1 0xFF AND DUP2 MSTORE PUSH1 0x20 ADD DUP13 PUSH1 0xFF AND DUP2 MSTORE PUSH1 0x20 ADD DUP12 DUP2 MSTORE PUSH1 0x20 ADD DUP11 DUP2 MSTORE PUSH1 0x20 ADD DUP10 DUP2 MSTORE PUSH1 0x20 ADD DUP9 DUP2 MSTORE PUSH1 0x20 ADD DUP8 DUP2 MSTORE PUSH1 0x20 ADD DUP7 DUP2 MSTORE PUSH1 0x20 ADD DUP6 DUP2 MSTORE PUSH1 0x20 ADD DUP5 DUP2 MSTORE PUSH1 0x20 ADD DUP3 PUSH4 0xFFFFFFFF AND DUP2 MSTORE PUSH1 0x20 ADD DUP3 PUSH4 0xFFFFFFFF AND DUP2 MSTORE POP PUSH1 0x6 PUSH1 0x0 DUP5 PUSH1 0x1 PUSH1 0x1 PUSH1 0x80 SHL SUB NOT AND PUSH1 0x1 PUSH1 0x1 PUSH1 0x80 SHL SUB NOT AND DUP2 MSTORE PUSH1 0x20 ADD SWAP1 DUP2 MSTORE PUSH1 0x20 ADD PUSH1 0x0 KECCAK256 PUSH1 0x0 DUP3 ADD MLOAD DUP2 PUSH1 0x0 ADD PUSH1 0x0 PUSH2 0x100 EXP DUP2 SLOAD DUP2 PUSH1 0xFF MUL NOT AND SWAP1 DUP4 ISZERO ISZERO MUL OR SWAP1 SSTORE POP PUSH1 0x20 DUP3 ADD MLOAD DUP2 PUSH1 0x1 ADD SWAP1 DUP1 MLOAD SWAP1 PUSH1 0x20 ADD SWAP1 PUSH2 0x15FC SWAP3 SWAP2 SWAP1 PUSH2 0x17B4 JUMP JUMPDEST POP PUSH1 0x40 DUP3 ADD MLOAD PUSH1 0x2 DUP3 ADD DUP1 SLOAD PUSH1 0x60 DUP6 ADD MLOAD PUSH1 0x80 DUP7 ADD MLOAD PUSH2 0xFFFF NOT SWAP1 SWAP3 AND PUSH2 0xFFFF SWAP1 SWAP5 AND SWAP4 SWAP1 SWAP4 OR PUSH3 0xFF0000 NOT AND PUSH3 0x10000 PUSH1 0xFF SWAP5 DUP6 AND MUL OR PUSH4 0xFF000000 NOT AND PUSH4 0x1000000 SWAP4 SWAP1 SWAP2 AND SWAP3 SWAP1 SWAP3 MUL SWAP2 SWAP1 SWAP2 OR SWAP1 SSTORE PUSH1 0xA0 DUP3 ADD MLOAD DUP1 MLOAD PUSH2 0x1669 SWAP2 PUSH1 0x3 DUP5 ADD SWAP2 PUSH1 0x20 SWAP1 SWAP2 ADD SWAP1 PUSH2 0x17B4 JUMP JUMPDEST POP PUSH1 0xC0 DUP3 ADD MLOAD DUP1 MLOAD PUSH2 0x1685 SWAP2 PUSH1 0x4 DUP5 ADD SWAP2 PUSH1 0x20 SWAP1 SWAP2 ADD SWAP1 PUSH2 0x17B4 JUMP JUMPDEST POP PUSH1 0xE0 DUP3 ADD MLOAD DUP2 PUSH1 0x5 ADD SSTORE PUSH2 0x100 DUP3 ADD MLOAD DUP2 PUSH1 0x6 ADD SSTORE PUSH2 0x120 DUP3 ADD MLOAD DUP2 PUSH1 0x7 ADD SSTORE PUSH2 0x140 DUP3 ADD MLOAD DUP2 PUSH1 0x8 ADD SSTORE PUSH2 0x160 DUP3 ADD MLOAD DUP2 PUSH1 0x9 ADD SSTORE PUSH2 0x180 DUP3 ADD MLOAD DUP2 PUSH1 0xA ADD SSTORE PUSH2 0x1A0 DUP3 ADD MLOAD DUP2 PUSH1 0xB ADD PUSH1 0x0 PUSH2 0x100 EXP DUP2 SLOAD DUP2 PUSH4 0xFFFFFFFF MUL NOT AND SWAP1 DUP4 PUSH4 0xFFFFFFFF AND MUL OR SWAP1 SSTORE POP PUSH2 0x1C0 DUP3 ADD MLOAD DUP2 PUSH1 0xB ADD PUSH1 0x4 PUSH2 0x100 EXP DUP2 SLOAD DUP2 PUSH4 0xFFFFFFFF MUL NOT AND SWAP1 DUP4 PUSH4 0xFFFFFFFF AND MUL OR SWAP1 SSTORE POP SWAP1 POP POP PUSH1 0x5 DUP3 SWAP1 DUP1 PUSH1 0x1 DUP2 SLOAD ADD DUP1 DUP3 SSTORE DUP1 SWAP2 POP POP PUSH1 0x1 SWAP1 SUB SWAP1 PUSH1 0x0 MSTORE PUSH1 0x20 PUSH1 0x0 KECCAK256 SWAP1 PUSH1 0x2 SWAP2 DUP3 DUP3 DIV ADD SWAP2 SWAP1 MOD PUSH1 0x10 MUL SWAP1 SWAP2 SWAP1 SWAP2 SWAP1 SWAP2 PUSH2 0x100 EXP DUP2 SLOAD DUP2 PUSH1 0x1 PUSH1 0x1 PUSH1 0x80 SHL SUB MUL NOT AND SWAP1 DUP4 PUSH1 0x80 SHR MUL OR SWAP1 SSTORE POP PUSH32 0xA3A5A22F1EF05D9ADFD1637098712EA11223CFCA2ECEAE211A35649BBFCDEE30 DUP3 DUP16 DUP16 PUSH1 0x40 MLOAD PUSH2 0x179B SWAP4 SWAP3 SWAP2 SWAP1 PUSH2 0x1F19 JUMP JUMPDEST PUSH1 0x40 MLOAD DUP1 SWAP2 SUB SWAP1 LOG1 POP SWAP13 SWAP12 POP POP POP POP POP POP POP POP POP POP POP POP JUMP JUMPDEST DUP3 DUP1 SLOAD PUSH2 0x17C0 SWAP1 PUSH2 0x21D6 JUMP JUMPDEST SWAP1 PUSH1 0x0 MSTORE PUSH1 0x20 PUSH1 0x0 KECCAK256 SWAP1 PUSH1 0x1F ADD PUSH1 0x20 SWAP1 DIV DUP2 ADD SWAP3 DUP3 PUSH2 0x17E2 JUMPI PUSH1 0x0 DUP6 SSTORE PUSH2 0x1828 JUMP JUMPDEST DUP3 PUSH1 0x1F LT PUSH2 0x17FB JUMPI DUP1 MLOAD PUSH1 0xFF NOT AND DUP4 DUP1 ADD OR DUP6 SSTORE PUSH2 0x1828 JUMP JUMPDEST DUP3 DUP1 ADD PUSH1 0x1 ADD DUP6 SSTORE DUP3 ISZERO PUSH2 0x1828 JUMPI SWAP2 DUP3 ADD JUMPDEST DUP3 DUP2 GT ISZERO PUSH2 0x1828 JUMPI DUP3 MLOAD DUP3 SSTORE SWAP2 PUSH1 0x20 ADD SWAP2 SWAP1 PUSH1 0x1 ADD SWAP1 PUSH2 0x180D JUMP JUMPDEST POP PUSH2 0x1834 SWAP3 SWAP2 POP PUSH2 0x1838 JUMP JUMPDEST POP SWAP1 JUMP JUMPDEST JUMPDEST DUP1 DUP3 GT ISZERO PUSH2 0x1834 JUMPI PUSH1 0x0 DUP2 SSTORE PUSH1 0x1 ADD PUSH2 0x1839 JUMP JUMPDEST DUP1 CALLDATALOAD PUSH1 0x1 PUSH1 0x1 PUSH1 0xA0 SHL SUB DUP2 AND DUP2 EQ PUSH2 0x5AF JUMPI PUSH1 0x0 DUP1 REVERT JUMPDEST DUP1 CALLDATALOAD DUP1 ISZERO ISZERO DUP2 EQ PUSH2 0x5AF JUMPI PUSH1 0x0 DUP1 REVERT JUMPDEST DUP1 CALLDATALOAD PUSH1 0x1 PUSH1 0x1 PUSH1 0x80 SHL SUB NOT DUP2 AND DUP2 EQ PUSH2 0x5AF JUMPI PUSH1 0x0 DUP1 REVERT JUMPDEST PUSH1 0x0 DUP3 PUSH1 0x1F DUP4 ADD SLT PUSH2 0x189C JUMPI DUP1 DUP2 REVERT JUMPDEST DUP2 CALLDATALOAD PUSH8 0xFFFFFFFFFFFFFFFF DUP1 DUP3 GT ISZERO PUSH2 0x18B7 JUMPI PUSH2 0x18B7 PUSH2 0x2211 JUMP JUMPDEST PUSH1 0x40 MLOAD PUSH1 0x1F DUP4 ADD PUSH1 0x1F NOT SWAP1 DUP2 AND PUSH1 0x3F ADD AND DUP2 ADD SWAP1 DUP3 DUP3 GT DUP2 DUP4 LT OR ISZERO PUSH2 0x18DF JUMPI PUSH2 0x18DF PUSH2 0x2211 JUMP JUMPDEST DUP2 PUSH1 0x40 MSTORE DUP4 DUP2 MSTORE DUP7 PUSH1 0x20 DUP6 DUP9 ADD ADD GT ISZERO PUSH2 0x18F7 JUMPI DUP5 DUP6 REVERT JUMPDEST DUP4 PUSH1 0x20 DUP8 ADD PUSH1 0x20 DUP4 ADD CALLDATACOPY SWAP3 DUP4 ADD PUSH1 0x20 ADD SWAP4 SWAP1 SWAP4 MSTORE POP SWAP4 SWAP3 POP POP POP JUMP JUMPDEST DUP1 CALLDATALOAD PUSH2 0xFFFF DUP2 AND DUP2 EQ PUSH2 0x5AF JUMPI PUSH1 0x0 DUP1 REVERT JUMPDEST DUP1 CALLDATALOAD PUSH1 0xFF DUP2 AND DUP2 EQ PUSH2 0x5AF JUMPI PUSH1 0x0 DUP1 REVERT JUMPDEST PUSH1 0x0 PUSH1 0x20 DUP3 DUP5 SUB SLT ISZERO PUSH2 0x1947 JUMPI DUP1 DUP2 REVERT JUMPDEST PUSH2 0x1950 DUP3 PUSH2 0x184D JUMP JUMPDEST SWAP4 SWAP3 POP POP POP JUMP JUMPDEST PUSH1 0x0 PUSH1 0x20 DUP3 DUP5 SUB SLT ISZERO PUSH2 0x1968 JUMPI DUP1 DUP2 REVERT JUMPDEST PUSH2 0x1950 DUP3 PUSH2 0x1874 JUMP JUMPDEST PUSH1 0x0 DUP1 PUSH1 0x0 PUSH1 0x60 DUP5 DUP7 SUB SLT ISZERO PUSH2 0x1985 JUMPI DUP2 DUP3 REVERT JUMPDEST PUSH2 0x198E DUP5 PUSH2 0x1874 JUMP JUMPDEST SWAP3 POP PUSH2 0x199C PUSH1 0x20 DUP6 ADD PUSH2 0x184D JUMP JUMPDEST SWAP2 POP PUSH2 0x19AA PUSH1 0x40 DUP6 ADD PUSH2 0x1925 JUMP JUMPDEST SWAP1 POP SWAP3 POP SWAP3 POP SWAP3 JUMP JUMPDEST PUSH1 0x0 DUP1 PUSH1 0x40 DUP4 DUP6 SUB SLT ISZERO PUSH2 0x19C5 JUMPI DUP2 DUP3 REVERT JUMPDEST PUSH2 0x19CE DUP4 PUSH2 0x1874 JUMP JUMPDEST SWAP2 POP PUSH2 0x19DC PUSH1 0x20 DUP5 ADD PUSH2 0x1864 JUMP JUMPDEST SWAP1 POP SWAP3 POP SWAP3 SWAP1 POP JUMP JUMPDEST PUSH1 0x0 DUP1 PUSH1 0x0 PUSH1 0x60 DUP5 DUP7 SUB SLT ISZERO PUSH2 0x19F9 JUMPI DUP3 DUP4 REVERT JUMPDEST PUSH2 0x1A02 DUP5 PUSH2 0x1874 JUMP JUMPDEST SWAP3 POP PUSH2 0x1A10 PUSH1 0x20 DUP6 ADD PUSH2 0x1864 JUMP JUMPDEST SWAP2 POP PUSH2 0x19AA PUSH1 0x40 DUP6 ADD PUSH2 0x1864 JUMP JUMPDEST PUSH1 0x0 DUP1 PUSH1 0x0 PUSH1 0x60 DUP5 DUP7 SUB SLT ISZERO PUSH2 0x1A32 JUMPI DUP3 DUP4 REVERT JUMPDEST PUSH2 0x1A3B DUP5 PUSH2 0x1874 JUMP JUMPDEST SWAP3 POP PUSH2 0x1A49 PUSH1 0x20 DUP6 ADD PUSH2 0x1874 JUMP JUMPDEST SWAP2 POP PUSH1 0x40 DUP5 ADD CALLDATALOAD PUSH8 0xFFFFFFFFFFFFFFFF DUP2 GT ISZERO PUSH2 0x1A64 JUMPI DUP2 DUP3 REVERT JUMPDEST PUSH2 0x1A70 DUP7 DUP3 DUP8 ADD PUSH2 0x188C JUMP JUMPDEST SWAP2 POP POP SWAP3 POP SWAP3 POP SWAP3 JUMP JUMPDEST PUSH1 0x0 DUP1 PUSH1 0x0 DUP1 PUSH1 0x0 DUP1 PUSH1 0xC0 DUP8 DUP10 SUB SLT ISZERO PUSH2 0x1A92 JUMPI DUP2 DUP3 REVERT JUMPDEST PUSH2 0x1A9B DUP8 PUSH2 0x1874 JUMP JUMPDEST SWAP6 POP PUSH2 0x1AA9 PUSH1 0x20 DUP9 ADD PUSH2 0x1874 JUMP JUMPDEST SWAP5 POP PUSH1 0x40 DUP8 ADD CALLDATALOAD PUSH8 0xFFFFFFFFFFFFFFFF DUP2 GT ISZERO PUSH2 0x1AC4 JUMPI DUP3 DUP4 REVERT JUMPDEST PUSH2 0x1AD0 DUP10 DUP3 DUP11 ADD PUSH2 0x188C JUMP JUMPDEST SWAP5 POP POP PUSH1 0x60 DUP8 ADD CALLDATALOAD SWAP3 POP PUSH1 0x80 DUP8 ADD CALLDATALOAD SWAP2 POP PUSH2 0x1AED PUSH1 0xA0 DUP9 ADD PUSH2 0x1864 JUMP JUMPDEST SWAP1 POP SWAP3 SWAP6 POP SWAP3 SWAP6 POP SWAP3 SWAP6 JUMP JUMPDEST PUSH1 0x0 PUSH1 0x20 DUP3 DUP5 SUB SLT ISZERO PUSH2 0x1B0A JUMPI DUP1 DUP2 REVERT JUMPDEST DUP2 CALLDATALOAD PUSH8 0xFFFFFFFFFFFFFFFF DUP2 GT ISZERO PUSH2 0x1B20 JUMPI DUP2 DUP3 REVERT JUMPDEST PUSH2 0x1B2C DUP5 DUP3 DUP6 ADD PUSH2 0x188C JUMP JUMPDEST SWAP5 SWAP4 POP POP POP POP JUMP JUMPDEST PUSH1 0x0 DUP1 PUSH1 0x40 DUP4 DUP6 SUB SLT ISZERO PUSH2 0x1B46 JUMPI DUP2 DUP3 REVERT JUMPDEST DUP3 CALLDATALOAD PUSH8 0xFFFFFFFFFFFFFFFF DUP2 GT ISZERO PUSH2 0x1B5C JUMPI DUP3 DUP4 REVERT JUMPDEST PUSH2 0x1B68 DUP6 DUP3 DUP7 ADD PUSH2 0x188C JUMP JUMPDEST SWAP3 POP POP PUSH2 0x19DC PUSH1 0x20 DUP5 ADD PUSH2 0x1864 JUMP JUMPDEST PUSH1 0x0 DUP1 PUSH1 0x0 PUSH1 0x60 DUP5 DUP7 SUB SLT ISZERO PUSH2 0x1B8B JUMPI DUP3 DUP4 REVERT JUMPDEST DUP4 CALLDATALOAD PUSH8 0xFFFFFFFFFFFFFFFF DUP1 DUP3 GT ISZERO PUSH2 0x1BA2 JUMPI DUP5 DUP6 REVERT JUMPDEST PUSH2 0x1BAE DUP8 DUP4 DUP9 ADD PUSH2 0x188C JUMP JUMPDEST SWAP5 POP PUSH1 0x20 DUP7 ADD CALLDATALOAD SWAP2 POP DUP1 DUP3 GT ISZERO PUSH2 0x1BC3 JUMPI DUP4 DUP5 REVERT JUMPDEST PUSH2 0x1BCF DUP8 DUP4 DUP9 ADD PUSH2 0x188C JUMP JUMPDEST SWAP4 POP PUSH1 0x40 DUP7 ADD CALLDATALOAD SWAP2 POP DUP1 DUP3 GT ISZERO PUSH2 0x1BE4 JUMPI DUP3 DUP4 REVERT JUMPDEST POP PUSH2 0x1A70 DUP7 DUP3 DUP8 ADD PUSH2 0x188C JUMP JUMPDEST PUSH1 0x0 DUP1 PUSH1 0x0 DUP1 PUSH1 0x0 PUSH1 0xA0 DUP7 DUP9 SUB SLT ISZERO PUSH2 0x1C08 JUMPI DUP1 DUP2 REVERT JUMPDEST DUP6 CALLDATALOAD PUSH8 0xFFFFFFFFFFFFFFFF DUP1 DUP3 GT ISZERO PUSH2 0x1C1F JUMPI DUP3 DUP4 REVERT JUMPDEST PUSH2 0x1C2B DUP10 DUP4 DUP11 ADD PUSH2 0x188C JUMP JUMPDEST SWAP7 POP PUSH1 0x20 DUP9 ADD CALLDATALOAD SWAP2 POP DUP1 DUP3 GT ISZERO PUSH2 0x1C40 JUMPI DUP3 DUP4 REVERT JUMPDEST PUSH2 0x1C4C DUP10 DUP4 DUP11 ADD PUSH2 0x188C JUMP JUMPDEST SWAP6 POP PUSH1 0x40 DUP9 ADD CALLDATALOAD SWAP2 POP DUP1 DUP3 GT ISZERO PUSH2 0x1C61 JUMPI DUP3 DUP4 REVERT JUMPDEST PUSH2 0x1C6D DUP10 DUP4 DUP11 ADD PUSH2 0x188C JUMP JUMPDEST SWAP5 POP PUSH1 0x60 DUP9 ADD CALLDATALOAD SWAP2 POP DUP1 DUP3 GT ISZERO PUSH2 0x1C82 JUMPI DUP3 DUP4 REVERT JUMPDEST PUSH2 0x1C8E DUP10 DUP4 DUP11 ADD PUSH2 0x188C JUMP JUMPDEST SWAP4 POP PUSH1 0x80 DUP9 ADD CALLDATALOAD SWAP2 POP DUP1 DUP3 GT ISZERO PUSH2 0x1CA3 JUMPI DUP3 DUP4 REVERT JUMPDEST POP PUSH2 0x1CB0 DUP9 DUP3 DUP10 ADD PUSH2 0x188C JUMP JUMPDEST SWAP2 POP POP SWAP3 SWAP6 POP SWAP3 SWAP6 SWAP1 SWAP4 POP JUMP JUMPDEST PUSH1 0x0 DUP1 PUSH1 0x40 DUP4 DUP6 SUB SLT ISZERO PUSH2 0x1CCF JUMPI DUP2 DUP3 REVERT JUMPDEST DUP3 CALLDATALOAD PUSH8 0xFFFFFFFFFFFFFFFF DUP2 GT ISZERO PUSH2 0x1CE5 JUMPI DUP3 DUP4 REVERT JUMPDEST PUSH2 0x1CF1 DUP6 DUP3 DUP7 ADD PUSH2 0x188C JUMP JUMPDEST SWAP3 POP POP PUSH2 0x19DC PUSH1 0x20 DUP5 ADD PUSH2 0x1913 JUMP JUMPDEST PUSH1 0x0 DUP1 PUSH1 0x0 DUP1 PUSH1 0x0 DUP1 PUSH1 0x0 DUP1 PUSH1 0x0 DUP1 PUSH1 0x0 DUP1 PUSH2 0x180 DUP14 DUP16 SUB SLT ISZERO PUSH2 0x1D22 JUMPI DUP10 DUP11 REVERT JUMPDEST PUSH8 0xFFFFFFFFFFFFFFFF DUP14 CALLDATALOAD GT ISZERO PUSH2 0x1D37 JUMPI DUP10 DUP11 REVERT JUMPDEST PUSH2 0x1D44 DUP15 DUP15 CALLDATALOAD DUP16 ADD PUSH2 0x188C JUMP JUMPDEST SWAP12 POP PUSH2 0x1D52 PUSH1 0x20 DUP15 ADD PUSH2 0x1913 JUMP JUMPDEST SWAP11 POP PUSH2 0x1D60 PUSH1 0x40 DUP15 ADD PUSH2 0x1925 JUMP JUMPDEST SWAP10 POP PUSH2 0x1D6E PUSH1 0x60 DUP15 ADD PUSH2 0x1925 JUMP JUMPDEST SWAP9 POP PUSH8 0xFFFFFFFFFFFFFFFF PUSH1 0x80 DUP15 ADD CALLDATALOAD GT ISZERO PUSH2 0x1D88 JUMPI DUP6 DUP7 REVERT JUMPDEST PUSH2 0x1D98 DUP15 PUSH1 0x80 DUP16 ADD CALLDATALOAD DUP16 ADD PUSH2 0x188C JUMP JUMPDEST SWAP8 POP PUSH8 0xFFFFFFFFFFFFFFFF PUSH1 0xA0 DUP15 ADD CALLDATALOAD GT ISZERO PUSH2 0x1DB2 JUMPI DUP6 DUP7 REVERT JUMPDEST PUSH2 0x1DC2 DUP15 PUSH1 0xA0 DUP16 ADD CALLDATALOAD DUP16 ADD PUSH2 0x188C JUMP JUMPDEST SWAP12 SWAP15 SWAP11 SWAP14 POP SWAP9 SWAP12 SWAP8 SWAP11 SWAP7 SWAP10 SWAP7 SWAP9 POP POP POP POP PUSH1 0xC0 DUP6 ADD CALLDATALOAD SWAP5 PUSH1 0xE0 DUP2 ADD CALLDATALOAD SWAP5 PUSH2 0x100 DUP3 ADD CALLDATALOAD SWAP5 POP PUSH2 0x120 DUP3 ADD CALLDATALOAD SWAP4 POP PUSH2 0x140 DUP3 ADD CALLDATALOAD SWAP3 POP PUSH2 0x160 SWAP1 SWAP2 ADD CALLDATALOAD SWAP1 JUMP JUMPDEST PUSH1 0x0 PUSH1 0x20 DUP3 DUP5 SUB SLT ISZERO PUSH2 0x1E12 JUMPI DUP1 DUP2 REVERT JUMPDEST POP CALLDATALOAD SWAP2 SWAP1 POP JUMP JUMPDEST PUSH1 0x0 DUP2 MLOAD DUP1 DUP5 MSTORE PUSH2 0x1E31 DUP2 PUSH1 0x20 DUP7 ADD PUSH1 0x20 DUP7 ADD PUSH2 0x21A6 JUMP JUMPDEST PUSH1 0x1F ADD PUSH1 0x1F NOT AND SWAP3 SWAP1 SWAP3 ADD PUSH1 0x20 ADD SWAP3 SWAP2 POP POP JUMP JUMPDEST PUSH1 0x0 DUP3 MLOAD PUSH2 0x1E57 DUP2 DUP5 PUSH1 0x20 DUP8 ADD PUSH2 0x21A6 JUMP JUMPDEST SWAP2 SWAP1 SWAP2 ADD SWAP3 SWAP2 POP POP JUMP JUMPDEST PUSH1 0x0 DUP5 MLOAD PUSH2 0x1E73 DUP2 DUP5 PUSH1 0x20 DUP10 ADD PUSH2 0x21A6 JUMP JUMPDEST DUP5 MLOAD SWAP1 DUP4 ADD SWAP1 PUSH2 0x1E87 DUP2 DUP4 PUSH1 0x20 DUP10 ADD PUSH2 0x21A6 JUMP JUMPDEST DUP5 MLOAD SWAP2 ADD SWAP1 PUSH2 0x1E9A DUP2 DUP4 PUSH1 0x20 DUP9 ADD PUSH2 0x21A6 JUMP JUMPDEST ADD SWAP6 SWAP5 POP POP POP POP POP JUMP JUMPDEST PUSH1 0x0 PUSH1 0x1 PUSH1 0x1 PUSH1 0x80 SHL SUB NOT DUP1 DUP8 AND DUP4 MSTORE DUP1 DUP7 AND PUSH1 0x20 DUP5 ADD MSTORE DUP1 DUP6 AND PUSH1 0x40 DUP5 ADD MSTORE POP PUSH1 0x80 PUSH1 0x60 DUP4 ADD MSTORE PUSH2 0x1ED9 PUSH1 0x80 DUP4 ADD DUP5 PUSH2 0x1E19 JUMP JUMPDEST SWAP7 SWAP6 POP POP POP POP POP POP JUMP JUMPDEST PUSH1 0x0 PUSH1 0x1 PUSH1 0x1 PUSH1 0x80 SHL SUB NOT DUP1 DUP7 AND DUP4 MSTORE DUP1 DUP6 AND PUSH1 0x20 DUP5 ADD MSTORE POP PUSH1 0x60 PUSH1 0x40 DUP4 ADD MSTORE PUSH2 0x1F10 PUSH1 0x60 DUP4 ADD DUP5 PUSH2 0x1E19 JUMP JUMPDEST SWAP6 SWAP5 POP POP POP POP POP JUMP JUMPDEST PUSH1 0x0 PUSH1 0x1 PUSH1 0x1 PUSH1 0x80 SHL SUB NOT DUP6 AND DUP3 MSTORE PUSH1 0x60 PUSH1 0x20 DUP4 ADD MSTORE PUSH2 0x1F3C PUSH1 0x60 DUP4 ADD DUP6 PUSH2 0x1E19 JUMP JUMPDEST SWAP1 POP PUSH2 0xFFFF DUP4 AND PUSH1 0x40 DUP4 ADD MSTORE SWAP5 SWAP4 POP POP POP POP JUMP JUMPDEST PUSH1 0x0 PUSH1 0xA0 DUP3 MSTORE PUSH2 0x1F63 PUSH1 0xA0 DUP4 ADD DUP9 PUSH2 0x1E19 JUMP JUMPDEST DUP3 DUP2 SUB PUSH1 0x20 DUP5 ADD MSTORE PUSH2 0x1F75 DUP2 DUP9 PUSH2 0x1E19 JUMP JUMPDEST SWAP1 POP DUP3 DUP2 SUB PUSH1 0x40 DUP5 ADD MSTORE PUSH2 0x1F89 DUP2 DUP8 PUSH2 0x1E19 JUMP JUMPDEST SWAP1 POP DUP3 DUP2 SUB PUSH1 0x60 DUP5 ADD MSTORE PUSH2 0x1F9D DUP2 DUP7 PUSH2 0x1E19 JUMP JUMPDEST SWAP1 POP DUP3 DUP2 SUB PUSH1 0x80 DUP5 ADD MSTORE PUSH2 0x1FB1 DUP2 DUP6 PUSH2 0x1E19 JUMP JUMPDEST SWAP9 SWAP8 POP POP POP POP POP POP POP POP JUMP JUMPDEST PUSH1 0x0 PUSH1 0x40 DUP3 MSTORE PUSH2 0x1FD0 PUSH1 0x40 DUP4 ADD DUP6 PUSH2 0x1E19 JUMP JUMPDEST SWAP1 POP PUSH2 0xFFFF DUP4 AND PUSH1 0x20 DUP4 ADD MSTORE SWAP4 SWAP3 POP POP POP JUMP JUMPDEST PUSH1 0x0 PUSH1 0x20 DUP3 MSTORE PUSH2 0x1FF8 PUSH1 0x20 DUP4 ADD DUP5 MLOAD ISZERO ISZERO SWAP1 MSTORE JUMP JUMPDEST PUSH1 0x20 DUP4 ADD MLOAD PUSH2 0x1E0 DUP1 PUSH1 0x40 DUP6 ADD MSTORE PUSH2 0x2014 PUSH2 0x200 DUP6 ADD DUP4 PUSH2 0x1E19 JUMP JUMPDEST SWAP2 POP PUSH1 0x40 DUP6 ADD MLOAD PUSH2 0x202B PUSH1 0x60 DUP7 ADD DUP3 PUSH2 0xFFFF AND SWAP1 MSTORE JUMP JUMPDEST POP PUSH1 0x60 DUP6 ADD MLOAD PUSH1 0xFF DUP2 AND PUSH1 0x80 DUP7 ADD MSTORE POP PUSH1 0x80 DUP6 ADD MLOAD PUSH1 0xFF DUP2 AND PUSH1 0xA0 DUP7 ADD MSTORE POP PUSH1 0xA0 DUP6 ADD MLOAD PUSH1 0x1F NOT DUP1 DUP7 DUP6 SUB ADD PUSH1 0xC0 DUP8 ADD MSTORE PUSH2 0x2066 DUP5 DUP4 PUSH2 0x1E19 JUMP JUMPDEST SWAP4 POP PUSH1 0xC0 DUP8 ADD MLOAD SWAP2 POP DUP1 DUP7 DUP6 SUB ADD PUSH1 0xE0 DUP8 ADD MSTORE POP PUSH2 0x2084 DUP4 DUP3 PUSH2 0x1E19 JUMP JUMPDEST PUSH1 0xE0 DUP8 ADD MLOAD PUSH2 0x100 DUP8 DUP2 ADD SWAP2 SWAP1 SWAP2 MSTORE DUP8 ADD MLOAD PUSH2 0x120 DUP1 DUP9 ADD SWAP2 SWAP1 SWAP2 MSTORE DUP8 ADD MLOAD PUSH2 0x140 DUP1 DUP9 ADD SWAP2 SWAP1 SWAP2 MSTORE DUP8 ADD MLOAD PUSH2 0x160 DUP1 DUP9 ADD SWAP2 SWAP1 SWAP2 MSTORE DUP8 ADD MLOAD PUSH2 0x180 DUP1 DUP9 ADD SWAP2 SWAP1 SWAP2 MSTORE DUP8 ADD MLOAD PUSH2 0x1A0 DUP1 DUP9 ADD SWAP2 SWAP1 SWAP2 MSTORE DUP8 ADD MLOAD SWAP1 SWAP4 POP SWAP1 POP PUSH2 0x1C0 PUSH2 0x20F0 DUP2 DUP8 ADD DUP4 PUSH4 0xFFFFFFFF AND SWAP1 MSTORE JUMP JUMPDEST SWAP1 SWAP6 ADD MLOAD PUSH4 0xFFFFFFFF AND SWAP4 ADD SWAP3 SWAP1 SWAP3 MSTORE POP SWAP2 SWAP1 POP JUMP JUMPDEST PUSH1 0x0 PUSH1 0x20 DUP3 MSTORE PUSH2 0x211B PUSH1 0x20 DUP4 ADD DUP5 MLOAD ISZERO ISZERO SWAP1 MSTORE JUMP JUMPDEST PUSH1 0x20 DUP4 ADD MLOAD PUSH1 0x1 PUSH1 0x1 PUSH1 0x80 SHL SUB NOT DUP2 AND PUSH1 0x40 DUP5 ADD MSTORE POP PUSH1 0x40 DUP4 ADD MLOAD PUSH1 0x1 PUSH1 0x1 PUSH1 0x80 SHL SUB NOT DUP2 AND PUSH1 0x60 DUP5 ADD MSTORE POP PUSH1 0x60 DUP4 ADD MLOAD PUSH2 0x120 DUP1 PUSH1 0x80 DUP6 ADD MSTORE PUSH2 0x2163 PUSH2 0x140 DUP6 ADD DUP4 PUSH2 0x1E19 JUMP JUMPDEST SWAP2 POP PUSH1 0x80 DUP6 ADD MLOAD PUSH1 0xA0 DUP6 ADD MSTORE PUSH1 0xA0 DUP6 ADD MLOAD PUSH1 0xC0 DUP6 ADD MSTORE PUSH1 0xC0 DUP6 ADD MLOAD PUSH2 0x218C PUSH1 0xE0 DUP7 ADD DUP3 ISZERO ISZERO SWAP1 MSTORE JUMP JUMPDEST POP PUSH1 0xE0 DUP6 ADD MLOAD PUSH2 0x100 PUSH2 0x20F0 DUP2 DUP8 ADD DUP4 PUSH4 0xFFFFFFFF AND SWAP1 MSTORE JUMP JUMPDEST PUSH1 0x0 JUMPDEST DUP4 DUP2 LT ISZERO PUSH2 0x21C1 JUMPI DUP2 DUP2 ADD MLOAD DUP4 DUP3 ADD MSTORE PUSH1 0x20 ADD PUSH2 0x21A9 JUMP JUMPDEST DUP4 DUP2 GT ISZERO PUSH2 0x21D0 JUMPI PUSH1 0x0 DUP5 DUP5 ADD MSTORE JUMPDEST POP POP POP POP JUMP JUMPDEST PUSH1 0x2 DUP2 DIV PUSH1 0x1 DUP3 AND DUP1 PUSH2 0x21EA JUMPI PUSH1 0x7F DUP3 AND SWAP2 POP JUMPDEST PUSH1 0x20 DUP3 LT DUP2 EQ ISZERO PUSH2 0x220B JUMPI PUSH4 0x4E487B71 PUSH1 0xE0 SHL PUSH1 0x0 MSTORE PUSH1 0x22 PUSH1 0x4 MSTORE PUSH1 0x24 PUSH1 0x0 REVERT JUMPDEST POP SWAP2 SWAP1 POP JUMP JUMPDEST PUSH4 0x4E487B71 PUSH1 0xE0 SHL PUSH1 0x0 MSTORE PUSH1 0x41 PUSH1 0x4 MSTORE PUSH1 0x24 PUSH1 0x0 REVERT INVALID LOG2 PUSH5 0x6970667358 0x22 SLT KECCAK256 0xE SELFDESTRUCT SIGNEXTEND 0x23 SWAP2 0x27 PUSH9 0x59D4BB43962B30FE1A 0xD1 0xD1 EXP ADDRESS 0xC2 0xC8 LOG2 0x2D COINBASE 0xB5 KECCAK256 0xE2 0xB0 CALLVALUE 0xB7 NUMBER PUSH5 0x736F6C6343 STOP ADDMOD MUL STOP CALLER ",
  "sha1": "84c891d5ae3a7fc6d9c0afdf0e7d71cd53504b84",
  "source": "// SPDX-License-Identifier: MIT\npragma solidity 0.8.2;\n\nimport {Ownable} from \"@openzeppelin/contracts/access/Ownable.sol\";\n\ncontract ArcModel is \n    Ownable\n{\n    uint8 public constant SEX_FEMALE = 10;\n    uint8 public constant SEX_MALE = 20;\n    uint256 public constant UFIXED_DECIMALS = 6;\n\n    struct Beneficiary {\n        address wallet;\n        uint8 sex;\n    }\n\n    struct Risk {\n        bool valid;\n        bytes16 configId;\n        bytes16 locationId;\n        string crop;\n        uint256 indexReferenceValue;\n        uint256 indexSeasonValue;\n        bool isFinal;\n        uint32 createdAt;\n        uint32 updatedAt;\n    }\n\n    struct Config {\n        bool valid;\n        string name; // example: MainSeason2023\n        uint16 year; // example 2023\n        uint8 startOfSeason; // decade, example: 13\n        uint8 endOfSeason; // decade, example: 32\n        string indexType; // example: WRSI\n        string dataSource; // example: CHIRPS\n        uint256 triggerSevereLevel; // UFixed, example: 700000 (70% or below refernce value)\n        uint256 triggerSeverePayout; // UFixed, example: 1000000 (100% of sum insured)\n        uint256 triggerMediumLevel; // UFixed, example: 800000 (80% or below reference value)\n        uint256 triggerMediumPayout; // UFixed, example: 250000 (25% of sum insured)\n        uint256 triggerWeakLevel; // UFixed, example: 900000 (90% or below reference value)\n        uint256 triggerWeakPayout; // UFixed, example: 100000 (10% of sum insured)\n        uint32 createdAt;\n        uint32 updatedAt;\n    }\n\n    bytes16 [] private _beneficiaryIds;\n    mapping(bytes16 /* beneficiaryId */ => Beneficiary) private _beneficiaries;\n\n    bytes16 [] private _riskIds;\n    mapping(bytes16 /* riskId */ => Risk) private _risks;\n\n    bytes16 [] private _configIds;\n    mapping(bytes16 /* configId */ =>  Config /* configId */ ) private _configs;\n\n    mapping(bytes16 /* locationId */ => bool /* isValid */) private _locations;\n    mapping(string /* crop */ => bool /* isValid */) private _crops;\n\n    event LogArcBeneficiaryCreated(bytes16 beneficiaryId, address wallet, uint8 sex);\n    event LogArcConfigCreated(bytes16 configId, string name, uint16 year);\n    event LogArcRiskCreated(bytes16 riskId, bytes16 configId, bytes32 locationId, string crop);\n\n    constructor()\n        Ownable()\n    {\n        _setupValidCrops();\n        _setupConfig2023();\n    }\n\n    function setConfig(bytes16 configId, bool isValid)\n        external\n        onlyOwner()\n    {\n        require(_configs[configId].createdAt > 0, \"ERROR:ARM-010:CONFIG_UNKNOWN\");\n        _configs[configId].valid = isValid;\n        _configs[configId].updatedAt = getTimestamp();\n    }\n\n    function setRisk(bytes16 riskId, bool isFinal, bool isValid)\n        external\n        onlyOwner()\n    {\n        require(_risks[riskId].createdAt > 0, \"ERROR:ARM-015:RISK_UNKNOWN\");\n        _risks[riskId].isFinal = isFinal;\n        _risks[riskId].valid = isValid;\n        _risks[riskId].updatedAt = getTimestamp();\n    }\n\n    function setLocation(bytes16 locationId, bool isValid) external onlyOwner() { _locations[locationId] = isValid; }\n    function setCrop(string memory crop, bool isValid) external onlyOwner() { _crops[crop] = isValid; }\n\n\n    function createBeneficiary(\n        bytes16 beneficiaryId,\n        address wallet,\n        uint8 sex\n    )\n        external onlyOwner()\n    {\n        require(_beneficiaries[beneficiaryId].wallet == address(0), \"ERROR:ARM-025:BENEFICIARY_ALREADY_EXISTS\");\n        _beneficiaries[beneficiaryId] = Beneficiary(\n            wallet,\n            sex\n        );\n\n        _beneficiaryIds.push(beneficiaryId);\n        emit LogArcBeneficiaryCreated(beneficiaryId, wallet, sex);\n    }\n\n\n    function createRisk(\n        bytes16 configId,\n        bytes16 locationId,\n        string memory crop,\n        uint256 indexReferenceValue,\n        uint256 indexSeasonValue,\n        bool isFinal\n    )\n        external onlyOwner()\n        returns(bytes16 riskId)\n    {\n        riskId = toRiskId(configId, locationId, crop);\n        uint32 timestamp = getTimestamp();\n\n        require(_risks[riskId].createdAt == 0, \"ERROR:ARM-025:RISK_ALREADY_EXISTS\");\n        _risks[riskId] = Risk(\n            true, // valid\n            configId,\n            locationId,\n            crop,\n            indexReferenceValue,\n            indexSeasonValue,\n            isFinal,\n            timestamp, // createdAt\n            timestamp); // updatedAt\n\n        _riskIds.push(riskId);\n        emit LogArcRiskCreated(riskId, configId, locationId, crop);\n    }\n\n\n    function createConfig(\n        string memory name,\n        uint16 year,\n        uint8 startOfSeason,\n        uint8 endOfSeason,\n        string memory indexType,\n        string memory dataSource,\n        uint256 triggerSevereLevel,\n        uint256 triggerSeverePayout,\n        uint256 triggerMediumLevel,\n        uint256 triggerMediumPayout,\n        uint256 triggerWeakLevel,\n        uint256 triggerWeakPayout\n    )\n        external onlyOwner()\n        returns(bytes16 configId)\n    {\n        return _createConfig(\n            name,\n            year,\n            startOfSeason,\n            endOfSeason,\n            indexType,\n            dataSource,\n            triggerSevereLevel,\n            triggerSeverePayout,\n            triggerMediumLevel,\n            triggerMediumPayout,\n            triggerWeakLevel,\n            triggerWeakPayout);\n    }\n\n    function isValidRisk(bytes16 riskId) public view returns(bool isValid) { return _risks[riskId].valid; }\n    function isValidConfig(bytes16 configId) public view returns(bool isValid) { return _configs[configId].valid; }\n    function isValidLocation(bytes16 locationId) public view returns(bool isValid) { return _locations[locationId]; }\n    function isValidCrop(string memory crop) public view returns(bool isValid) { return _crops[crop]; }\n\n    function beneficiaries() external view returns(uint256) { return _beneficiaryIds.length; }\n    function getBeneficiaryId(uint256 idx) external view returns(bytes16 benficiaryId) { return _beneficiaryIds[idx]; }\n    function getBeneficiary(bytes16 benficiaryId) external view returns(Beneficiary memory beneficiary) { return _beneficiaries[benficiaryId]; }\n\n    function risks() external view returns(uint256) { return _riskIds.length; }\n    function getRiskId(uint256 idx) external view returns(bytes16 riskId) { return _riskIds[idx]; }\n    function getRisk(bytes16 riskId) external view returns(Risk memory risk) { return _risks[riskId]; }\n\n    function configs() external view returns(uint256) { return _configIds.length; }\n    function getConfigId(uint256 idx) external view returns(bytes16 configId) { return _configIds[idx]; }\n    function getConfig(bytes16 configId) external view returns(Config memory config) { return _configs[configId]; }\n\n\n    function toBeneficiaryId(\n        string memory id,\n        string memory phone,\n        string memory salt\n    )\n        external\n        pure\n        returns(bytes16 beneficiaryId)\n    {\n        return bytes16(keccak256(abi.encodePacked(id, phone, salt)));\n    }\n\n    function toRiskId(\n        bytes16 configId,\n        bytes16 locationId,\n        string memory crop\n    )\n        public\n        view\n        returns(bytes16 riskId)\n    {\n        require(isValidConfig(configId), \"ERROR:ARM-110:CONFIG_INVALID\");\n        require(isValidLocation(locationId), \"ERROR:ARM-111:LOCATION_INVALID\");\n        require(isValidCrop(crop), \"ERROR:ARM-112:CROP_INVALID\");\n        return bytes16(keccak256(abi.encode(configId, locationId, crop)));\n    }\n\n\n    function toConfigId(\n        string memory name,\n        uint16 year\n    )\n        public\n        view\n        returns(bytes16 locationId)\n    {\n        require(year == 2023, \"ERROR:ARM-110:YEAR_INVALID\");\n        return bytes16(keccak256(abi.encode(name, year)));\n    }\n\n    function toLocationId(\n        string memory region,\n        string memory province,\n        string memory department,\n        string memory village,\n        string memory salt\n    )\n        public\n        view\n        returns(bytes16 locationId)\n    {\n        return bytes16(keccak256(abi.encode(region, province, department, village, salt)));\n    }\n\n\n    function getTimestamp() public view returns (uint32 timestamp) {\n        return uint32(block.timestamp);\n    }\n\n\n    function decimals() public pure returns (uint256) {\n        return UFIXED_DECIMALS;\n    }\n\n    function _setupValidCrops() \n        internal\n    {\n        _crops[\"Fusion\"] = true;\n        _crops[\"Maize\"] = true;\n        _crops[\"Millet\"] = true;\n        _crops[\"Sorghum\"] = true;\n    }\n\n    function _setupConfig2023() \n        internal\n    {\n        _createConfig(\n            \"MainSeasons2023\",\n               2023,\n                 13,\n                 32,\n            \"WRSI\",\n            \"CHIRPS\",\n             700000,\n            1000000,\n             800000,\n             250000,\n             900000,\n             100000);\n    }\n\n    function _createConfig(\n        string memory name,\n        uint16 year,\n        uint8 startOfSeason,\n        uint8 endOfSeason,\n        string memory indexType,\n        string memory dataSource,\n        uint256 triggerSevereLevel,\n        uint256 triggerSeverePayout,\n        uint256 triggerMediumLevel,\n        uint256 triggerMediumPayout,\n        uint256 triggerWeakLevel,\n        uint256 triggerWeakPayout\n    )\n        internal\n        returns(bytes16 configId)\n    {\n        configId = toConfigId(name, year);\n        uint32 timestamp = getTimestamp();\n\n        require(_configs[configId].createdAt == 0, \"ERROR:ARM-020:CONFIG_ALREADY_EXISTS\");\n        _configs[configId] = Config(\n            true, // valid\n            name,\n            year,\n            startOfSeason,\n            endOfSeason,\n            indexType,\n            dataSource,\n            triggerSevereLevel,\n            triggerSeverePayout,\n            triggerMediumLevel,\n            triggerMediumPayout,\n            triggerWeakLevel,\n            triggerWeakPayout,\n            timestamp, // createdAt\n            timestamp); // updatedAt\n\n        _configIds.push(configId);\n        emit LogArcConfigCreated(configId, name, year);\n    }\n}",
  "sourcePath": "contracts/ArcModel.sol",
  "type": "contract"
}