{
  "abi": [
    {
      "inputs": [
        {
          "internalType": "bytes32",
          "name": "productName",
          "type": "bytes32"
        },
        {
          "internalType": "address",
          "name": "token",
          "type": "address"
        },
        {
          "internalType": "uint256",
          "name": "riskpoolId",
          "type": "uint256"
        },
        {
          "internalType": "address",
          "name": "registry",
          "type": "address"
        },
        {
          "internalType": "address",
          "name": "model",
          "type": "address"
        }
      ],
      "stateMutability": "nonpayable",
      "type": "constructor"
    },
    {
      "anonymous": false,
      "inputs": [
        {
          "indexed": false,
          "internalType": "bytes32",
          "name": "processId",
          "type": "bytes32"
        },
        {
          "indexed": false,
          "internalType": "bytes32",
          "name": "beneficiaryId",
          "type": "bytes32"
        },
        {
          "indexed": false,
          "internalType": "address",
          "name": "policyHolder",
          "type": "address"
        },
        {
          "indexed": false,
          "internalType": "uint256",
          "name": "premiumAmount",
          "type": "uint256"
        },
        {
          "indexed": false,
          "internalType": "uint256",
          "name": "sumInsuredAmount",
          "type": "uint256"
        }
      ],
      "name": "LogArcApplicationCreated",
      "type": "event"
    },
    {
      "anonymous": false,
      "inputs": [
        {
          "indexed": false,
          "internalType": "bytes32",
          "name": "processId",
          "type": "bytes32"
        }
      ],
      "name": "LogArcApplicationDeclined",
      "type": "event"
    },
    {
      "anonymous": false,
      "inputs": [
        {
          "indexed": false,
          "internalType": "bytes32",
          "name": "policyId",
          "type": "bytes32"
        },
        {
          "indexed": false,
          "internalType": "uint256",
          "name": "claimId",
          "type": "uint256"
        },
        {
          "indexed": false,
          "internalType": "uint256",
          "name": "payoutAmount",
          "type": "uint256"
        }
      ],
      "name": "LogArcClaimCreated",
      "type": "event"
    },
    {
      "anonymous": false,
      "inputs": [
        {
          "indexed": false,
          "internalType": "bytes32",
          "name": "policyId",
          "type": "bytes32"
        },
        {
          "indexed": false,
          "internalType": "uint256",
          "name": "payoutAmount",
          "type": "uint256"
        }
      ],
      "name": "LogArcPayoutCreated",
      "type": "event"
    },
    {
      "anonymous": false,
      "inputs": [
        {
          "indexed": false,
          "internalType": "bytes32",
          "name": "policyId",
          "type": "bytes32"
        }
      ],
      "name": "LogArcPolicyClosed",
      "type": "event"
    },
    {
      "anonymous": false,
      "inputs": [
        {
          "indexed": false,
          "internalType": "bytes32",
          "name": "policyId",
          "type": "bytes32"
        },
        {
          "indexed": false,
          "internalType": "bytes32",
          "name": "beneficiaryId",
          "type": "bytes32"
        },
        {
          "indexed": false,
          "internalType": "bytes32",
          "name": "riskId",
          "type": "bytes32"
        },
        {
          "indexed": false,
          "internalType": "uint256",
          "name": "premiumAmount",
          "type": "uint256"
        }
      ],
      "name": "LogArcPolicyCreated",
      "type": "event"
    },
    {
      "anonymous": false,
      "inputs": [
        {
          "indexed": false,
          "internalType": "bytes32",
          "name": "policyId",
          "type": "bytes32"
        },
        {
          "indexed": false,
          "internalType": "uint256",
          "name": "claimId",
          "type": "uint256"
        },
        {
          "indexed": false,
          "internalType": "uint256",
          "name": "payoutAmount",
          "type": "uint256"
        }
      ],
      "name": "LogArcPolicyProcessed",
      "type": "event"
    },
    {
      "anonymous": false,
      "inputs": [
        {
          "indexed": false,
          "internalType": "uint256",
          "name": "id",
          "type": "uint256"
        }
      ],
      "name": "LogComponentApproved",
      "type": "event"
    },
    {
      "anonymous": false,
      "inputs": [
        {
          "indexed": false,
          "internalType": "uint256",
          "name": "id",
          "type": "uint256"
        }
      ],
      "name": "LogComponentArchived",
      "type": "event"
    },
    {
      "anonymous": false,
      "inputs": [
        {
          "indexed": false,
          "internalType": "bytes32",
          "name": "componentName",
          "type": "bytes32"
        },
        {
          "indexed": false,
          "internalType": "enum IComponent.ComponentType",
          "name": "componentType",
          "type": "uint8"
        },
        {
          "indexed": false,
          "internalType": "address",
          "name": "componentAddress",
          "type": "address"
        },
        {
          "indexed": false,
          "internalType": "address",
          "name": "registryAddress",
          "type": "address"
        }
      ],
      "name": "LogComponentCreated",
      "type": "event"
    },
    {
      "anonymous": false,
      "inputs": [
        {
          "indexed": false,
          "internalType": "uint256",
          "name": "id",
          "type": "uint256"
        }
      ],
      "name": "LogComponentDeclined",
      "type": "event"
    },
    {
      "anonymous": false,
      "inputs": [
        {
          "indexed": false,
          "internalType": "uint256",
          "name": "id",
          "type": "uint256"
        }
      ],
      "name": "LogComponentPaused",
      "type": "event"
    },
    {
      "anonymous": false,
      "inputs": [
        {
          "indexed": false,
          "internalType": "bytes32",
          "name": "componentName",
          "type": "bytes32"
        },
        {
          "indexed": false,
          "internalType": "enum IComponent.ComponentType",
          "name": "componentType",
          "type": "uint8"
        },
        {
          "indexed": false,
          "internalType": "address",
          "name": "componentAddress",
          "type": "address"
        },
        {
          "indexed": false,
          "internalType": "uint256",
          "name": "id",
          "type": "uint256"
        }
      ],
      "name": "LogComponentProposed",
      "type": "event"
    },
    {
      "anonymous": false,
      "inputs": [
        {
          "indexed": false,
          "internalType": "uint256",
          "name": "id",
          "type": "uint256"
        }
      ],
      "name": "LogComponentResumed",
      "type": "event"
    },
    {
      "anonymous": false,
      "inputs": [
        {
          "indexed": false,
          "internalType": "uint256",
          "name": "id",
          "type": "uint256"
        },
        {
          "indexed": false,
          "internalType": "enum IComponent.ComponentState",
          "name": "stateOld",
          "type": "uint8"
        },
        {
          "indexed": false,
          "internalType": "enum IComponent.ComponentState",
          "name": "stateNew",
          "type": "uint8"
        }
      ],
      "name": "LogComponentStateChanged",
      "type": "event"
    },
    {
      "anonymous": false,
      "inputs": [
        {
          "indexed": false,
          "internalType": "uint256",
          "name": "id",
          "type": "uint256"
        }
      ],
      "name": "LogComponentSuspended",
      "type": "event"
    },
    {
      "anonymous": false,
      "inputs": [
        {
          "indexed": false,
          "internalType": "uint256",
          "name": "id",
          "type": "uint256"
        }
      ],
      "name": "LogComponentUnpaused",
      "type": "event"
    },
    {
      "anonymous": false,
      "inputs": [
        {
          "indexed": false,
          "internalType": "uint256",
          "name": "componentId",
          "type": "uint256"
        }
      ],
      "name": "LogProductApproved",
      "type": "event"
    },
    {
      "anonymous": false,
      "inputs": [
        {
          "indexed": false,
          "internalType": "address",
          "name": "productAddress",
          "type": "address"
        }
      ],
      "name": "LogProductCreated",
      "type": "event"
    },
    {
      "anonymous": false,
      "inputs": [
        {
          "indexed": false,
          "internalType": "uint256",
          "name": "componentId",
          "type": "uint256"
        }
      ],
      "name": "LogProductDeclined",
      "type": "event"
    },
    {
      "anonymous": false,
      "inputs": [
        {
          "indexed": false,
          "internalType": "uint256",
          "name": "componentId",
          "type": "uint256"
        }
      ],
      "name": "LogProductProposed",
      "type": "event"
    },
    {
      "anonymous": false,
      "inputs": [
        {
          "indexed": true,
          "internalType": "address",
          "name": "previousOwner",
          "type": "address"
        },
        {
          "indexed": true,
          "internalType": "address",
          "name": "newOwner",
          "type": "address"
        }
      ],
      "name": "OwnershipTransferred",
      "type": "event"
    },
    {
      "anonymous": false,
      "inputs": [
        {
          "indexed": true,
          "internalType": "bytes32",
          "name": "role",
          "type": "bytes32"
        },
        {
          "indexed": true,
          "internalType": "bytes32",
          "name": "previousAdminRole",
          "type": "bytes32"
        },
        {
          "indexed": true,
          "internalType": "bytes32",
          "name": "newAdminRole",
          "type": "bytes32"
        }
      ],
      "name": "RoleAdminChanged",
      "type": "event"
    },
    {
      "anonymous": false,
      "inputs": [
        {
          "indexed": true,
          "internalType": "bytes32",
          "name": "role",
          "type": "bytes32"
        },
        {
          "indexed": true,
          "internalType": "address",
          "name": "account",
          "type": "address"
        },
        {
          "indexed": true,
          "internalType": "address",
          "name": "sender",
          "type": "address"
        }
      ],
      "name": "RoleGranted",
      "type": "event"
    },
    {
      "anonymous": false,
      "inputs": [
        {
          "indexed": true,
          "internalType": "bytes32",
          "name": "role",
          "type": "bytes32"
        },
        {
          "indexed": true,
          "internalType": "address",
          "name": "account",
          "type": "address"
        },
        {
          "indexed": true,
          "internalType": "address",
          "name": "sender",
          "type": "address"
        }
      ],
      "name": "RoleRevoked",
      "type": "event"
    },
    {
      "inputs": [],
      "name": "DEFAULT_ADMIN_ROLE",
      "outputs": [
        {
          "internalType": "bytes32",
          "name": "",
          "type": "bytes32"
        }
      ],
      "stateMutability": "view",
      "type": "function"
    },
    {
      "inputs": [],
      "name": "NAME",
      "outputs": [
        {
          "internalType": "bytes32",
          "name": "",
          "type": "bytes32"
        }
      ],
      "stateMutability": "view",
      "type": "function"
    },
    {
      "inputs": [],
      "name": "POLICY_FLOW",
      "outputs": [
        {
          "internalType": "bytes32",
          "name": "",
          "type": "bytes32"
        }
      ],
      "stateMutability": "view",
      "type": "function"
    },
    {
      "inputs": [],
      "name": "VERSION",
      "outputs": [
        {
          "internalType": "bytes32",
          "name": "",
          "type": "bytes32"
        }
      ],
      "stateMutability": "view",
      "type": "function"
    },
    {
      "inputs": [],
      "name": "approvalCallback",
      "outputs": [],
      "stateMutability": "nonpayable",
      "type": "function"
    },
    {
      "inputs": [],
      "name": "archiveCallback",
      "outputs": [],
      "stateMutability": "nonpayable",
      "type": "function"
    },
    {
      "inputs": [
        {
          "internalType": "bytes16",
          "name": "configId",
          "type": "bytes16"
        },
        {
          "internalType": "uint256",
          "name": "indexReferenceValue",
          "type": "uint256"
        },
        {
          "internalType": "uint256",
          "name": "indexSeasonValue",
          "type": "uint256"
        },
        {
          "internalType": "uint256",
          "name": "sumInsuredAmount",
          "type": "uint256"
        }
      ],
      "name": "calculatePayoutAmount",
      "outputs": [
        {
          "internalType": "uint256",
          "name": "payoutAmount",
          "type": "uint256"
        }
      ],
      "stateMutability": "view",
      "type": "function"
    },
    {
      "inputs": [
        {
          "internalType": "bytes32",
          "name": "processId",
          "type": "bytes32"
        }
      ],
      "name": "closePolicy",
      "outputs": [],
      "stateMutability": "nonpayable",
      "type": "function"
    },
    {
      "inputs": [
        {
          "internalType": "bytes32",
          "name": "processId",
          "type": "bytes32"
        }
      ],
      "name": "collectPremium",
      "outputs": [
        {
          "internalType": "bool",
          "name": "success",
          "type": "bool"
        },
        {
          "internalType": "uint256",
          "name": "fee",
          "type": "uint256"
        },
        {
          "internalType": "uint256",
          "name": "netPremium",
          "type": "uint256"
        }
      ],
      "stateMutability": "nonpayable",
      "type": "function"
    },
    {
      "inputs": [
        {
          "internalType": "bytes16",
          "name": "beneficiaryId",
          "type": "bytes16"
        },
        {
          "internalType": "address",
          "name": "wallet",
          "type": "address"
        },
        {
          "internalType": "uint8",
          "name": "sex",
          "type": "uint8"
        },
        {
          "internalType": "bytes16",
          "name": "riskId",
          "type": "bytes16"
        },
        {
          "internalType": "uint256",
          "name": "premiumAmount",
          "type": "uint256"
        },
        {
          "internalType": "uint256",
          "name": "sumInsuredAmount",
          "type": "uint256"
        },
        {
          "internalType": "uint32",
          "name": "subscriptionDate",
          "type": "uint32"
        },
        {
          "internalType": "bool",
          "name": "underwriteApplication",
          "type": "bool"
        }
      ],
      "name": "createPolicy",
      "outputs": [
        {
          "internalType": "bytes32",
          "name": "processId",
          "type": "bytes32"
        }
      ],
      "stateMutability": "nonpayable",
      "type": "function"
    },
    {
      "inputs": [
        {
          "internalType": "bytes16",
          "name": "configId",
          "type": "bytes16"
        },
        {
          "internalType": "bytes16",
          "name": "locationId",
          "type": "bytes16"
        },
        {
          "internalType": "string",
          "name": "crop",
          "type": "string"
        },
        {
          "internalType": "uint256",
          "name": "indexReferenceValue",
          "type": "uint256"
        },
        {
          "internalType": "uint256",
          "name": "indexSeasonValue",
          "type": "uint256"
        },
        {
          "internalType": "bool",
          "name": "riskIsFinal",
          "type": "bool"
        }
      ],
      "name": "createRisk",
      "outputs": [
        {
          "internalType": "bytes16",
          "name": "riskId",
          "type": "bytes16"
        }
      ],
      "stateMutability": "nonpayable",
      "type": "function"
    },
    {
      "inputs": [
        {
          "internalType": "bytes32",
          "name": "processId",
          "type": "bytes32"
        }
      ],
      "name": "decline",
      "outputs": [],
      "stateMutability": "nonpayable",
      "type": "function"
    },
    {
      "inputs": [],
      "name": "declineCallback",
      "outputs": [],
      "stateMutability": "nonpayable",
      "type": "function"
    },
    {
      "inputs": [
        {
          "internalType": "bytes",
          "name": "data",
          "type": "bytes"
        }
      ],
      "name": "decodeApplicationData",
      "outputs": [
        {
          "internalType": "bytes16",
          "name": "riskId",
          "type": "bytes16"
        },
        {
          "internalType": "bytes16",
          "name": "beneficiaryId",
          "type": "bytes16"
        },
        {
          "internalType": "uint8",
          "name": "sex",
          "type": "uint8"
        },
        {
          "internalType": "bytes16",
          "name": "locationId",
          "type": "bytes16"
        },
        {
          "internalType": "string",
          "name": "crop",
          "type": "string"
        },
        {
          "internalType": "uint32",
          "name": "subscriptionDate",
          "type": "uint32"
        }
      ],
      "stateMutability": "pure",
      "type": "function"
    },
    {
      "inputs": [
        {
          "internalType": "bytes16",
          "name": "riskId",
          "type": "bytes16"
        },
        {
          "internalType": "bytes16",
          "name": "beneficiaryId",
          "type": "bytes16"
        },
        {
          "internalType": "uint8",
          "name": "sex",
          "type": "uint8"
        },
        {
          "internalType": "bytes16",
          "name": "locationId",
          "type": "bytes16"
        },
        {
          "internalType": "string",
          "name": "crop",
          "type": "string"
        },
        {
          "internalType": "uint32",
          "name": "subscriptionDate",
          "type": "uint32"
        }
      ],
      "name": "encodeApplicationData",
      "outputs": [
        {
          "internalType": "bytes",
          "name": "data",
          "type": "bytes"
        }
      ],
      "stateMutability": "pure",
      "type": "function"
    },
    {
      "inputs": [],
      "name": "getApplicationDataStructure",
      "outputs": [
        {
          "internalType": "string",
          "name": "dataStructure",
          "type": "string"
        }
      ],
      "stateMutability": "view",
      "type": "function"
    },
    {
      "inputs": [],
      "name": "getClaimDataStructure",
      "outputs": [
        {
          "internalType": "string",
          "name": "dataStructure",
          "type": "string"
        }
      ],
      "stateMutability": "view",
      "type": "function"
    },
    {
      "inputs": [],
      "name": "getId",
      "outputs": [
        {
          "internalType": "uint256",
          "name": "",
          "type": "uint256"
        }
      ],
      "stateMutability": "view",
      "type": "function"
    },
    {
      "inputs": [],
      "name": "getModel",
      "outputs": [
        {
          "internalType": "contract ArcModel",
          "name": "model",
          "type": "address"
        }
      ],
      "stateMutability": "view",
      "type": "function"
    },
    {
      "inputs": [],
      "name": "getName",
      "outputs": [
        {
          "internalType": "bytes32",
          "name": "",
          "type": "bytes32"
        }
      ],
      "stateMutability": "view",
      "type": "function"
    },
    {
      "inputs": [],
      "name": "getOwner",
      "outputs": [
        {
          "internalType": "address",
          "name": "",
          "type": "address"
        }
      ],
      "stateMutability": "view",
      "type": "function"
    },
    {
      "inputs": [],
      "name": "getPayoutDataStructure",
      "outputs": [
        {
          "internalType": "string",
          "name": "dataStructure",
          "type": "string"
        }
      ],
      "stateMutability": "view",
      "type": "function"
    },
    {
      "inputs": [],
      "name": "getPolicyFlow",
      "outputs": [
        {
          "internalType": "address",
          "name": "",
          "type": "address"
        }
      ],
      "stateMutability": "view",
      "type": "function"
    },
    {
      "inputs": [
        {
          "internalType": "bytes32",
          "name": "riskId",
          "type": "bytes32"
        },
        {
          "internalType": "uint256",
          "name": "policyIdx",
          "type": "uint256"
        }
      ],
      "name": "getPolicyId",
      "outputs": [
        {
          "internalType": "bytes32",
          "name": "processId",
          "type": "bytes32"
        }
      ],
      "stateMutability": "view",
      "type": "function"
    },
    {
      "inputs": [
        {
          "internalType": "uint256",
          "name": "index",
          "type": "uint256"
        }
      ],
      "name": "getProcessId",
      "outputs": [
        {
          "internalType": "bytes32",
          "name": "processId",
          "type": "bytes32"
        }
      ],
      "stateMutability": "view",
      "type": "function"
    },
    {
      "inputs": [],
      "name": "getRegistry",
      "outputs": [
        {
          "internalType": "contract IRegistry",
          "name": "",
          "type": "address"
        }
      ],
      "stateMutability": "view",
      "type": "function"
    },
    {
      "inputs": [],
      "name": "getRiskpoolId",
      "outputs": [
        {
          "internalType": "uint256",
          "name": "",
          "type": "uint256"
        }
      ],
      "stateMutability": "view",
      "type": "function"
    },
    {
      "inputs": [
        {
          "internalType": "bytes32",
          "name": "role",
          "type": "bytes32"
        }
      ],
      "name": "getRoleAdmin",
      "outputs": [
        {
          "internalType": "bytes32",
          "name": "",
          "type": "bytes32"
        }
      ],
      "stateMutability": "view",
      "type": "function"
    },
    {
      "inputs": [],
      "name": "getState",
      "outputs": [
        {
          "internalType": "enum IComponent.ComponentState",
          "name": "",
          "type": "uint8"
        }
      ],
      "stateMutability": "view",
      "type": "function"
    },
    {
      "inputs": [],
      "name": "getToken",
      "outputs": [
        {
          "internalType": "address",
          "name": "",
          "type": "address"
        }
      ],
      "stateMutability": "view",
      "type": "function"
    },
    {
      "inputs": [],
      "name": "getTokenDecimals",
      "outputs": [
        {
          "internalType": "uint256",
          "name": "",
          "type": "uint256"
        }
      ],
      "stateMutability": "view",
      "type": "function"
    },
    {
      "inputs": [],
      "name": "getType",
      "outputs": [
        {
          "internalType": "enum IComponent.ComponentType",
          "name": "",
          "type": "uint8"
        }
      ],
      "stateMutability": "view",
      "type": "function"
    },
    {
      "inputs": [
        {
          "internalType": "bytes32",
          "name": "role",
          "type": "bytes32"
        },
        {
          "internalType": "address",
          "name": "account",
          "type": "address"
        }
      ],
      "name": "grantRole",
      "outputs": [],
      "stateMutability": "nonpayable",
      "type": "function"
    },
    {
      "inputs": [
        {
          "internalType": "bytes32",
          "name": "role",
          "type": "bytes32"
        },
        {
          "internalType": "address",
          "name": "account",
          "type": "address"
        }
      ],
      "name": "hasRole",
      "outputs": [
        {
          "internalType": "bool",
          "name": "",
          "type": "bool"
        }
      ],
      "stateMutability": "view",
      "type": "function"
    },
    {
      "inputs": [],
      "name": "isOracle",
      "outputs": [
        {
          "internalType": "bool",
          "name": "",
          "type": "bool"
        }
      ],
      "stateMutability": "view",
      "type": "function"
    },
    {
      "inputs": [
        {
          "internalType": "bytes32",
          "name": "policyId",
          "type": "bytes32"
        }
      ],
      "name": "isProcessed",
      "outputs": [
        {
          "internalType": "bool",
          "name": "",
          "type": "bool"
        }
      ],
      "stateMutability": "view",
      "type": "function"
    },
    {
      "inputs": [],
      "name": "isProduct",
      "outputs": [
        {
          "internalType": "bool",
          "name": "",
          "type": "bool"
        }
      ],
      "stateMutability": "view",
      "type": "function"
    },
    {
      "inputs": [],
      "name": "isRiskpool",
      "outputs": [
        {
          "internalType": "bool",
          "name": "",
          "type": "bool"
        }
      ],
      "stateMutability": "view",
      "type": "function"
    },
    {
      "inputs": [],
      "name": "owner",
      "outputs": [
        {
          "internalType": "address",
          "name": "",
          "type": "address"
        }
      ],
      "stateMutability": "view",
      "type": "function"
    },
    {
      "inputs": [],
      "name": "pauseCallback",
      "outputs": [],
      "stateMutability": "nonpayable",
      "type": "function"
    },
    {
      "inputs": [
        {
          "internalType": "bytes32",
          "name": "riskId",
          "type": "bytes32"
        }
      ],
      "name": "policies",
      "outputs": [
        {
          "internalType": "uint256",
          "name": "count",
          "type": "uint256"
        }
      ],
      "stateMutability": "view",
      "type": "function"
    },
    {
      "inputs": [],
      "name": "processIds",
      "outputs": [
        {
          "internalType": "uint256",
          "name": "applicationCount",
          "type": "uint256"
        }
      ],
      "stateMutability": "view",
      "type": "function"
    },
    {
      "inputs": [
        {
          "internalType": "bytes32",
          "name": "policyId",
          "type": "bytes32"
        }
      ],
      "name": "processPolicy",
      "outputs": [
        {
          "internalType": "uint256",
          "name": "claimId",
          "type": "uint256"
        }
      ],
      "stateMutability": "nonpayable",
      "type": "function"
    },
    {
      "inputs": [],
      "name": "proposalCallback",
      "outputs": [],
      "stateMutability": "nonpayable",
      "type": "function"
    },
    {
      "inputs": [],
      "name": "renounceOwnership",
      "outputs": [],
      "stateMutability": "nonpayable",
      "type": "function"
    },
    {
      "inputs": [
        {
          "internalType": "bytes32",
          "name": "role",
          "type": "bytes32"
        },
        {
          "internalType": "address",
          "name": "account",
          "type": "address"
        }
      ],
      "name": "renounceRole",
      "outputs": [],
      "stateMutability": "nonpayable",
      "type": "function"
    },
    {
      "inputs": [],
      "name": "resumeCallback",
      "outputs": [],
      "stateMutability": "nonpayable",
      "type": "function"
    },
    {
      "inputs": [
        {
          "internalType": "bytes32",
          "name": "role",
          "type": "bytes32"
        },
        {
          "internalType": "address",
          "name": "account",
          "type": "address"
        }
      ],
      "name": "revokeRole",
      "outputs": [],
      "stateMutability": "nonpayable",
      "type": "function"
    },
    {
      "inputs": [
        {
          "internalType": "uint256",
          "name": "capacity",
          "type": "uint256"
        }
      ],
      "name": "riskPoolCapacityCallback",
      "outputs": [],
      "stateMutability": "nonpayable",
      "type": "function"
    },
    {
      "inputs": [
        {
          "internalType": "uint256",
          "name": "id",
          "type": "uint256"
        }
      ],
      "name": "setId",
      "outputs": [],
      "stateMutability": "nonpayable",
      "type": "function"
    },
    {
      "inputs": [
        {
          "internalType": "bytes16",
          "name": "locationId",
          "type": "bytes16"
        },
        {
          "internalType": "bool",
          "name": "isValid",
          "type": "bool"
        }
      ],
      "name": "setLocation",
      "outputs": [],
      "stateMutability": "nonpayable",
      "type": "function"
    },
    {
      "inputs": [
        {
          "internalType": "bytes4",
          "name": "interfaceId",
          "type": "bytes4"
        }
      ],
      "name": "supportsInterface",
      "outputs": [
        {
          "internalType": "bool",
          "name": "",
          "type": "bool"
        }
      ],
      "stateMutability": "view",
      "type": "function"
    },
    {
      "inputs": [],
      "name": "suspendCallback",
      "outputs": [],
      "stateMutability": "nonpayable",
      "type": "function"
    },
    {
      "inputs": [
        {
          "internalType": "address",
          "name": "newOwner",
          "type": "address"
        }
      ],
      "name": "transferModel",
      "outputs": [],
      "stateMutability": "nonpayable",
      "type": "function"
    },
    {
      "inputs": [
        {
          "internalType": "address",
          "name": "newOwner",
          "type": "address"
        }
      ],
      "name": "transferOwnership",
      "outputs": [],
      "stateMutability": "nonpayable",
      "type": "function"
    },
    {
      "inputs": [
        {
          "internalType": "bytes32",
          "name": "processId",
          "type": "bytes32"
        }
      ],
      "name": "underwrite",
      "outputs": [
        {
          "internalType": "bool",
          "name": "success",
          "type": "bool"
        }
      ],
      "stateMutability": "nonpayable",
      "type": "function"
    },
    {
      "inputs": [],
      "name": "unpauseCallback",
      "outputs": [],
      "stateMutability": "nonpayable",
      "type": "function"
    }
  ],
  "bytecode": "60806040523480156200001157600080fd5b5060405162003e2d38038062003e2d8339810160408190526200003491620004a5565b848470506f6c69637944656661756c74466c6f7760781b8585846001826200005c3362000329565b6001600160a01b038116620000c35760405162461bcd60e51b815260206004820152602360248201527f4552524f523a434d502d3030343a52454749535452595f414444524553535f5a60448201526245524f60e81b606482015260840160405180910390fd5b60038054610100600160a81b0319166101006001600160a01b03841602179055620000ed62000379565b600480546001600160a01b0319166001600160a01b03929092169190911790556200011762000394565b600580546001600160a01b0319166001600160a01b039290921691909117905562000141620003c1565b600680546001600160a01b0319166001600160a01b0392909216919091179055600183815560038054849260ff19909116908360028111156200019457634e487b7160e01b600052602160045260246000fd5b02179055506001546003546040517f04a2dea3211d6352f30925875b6e2e984642f84e1bcffe65ffaa1b04c1197b7a92620001e892909160ff82169130916101009091046001600160a01b03169062000502565b60405180910390a15050600880546001600160a01b0319166001600160a01b0387161790555060098290556200021e83620003db565b600780546001600160a01b0319166001600160a01b03929092169190911790556200025a6d50726f647563745365727669636560901b620003db565b600a80546001600160a01b0319166001600160a01b0392909216919091179055620002976e496e7374616e63655365727669636560881b620003db565b600b80546001600160a01b0319166001600160a01b03929092169190911790556040513081527fced180b842b890d77dab95dcbf4654065589a164226ef9faa91a7601fb67c4679060200160405180910390a15050601080546001600160a01b039889166001600160a01b031991821617909155600f805495909816941693909317909555506200054d945050505050565b600080546001600160a01b038381166001600160a01b0319831681178455604051919092169283917f8be0079c531659141344cd1fd0a4f28419497f9722a3daafe3b4186f6b6457e09190a35050565b60006200038f6541636365737360d01b620003db565b905090565b60006200038f7f436f6d706f6e656e744f776e6572536572766963650000000000000000000000620003db565b60006200038f6e496e7374616e63655365727669636560881b5b600354604051631c2d8fb360e31b81526004810183905260009161010090046001600160a01b03169063e16c7d989060240160206040518083038186803b1580156200042657600080fd5b505afa1580156200043b573d6000803e3d6000fd5b505050506040513d601f19601f8201168201806040525081019062000461919062000481565b90505b919050565b80516001600160a01b03811681146200046457600080fd5b60006020828403121562000493578081fd5b6200049e8262000469565b9392505050565b600080600080600060a08688031215620004bd578081fd5b85519450620004cf6020870162000469565b935060408601519250620004e66060870162000469565b9150620004f66080870162000469565b90509295509295909350565b84815260808101600385106200052857634e487b7160e01b600052602160045260246000fd5b60208201949094526001600160a01b0392831660408201529116606090910152919050565b6138d0806200055d6000396000f3fe608060405234801561001057600080fd5b50600436106103835760003560e01c8063864eef50116101de578063b3fca9bd1161010f578063d547741f116100ad578063e0815f0d1161007c578063e0815f0d14610706578063f2fde38b1461070e578063f4fdc1fa14610721578063ffa1ad741461073257610383565b8063d547741f146106cd578063d73cd9921461050d578063db5bb62b146106e0578063ddbfd8ef146106f357610383565b8063be169e7e116100e9578063be169e7e1461050d578063c127750614610682578063cc946366146106a7578063d0e0ba95146106ba57610383565b8063b3fca9bd1461050d578063b9ea8d661461064a578063bd1fe5d01461067a57610383565b80639b04ed301161017c578063a217fddf11610156578063a217fddf1461060e578063a3f4df7e14610616578063a427056e1461062f578063adcadb281461063757610383565b80639b04ed30146105ea578063a0bfa1e0146105fd578063a18f5ae21461050d57610383565b80638da5cb5b116101b85780638da5cb5b146105be57806391d14854146105cf57806394f64ff4146104dd5780639a82f890146105e257610383565b8063864eef5014610590578063893d20e8146105a35780638cc7d3d1146105ab57610383565b80632f2ff15d116102b85780635d1ca6311161025657806370d2fe531161023057806370d2fe531461054d578063715018a6146105555780637c37f2431461055d578063836398961461057d57610383565b80635d1ca6311461052c578063637d08f414610534578063638ce0ba1461054557610383565b80633ec92bda116102925780633ec92bda146104dd578063412f91d9146104fa57806359dacc6a1461050d5780635ab1bd531461051557610383565b80632f2ff15d146104b757806336568abe146104ca57806339cf5e16146104dd57610383565b80631865c57d1161032557806321df0da7116102ff57806321df0da71461045f578063248a9ca31461048457806324f65ee7146104a7578063258d560c146104af57610383565b80631865c57d1461042f5780631b07b17f146104445780631b867c631461045757610383565b806310b4931f1161036157806310b4931f146103ec57806311c168961461040157806315dae03e1461041457806317d7de7c1461042757610383565b806301ffc9a71461038857806309128d83146103b05780630b228d95146103d9575b600080fd5b61039b610396366004612ebe565b61073f565b60405190151581526020015b60405180910390f35b6103cb70506f6c69637944656661756c74466c6f7760781b81565b6040519081526020016103a7565b6103cb6103e7366004612e49565b610778565b6103ff6103fa366004612c36565b610b2e565b005b61039b61040f366004612e49565b610baa565b60035460ff166040516103a79190613582565b6001546103cb565b610437610be0565b6040516103a79190613568565b61039b610452366004612e49565b610c66565b6103ff610d9f565b6008546001600160a01b03165b6040516001600160a01b0390911681526020016103a7565b6103cb610492366004612e49565b6000908152600c602052604090206001015490565b6103cb610dee565b61039b610e73565b6103ff6104c5366004612e79565b610ea3565b6103ff6104d8366004612e79565b610ecd565b6040805160208101909152600081525b6040516103a79190613555565b6103cb610508366004612e9d565b610f4b565b6103ff610f6c565b61046c60035461010090046001600160a01b031690565b6002546103cb565b6007546001600160a01b031661046c565b6103ff610fb6565b6009546103cb565b6103ff611003565b61057061056b366004612c6e565b611015565b6040516103a7919061342b565b6104ed61058b366004612cf5565b6112c1565b6103cb61059e366004612e0f565b6112f9565b61046c611587565b6103ff6105b9366004612e49565b611599565b6000546001600160a01b031661046c565b61039b6105dd366004612e79565b61165e565b61039b611689565b6103cb6105f8366004612e49565b611691565b600f546001600160a01b031661046c565b6103cb600081565b6103cb6e105c98d25b99195e141c9bd91d58dd608a1b81565b600e546103cb565b6103ff610645366004612e49565b6116c6565b61065d610658366004612e49565b611716565b6040805193151584526020840192909252908201526060016103a7565b6103ff6117b7565b610695610690366004612ee6565b611804565b6040516103a7969594939291906134ba565b6103ff6106b5366004612afa565b611836565b6103ff6106c8366004612e49565b6118a1565b6103ff6106db366004612e79565b6118eb565b6103cb6106ee366004612ba0565b611910565b6103cb610701366004612e49565b611c8a565b61039b611ca1565b6103ff61071c366004612afa565b611caa565b6103ff61072f366004612e49565b50565b6103cb62302e3160e81b81565b60006001600160e01b03198216637965db0b60e01b148061077057506301ffc9a760e01b6001600160e01b03198316145b90505b919050565b6000610782611d20565b600061078d83611d7a565b905060008160800151116107e85760405162461bcd60e51b815260206004820181905260248201527f4552524f523a4152432d3130303a50524f434553535f49445f494e56414c494460448201526064015b60405180910390fd5b60006107f78260600151611804565b5050600f5460405163d25f214b60e01b81529495506000946001600160a01b03909116935063d25f214b92506108329150859060040161342b565b60006040518083038186803b15801561084a57600080fd5b505afa15801561085e573d6000803e3d6000fd5b505050506040513d6000823e601f3d908101601f191682016040526108869190810190613221565b80519091506108d75760405162461bcd60e51b815260206004820152601d60248201527f4552524f523a4152432d3130313a5249534b5f49445f494e56414c494400000060448201526064016107df565b60006108e286611e34565b905060008160e00151116109385760405162461bcd60e51b815260206004820181905260248201527f4552524f523a4152432d3130323a504f4c4943595f554e415641494c41424c4560448201526064016107df565b60608101516109925760006040518060200160405280600081525090506000610973846020015185608001518660a0015189604001516112f9565b9050610980888284611f01565b965061098b88611f88565b5050610997565b600094505b60006109a38787611fb9565b905060008160800151116109f95760405162461bcd60e51b815260206004820152601f60248201527f4552524f523a4152432d3130333a434c41494d5f554e415641494c41424c450060448201526064016107df565b600381516003811115610a1c57634e487b7160e01b600052602160045260246000fd5b1415610a2c575050505050610773565b600081516003811115610a4f57634e487b7160e01b600052602160045260246000fd5b148015610a5d57508260c001515b15610b24576000610a80846020015185608001518660a0015189604001516112f9565b90508015610ac457610a9388888361207a565b60408051602081019091526000808252610aaf8a8a85856120eb565b9050610abb8a8261217d565b50505050610ad8565b610ace8888612211565b610ad88888612249565b610ae188612281565b60408051898152602081018990529081018290527fb2756e4130183c01903eb299860039617bfd7168d26755c6acfd251ba28e78d69060600160405180910390a1505b5050505050919050565b610b36611d20565b600f546040516310b4931f60e01b81526001600160801b03198416600482015282151560248201526001600160a01b03909116906310b4931f906044015b600060405180830381600087803b158015610b8e57600080fd5b505af1158015610ba2573d6000803e3d6000fd5b505050505050565b60006003610bb9836000611fb9565b516003811115610bd957634e487b7160e01b600052602160045260246000fd5b1492915050565b600654600254604051635e966e4560e01b815260048101919091526000916001600160a01b031690635e966e459060240160206040518083038186803b158015610c2957600080fd5b505afa158015610c3d573d6000803e3d6000fd5b505050506040513d601f19601f82011682018060405250810190610c619190612f2c565b905090565b6000610c70611d20565b6000610c7b83611d7a565b9050600081516003811115610ca057634e487b7160e01b600052602160045260246000fd5b14610ced5760405162461bcd60e51b815260206004820152601f60248201527f4552524f523a4152432d3036303a53544154455f4e4f545f4150504c4945440060448201526064016107df565b610cf6836122b2565b91508115610d9957600080610d0e8360600151611804565b5050505091509150610d3c600d6000846001600160801b031916815260200190815260200160002086612331565b50602080840151604080518881526001600160801b0319808616948201949094529285169083015260608201527f839c17abd37296b3c888d91bb5fd15fa9ea9d7cedd29a2440894cdd460a277559060800160405180910390a150505b50919050565b610db46810dbdb5c1bdb995b9d60ba1b61233d565b6001600160a01b0316336001600160a01b031614610de45760405162461bcd60e51b81526004016107df90613596565b610dec6123bf565b565b6010546040805163313ce56760e01b815290516000926001600160a01b03169163313ce567916004808301926020929190829003018186803b158015610e3357600080fd5b505afa158015610e47573d6000803e3d6000fd5b505050506040513d601f19601f82011682018060405250810190610e6b9190613323565b60ff16905090565b600060025b60035460ff166002811115610e9d57634e487b7160e01b600052602160045260246000fd5b14905090565b6000828152600c6020526040902060010154610ebe816123fc565b610ec88383612406565b505050565b6001600160a01b0381163314610f3d5760405162461bcd60e51b815260206004820152602f60248201527f416363657373436f6e74726f6c3a2063616e206f6e6c792072656e6f756e636560448201526e103937b632b9903337b91039b2b63360891b60648201526084016107df565b610f47828261248c565b5050565b6000828152600d60205260408120610f6390836124f3565b90505b92915050565b610f816810dbdb5c1bdb995b9d60ba1b61233d565b6001600160a01b0316336001600160a01b031614610fb15760405162461bcd60e51b81526004016107df90613596565b610dec565b610fcb6810dbdb5c1bdb995b9d60ba1b61233d565b6001600160a01b0316336001600160a01b031614610ffb5760405162461bcd60e51b81526004016107df90613596565b610dec6124ff565b61100b611d20565b610dec6000612529565b600061101f611d20565b600f54604051632dcbab6760e21b81526001600160a01b039091169063b72ead9c9061104f90899060040161342b565b60206040518083038186803b15801561106757600080fd5b505afa15801561107b573d6000803e3d6000fd5b505050506040513d601f19601f8201168201806040525081019061109f9190612b32565b61111257600f546040516310b4931f60e01b81526001600160801b031988166004820152600160248201526001600160a01b03909116906310b4931f90604401600060405180830381600087803b1580156110f957600080fd5b505af115801561110d573d6000803e3d6000fd5b505050505b600f5460405163c157c7c160e01b81526001600160a01b039091169063c157c7c190611146908a908a908a90600401613440565b60206040518083038186803b15801561115e57600080fd5b505afa158015611172573d6000803e3d6000fd5b505050506040513d601f19601f820116820180604052508101906111969190612b84565b600f5460405163d25f214b60e01b81529192506001600160a01b03169063d25f214b906111c790849060040161342b565b60006040518083038186803b1580156111df57600080fd5b505afa1580156111f3573d6000803e3d6000fd5b505050506040513d6000823e601f3d908101601f1916820160405261121b9190810190613221565b60e0015163ffffffff166112b757600f54604051637c37f24360e01b81526001600160a01b0390911690637c37f24390611263908a908a908a908a908a908a9060040161346d565b602060405180830381600087803b15801561127d57600080fd5b505af1158015611291573d6000803e3d6000fd5b505050506040513d601f19601f820116820180604052508101906112b59190612b84565b505b9695505050505050565b60608686868686866040516020016112de969594939291906134ba565b60405160208183030381529060405290509695505050505050565b600f54604051637ff873f760e01b815260009182916001600160a01b0390911690637ff873f79061132e90899060040161342b565b60006040518083038186803b15801561134657600080fd5b505afa15801561135a573d6000803e3d6000fd5b505050506040513d6000823e601f3d908101601f191682016040526113829190810190613038565b80519091506113d35760405162461bcd60e51b815260206004820152601c60248201527f4552524f523a4152432d3230303a434f4e4649475f494e56414c49440000000060448201526064016107df565b60008585600f60009054906101000a90046001600160a01b03166001600160a01b031663937c6e816040518163ffffffff1660e01b815260040160206040518083038186803b15801561142557600080fd5b505afa158015611439573d6000803e3d6000fd5b505050506040513d601f19601f8201168201806040525081019061145d9190612e61565b61146890600a6136a4565b6114729190613774565b61147c919061363e565b905060008260e00151821161149757506101008201516114c3565b82610120015182116114af57506101408201516114c3565b82610160015182116114c357506101808201515b806114d4576000935050505061157f565b600f60009054906101000a90046001600160a01b03166001600160a01b031663937c6e816040518163ffffffff1660e01b815260040160206040518083038186803b15801561152257600080fd5b505afa158015611536573d6000803e3d6000fd5b505050506040513d601f19601f8201168201806040525081019061155a9190612e61565b61156590600a6136a4565b61156f8683613774565b611579919061363e565b93505050505b949350505050565b600080546001600160a01b0316610c61565b6115a1611d20565b60006115ac82611d7a565b90506000815160038111156115d157634e487b7160e01b600052602160045260246000fd5b1461161e5760405162461bcd60e51b815260206004820152601f60248201527f4552524f523a4152432d3037303a53544154455f4e4f545f4150504c4945440060448201526064016107df565b61162782612579565b6040518281527fac202dcc548e1d12f4d9af356c4830f7a7dd3a8efab248c7ae37ada82951d80d9060200160405180910390a15050565b6000918252600c602090815260408084206001600160a01b0393909316845291905290205460ff1690565b600080610e78565b6000600e82815481106116b457634e487b7160e01b600052603260045260246000fd5b90600052602060002001549050919050565b6116ce611d20565b6116d781611f88565b6116e081612281565b6040518181527f7d9e3061f20069f35e07b4be6ebf4a1ad3b46b939d9333d7635ddb9af26af5329060200160405180910390a150565b6000806000611723611d20565b600061172e85611e34565b905060008151600281111561175357634e487b7160e01b600052602160045260246000fd5b146117a05760405162461bcd60e51b815260206004820152601e60248201527f4552524f523a4152432d3038303a53544154455f4e4f545f414354495645000060448201526064016107df565b6117a9856125aa565b919790965090945092505050565b6117cc6810dbdb5c1bdb995b9d60ba1b61233d565b6001600160a01b0316336001600160a01b0316146117fc5760405162461bcd60e51b81526004016107df90613596565b610dec6125f0565b60008060008060606000868060200190518101906118229190612d80565b949c939b5091995097509550909350915050565b61183e611d20565b600f5460405163f2fde38b60e01b81526001600160a01b0383811660048301529091169063f2fde38b906024015b600060405180830381600087803b15801561188657600080fd5b505af115801561189a573d6000803e3d6000fd5b5050505050565b6118b66810dbdb5c1bdb995b9d60ba1b61233d565b6001600160a01b0316336001600160a01b0316146118e65760405162461bcd60e51b81526004016107df90613596565b600255565b6000828152600c6020526040902060010154611906816123fc565b610ec8838361248c565b600061191a611d20565b600f5460405163c83b721160e01b81526000916001600160a01b03169063c83b72119061194b908d9060040161342b565b604080518083038186803b15801561196257600080fd5b505afa158015611976573d6000803e3d6000fd5b505050506040513d601f19601f8201168201806040525081019061199a9190612ff6565b516001600160a01b03161415611a2357600f546040516301fb68bd60e61b81526001600160801b03198b1660048201526001600160a01b038a8116602483015260ff8a16604483015290911690637eda2f4090606401600060405180830381600087803b158015611a0a57600080fd5b505af1158015611a1e573d6000803e3d6000fd5b505050505b600f5460405163c83b721160e01b81526000916001600160a01b03169063c83b721190611a54908d9060040161342b565b604080518083038186803b158015611a6b57600080fd5b505afa158015611a7f573d6000803e3d6000fd5b505050506040513d601f19601f82011682018060405250810190611aa39190612ff6565b600f5460405163d25f214b60e01b81529192506000916001600160a01b039091169063d25f214b90611ad9908b9060040161342b565b60006040518083038186803b158015611af157600080fd5b505afa158015611b05573d6000803e3d6000fd5b505050506040513d6000823e601f3d908101601f19168201604052611b2d9190810190613221565b8051909150611b7e5760405162461bcd60e51b815260206004820152601a60248201527f4552524f523a4152432d3032303a5249534b5f494e56414c494400000000000060448201526064016107df565b6000826000015190506000611ba38a8e8660200151866040015187606001518c6112c1565b9050611bc1828a8a604051806020016040528060008152508561261a565b9450600e8590806001815401808255809150506001900390600052602060002001600090919091909150557f1e96180df646636dce330acd78f3b55f574e5d709f9c2f429fc15e1a6bfda087858e848c8c604051611c549594939291909485526001600160801b03199390931660208501526001600160a01b039190911660408401526060830152608082015260a00190565b60405180910390a18515611c7157611c6b85610c66565b50611c7a565b611c7a85611599565b5050505098975050505050505050565b6000818152600d60205260408120610770906126a5565b60006001610e78565b611cb2611d20565b6001600160a01b038116611d175760405162461bcd60e51b815260206004820152602660248201527f4f776e61626c653a206e6577206f776e657220697320746865207a65726f206160448201526564647265737360d01b60648201526084016107df565b61072f81612529565b6000546001600160a01b03163314610dec5760405162461bcd60e51b815260206004820181905260248201527f4f776e61626c653a2063616c6c6572206973206e6f7420746865206f776e657260448201526064016107df565b611db46040805160c08101909152806000815260200160008152602001600081526020016060815260200160008152602001600081525090565b600b54604051632f141bd960e21b8152600481018490526001600160a01b039091169063bc506f649060240160006040518083038186803b158015611df857600080fd5b505afa158015611e0c573d6000803e3d6000fd5b505050506040513d6000823e601f3d908101601f191682016040526107709190810190612f4b565b611e84604080516101208101909152806000815260200160008152602001600081526020016000815260200160008152602001600081526020016000815260200160008152602001600081525090565b600b5460405163a3f685f960e01b8152600481018490526001600160a01b039091169063a3f685f9906024016101206040518083038186803b158015611ec957600080fd5b505afa158015611edd573d6000803e3d6000fd5b505050506040513d601f19601f82011682018060405250810190610770919061319c565b600a5460405163fae43d1560e01b81526000916001600160a01b03169063fae43d1590611f3690879087908790600401613511565b602060405180830381600087803b158015611f5057600080fd5b505af1158015611f64573d6000803e3d6000fd5b505050506040513d601f19601f8201168201806040525081019061157f9190612e61565b600a546040516318c882f360e31b8152600481018390526001600160a01b039091169063c64417989060240161186c565b611ff36040805160c08101909152806000815260200160008152602001600081526020016060815260200160008152602001600081525090565b600b54604051637f22c2d960e01b815260048101859052602481018490526001600160a01b0390911690637f22c2d99060440160006040518083038186803b15801561203e57600080fd5b505afa158015612052573d6000803e3d6000fd5b505050506040513d6000823e601f3d908101601f19168201604052610f639190810190612f4b565b600a54604051634e02c63f60e01b81526004810185905260248101849052604481018390526001600160a01b0390911690634e02c63f90606401600060405180830381600087803b1580156120ce57600080fd5b505af11580156120e2573d6000803e3d6000fd5b50505050505050565b600a54604051633c0ebc2360e11b81526000916001600160a01b03169063781d784690612122908890889088908890600401613530565b602060405180830381600087803b15801561213c57600080fd5b505af1158015612150573d6000803e3d6000fd5b505050506040513d601f19601f820116820180604052508101906121749190612e61565b95945050505050565b600a5460405163fe64372b60e01b8152600481018490526024810183905260009182916001600160a01b039091169063fe64372b906044016040805180830381600087803b1580156121ce57600080fd5b505af11580156121e2573d6000803e3d6000fd5b505050506040513d601f19601f820116820180604052508101906122069190613300565b909590945092505050565b600a54604051634cda0de960e01b815260048101849052602481018390526001600160a01b0390911690634cda0de990604401610b74565b600a54604051633f94edd160e11b815260048101849052602481018390526001600160a01b0390911690637f29dba290604401610b74565b600a54604051630e71e78360e21b8152600481018390526001600160a01b03909116906339c79e0c9060240161186c565b600a54604051631b07b17f60e01b8152600481018390526000916001600160a01b031690631b07b17f90602401602060405180830381600087803b1580156122f957600080fd5b505af115801561230d573d6000803e3d6000fd5b505050506040513d601f19601f820116820180604052508101906107709190612b32565b6000610f6383836126af565b600354604051631c2d8fb360e31b81526004810183905260009161010090046001600160a01b03169063e16c7d989060240160206040518083038186803b15801561238757600080fd5b505afa15801561239b573d6000803e3d6000fd5b505050506040513d601f19601f820116820180604052508101906107709190612b16565b7fb79d34516b55d664b61192aa41fbc0625b132fb7129bd3b3a31f46d1befa70616123e960025490565b60405190815260200160405180910390a1565b61072f81336126fe565b612410828261165e565b610f47576000828152600c602090815260408083206001600160a01b03851684529091529020805460ff191660011790556124483390565b6001600160a01b0316816001600160a01b0316837f2f8788117e7eff1d82e926ec794901d17c78024a50270940304540a733656f0d60405160405180910390a45050565b612496828261165e565b15610f47576000828152600c602090815260408083206001600160a01b0385168085529252808320805460ff1916905551339285917ff6391f5c32d9c69d2a47ea670b442974b53935d1edc7fd64eb21e047a839171b9190a45050565b6000610f638383612757565b7fcff3b7b8b07d4d8f74bf41f05737717140d5916781b9dff86ea0b996f2fdb9f96123e960025490565b600080546001600160a01b038381166001600160a01b0319831681178455604051919092169283917f8be0079c531659141344cd1fd0a4f28419497f9722a3daafe3b4186f6b6457e09190a35050565b600a54604051638cc7d3d160e01b8152600481018390526001600160a01b0390911690638cc7d3d19060240161186c565b6000806000806125b985611e34565b90508060200151816040015110156125e8576117a985826040015183602001516125e39190613793565b61278f565b509193909250565b7f38954b1d025d5a8ffcf9b42d431be2745cdcd05d32b0e5ad33ee2db025ef5b556123e960025490565b600a546040516349dc20a560e11b81526000916001600160a01b0316906393b8414a9061265390899089908990899089906004016133e0565b602060405180830381600087803b15801561266d57600080fd5b505af1158015612681573d6000803e3d6000fd5b505050506040513d601f19601f820116820180604052508101906112b79190612e61565b6000610770825490565b60008181526001830160205260408120546126f657508154600181810184556000848152602080822090930184905584548482528286019093526040902091909155610f66565b506000610f66565b612708828261165e565b610f475761271581612819565b61272083602061282b565b60405160200161273192919061336b565b60408051601f198184030181529082905262461bcd60e51b82526107df91600401613555565b600082600001828154811061277c57634e487b7160e01b600052603260045260246000fd5b9060005260206000200154905092915050565b600a5460405163e3ebdea560e01b81526004810184905260248101839052600091829182916001600160a01b03169063e3ebdea590604401606060405180830381600087803b1580156127e157600080fd5b505af11580156127f5573d6000803e3d6000fd5b505050506040513d601f19601f820116820180604052508101906117a99190612b4e565b60606107706001600160a01b03831660145b6060600061283a836002613774565b612845906002613626565b67ffffffffffffffff81111561286b57634e487b7160e01b600052604160045260246000fd5b6040519080825280601f01601f191660200182016040528015612895576020820181803683370190505b509050600360fc1b816000815181106128be57634e487b7160e01b600052603260045260246000fd5b60200101906001600160f81b031916908160001a905350600f60fb1b816001815181106128fb57634e487b7160e01b600052603260045260246000fd5b60200101906001600160f81b031916908160001a905350600061291f846002613774565b61292a906001613626565b90505b60018111156129be576f181899199a1a9b1b9c1cb0b131b232b360811b85600f166010811061296c57634e487b7160e01b600052603260045260246000fd5b1a60f81b82828151811061299057634e487b7160e01b600052603260045260246000fd5b60200101906001600160f81b031916908160001a90535060049490941c936129b7816137da565b905061292d565b508315610f635760405162461bcd60e51b815260206004820181905260248201527f537472696e67733a20686578206c656e67746820696e73756666696369656e7460448201526064016107df565b6000612a20612a1b846135fe565b6135cd565b9050828152838383011115612a3457600080fd5b828260208301376000602084830101529392505050565b805161077381613848565b805161077381613856565b600082601f830112612a71578081fd5b8151612a7f612a1b826135fe565b818152846020838601011115612a93578283fd5b61157f8260208301602087016137aa565b80516003811061077357600080fd5b600082601f830112612ac3578081fd5b610f6383833560208501612a0d565b805161ffff8116811461077357600080fd5b805161077381613879565b80516107738161388b565b600060208284031215612b0b578081fd5b8135610f6381613833565b600060208284031215612b27578081fd5b8151610f6381613833565b600060208284031215612b43578081fd5b8151610f6381613848565b600080600060608486031215612b62578182fd5b8351612b6d81613848565b602085015160409095015190969495509392505050565b600060208284031215612b95578081fd5b8151610f6381613856565b600080600080600080600080610100898b031215612bbc578586fd5b8835612bc781613856565b97506020890135612bd781613833565b96506040890135612be78161388b565b95506060890135612bf781613856565b94506080890135935060a0890135925060c0890135612c1581613879565b915060e0890135612c2581613848565b809150509295985092959890939650565b60008060408385031215612c48578182fd5b8235612c5381613856565b91506020830135612c6381613848565b809150509250929050565b60008060008060008060c08789031215612c86578384fd5b8635612c9181613856565b95506020870135612ca181613856565b9450604087013567ffffffffffffffff811115612cbc578485fd5b612cc889828a01612ab3565b945050606087013592506080870135915060a0870135612ce781613848565b809150509295509295509295565b60008060008060008060c08789031215612d0d578384fd5b8635612d1881613856565b95506020870135612d2881613856565b94506040870135612d388161388b565b93506060870135612d4881613856565b9250608087013567ffffffffffffffff811115612d63578283fd5b612d6f89828a01612ab3565b92505060a0870135612ce781613879565b60008060008060008060c08789031215612d98578384fd5b8651612da381613856565b6020880151909650612db481613856565b6040880151909550612dc58161388b565b6060880151909450612dd681613856565b608088015190935067ffffffffffffffff811115612df2578283fd5b612dfe89828a01612a61565b92505060a0870151612ce781613879565b60008060008060808587031215612e24578182fd5b8435612e2f81613856565b966020860135965060408601359560600135945092505050565b600060208284031215612e5a578081fd5b5035919050565b600060208284031215612e72578081fd5b5051919050565b60008060408385031215612e8b578182fd5b823591506020830135612c6381613833565b60008060408385031215612eaf578182fd5b50508035926020909101359150565b600060208284031215612ecf578081fd5b81356001600160e01b031981168114610f63578182fd5b600060208284031215612ef7578081fd5b813567ffffffffffffffff811115612f0d578182fd5b8201601f81018413612f1d578182fd5b61157f84823560208401612a0d565b600060208284031215612f3d578081fd5b815160078110610f63578182fd5b600060208284031215612f5c578081fd5b815167ffffffffffffffff80821115612f73578283fd5b9083019060c08286031215612f86578283fd5b612f9060c06135cd565b8251612f9b8161386c565b808252506020830151602082015260408301516040820152606083015182811115612fc4578485fd5b612fd087828601612a61565b6060830152506080830151608082015260a083015160a082015280935050505092915050565b600060408284031215613007578081fd5b61301160406135cd565b825161301c81613833565b8152602083015161302c8161388b565b60208201529392505050565b600060208284031215613049578081fd5b815167ffffffffffffffff80821115613060578283fd5b81840191506101e0808387031215613076578384fd5b61307f816135cd565b905061308a83612a4b565b815260208301518281111561309d578485fd5b6130a987828601612a61565b6020830152506130bb60408401612ad2565b60408201526130cc60608401612aef565b60608201526130dd60808401612aef565b608082015260a0830151828111156130f3578485fd5b6130ff87828601612a61565b60a08301525060c083015182811115613116578485fd5b61312287828601612a61565b60c08301525060e08381015190820152610100808401519082015261012080840151908201526101408084015190820152610160808401519082015261018080840151908201526101a09150613179828401612ae4565b828201526101c0915061318d828401612ae4565b91810191909152949350505050565b60006101208083850312156131af578182fd5b6131b8816135cd565b90506131c383612aa4565b81526020830151602082015260408301516040820152606083015160608201526080830151608082015260a083015160a082015260c083015160c082015260e083015160e08201526101008084015181830152508091505092915050565b600060208284031215613232578081fd5b815167ffffffffffffffff80821115613249578283fd5b818401915061012080838703121561325f578384fd5b613268816135cd565b905061327383612a4b565b815261328160208401612a56565b602082015261329260408401612a56565b60408201526060830151828111156132a8578485fd5b6132b487828601612a61565b6060830152506080830151608082015260a083015160a08201526132da60c08401612a4b565b60c08201526132eb60e08401612ae4565b60e0820152610100915061318d828401612ae4565b60008060408385031215613312578182fd5b505080516020909101519092909150565b600060208284031215613334578081fd5b8151610f638161388b565b600081518084526133578160208601602086016137aa565b601f01601f19169290920160200192915050565b60007f416363657373436f6e74726f6c3a206163636f756e7420000000000000000000825283516133a38160178501602088016137aa565b7001034b99036b4b9b9b4b733903937b6329607d1b60179184019182015283516133d48160288401602088016137aa565b01602801949350505050565b600060018060a01b038716825285602083015284604083015260a0606083015261340d60a083018561333f565b828103608084015261341f818561333f565b98975050505050505050565b6001600160801b031991909116815260200190565b60006001600160801b0319808616835280851660208401525060606040830152612174606083018461333f565b60006001600160801b0319808916835280881660208401525060c0604083015261349a60c083018761333f565b6060830195909552506080810192909252151560a0909101529392505050565b60006001600160801b03198089168352808816602084015260ff8716604084015280861660608401525060c060808301526134f860c083018561333f565b905063ffffffff831660a0830152979650505050505050565b600084825283602083015260606040830152612174606083018461333f565b6000858252846020830152836040830152608060608301526112b7608083018461333f565b600060208252610f63602083018461333f565b602081016007831061357c5761357c613807565b91905290565b602081016003831061357c5761357c613807565b6020808252601b908201527f4552524f523a434d502d3030323a4e4f545f434f4d504f4e454e540000000000604082015260600190565b604051601f8201601f1916810167ffffffffffffffff811182821017156135f6576135f661381d565b604052919050565b600067ffffffffffffffff8211156136185761361861381d565b50601f01601f191660200190565b60008219821115613639576136396137f1565b500190565b60008261365957634e487b7160e01b81526012600452602481fd5b500490565b80825b6001808611613670575061369b565b818704821115613682576136826137f1565b8086161561368f57918102915b9490941c938002613661565b94509492505050565b6000610f6360001984846000826136bd5750600161376d565b816136ca5750600061376d565b81600181146136e057600281146136ea57613717565b600191505061376d565b60ff8411156136fb576136fb6137f1565b6001841b915084821115613711576137116137f1565b5061376d565b5060208310610133831016604e8410600b841016171561374a575081810a83811115613745576137456137f1565b61376d565b613757848484600161365e565b808604821115613769576137696137f1565b0290505b9392505050565b600081600019048311821515161561378e5761378e6137f1565b500290565b6000828210156137a5576137a56137f1565b500390565b60005b838110156137c55781810151838201526020016137ad565b838111156137d4576000848401525b50505050565b6000816137e9576137e96137f1565b506000190190565b634e487b7160e01b600052601160045260246000fd5b634e487b7160e01b600052602160045260246000fd5b634e487b7160e01b600052604160045260246000fd5b6001600160a01b038116811461072f57600080fd5b801515811461072f57600080fd5b6001600160801b03198116811461072f57600080fd5b6004811061072f57600080fd5b63ffffffff8116811461072f57600080fd5b60ff8116811461072f57600080fdfea2646970667358221220632fd0bfb4884316e688aa8e9014188b286bf40446bf0bb2f818e0ef2bf81be664736f6c63430008020033",
  "bytecodeSha1": "295e8cbf4bef697e02f1254c0dd2cca661b9b32a",
  "compiler": {
    "evm_version": "istanbul",
    "optimizer": {
      "enabled": true,
      "runs": 200
    },
    "version": "0.8.2+commit.661d1103"
  },
  "contractName": "ArcProduct",
  "language": "Solidity",
  "natspec": {
    "kind": "dev",
    "methods": {
      "getRoleAdmin(bytes32)": {
        "details": "Returns the admin role that controls `role`. See {grantRole} and {revokeRole}. To change a role's admin, use {_setRoleAdmin}."
      },
      "grantRole(bytes32,address)": {
        "details": "Grants `role` to `account`. If `account` had not been already granted `role`, emits a {RoleGranted} event. Requirements: - the caller must have ``role``'s admin role. May emit a {RoleGranted} event."
      },
      "hasRole(bytes32,address)": {
        "details": "Returns `true` if `account` has been granted `role`."
      },
      "owner()": {
        "details": "Returns the address of the current owner."
      },
      "renounceOwnership()": {
        "details": "Leaves the contract without owner. It will not be possible to call `onlyOwner` functions anymore. Can only be called by the current owner. NOTE: Renouncing ownership will leave the contract without an owner, thereby removing any functionality that is only available to the owner."
      },
      "renounceRole(bytes32,address)": {
        "details": "Revokes `role` from the calling account. Roles are often managed via {grantRole} and {revokeRole}: this function's purpose is to provide a mechanism for accounts to lose their privileges if they are compromised (such as when a trusted device is misplaced). If the calling account had been revoked `role`, emits a {RoleRevoked} event. Requirements: - the caller must be `account`. May emit a {RoleRevoked} event."
      },
      "revokeRole(bytes32,address)": {
        "details": "Revokes `role` from `account`. If `account` had been granted `role`, emits a {RoleRevoked} event. Requirements: - the caller must have ``role``'s admin role. May emit a {RoleRevoked} event."
      },
      "supportsInterface(bytes4)": {
        "details": "See {IERC165-supportsInterface}."
      },
      "transferOwnership(address)": {
        "details": "Transfers ownership of the contract to a new account (`newOwner`). Can only be called by the current owner."
      }
    },
    "version": 1
  },
  "opcodes": "PUSH1 0x80 PUSH1 0x40 MSTORE CALLVALUE DUP1 ISZERO PUSH2 0x10 JUMPI PUSH1 0x0 DUP1 REVERT JUMPDEST POP PUSH1 0x4 CALLDATASIZE LT PUSH2 0x383 JUMPI PUSH1 0x0 CALLDATALOAD PUSH1 0xE0 SHR DUP1 PUSH4 0x864EEF50 GT PUSH2 0x1DE JUMPI DUP1 PUSH4 0xB3FCA9BD GT PUSH2 0x10F JUMPI DUP1 PUSH4 0xD547741F GT PUSH2 0xAD JUMPI DUP1 PUSH4 0xE0815F0D GT PUSH2 0x7C JUMPI DUP1 PUSH4 0xE0815F0D EQ PUSH2 0x706 JUMPI DUP1 PUSH4 0xF2FDE38B EQ PUSH2 0x70E JUMPI DUP1 PUSH4 0xF4FDC1FA EQ PUSH2 0x721 JUMPI DUP1 PUSH4 0xFFA1AD74 EQ PUSH2 0x732 JUMPI PUSH2 0x383 JUMP JUMPDEST DUP1 PUSH4 0xD547741F EQ PUSH2 0x6CD JUMPI DUP1 PUSH4 0xD73CD992 EQ PUSH2 0x50D JUMPI DUP1 PUSH4 0xDB5BB62B EQ PUSH2 0x6E0 JUMPI DUP1 PUSH4 0xDDBFD8EF EQ PUSH2 0x6F3 JUMPI PUSH2 0x383 JUMP JUMPDEST DUP1 PUSH4 0xBE169E7E GT PUSH2 0xE9 JUMPI DUP1 PUSH4 0xBE169E7E EQ PUSH2 0x50D JUMPI DUP1 PUSH4 0xC1277506 EQ PUSH2 0x682 JUMPI DUP1 PUSH4 0xCC946366 EQ PUSH2 0x6A7 JUMPI DUP1 PUSH4 0xD0E0BA95 EQ PUSH2 0x6BA JUMPI PUSH2 0x383 JUMP JUMPDEST DUP1 PUSH4 0xB3FCA9BD EQ PUSH2 0x50D JUMPI DUP1 PUSH4 0xB9EA8D66 EQ PUSH2 0x64A JUMPI DUP1 PUSH4 0xBD1FE5D0 EQ PUSH2 0x67A JUMPI PUSH2 0x383 JUMP JUMPDEST DUP1 PUSH4 0x9B04ED30 GT PUSH2 0x17C JUMPI DUP1 PUSH4 0xA217FDDF GT PUSH2 0x156 JUMPI DUP1 PUSH4 0xA217FDDF EQ PUSH2 0x60E JUMPI DUP1 PUSH4 0xA3F4DF7E EQ PUSH2 0x616 JUMPI DUP1 PUSH4 0xA427056E EQ PUSH2 0x62F JUMPI DUP1 PUSH4 0xADCADB28 EQ PUSH2 0x637 JUMPI PUSH2 0x383 JUMP JUMPDEST DUP1 PUSH4 0x9B04ED30 EQ PUSH2 0x5EA JUMPI DUP1 PUSH4 0xA0BFA1E0 EQ PUSH2 0x5FD JUMPI DUP1 PUSH4 0xA18F5AE2 EQ PUSH2 0x50D JUMPI PUSH2 0x383 JUMP JUMPDEST DUP1 PUSH4 0x8DA5CB5B GT PUSH2 0x1B8 JUMPI DUP1 PUSH4 0x8DA5CB5B EQ PUSH2 0x5BE JUMPI DUP1 PUSH4 0x91D14854 EQ PUSH2 0x5CF JUMPI DUP1 PUSH4 0x94F64FF4 EQ PUSH2 0x4DD JUMPI DUP1 PUSH4 0x9A82F890 EQ PUSH2 0x5E2 JUMPI PUSH2 0x383 JUMP JUMPDEST DUP1 PUSH4 0x864EEF50 EQ PUSH2 0x590 JUMPI DUP1 PUSH4 0x893D20E8 EQ PUSH2 0x5A3 JUMPI DUP1 PUSH4 0x8CC7D3D1 EQ PUSH2 0x5AB JUMPI PUSH2 0x383 JUMP JUMPDEST DUP1 PUSH4 0x2F2FF15D GT PUSH2 0x2B8 JUMPI DUP1 PUSH4 0x5D1CA631 GT PUSH2 0x256 JUMPI DUP1 PUSH4 0x70D2FE53 GT PUSH2 0x230 JUMPI DUP1 PUSH4 0x70D2FE53 EQ PUSH2 0x54D JUMPI DUP1 PUSH4 0x715018A6 EQ PUSH2 0x555 JUMPI DUP1 PUSH4 0x7C37F243 EQ PUSH2 0x55D JUMPI DUP1 PUSH4 0x83639896 EQ PUSH2 0x57D JUMPI PUSH2 0x383 JUMP JUMPDEST DUP1 PUSH4 0x5D1CA631 EQ PUSH2 0x52C JUMPI DUP1 PUSH4 0x637D08F4 EQ PUSH2 0x534 JUMPI DUP1 PUSH4 0x638CE0BA EQ PUSH2 0x545 JUMPI PUSH2 0x383 JUMP JUMPDEST DUP1 PUSH4 0x3EC92BDA GT PUSH2 0x292 JUMPI DUP1 PUSH4 0x3EC92BDA EQ PUSH2 0x4DD JUMPI DUP1 PUSH4 0x412F91D9 EQ PUSH2 0x4FA JUMPI DUP1 PUSH4 0x59DACC6A EQ PUSH2 0x50D JUMPI DUP1 PUSH4 0x5AB1BD53 EQ PUSH2 0x515 JUMPI PUSH2 0x383 JUMP JUMPDEST DUP1 PUSH4 0x2F2FF15D EQ PUSH2 0x4B7 JUMPI DUP1 PUSH4 0x36568ABE EQ PUSH2 0x4CA JUMPI DUP1 PUSH4 0x39CF5E16 EQ PUSH2 0x4DD JUMPI PUSH2 0x383 JUMP JUMPDEST DUP1 PUSH4 0x1865C57D GT PUSH2 0x325 JUMPI DUP1 PUSH4 0x21DF0DA7 GT PUSH2 0x2FF JUMPI DUP1 PUSH4 0x21DF0DA7 EQ PUSH2 0x45F JUMPI DUP1 PUSH4 0x248A9CA3 EQ PUSH2 0x484 JUMPI DUP1 PUSH4 0x24F65EE7 EQ PUSH2 0x4A7 JUMPI DUP1 PUSH4 0x258D560C EQ PUSH2 0x4AF JUMPI PUSH2 0x383 JUMP JUMPDEST DUP1 PUSH4 0x1865C57D EQ PUSH2 0x42F JUMPI DUP1 PUSH4 0x1B07B17F EQ PUSH2 0x444 JUMPI DUP1 PUSH4 0x1B867C63 EQ PUSH2 0x457 JUMPI PUSH2 0x383 JUMP JUMPDEST DUP1 PUSH4 0x10B4931F GT PUSH2 0x361 JUMPI DUP1 PUSH4 0x10B4931F EQ PUSH2 0x3EC JUMPI DUP1 PUSH4 0x11C16896 EQ PUSH2 0x401 JUMPI DUP1 PUSH4 0x15DAE03E EQ PUSH2 0x414 JUMPI DUP1 PUSH4 0x17D7DE7C EQ PUSH2 0x427 JUMPI PUSH2 0x383 JUMP JUMPDEST DUP1 PUSH4 0x1FFC9A7 EQ PUSH2 0x388 JUMPI DUP1 PUSH4 0x9128D83 EQ PUSH2 0x3B0 JUMPI DUP1 PUSH4 0xB228D95 EQ PUSH2 0x3D9 JUMPI JUMPDEST PUSH1 0x0 DUP1 REVERT JUMPDEST PUSH2 0x39B PUSH2 0x396 CALLDATASIZE PUSH1 0x4 PUSH2 0x2EBE JUMP JUMPDEST PUSH2 0x73F JUMP JUMPDEST PUSH1 0x40 MLOAD SWAP1 ISZERO ISZERO DUP2 MSTORE PUSH1 0x20 ADD JUMPDEST PUSH1 0x40 MLOAD DUP1 SWAP2 SUB SWAP1 RETURN JUMPDEST PUSH2 0x3CB PUSH17 0x506F6C69637944656661756C74466C6F77 PUSH1 0x78 SHL DUP2 JUMP JUMPDEST PUSH1 0x40 MLOAD SWAP1 DUP2 MSTORE PUSH1 0x20 ADD PUSH2 0x3A7 JUMP JUMPDEST PUSH2 0x3CB PUSH2 0x3E7 CALLDATASIZE PUSH1 0x4 PUSH2 0x2E49 JUMP JUMPDEST PUSH2 0x778 JUMP JUMPDEST PUSH2 0x3FF PUSH2 0x3FA CALLDATASIZE PUSH1 0x4 PUSH2 0x2C36 JUMP JUMPDEST PUSH2 0xB2E JUMP JUMPDEST STOP JUMPDEST PUSH2 0x39B PUSH2 0x40F CALLDATASIZE PUSH1 0x4 PUSH2 0x2E49 JUMP JUMPDEST PUSH2 0xBAA JUMP JUMPDEST PUSH1 0x3 SLOAD PUSH1 0xFF AND PUSH1 0x40 MLOAD PUSH2 0x3A7 SWAP2 SWAP1 PUSH2 0x3582 JUMP JUMPDEST PUSH1 0x1 SLOAD PUSH2 0x3CB JUMP JUMPDEST PUSH2 0x437 PUSH2 0xBE0 JUMP JUMPDEST PUSH1 0x40 MLOAD PUSH2 0x3A7 SWAP2 SWAP1 PUSH2 0x3568 JUMP JUMPDEST PUSH2 0x39B PUSH2 0x452 CALLDATASIZE PUSH1 0x4 PUSH2 0x2E49 JUMP JUMPDEST PUSH2 0xC66 JUMP JUMPDEST PUSH2 0x3FF PUSH2 0xD9F JUMP JUMPDEST PUSH1 0x8 SLOAD PUSH1 0x1 PUSH1 0x1 PUSH1 0xA0 SHL SUB AND JUMPDEST PUSH1 0x40 MLOAD PUSH1 0x1 PUSH1 0x1 PUSH1 0xA0 SHL SUB SWAP1 SWAP2 AND DUP2 MSTORE PUSH1 0x20 ADD PUSH2 0x3A7 JUMP JUMPDEST PUSH2 0x3CB PUSH2 0x492 CALLDATASIZE PUSH1 0x4 PUSH2 0x2E49 JUMP JUMPDEST PUSH1 0x0 SWAP1 DUP2 MSTORE PUSH1 0xC PUSH1 0x20 MSTORE PUSH1 0x40 SWAP1 KECCAK256 PUSH1 0x1 ADD SLOAD SWAP1 JUMP JUMPDEST PUSH2 0x3CB PUSH2 0xDEE JUMP JUMPDEST PUSH2 0x39B PUSH2 0xE73 JUMP JUMPDEST PUSH2 0x3FF PUSH2 0x4C5 CALLDATASIZE PUSH1 0x4 PUSH2 0x2E79 JUMP JUMPDEST PUSH2 0xEA3 JUMP JUMPDEST PUSH2 0x3FF PUSH2 0x4D8 CALLDATASIZE PUSH1 0x4 PUSH2 0x2E79 JUMP JUMPDEST PUSH2 0xECD JUMP JUMPDEST PUSH1 0x40 DUP1 MLOAD PUSH1 0x20 DUP2 ADD SWAP1 SWAP2 MSTORE PUSH1 0x0 DUP2 MSTORE JUMPDEST PUSH1 0x40 MLOAD PUSH2 0x3A7 SWAP2 SWAP1 PUSH2 0x3555 JUMP JUMPDEST PUSH2 0x3CB PUSH2 0x508 CALLDATASIZE PUSH1 0x4 PUSH2 0x2E9D JUMP JUMPDEST PUSH2 0xF4B JUMP JUMPDEST PUSH2 0x3FF PUSH2 0xF6C JUMP JUMPDEST PUSH2 0x46C PUSH1 0x3 SLOAD PUSH2 0x100 SWAP1 DIV PUSH1 0x1 PUSH1 0x1 PUSH1 0xA0 SHL SUB AND SWAP1 JUMP JUMPDEST PUSH1 0x2 SLOAD PUSH2 0x3CB JUMP JUMPDEST PUSH1 0x7 SLOAD PUSH1 0x1 PUSH1 0x1 PUSH1 0xA0 SHL SUB AND PUSH2 0x46C JUMP JUMPDEST PUSH2 0x3FF PUSH2 0xFB6 JUMP JUMPDEST PUSH1 0x9 SLOAD PUSH2 0x3CB JUMP JUMPDEST PUSH2 0x3FF PUSH2 0x1003 JUMP JUMPDEST PUSH2 0x570 PUSH2 0x56B CALLDATASIZE PUSH1 0x4 PUSH2 0x2C6E JUMP JUMPDEST PUSH2 0x1015 JUMP JUMPDEST PUSH1 0x40 MLOAD PUSH2 0x3A7 SWAP2 SWAP1 PUSH2 0x342B JUMP JUMPDEST PUSH2 0x4ED PUSH2 0x58B CALLDATASIZE PUSH1 0x4 PUSH2 0x2CF5 JUMP JUMPDEST PUSH2 0x12C1 JUMP JUMPDEST PUSH2 0x3CB PUSH2 0x59E CALLDATASIZE PUSH1 0x4 PUSH2 0x2E0F JUMP JUMPDEST PUSH2 0x12F9 JUMP JUMPDEST PUSH2 0x46C PUSH2 0x1587 JUMP JUMPDEST PUSH2 0x3FF PUSH2 0x5B9 CALLDATASIZE PUSH1 0x4 PUSH2 0x2E49 JUMP JUMPDEST PUSH2 0x1599 JUMP JUMPDEST PUSH1 0x0 SLOAD PUSH1 0x1 PUSH1 0x1 PUSH1 0xA0 SHL SUB AND PUSH2 0x46C JUMP JUMPDEST PUSH2 0x39B PUSH2 0x5DD CALLDATASIZE PUSH1 0x4 PUSH2 0x2E79 JUMP JUMPDEST PUSH2 0x165E JUMP JUMPDEST PUSH2 0x39B PUSH2 0x1689 JUMP JUMPDEST PUSH2 0x3CB PUSH2 0x5F8 CALLDATASIZE PUSH1 0x4 PUSH2 0x2E49 JUMP JUMPDEST PUSH2 0x1691 JUMP JUMPDEST PUSH1 0xF SLOAD PUSH1 0x1 PUSH1 0x1 PUSH1 0xA0 SHL SUB AND PUSH2 0x46C JUMP JUMPDEST PUSH2 0x3CB PUSH1 0x0 DUP2 JUMP JUMPDEST PUSH2 0x3CB PUSH15 0x105C98D25B99195E141C9BD91D58DD PUSH1 0x8A SHL DUP2 JUMP JUMPDEST PUSH1 0xE SLOAD PUSH2 0x3CB JUMP JUMPDEST PUSH2 0x3FF PUSH2 0x645 CALLDATASIZE PUSH1 0x4 PUSH2 0x2E49 JUMP JUMPDEST PUSH2 0x16C6 JUMP JUMPDEST PUSH2 0x65D PUSH2 0x658 CALLDATASIZE PUSH1 0x4 PUSH2 0x2E49 JUMP JUMPDEST PUSH2 0x1716 JUMP JUMPDEST PUSH1 0x40 DUP1 MLOAD SWAP4 ISZERO ISZERO DUP5 MSTORE PUSH1 0x20 DUP5 ADD SWAP3 SWAP1 SWAP3 MSTORE SWAP1 DUP3 ADD MSTORE PUSH1 0x60 ADD PUSH2 0x3A7 JUMP JUMPDEST PUSH2 0x3FF PUSH2 0x17B7 JUMP JUMPDEST PUSH2 0x695 PUSH2 0x690 CALLDATASIZE PUSH1 0x4 PUSH2 0x2EE6 JUMP JUMPDEST PUSH2 0x1804 JUMP JUMPDEST PUSH1 0x40 MLOAD PUSH2 0x3A7 SWAP7 SWAP6 SWAP5 SWAP4 SWAP3 SWAP2 SWAP1 PUSH2 0x34BA JUMP JUMPDEST PUSH2 0x3FF PUSH2 0x6B5 CALLDATASIZE PUSH1 0x4 PUSH2 0x2AFA JUMP JUMPDEST PUSH2 0x1836 JUMP JUMPDEST PUSH2 0x3FF PUSH2 0x6C8 CALLDATASIZE PUSH1 0x4 PUSH2 0x2E49 JUMP JUMPDEST PUSH2 0x18A1 JUMP JUMPDEST PUSH2 0x3FF PUSH2 0x6DB CALLDATASIZE PUSH1 0x4 PUSH2 0x2E79 JUMP JUMPDEST PUSH2 0x18EB JUMP JUMPDEST PUSH2 0x3CB PUSH2 0x6EE CALLDATASIZE PUSH1 0x4 PUSH2 0x2BA0 JUMP JUMPDEST PUSH2 0x1910 JUMP JUMPDEST PUSH2 0x3CB PUSH2 0x701 CALLDATASIZE PUSH1 0x4 PUSH2 0x2E49 JUMP JUMPDEST PUSH2 0x1C8A JUMP JUMPDEST PUSH2 0x39B PUSH2 0x1CA1 JUMP JUMPDEST PUSH2 0x3FF PUSH2 0x71C CALLDATASIZE PUSH1 0x4 PUSH2 0x2AFA JUMP JUMPDEST PUSH2 0x1CAA JUMP JUMPDEST PUSH2 0x3FF PUSH2 0x72F CALLDATASIZE PUSH1 0x4 PUSH2 0x2E49 JUMP JUMPDEST POP JUMP JUMPDEST PUSH2 0x3CB PUSH3 0x302E31 PUSH1 0xE8 SHL DUP2 JUMP JUMPDEST PUSH1 0x0 PUSH1 0x1 PUSH1 0x1 PUSH1 0xE0 SHL SUB NOT DUP3 AND PUSH4 0x7965DB0B PUSH1 0xE0 SHL EQ DUP1 PUSH2 0x770 JUMPI POP PUSH4 0x1FFC9A7 PUSH1 0xE0 SHL PUSH1 0x1 PUSH1 0x1 PUSH1 0xE0 SHL SUB NOT DUP4 AND EQ JUMPDEST SWAP1 POP JUMPDEST SWAP2 SWAP1 POP JUMP JUMPDEST PUSH1 0x0 PUSH2 0x782 PUSH2 0x1D20 JUMP JUMPDEST PUSH1 0x0 PUSH2 0x78D DUP4 PUSH2 0x1D7A JUMP JUMPDEST SWAP1 POP PUSH1 0x0 DUP2 PUSH1 0x80 ADD MLOAD GT PUSH2 0x7E8 JUMPI PUSH1 0x40 MLOAD PUSH3 0x461BCD PUSH1 0xE5 SHL DUP2 MSTORE PUSH1 0x20 PUSH1 0x4 DUP3 ADD DUP2 SWAP1 MSTORE PUSH1 0x24 DUP3 ADD MSTORE PUSH32 0x4552524F523A4152432D3130303A50524F434553535F49445F494E56414C4944 PUSH1 0x44 DUP3 ADD MSTORE PUSH1 0x64 ADD JUMPDEST PUSH1 0x40 MLOAD DUP1 SWAP2 SUB SWAP1 REVERT JUMPDEST PUSH1 0x0 PUSH2 0x7F7 DUP3 PUSH1 0x60 ADD MLOAD PUSH2 0x1804 JUMP JUMPDEST POP POP PUSH1 0xF SLOAD PUSH1 0x40 MLOAD PUSH4 0xD25F214B PUSH1 0xE0 SHL DUP2 MSTORE SWAP5 SWAP6 POP PUSH1 0x0 SWAP5 PUSH1 0x1 PUSH1 0x1 PUSH1 0xA0 SHL SUB SWAP1 SWAP2 AND SWAP4 POP PUSH4 0xD25F214B SWAP3 POP PUSH2 0x832 SWAP2 POP DUP6 SWAP1 PUSH1 0x4 ADD PUSH2 0x342B JUMP JUMPDEST PUSH1 0x0 PUSH1 0x40 MLOAD DUP1 DUP4 SUB DUP2 DUP7 DUP1 EXTCODESIZE ISZERO DUP1 ISZERO PUSH2 0x84A JUMPI PUSH1 0x0 DUP1 REVERT JUMPDEST POP GAS STATICCALL ISZERO DUP1 ISZERO PUSH2 0x85E JUMPI RETURNDATASIZE PUSH1 0x0 DUP1 RETURNDATACOPY RETURNDATASIZE PUSH1 0x0 REVERT JUMPDEST POP POP POP POP PUSH1 0x40 MLOAD RETURNDATASIZE PUSH1 0x0 DUP3 RETURNDATACOPY PUSH1 0x1F RETURNDATASIZE SWAP1 DUP2 ADD PUSH1 0x1F NOT AND DUP3 ADD PUSH1 0x40 MSTORE PUSH2 0x886 SWAP2 SWAP1 DUP2 ADD SWAP1 PUSH2 0x3221 JUMP JUMPDEST DUP1 MLOAD SWAP1 SWAP2 POP PUSH2 0x8D7 JUMPI PUSH1 0x40 MLOAD PUSH3 0x461BCD PUSH1 0xE5 SHL DUP2 MSTORE PUSH1 0x20 PUSH1 0x4 DUP3 ADD MSTORE PUSH1 0x1D PUSH1 0x24 DUP3 ADD MSTORE PUSH32 0x4552524F523A4152432D3130313A5249534B5F49445F494E56414C4944000000 PUSH1 0x44 DUP3 ADD MSTORE PUSH1 0x64 ADD PUSH2 0x7DF JUMP JUMPDEST PUSH1 0x0 PUSH2 0x8E2 DUP7 PUSH2 0x1E34 JUMP JUMPDEST SWAP1 POP PUSH1 0x0 DUP2 PUSH1 0xE0 ADD MLOAD GT PUSH2 0x938 JUMPI PUSH1 0x40 MLOAD PUSH3 0x461BCD PUSH1 0xE5 SHL DUP2 MSTORE PUSH1 0x20 PUSH1 0x4 DUP3 ADD DUP2 SWAP1 MSTORE PUSH1 0x24 DUP3 ADD MSTORE PUSH32 0x4552524F523A4152432D3130323A504F4C4943595F554E415641494C41424C45 PUSH1 0x44 DUP3 ADD MSTORE PUSH1 0x64 ADD PUSH2 0x7DF JUMP JUMPDEST PUSH1 0x60 DUP2 ADD MLOAD PUSH2 0x992 JUMPI PUSH1 0x0 PUSH1 0x40 MLOAD DUP1 PUSH1 0x20 ADD PUSH1 0x40 MSTORE DUP1 PUSH1 0x0 DUP2 MSTORE POP SWAP1 POP PUSH1 0x0 PUSH2 0x973 DUP5 PUSH1 0x20 ADD MLOAD DUP6 PUSH1 0x80 ADD MLOAD DUP7 PUSH1 0xA0 ADD MLOAD DUP10 PUSH1 0x40 ADD MLOAD PUSH2 0x12F9 JUMP JUMPDEST SWAP1 POP PUSH2 0x980 DUP9 DUP3 DUP5 PUSH2 0x1F01 JUMP JUMPDEST SWAP7 POP PUSH2 0x98B DUP9 PUSH2 0x1F88 JUMP JUMPDEST POP POP PUSH2 0x997 JUMP JUMPDEST PUSH1 0x0 SWAP5 POP JUMPDEST PUSH1 0x0 PUSH2 0x9A3 DUP8 DUP8 PUSH2 0x1FB9 JUMP JUMPDEST SWAP1 POP PUSH1 0x0 DUP2 PUSH1 0x80 ADD MLOAD GT PUSH2 0x9F9 JUMPI PUSH1 0x40 MLOAD PUSH3 0x461BCD PUSH1 0xE5 SHL DUP2 MSTORE PUSH1 0x20 PUSH1 0x4 DUP3 ADD MSTORE PUSH1 0x1F PUSH1 0x24 DUP3 ADD MSTORE PUSH32 0x4552524F523A4152432D3130333A434C41494D5F554E415641494C41424C4500 PUSH1 0x44 DUP3 ADD MSTORE PUSH1 0x64 ADD PUSH2 0x7DF JUMP JUMPDEST PUSH1 0x3 DUP2 MLOAD PUSH1 0x3 DUP2 GT ISZERO PUSH2 0xA1C JUMPI PUSH4 0x4E487B71 PUSH1 0xE0 SHL PUSH1 0x0 MSTORE PUSH1 0x21 PUSH1 0x4 MSTORE PUSH1 0x24 PUSH1 0x0 REVERT JUMPDEST EQ ISZERO PUSH2 0xA2C JUMPI POP POP POP POP POP PUSH2 0x773 JUMP JUMPDEST PUSH1 0x0 DUP2 MLOAD PUSH1 0x3 DUP2 GT ISZERO PUSH2 0xA4F JUMPI PUSH4 0x4E487B71 PUSH1 0xE0 SHL PUSH1 0x0 MSTORE PUSH1 0x21 PUSH1 0x4 MSTORE PUSH1 0x24 PUSH1 0x0 REVERT JUMPDEST EQ DUP1 ISZERO PUSH2 0xA5D JUMPI POP DUP3 PUSH1 0xC0 ADD MLOAD JUMPDEST ISZERO PUSH2 0xB24 JUMPI PUSH1 0x0 PUSH2 0xA80 DUP5 PUSH1 0x20 ADD MLOAD DUP6 PUSH1 0x80 ADD MLOAD DUP7 PUSH1 0xA0 ADD MLOAD DUP10 PUSH1 0x40 ADD MLOAD PUSH2 0x12F9 JUMP JUMPDEST SWAP1 POP DUP1 ISZERO PUSH2 0xAC4 JUMPI PUSH2 0xA93 DUP9 DUP9 DUP4 PUSH2 0x207A JUMP JUMPDEST PUSH1 0x40 DUP1 MLOAD PUSH1 0x20 DUP2 ADD SWAP1 SWAP2 MSTORE PUSH1 0x0 DUP1 DUP3 MSTORE PUSH2 0xAAF DUP11 DUP11 DUP6 DUP6 PUSH2 0x20EB JUMP JUMPDEST SWAP1 POP PUSH2 0xABB DUP11 DUP3 PUSH2 0x217D JUMP JUMPDEST POP POP POP POP PUSH2 0xAD8 JUMP JUMPDEST PUSH2 0xACE DUP9 DUP9 PUSH2 0x2211 JUMP JUMPDEST PUSH2 0xAD8 DUP9 DUP9 PUSH2 0x2249 JUMP JUMPDEST PUSH2 0xAE1 DUP9 PUSH2 0x2281 JUMP JUMPDEST PUSH1 0x40 DUP1 MLOAD DUP10 DUP2 MSTORE PUSH1 0x20 DUP2 ADD DUP10 SWAP1 MSTORE SWAP1 DUP2 ADD DUP3 SWAP1 MSTORE PUSH32 0xB2756E4130183C01903EB299860039617BFD7168D26755C6ACFD251BA28E78D6 SWAP1 PUSH1 0x60 ADD PUSH1 0x40 MLOAD DUP1 SWAP2 SUB SWAP1 LOG1 POP JUMPDEST POP POP POP POP POP SWAP2 SWAP1 POP JUMP JUMPDEST PUSH2 0xB36 PUSH2 0x1D20 JUMP JUMPDEST PUSH1 0xF SLOAD PUSH1 0x40 MLOAD PUSH4 0x10B4931F PUSH1 0xE0 SHL DUP2 MSTORE PUSH1 0x1 PUSH1 0x1 PUSH1 0x80 SHL SUB NOT DUP5 AND PUSH1 0x4 DUP3 ADD MSTORE DUP3 ISZERO ISZERO PUSH1 0x24 DUP3 ADD MSTORE PUSH1 0x1 PUSH1 0x1 PUSH1 0xA0 SHL SUB SWAP1 SWAP2 AND SWAP1 PUSH4 0x10B4931F SWAP1 PUSH1 0x44 ADD JUMPDEST PUSH1 0x0 PUSH1 0x40 MLOAD DUP1 DUP4 SUB DUP2 PUSH1 0x0 DUP8 DUP1 EXTCODESIZE ISZERO DUP1 ISZERO PUSH2 0xB8E JUMPI PUSH1 0x0 DUP1 REVERT JUMPDEST POP GAS CALL ISZERO DUP1 ISZERO PUSH2 0xBA2 JUMPI RETURNDATASIZE PUSH1 0x0 DUP1 RETURNDATACOPY RETURNDATASIZE PUSH1 0x0 REVERT JUMPDEST POP POP POP POP POP POP JUMP JUMPDEST PUSH1 0x0 PUSH1 0x3 PUSH2 0xBB9 DUP4 PUSH1 0x0 PUSH2 0x1FB9 JUMP JUMPDEST MLOAD PUSH1 0x3 DUP2 GT ISZERO PUSH2 0xBD9 JUMPI PUSH4 0x4E487B71 PUSH1 0xE0 SHL PUSH1 0x0 MSTORE PUSH1 0x21 PUSH1 0x4 MSTORE PUSH1 0x24 PUSH1 0x0 REVERT JUMPDEST EQ SWAP3 SWAP2 POP POP JUMP JUMPDEST PUSH1 0x6 SLOAD PUSH1 0x2 SLOAD PUSH1 0x40 MLOAD PUSH4 0x5E966E45 PUSH1 0xE0 SHL DUP2 MSTORE PUSH1 0x4 DUP2 ADD SWAP2 SWAP1 SWAP2 MSTORE PUSH1 0x0 SWAP2 PUSH1 0x1 PUSH1 0x1 PUSH1 0xA0 SHL SUB AND SWAP1 PUSH4 0x5E966E45 SWAP1 PUSH1 0x24 ADD PUSH1 0x20 PUSH1 0x40 MLOAD DUP1 DUP4 SUB DUP2 DUP7 DUP1 EXTCODESIZE ISZERO DUP1 ISZERO PUSH2 0xC29 JUMPI PUSH1 0x0 DUP1 REVERT JUMPDEST POP GAS STATICCALL ISZERO DUP1 ISZERO PUSH2 0xC3D JUMPI RETURNDATASIZE PUSH1 0x0 DUP1 RETURNDATACOPY RETURNDATASIZE PUSH1 0x0 REVERT JUMPDEST POP POP POP POP PUSH1 0x40 MLOAD RETURNDATASIZE PUSH1 0x1F NOT PUSH1 0x1F DUP3 ADD AND DUP3 ADD DUP1 PUSH1 0x40 MSTORE POP DUP2 ADD SWAP1 PUSH2 0xC61 SWAP2 SWAP1 PUSH2 0x2F2C JUMP JUMPDEST SWAP1 POP SWAP1 JUMP JUMPDEST PUSH1 0x0 PUSH2 0xC70 PUSH2 0x1D20 JUMP JUMPDEST PUSH1 0x0 PUSH2 0xC7B DUP4 PUSH2 0x1D7A JUMP JUMPDEST SWAP1 POP PUSH1 0x0 DUP2 MLOAD PUSH1 0x3 DUP2 GT ISZERO PUSH2 0xCA0 JUMPI PUSH4 0x4E487B71 PUSH1 0xE0 SHL PUSH1 0x0 MSTORE PUSH1 0x21 PUSH1 0x4 MSTORE PUSH1 0x24 PUSH1 0x0 REVERT JUMPDEST EQ PUSH2 0xCED JUMPI PUSH1 0x40 MLOAD PUSH3 0x461BCD PUSH1 0xE5 SHL DUP2 MSTORE PUSH1 0x20 PUSH1 0x4 DUP3 ADD MSTORE PUSH1 0x1F PUSH1 0x24 DUP3 ADD MSTORE PUSH32 0x4552524F523A4152432D3036303A53544154455F4E4F545F4150504C49454400 PUSH1 0x44 DUP3 ADD MSTORE PUSH1 0x64 ADD PUSH2 0x7DF JUMP JUMPDEST PUSH2 0xCF6 DUP4 PUSH2 0x22B2 JUMP JUMPDEST SWAP2 POP DUP2 ISZERO PUSH2 0xD99 JUMPI PUSH1 0x0 DUP1 PUSH2 0xD0E DUP4 PUSH1 0x60 ADD MLOAD PUSH2 0x1804 JUMP JUMPDEST POP POP POP POP SWAP2 POP SWAP2 POP PUSH2 0xD3C PUSH1 0xD PUSH1 0x0 DUP5 PUSH1 0x1 PUSH1 0x1 PUSH1 0x80 SHL SUB NOT AND DUP2 MSTORE PUSH1 0x20 ADD SWAP1 DUP2 MSTORE PUSH1 0x20 ADD PUSH1 0x0 KECCAK256 DUP7 PUSH2 0x2331 JUMP JUMPDEST POP PUSH1 0x20 DUP1 DUP5 ADD MLOAD PUSH1 0x40 DUP1 MLOAD DUP9 DUP2 MSTORE PUSH1 0x1 PUSH1 0x1 PUSH1 0x80 SHL SUB NOT DUP1 DUP7 AND SWAP5 DUP3 ADD SWAP5 SWAP1 SWAP5 MSTORE SWAP3 DUP6 AND SWAP1 DUP4 ADD MSTORE PUSH1 0x60 DUP3 ADD MSTORE PUSH32 0x839C17ABD37296B3C888D91BB5FD15FA9EA9D7CEDD29A2440894CDD460A27755 SWAP1 PUSH1 0x80 ADD PUSH1 0x40 MLOAD DUP1 SWAP2 SUB SWAP1 LOG1 POP POP JUMPDEST POP SWAP2 SWAP1 POP JUMP JUMPDEST PUSH2 0xDB4 PUSH9 0x10DBDB5C1BDB995B9D PUSH1 0xBA SHL PUSH2 0x233D JUMP JUMPDEST PUSH1 0x1 PUSH1 0x1 PUSH1 0xA0 SHL SUB AND CALLER PUSH1 0x1 PUSH1 0x1 PUSH1 0xA0 SHL SUB AND EQ PUSH2 0xDE4 JUMPI PUSH1 0x40 MLOAD PUSH3 0x461BCD PUSH1 0xE5 SHL DUP2 MSTORE PUSH1 0x4 ADD PUSH2 0x7DF SWAP1 PUSH2 0x3596 JUMP JUMPDEST PUSH2 0xDEC PUSH2 0x23BF JUMP JUMPDEST JUMP JUMPDEST PUSH1 0x10 SLOAD PUSH1 0x40 DUP1 MLOAD PUSH4 0x313CE567 PUSH1 0xE0 SHL DUP2 MSTORE SWAP1 MLOAD PUSH1 0x0 SWAP3 PUSH1 0x1 PUSH1 0x1 PUSH1 0xA0 SHL SUB AND SWAP2 PUSH4 0x313CE567 SWAP2 PUSH1 0x4 DUP1 DUP4 ADD SWAP3 PUSH1 0x20 SWAP3 SWAP2 SWAP1 DUP3 SWAP1 SUB ADD DUP2 DUP7 DUP1 EXTCODESIZE ISZERO DUP1 ISZERO PUSH2 0xE33 JUMPI PUSH1 0x0 DUP1 REVERT JUMPDEST POP GAS STATICCALL ISZERO DUP1 ISZERO PUSH2 0xE47 JUMPI RETURNDATASIZE PUSH1 0x0 DUP1 RETURNDATACOPY RETURNDATASIZE PUSH1 0x0 REVERT JUMPDEST POP POP POP POP PUSH1 0x40 MLOAD RETURNDATASIZE PUSH1 0x1F NOT PUSH1 0x1F DUP3 ADD AND DUP3 ADD DUP1 PUSH1 0x40 MSTORE POP DUP2 ADD SWAP1 PUSH2 0xE6B SWAP2 SWAP1 PUSH2 0x3323 JUMP JUMPDEST PUSH1 0xFF AND SWAP1 POP SWAP1 JUMP JUMPDEST PUSH1 0x0 PUSH1 0x2 JUMPDEST PUSH1 0x3 SLOAD PUSH1 0xFF AND PUSH1 0x2 DUP2 GT ISZERO PUSH2 0xE9D JUMPI PUSH4 0x4E487B71 PUSH1 0xE0 SHL PUSH1 0x0 MSTORE PUSH1 0x21 PUSH1 0x4 MSTORE PUSH1 0x24 PUSH1 0x0 REVERT JUMPDEST EQ SWAP1 POP SWAP1 JUMP JUMPDEST PUSH1 0x0 DUP3 DUP2 MSTORE PUSH1 0xC PUSH1 0x20 MSTORE PUSH1 0x40 SWAP1 KECCAK256 PUSH1 0x1 ADD SLOAD PUSH2 0xEBE DUP2 PUSH2 0x23FC JUMP JUMPDEST PUSH2 0xEC8 DUP4 DUP4 PUSH2 0x2406 JUMP JUMPDEST POP POP POP JUMP JUMPDEST PUSH1 0x1 PUSH1 0x1 PUSH1 0xA0 SHL SUB DUP2 AND CALLER EQ PUSH2 0xF3D JUMPI PUSH1 0x40 MLOAD PUSH3 0x461BCD PUSH1 0xE5 SHL DUP2 MSTORE PUSH1 0x20 PUSH1 0x4 DUP3 ADD MSTORE PUSH1 0x2F PUSH1 0x24 DUP3 ADD MSTORE PUSH32 0x416363657373436F6E74726F6C3A2063616E206F6E6C792072656E6F756E6365 PUSH1 0x44 DUP3 ADD MSTORE PUSH15 0x103937B632B9903337B91039B2B633 PUSH1 0x89 SHL PUSH1 0x64 DUP3 ADD MSTORE PUSH1 0x84 ADD PUSH2 0x7DF JUMP JUMPDEST PUSH2 0xF47 DUP3 DUP3 PUSH2 0x248C JUMP JUMPDEST POP POP JUMP JUMPDEST PUSH1 0x0 DUP3 DUP2 MSTORE PUSH1 0xD PUSH1 0x20 MSTORE PUSH1 0x40 DUP2 KECCAK256 PUSH2 0xF63 SWAP1 DUP4 PUSH2 0x24F3 JUMP JUMPDEST SWAP1 POP JUMPDEST SWAP3 SWAP2 POP POP JUMP JUMPDEST PUSH2 0xF81 PUSH9 0x10DBDB5C1BDB995B9D PUSH1 0xBA SHL PUSH2 0x233D JUMP JUMPDEST PUSH1 0x1 PUSH1 0x1 PUSH1 0xA0 SHL SUB AND CALLER PUSH1 0x1 PUSH1 0x1 PUSH1 0xA0 SHL SUB AND EQ PUSH2 0xFB1 JUMPI PUSH1 0x40 MLOAD PUSH3 0x461BCD PUSH1 0xE5 SHL DUP2 MSTORE PUSH1 0x4 ADD PUSH2 0x7DF SWAP1 PUSH2 0x3596 JUMP JUMPDEST PUSH2 0xDEC JUMP JUMPDEST PUSH2 0xFCB PUSH9 0x10DBDB5C1BDB995B9D PUSH1 0xBA SHL PUSH2 0x233D JUMP JUMPDEST PUSH1 0x1 PUSH1 0x1 PUSH1 0xA0 SHL SUB AND CALLER PUSH1 0x1 PUSH1 0x1 PUSH1 0xA0 SHL SUB AND EQ PUSH2 0xFFB JUMPI PUSH1 0x40 MLOAD PUSH3 0x461BCD PUSH1 0xE5 SHL DUP2 MSTORE PUSH1 0x4 ADD PUSH2 0x7DF SWAP1 PUSH2 0x3596 JUMP JUMPDEST PUSH2 0xDEC PUSH2 0x24FF JUMP JUMPDEST PUSH2 0x100B PUSH2 0x1D20 JUMP JUMPDEST PUSH2 0xDEC PUSH1 0x0 PUSH2 0x2529 JUMP JUMPDEST PUSH1 0x0 PUSH2 0x101F PUSH2 0x1D20 JUMP JUMPDEST PUSH1 0xF SLOAD PUSH1 0x40 MLOAD PUSH4 0x2DCBAB67 PUSH1 0xE2 SHL DUP2 MSTORE PUSH1 0x1 PUSH1 0x1 PUSH1 0xA0 SHL SUB SWAP1 SWAP2 AND SWAP1 PUSH4 0xB72EAD9C SWAP1 PUSH2 0x104F SWAP1 DUP10 SWAP1 PUSH1 0x4 ADD PUSH2 0x342B JUMP JUMPDEST PUSH1 0x20 PUSH1 0x40 MLOAD DUP1 DUP4 SUB DUP2 DUP7 DUP1 EXTCODESIZE ISZERO DUP1 ISZERO PUSH2 0x1067 JUMPI PUSH1 0x0 DUP1 REVERT JUMPDEST POP GAS STATICCALL ISZERO DUP1 ISZERO PUSH2 0x107B JUMPI RETURNDATASIZE PUSH1 0x0 DUP1 RETURNDATACOPY RETURNDATASIZE PUSH1 0x0 REVERT JUMPDEST POP POP POP POP PUSH1 0x40 MLOAD RETURNDATASIZE PUSH1 0x1F NOT PUSH1 0x1F DUP3 ADD AND DUP3 ADD DUP1 PUSH1 0x40 MSTORE POP DUP2 ADD SWAP1 PUSH2 0x109F SWAP2 SWAP1 PUSH2 0x2B32 JUMP JUMPDEST PUSH2 0x1112 JUMPI PUSH1 0xF SLOAD PUSH1 0x40 MLOAD PUSH4 0x10B4931F PUSH1 0xE0 SHL DUP2 MSTORE PUSH1 0x1 PUSH1 0x1 PUSH1 0x80 SHL SUB NOT DUP9 AND PUSH1 0x4 DUP3 ADD MSTORE PUSH1 0x1 PUSH1 0x24 DUP3 ADD MSTORE PUSH1 0x1 PUSH1 0x1 PUSH1 0xA0 SHL SUB SWAP1 SWAP2 AND SWAP1 PUSH4 0x10B4931F SWAP1 PUSH1 0x44 ADD PUSH1 0x0 PUSH1 0x40 MLOAD DUP1 DUP4 SUB DUP2 PUSH1 0x0 DUP8 DUP1 EXTCODESIZE ISZERO DUP1 ISZERO PUSH2 0x10F9 JUMPI PUSH1 0x0 DUP1 REVERT JUMPDEST POP GAS CALL ISZERO DUP1 ISZERO PUSH2 0x110D JUMPI RETURNDATASIZE PUSH1 0x0 DUP1 RETURNDATACOPY RETURNDATASIZE PUSH1 0x0 REVERT JUMPDEST POP POP POP POP JUMPDEST PUSH1 0xF SLOAD PUSH1 0x40 MLOAD PUSH4 0xC157C7C1 PUSH1 0xE0 SHL DUP2 MSTORE PUSH1 0x1 PUSH1 0x1 PUSH1 0xA0 SHL SUB SWAP1 SWAP2 AND SWAP1 PUSH4 0xC157C7C1 SWAP1 PUSH2 0x1146 SWAP1 DUP11 SWAP1 DUP11 SWAP1 DUP11 SWAP1 PUSH1 0x4 ADD PUSH2 0x3440 JUMP JUMPDEST PUSH1 0x20 PUSH1 0x40 MLOAD DUP1 DUP4 SUB DUP2 DUP7 DUP1 EXTCODESIZE ISZERO DUP1 ISZERO PUSH2 0x115E JUMPI PUSH1 0x0 DUP1 REVERT JUMPDEST POP GAS STATICCALL ISZERO DUP1 ISZERO PUSH2 0x1172 JUMPI RETURNDATASIZE PUSH1 0x0 DUP1 RETURNDATACOPY RETURNDATASIZE PUSH1 0x0 REVERT JUMPDEST POP POP POP POP PUSH1 0x40 MLOAD RETURNDATASIZE PUSH1 0x1F NOT PUSH1 0x1F DUP3 ADD AND DUP3 ADD DUP1 PUSH1 0x40 MSTORE POP DUP2 ADD SWAP1 PUSH2 0x1196 SWAP2 SWAP1 PUSH2 0x2B84 JUMP JUMPDEST PUSH1 0xF SLOAD PUSH1 0x40 MLOAD PUSH4 0xD25F214B PUSH1 0xE0 SHL DUP2 MSTORE SWAP2 SWAP3 POP PUSH1 0x1 PUSH1 0x1 PUSH1 0xA0 SHL SUB AND SWAP1 PUSH4 0xD25F214B SWAP1 PUSH2 0x11C7 SWAP1 DUP5 SWAP1 PUSH1 0x4 ADD PUSH2 0x342B JUMP JUMPDEST PUSH1 0x0 PUSH1 0x40 MLOAD DUP1 DUP4 SUB DUP2 DUP7 DUP1 EXTCODESIZE ISZERO DUP1 ISZERO PUSH2 0x11DF JUMPI PUSH1 0x0 DUP1 REVERT JUMPDEST POP GAS STATICCALL ISZERO DUP1 ISZERO PUSH2 0x11F3 JUMPI RETURNDATASIZE PUSH1 0x0 DUP1 RETURNDATACOPY RETURNDATASIZE PUSH1 0x0 REVERT JUMPDEST POP POP POP POP PUSH1 0x40 MLOAD RETURNDATASIZE PUSH1 0x0 DUP3 RETURNDATACOPY PUSH1 0x1F RETURNDATASIZE SWAP1 DUP2 ADD PUSH1 0x1F NOT AND DUP3 ADD PUSH1 0x40 MSTORE PUSH2 0x121B SWAP2 SWAP1 DUP2 ADD SWAP1 PUSH2 0x3221 JUMP JUMPDEST PUSH1 0xE0 ADD MLOAD PUSH4 0xFFFFFFFF AND PUSH2 0x12B7 JUMPI PUSH1 0xF SLOAD PUSH1 0x40 MLOAD PUSH4 0x7C37F243 PUSH1 0xE0 SHL DUP2 MSTORE PUSH1 0x1 PUSH1 0x1 PUSH1 0xA0 SHL SUB SWAP1 SWAP2 AND SWAP1 PUSH4 0x7C37F243 SWAP1 PUSH2 0x1263 SWAP1 DUP11 SWAP1 DUP11 SWAP1 DUP11 SWAP1 DUP11 SWAP1 DUP11 SWAP1 DUP11 SWAP1 PUSH1 0x4 ADD PUSH2 0x346D JUMP JUMPDEST PUSH1 0x20 PUSH1 0x40 MLOAD DUP1 DUP4 SUB DUP2 PUSH1 0x0 DUP8 DUP1 EXTCODESIZE ISZERO DUP1 ISZERO PUSH2 0x127D JUMPI PUSH1 0x0 DUP1 REVERT JUMPDEST POP GAS CALL ISZERO DUP1 ISZERO PUSH2 0x1291 JUMPI RETURNDATASIZE PUSH1 0x0 DUP1 RETURNDATACOPY RETURNDATASIZE PUSH1 0x0 REVERT JUMPDEST POP POP POP POP PUSH1 0x40 MLOAD RETURNDATASIZE PUSH1 0x1F NOT PUSH1 0x1F DUP3 ADD AND DUP3 ADD DUP1 PUSH1 0x40 MSTORE POP DUP2 ADD SWAP1 PUSH2 0x12B5 SWAP2 SWAP1 PUSH2 0x2B84 JUMP JUMPDEST POP JUMPDEST SWAP7 SWAP6 POP POP POP POP POP POP JUMP JUMPDEST PUSH1 0x60 DUP7 DUP7 DUP7 DUP7 DUP7 DUP7 PUSH1 0x40 MLOAD PUSH1 0x20 ADD PUSH2 0x12DE SWAP7 SWAP6 SWAP5 SWAP4 SWAP3 SWAP2 SWAP1 PUSH2 0x34BA JUMP JUMPDEST PUSH1 0x40 MLOAD PUSH1 0x20 DUP2 DUP4 SUB SUB DUP2 MSTORE SWAP1 PUSH1 0x40 MSTORE SWAP1 POP SWAP7 SWAP6 POP POP POP POP POP POP JUMP JUMPDEST PUSH1 0xF SLOAD PUSH1 0x40 MLOAD PUSH4 0x7FF873F7 PUSH1 0xE0 SHL DUP2 MSTORE PUSH1 0x0 SWAP2 DUP3 SWAP2 PUSH1 0x1 PUSH1 0x1 PUSH1 0xA0 SHL SUB SWAP1 SWAP2 AND SWAP1 PUSH4 0x7FF873F7 SWAP1 PUSH2 0x132E SWAP1 DUP10 SWAP1 PUSH1 0x4 ADD PUSH2 0x342B JUMP JUMPDEST PUSH1 0x0 PUSH1 0x40 MLOAD DUP1 DUP4 SUB DUP2 DUP7 DUP1 EXTCODESIZE ISZERO DUP1 ISZERO PUSH2 0x1346 JUMPI PUSH1 0x0 DUP1 REVERT JUMPDEST POP GAS STATICCALL ISZERO DUP1 ISZERO PUSH2 0x135A JUMPI RETURNDATASIZE PUSH1 0x0 DUP1 RETURNDATACOPY RETURNDATASIZE PUSH1 0x0 REVERT JUMPDEST POP POP POP POP PUSH1 0x40 MLOAD RETURNDATASIZE PUSH1 0x0 DUP3 RETURNDATACOPY PUSH1 0x1F RETURNDATASIZE SWAP1 DUP2 ADD PUSH1 0x1F NOT AND DUP3 ADD PUSH1 0x40 MSTORE PUSH2 0x1382 SWAP2 SWAP1 DUP2 ADD SWAP1 PUSH2 0x3038 JUMP JUMPDEST DUP1 MLOAD SWAP1 SWAP2 POP PUSH2 0x13D3 JUMPI PUSH1 0x40 MLOAD PUSH3 0x461BCD PUSH1 0xE5 SHL DUP2 MSTORE PUSH1 0x20 PUSH1 0x4 DUP3 ADD MSTORE PUSH1 0x1C PUSH1 0x24 DUP3 ADD MSTORE PUSH32 0x4552524F523A4152432D3230303A434F4E4649475F494E56414C494400000000 PUSH1 0x44 DUP3 ADD MSTORE PUSH1 0x64 ADD PUSH2 0x7DF JUMP JUMPDEST PUSH1 0x0 DUP6 DUP6 PUSH1 0xF PUSH1 0x0 SWAP1 SLOAD SWAP1 PUSH2 0x100 EXP SWAP1 DIV PUSH1 0x1 PUSH1 0x1 PUSH1 0xA0 SHL SUB AND PUSH1 0x1 PUSH1 0x1 PUSH1 0xA0 SHL SUB AND PUSH4 0x937C6E81 PUSH1 0x40 MLOAD DUP2 PUSH4 0xFFFFFFFF AND PUSH1 0xE0 SHL DUP2 MSTORE PUSH1 0x4 ADD PUSH1 0x20 PUSH1 0x40 MLOAD DUP1 DUP4 SUB DUP2 DUP7 DUP1 EXTCODESIZE ISZERO DUP1 ISZERO PUSH2 0x1425 JUMPI PUSH1 0x0 DUP1 REVERT JUMPDEST POP GAS STATICCALL ISZERO DUP1 ISZERO PUSH2 0x1439 JUMPI RETURNDATASIZE PUSH1 0x0 DUP1 RETURNDATACOPY RETURNDATASIZE PUSH1 0x0 REVERT JUMPDEST POP POP POP POP PUSH1 0x40 MLOAD RETURNDATASIZE PUSH1 0x1F NOT PUSH1 0x1F DUP3 ADD AND DUP3 ADD DUP1 PUSH1 0x40 MSTORE POP DUP2 ADD SWAP1 PUSH2 0x145D SWAP2 SWAP1 PUSH2 0x2E61 JUMP JUMPDEST PUSH2 0x1468 SWAP1 PUSH1 0xA PUSH2 0x36A4 JUMP JUMPDEST PUSH2 0x1472 SWAP2 SWAP1 PUSH2 0x3774 JUMP JUMPDEST PUSH2 0x147C SWAP2 SWAP1 PUSH2 0x363E JUMP JUMPDEST SWAP1 POP PUSH1 0x0 DUP3 PUSH1 0xE0 ADD MLOAD DUP3 GT PUSH2 0x1497 JUMPI POP PUSH2 0x100 DUP3 ADD MLOAD PUSH2 0x14C3 JUMP JUMPDEST DUP3 PUSH2 0x120 ADD MLOAD DUP3 GT PUSH2 0x14AF JUMPI POP PUSH2 0x140 DUP3 ADD MLOAD PUSH2 0x14C3 JUMP JUMPDEST DUP3 PUSH2 0x160 ADD MLOAD DUP3 GT PUSH2 0x14C3 JUMPI POP PUSH2 0x180 DUP3 ADD MLOAD JUMPDEST DUP1 PUSH2 0x14D4 JUMPI PUSH1 0x0 SWAP4 POP POP POP POP PUSH2 0x157F JUMP JUMPDEST PUSH1 0xF PUSH1 0x0 SWAP1 SLOAD SWAP1 PUSH2 0x100 EXP SWAP1 DIV PUSH1 0x1 PUSH1 0x1 PUSH1 0xA0 SHL SUB AND PUSH1 0x1 PUSH1 0x1 PUSH1 0xA0 SHL SUB AND PUSH4 0x937C6E81 PUSH1 0x40 MLOAD DUP2 PUSH4 0xFFFFFFFF AND PUSH1 0xE0 SHL DUP2 MSTORE PUSH1 0x4 ADD PUSH1 0x20 PUSH1 0x40 MLOAD DUP1 DUP4 SUB DUP2 DUP7 DUP1 EXTCODESIZE ISZERO DUP1 ISZERO PUSH2 0x1522 JUMPI PUSH1 0x0 DUP1 REVERT JUMPDEST POP GAS STATICCALL ISZERO DUP1 ISZERO PUSH2 0x1536 JUMPI RETURNDATASIZE PUSH1 0x0 DUP1 RETURNDATACOPY RETURNDATASIZE PUSH1 0x0 REVERT JUMPDEST POP POP POP POP PUSH1 0x40 MLOAD RETURNDATASIZE PUSH1 0x1F NOT PUSH1 0x1F DUP3 ADD AND DUP3 ADD DUP1 PUSH1 0x40 MSTORE POP DUP2 ADD SWAP1 PUSH2 0x155A SWAP2 SWAP1 PUSH2 0x2E61 JUMP JUMPDEST PUSH2 0x1565 SWAP1 PUSH1 0xA PUSH2 0x36A4 JUMP JUMPDEST PUSH2 0x156F DUP7 DUP4 PUSH2 0x3774 JUMP JUMPDEST PUSH2 0x1579 SWAP2 SWAP1 PUSH2 0x363E JUMP JUMPDEST SWAP4 POP POP POP POP JUMPDEST SWAP5 SWAP4 POP POP POP POP JUMP JUMPDEST PUSH1 0x0 DUP1 SLOAD PUSH1 0x1 PUSH1 0x1 PUSH1 0xA0 SHL SUB AND PUSH2 0xC61 JUMP JUMPDEST PUSH2 0x15A1 PUSH2 0x1D20 JUMP JUMPDEST PUSH1 0x0 PUSH2 0x15AC DUP3 PUSH2 0x1D7A JUMP JUMPDEST SWAP1 POP PUSH1 0x0 DUP2 MLOAD PUSH1 0x3 DUP2 GT ISZERO PUSH2 0x15D1 JUMPI PUSH4 0x4E487B71 PUSH1 0xE0 SHL PUSH1 0x0 MSTORE PUSH1 0x21 PUSH1 0x4 MSTORE PUSH1 0x24 PUSH1 0x0 REVERT JUMPDEST EQ PUSH2 0x161E JUMPI PUSH1 0x40 MLOAD PUSH3 0x461BCD PUSH1 0xE5 SHL DUP2 MSTORE PUSH1 0x20 PUSH1 0x4 DUP3 ADD MSTORE PUSH1 0x1F PUSH1 0x24 DUP3 ADD MSTORE PUSH32 0x4552524F523A4152432D3037303A53544154455F4E4F545F4150504C49454400 PUSH1 0x44 DUP3 ADD MSTORE PUSH1 0x64 ADD PUSH2 0x7DF JUMP JUMPDEST PUSH2 0x1627 DUP3 PUSH2 0x2579 JUMP JUMPDEST PUSH1 0x40 MLOAD DUP3 DUP2 MSTORE PUSH32 0xAC202DCC548E1D12F4D9AF356C4830F7A7DD3A8EFAB248C7AE37ADA82951D80D SWAP1 PUSH1 0x20 ADD PUSH1 0x40 MLOAD DUP1 SWAP2 SUB SWAP1 LOG1 POP POP JUMP JUMPDEST PUSH1 0x0 SWAP2 DUP3 MSTORE PUSH1 0xC PUSH1 0x20 SWAP1 DUP2 MSTORE PUSH1 0x40 DUP1 DUP5 KECCAK256 PUSH1 0x1 PUSH1 0x1 PUSH1 0xA0 SHL SUB SWAP4 SWAP1 SWAP4 AND DUP5 MSTORE SWAP2 SWAP1 MSTORE SWAP1 KECCAK256 SLOAD PUSH1 0xFF AND SWAP1 JUMP JUMPDEST PUSH1 0x0 DUP1 PUSH2 0xE78 JUMP JUMPDEST PUSH1 0x0 PUSH1 0xE DUP3 DUP2 SLOAD DUP2 LT PUSH2 0x16B4 JUMPI PUSH4 0x4E487B71 PUSH1 0xE0 SHL PUSH1 0x0 MSTORE PUSH1 0x32 PUSH1 0x4 MSTORE PUSH1 0x24 PUSH1 0x0 REVERT JUMPDEST SWAP1 PUSH1 0x0 MSTORE PUSH1 0x20 PUSH1 0x0 KECCAK256 ADD SLOAD SWAP1 POP SWAP2 SWAP1 POP JUMP JUMPDEST PUSH2 0x16CE PUSH2 0x1D20 JUMP JUMPDEST PUSH2 0x16D7 DUP2 PUSH2 0x1F88 JUMP JUMPDEST PUSH2 0x16E0 DUP2 PUSH2 0x2281 JUMP JUMPDEST PUSH1 0x40 MLOAD DUP2 DUP2 MSTORE PUSH32 0x7D9E3061F20069F35E07B4BE6EBF4A1AD3B46B939D9333D7635DDB9AF26AF532 SWAP1 PUSH1 0x20 ADD PUSH1 0x40 MLOAD DUP1 SWAP2 SUB SWAP1 LOG1 POP JUMP JUMPDEST PUSH1 0x0 DUP1 PUSH1 0x0 PUSH2 0x1723 PUSH2 0x1D20 JUMP JUMPDEST PUSH1 0x0 PUSH2 0x172E DUP6 PUSH2 0x1E34 JUMP JUMPDEST SWAP1 POP PUSH1 0x0 DUP2 MLOAD PUSH1 0x2 DUP2 GT ISZERO PUSH2 0x1753 JUMPI PUSH4 0x4E487B71 PUSH1 0xE0 SHL PUSH1 0x0 MSTORE PUSH1 0x21 PUSH1 0x4 MSTORE PUSH1 0x24 PUSH1 0x0 REVERT JUMPDEST EQ PUSH2 0x17A0 JUMPI PUSH1 0x40 MLOAD PUSH3 0x461BCD PUSH1 0xE5 SHL DUP2 MSTORE PUSH1 0x20 PUSH1 0x4 DUP3 ADD MSTORE PUSH1 0x1E PUSH1 0x24 DUP3 ADD MSTORE PUSH32 0x4552524F523A4152432D3038303A53544154455F4E4F545F4143544956450000 PUSH1 0x44 DUP3 ADD MSTORE PUSH1 0x64 ADD PUSH2 0x7DF JUMP JUMPDEST PUSH2 0x17A9 DUP6 PUSH2 0x25AA JUMP JUMPDEST SWAP2 SWAP8 SWAP1 SWAP7 POP SWAP1 SWAP5 POP SWAP3 POP POP POP JUMP JUMPDEST PUSH2 0x17CC PUSH9 0x10DBDB5C1BDB995B9D PUSH1 0xBA SHL PUSH2 0x233D JUMP JUMPDEST PUSH1 0x1 PUSH1 0x1 PUSH1 0xA0 SHL SUB AND CALLER PUSH1 0x1 PUSH1 0x1 PUSH1 0xA0 SHL SUB AND EQ PUSH2 0x17FC JUMPI PUSH1 0x40 MLOAD PUSH3 0x461BCD PUSH1 0xE5 SHL DUP2 MSTORE PUSH1 0x4 ADD PUSH2 0x7DF SWAP1 PUSH2 0x3596 JUMP JUMPDEST PUSH2 0xDEC PUSH2 0x25F0 JUMP JUMPDEST PUSH1 0x0 DUP1 PUSH1 0x0 DUP1 PUSH1 0x60 PUSH1 0x0 DUP7 DUP1 PUSH1 0x20 ADD SWAP1 MLOAD DUP2 ADD SWAP1 PUSH2 0x1822 SWAP2 SWAP1 PUSH2 0x2D80 JUMP JUMPDEST SWAP5 SWAP13 SWAP4 SWAP12 POP SWAP2 SWAP10 POP SWAP8 POP SWAP6 POP SWAP1 SWAP4 POP SWAP2 POP POP JUMP JUMPDEST PUSH2 0x183E PUSH2 0x1D20 JUMP JUMPDEST PUSH1 0xF SLOAD PUSH1 0x40 MLOAD PUSH4 0xF2FDE38B PUSH1 0xE0 SHL DUP2 MSTORE PUSH1 0x1 PUSH1 0x1 PUSH1 0xA0 SHL SUB DUP4 DUP2 AND PUSH1 0x4 DUP4 ADD MSTORE SWAP1 SWAP2 AND SWAP1 PUSH4 0xF2FDE38B SWAP1 PUSH1 0x24 ADD JUMPDEST PUSH1 0x0 PUSH1 0x40 MLOAD DUP1 DUP4 SUB DUP2 PUSH1 0x0 DUP8 DUP1 EXTCODESIZE ISZERO DUP1 ISZERO PUSH2 0x1886 JUMPI PUSH1 0x0 DUP1 REVERT JUMPDEST POP GAS CALL ISZERO DUP1 ISZERO PUSH2 0x189A JUMPI RETURNDATASIZE PUSH1 0x0 DUP1 RETURNDATACOPY RETURNDATASIZE PUSH1 0x0 REVERT JUMPDEST POP POP POP POP POP JUMP JUMPDEST PUSH2 0x18B6 PUSH9 0x10DBDB5C1BDB995B9D PUSH1 0xBA SHL PUSH2 0x233D JUMP JUMPDEST PUSH1 0x1 PUSH1 0x1 PUSH1 0xA0 SHL SUB AND CALLER PUSH1 0x1 PUSH1 0x1 PUSH1 0xA0 SHL SUB AND EQ PUSH2 0x18E6 JUMPI PUSH1 0x40 MLOAD PUSH3 0x461BCD PUSH1 0xE5 SHL DUP2 MSTORE PUSH1 0x4 ADD PUSH2 0x7DF SWAP1 PUSH2 0x3596 JUMP JUMPDEST PUSH1 0x2 SSTORE JUMP JUMPDEST PUSH1 0x0 DUP3 DUP2 MSTORE PUSH1 0xC PUSH1 0x20 MSTORE PUSH1 0x40 SWAP1 KECCAK256 PUSH1 0x1 ADD SLOAD PUSH2 0x1906 DUP2 PUSH2 0x23FC JUMP JUMPDEST PUSH2 0xEC8 DUP4 DUP4 PUSH2 0x248C JUMP JUMPDEST PUSH1 0x0 PUSH2 0x191A PUSH2 0x1D20 JUMP JUMPDEST PUSH1 0xF SLOAD PUSH1 0x40 MLOAD PUSH4 0xC83B7211 PUSH1 0xE0 SHL DUP2 MSTORE PUSH1 0x0 SWAP2 PUSH1 0x1 PUSH1 0x1 PUSH1 0xA0 SHL SUB AND SWAP1 PUSH4 0xC83B7211 SWAP1 PUSH2 0x194B SWAP1 DUP14 SWAP1 PUSH1 0x4 ADD PUSH2 0x342B JUMP JUMPDEST PUSH1 0x40 DUP1 MLOAD DUP1 DUP4 SUB DUP2 DUP7 DUP1 EXTCODESIZE ISZERO DUP1 ISZERO PUSH2 0x1962 JUMPI PUSH1 0x0 DUP1 REVERT JUMPDEST POP GAS STATICCALL ISZERO DUP1 ISZERO PUSH2 0x1976 JUMPI RETURNDATASIZE PUSH1 0x0 DUP1 RETURNDATACOPY RETURNDATASIZE PUSH1 0x0 REVERT JUMPDEST POP POP POP POP PUSH1 0x40 MLOAD RETURNDATASIZE PUSH1 0x1F NOT PUSH1 0x1F DUP3 ADD AND DUP3 ADD DUP1 PUSH1 0x40 MSTORE POP DUP2 ADD SWAP1 PUSH2 0x199A SWAP2 SWAP1 PUSH2 0x2FF6 JUMP JUMPDEST MLOAD PUSH1 0x1 PUSH1 0x1 PUSH1 0xA0 SHL SUB AND EQ ISZERO PUSH2 0x1A23 JUMPI PUSH1 0xF SLOAD PUSH1 0x40 MLOAD PUSH4 0x1FB68BD PUSH1 0xE6 SHL DUP2 MSTORE PUSH1 0x1 PUSH1 0x1 PUSH1 0x80 SHL SUB NOT DUP12 AND PUSH1 0x4 DUP3 ADD MSTORE PUSH1 0x1 PUSH1 0x1 PUSH1 0xA0 SHL SUB DUP11 DUP2 AND PUSH1 0x24 DUP4 ADD MSTORE PUSH1 0xFF DUP11 AND PUSH1 0x44 DUP4 ADD MSTORE SWAP1 SWAP2 AND SWAP1 PUSH4 0x7EDA2F40 SWAP1 PUSH1 0x64 ADD PUSH1 0x0 PUSH1 0x40 MLOAD DUP1 DUP4 SUB DUP2 PUSH1 0x0 DUP8 DUP1 EXTCODESIZE ISZERO DUP1 ISZERO PUSH2 0x1A0A JUMPI PUSH1 0x0 DUP1 REVERT JUMPDEST POP GAS CALL ISZERO DUP1 ISZERO PUSH2 0x1A1E JUMPI RETURNDATASIZE PUSH1 0x0 DUP1 RETURNDATACOPY RETURNDATASIZE PUSH1 0x0 REVERT JUMPDEST POP POP POP POP JUMPDEST PUSH1 0xF SLOAD PUSH1 0x40 MLOAD PUSH4 0xC83B7211 PUSH1 0xE0 SHL DUP2 MSTORE PUSH1 0x0 SWAP2 PUSH1 0x1 PUSH1 0x1 PUSH1 0xA0 SHL SUB AND SWAP1 PUSH4 0xC83B7211 SWAP1 PUSH2 0x1A54 SWAP1 DUP14 SWAP1 PUSH1 0x4 ADD PUSH2 0x342B JUMP JUMPDEST PUSH1 0x40 DUP1 MLOAD DUP1 DUP4 SUB DUP2 DUP7 DUP1 EXTCODESIZE ISZERO DUP1 ISZERO PUSH2 0x1A6B JUMPI PUSH1 0x0 DUP1 REVERT JUMPDEST POP GAS STATICCALL ISZERO DUP1 ISZERO PUSH2 0x1A7F JUMPI RETURNDATASIZE PUSH1 0x0 DUP1 RETURNDATACOPY RETURNDATASIZE PUSH1 0x0 REVERT JUMPDEST POP POP POP POP PUSH1 0x40 MLOAD RETURNDATASIZE PUSH1 0x1F NOT PUSH1 0x1F DUP3 ADD AND DUP3 ADD DUP1 PUSH1 0x40 MSTORE POP DUP2 ADD SWAP1 PUSH2 0x1AA3 SWAP2 SWAP1 PUSH2 0x2FF6 JUMP JUMPDEST PUSH1 0xF SLOAD PUSH1 0x40 MLOAD PUSH4 0xD25F214B PUSH1 0xE0 SHL DUP2 MSTORE SWAP2 SWAP3 POP PUSH1 0x0 SWAP2 PUSH1 0x1 PUSH1 0x1 PUSH1 0xA0 SHL SUB SWAP1 SWAP2 AND SWAP1 PUSH4 0xD25F214B SWAP1 PUSH2 0x1AD9 SWAP1 DUP12 SWAP1 PUSH1 0x4 ADD PUSH2 0x342B JUMP JUMPDEST PUSH1 0x0 PUSH1 0x40 MLOAD DUP1 DUP4 SUB DUP2 DUP7 DUP1 EXTCODESIZE ISZERO DUP1 ISZERO PUSH2 0x1AF1 JUMPI PUSH1 0x0 DUP1 REVERT JUMPDEST POP GAS STATICCALL ISZERO DUP1 ISZERO PUSH2 0x1B05 JUMPI RETURNDATASIZE PUSH1 0x0 DUP1 RETURNDATACOPY RETURNDATASIZE PUSH1 0x0 REVERT JUMPDEST POP POP POP POP PUSH1 0x40 MLOAD RETURNDATASIZE PUSH1 0x0 DUP3 RETURNDATACOPY PUSH1 0x1F RETURNDATASIZE SWAP1 DUP2 ADD PUSH1 0x1F NOT AND DUP3 ADD PUSH1 0x40 MSTORE PUSH2 0x1B2D SWAP2 SWAP1 DUP2 ADD SWAP1 PUSH2 0x3221 JUMP JUMPDEST DUP1 MLOAD SWAP1 SWAP2 POP PUSH2 0x1B7E JUMPI PUSH1 0x40 MLOAD PUSH3 0x461BCD PUSH1 0xE5 SHL DUP2 MSTORE PUSH1 0x20 PUSH1 0x4 DUP3 ADD MSTORE PUSH1 0x1A PUSH1 0x24 DUP3 ADD MSTORE PUSH32 0x4552524F523A4152432D3032303A5249534B5F494E56414C4944000000000000 PUSH1 0x44 DUP3 ADD MSTORE PUSH1 0x64 ADD PUSH2 0x7DF JUMP JUMPDEST PUSH1 0x0 DUP3 PUSH1 0x0 ADD MLOAD SWAP1 POP PUSH1 0x0 PUSH2 0x1BA3 DUP11 DUP15 DUP7 PUSH1 0x20 ADD MLOAD DUP7 PUSH1 0x40 ADD MLOAD DUP8 PUSH1 0x60 ADD MLOAD DUP13 PUSH2 0x12C1 JUMP JUMPDEST SWAP1 POP PUSH2 0x1BC1 DUP3 DUP11 DUP11 PUSH1 0x40 MLOAD DUP1 PUSH1 0x20 ADD PUSH1 0x40 MSTORE DUP1 PUSH1 0x0 DUP2 MSTORE POP DUP6 PUSH2 0x261A JUMP JUMPDEST SWAP5 POP PUSH1 0xE DUP6 SWAP1 DUP1 PUSH1 0x1 DUP2 SLOAD ADD DUP1 DUP3 SSTORE DUP1 SWAP2 POP POP PUSH1 0x1 SWAP1 SUB SWAP1 PUSH1 0x0 MSTORE PUSH1 0x20 PUSH1 0x0 KECCAK256 ADD PUSH1 0x0 SWAP1 SWAP2 SWAP1 SWAP2 SWAP1 SWAP2 POP SSTORE PUSH32 0x1E96180DF646636DCE330ACD78F3B55F574E5D709F9C2F429FC15E1A6BFDA087 DUP6 DUP15 DUP5 DUP13 DUP13 PUSH1 0x40 MLOAD PUSH2 0x1C54 SWAP6 SWAP5 SWAP4 SWAP3 SWAP2 SWAP1 SWAP5 DUP6 MSTORE PUSH1 0x1 PUSH1 0x1 PUSH1 0x80 SHL SUB NOT SWAP4 SWAP1 SWAP4 AND PUSH1 0x20 DUP6 ADD MSTORE PUSH1 0x1 PUSH1 0x1 PUSH1 0xA0 SHL SUB SWAP2 SWAP1 SWAP2 AND PUSH1 0x40 DUP5 ADD MSTORE PUSH1 0x60 DUP4 ADD MSTORE PUSH1 0x80 DUP3 ADD MSTORE PUSH1 0xA0 ADD SWAP1 JUMP JUMPDEST PUSH1 0x40 MLOAD DUP1 SWAP2 SUB SWAP1 LOG1 DUP6 ISZERO PUSH2 0x1C71 JUMPI PUSH2 0x1C6B DUP6 PUSH2 0xC66 JUMP JUMPDEST POP PUSH2 0x1C7A JUMP JUMPDEST PUSH2 0x1C7A DUP6 PUSH2 0x1599 JUMP JUMPDEST POP POP POP POP SWAP9 SWAP8 POP POP POP POP POP POP POP POP JUMP JUMPDEST PUSH1 0x0 DUP2 DUP2 MSTORE PUSH1 0xD PUSH1 0x20 MSTORE PUSH1 0x40 DUP2 KECCAK256 PUSH2 0x770 SWAP1 PUSH2 0x26A5 JUMP JUMPDEST PUSH1 0x0 PUSH1 0x1 PUSH2 0xE78 JUMP JUMPDEST PUSH2 0x1CB2 PUSH2 0x1D20 JUMP JUMPDEST PUSH1 0x1 PUSH1 0x1 PUSH1 0xA0 SHL SUB DUP2 AND PUSH2 0x1D17 JUMPI PUSH1 0x40 MLOAD PUSH3 0x461BCD PUSH1 0xE5 SHL DUP2 MSTORE PUSH1 0x20 PUSH1 0x4 DUP3 ADD MSTORE PUSH1 0x26 PUSH1 0x24 DUP3 ADD MSTORE PUSH32 0x4F776E61626C653A206E6577206F776E657220697320746865207A65726F2061 PUSH1 0x44 DUP3 ADD MSTORE PUSH6 0x646472657373 PUSH1 0xD0 SHL PUSH1 0x64 DUP3 ADD MSTORE PUSH1 0x84 ADD PUSH2 0x7DF JUMP JUMPDEST PUSH2 0x72F DUP2 PUSH2 0x2529 JUMP JUMPDEST PUSH1 0x0 SLOAD PUSH1 0x1 PUSH1 0x1 PUSH1 0xA0 SHL SUB AND CALLER EQ PUSH2 0xDEC JUMPI PUSH1 0x40 MLOAD PUSH3 0x461BCD PUSH1 0xE5 SHL DUP2 MSTORE PUSH1 0x20 PUSH1 0x4 DUP3 ADD DUP2 SWAP1 MSTORE PUSH1 0x24 DUP3 ADD MSTORE PUSH32 0x4F776E61626C653A2063616C6C6572206973206E6F7420746865206F776E6572 PUSH1 0x44 DUP3 ADD MSTORE PUSH1 0x64 ADD PUSH2 0x7DF JUMP JUMPDEST PUSH2 0x1DB4 PUSH1 0x40 DUP1 MLOAD PUSH1 0xC0 DUP2 ADD SWAP1 SWAP2 MSTORE DUP1 PUSH1 0x0 DUP2 MSTORE PUSH1 0x20 ADD PUSH1 0x0 DUP2 MSTORE PUSH1 0x20 ADD PUSH1 0x0 DUP2 MSTORE PUSH1 0x20 ADD PUSH1 0x60 DUP2 MSTORE PUSH1 0x20 ADD PUSH1 0x0 DUP2 MSTORE PUSH1 0x20 ADD PUSH1 0x0 DUP2 MSTORE POP SWAP1 JUMP JUMPDEST PUSH1 0xB SLOAD PUSH1 0x40 MLOAD PUSH4 0x2F141BD9 PUSH1 0xE2 SHL DUP2 MSTORE PUSH1 0x4 DUP2 ADD DUP5 SWAP1 MSTORE PUSH1 0x1 PUSH1 0x1 PUSH1 0xA0 SHL SUB SWAP1 SWAP2 AND SWAP1 PUSH4 0xBC506F64 SWAP1 PUSH1 0x24 ADD PUSH1 0x0 PUSH1 0x40 MLOAD DUP1 DUP4 SUB DUP2 DUP7 DUP1 EXTCODESIZE ISZERO DUP1 ISZERO PUSH2 0x1DF8 JUMPI PUSH1 0x0 DUP1 REVERT JUMPDEST POP GAS STATICCALL ISZERO DUP1 ISZERO PUSH2 0x1E0C JUMPI RETURNDATASIZE PUSH1 0x0 DUP1 RETURNDATACOPY RETURNDATASIZE PUSH1 0x0 REVERT JUMPDEST POP POP POP POP PUSH1 0x40 MLOAD RETURNDATASIZE PUSH1 0x0 DUP3 RETURNDATACOPY PUSH1 0x1F RETURNDATASIZE SWAP1 DUP2 ADD PUSH1 0x1F NOT AND DUP3 ADD PUSH1 0x40 MSTORE PUSH2 0x770 SWAP2 SWAP1 DUP2 ADD SWAP1 PUSH2 0x2F4B JUMP JUMPDEST PUSH2 0x1E84 PUSH1 0x40 DUP1 MLOAD PUSH2 0x120 DUP2 ADD SWAP1 SWAP2 MSTORE DUP1 PUSH1 0x0 DUP2 MSTORE PUSH1 0x20 ADD PUSH1 0x0 DUP2 MSTORE PUSH1 0x20 ADD PUSH1 0x0 DUP2 MSTORE PUSH1 0x20 ADD PUSH1 0x0 DUP2 MSTORE PUSH1 0x20 ADD PUSH1 0x0 DUP2 MSTORE PUSH1 0x20 ADD PUSH1 0x0 DUP2 MSTORE PUSH1 0x20 ADD PUSH1 0x0 DUP2 MSTORE PUSH1 0x20 ADD PUSH1 0x0 DUP2 MSTORE PUSH1 0x20 ADD PUSH1 0x0 DUP2 MSTORE POP SWAP1 JUMP JUMPDEST PUSH1 0xB SLOAD PUSH1 0x40 MLOAD PUSH4 0xA3F685F9 PUSH1 0xE0 SHL DUP2 MSTORE PUSH1 0x4 DUP2 ADD DUP5 SWAP1 MSTORE PUSH1 0x1 PUSH1 0x1 PUSH1 0xA0 SHL SUB SWAP1 SWAP2 AND SWAP1 PUSH4 0xA3F685F9 SWAP1 PUSH1 0x24 ADD PUSH2 0x120 PUSH1 0x40 MLOAD DUP1 DUP4 SUB DUP2 DUP7 DUP1 EXTCODESIZE ISZERO DUP1 ISZERO PUSH2 0x1EC9 JUMPI PUSH1 0x0 DUP1 REVERT JUMPDEST POP GAS STATICCALL ISZERO DUP1 ISZERO PUSH2 0x1EDD JUMPI RETURNDATASIZE PUSH1 0x0 DUP1 RETURNDATACOPY RETURNDATASIZE PUSH1 0x0 REVERT JUMPDEST POP POP POP POP PUSH1 0x40 MLOAD RETURNDATASIZE PUSH1 0x1F NOT PUSH1 0x1F DUP3 ADD AND DUP3 ADD DUP1 PUSH1 0x40 MSTORE POP DUP2 ADD SWAP1 PUSH2 0x770 SWAP2 SWAP1 PUSH2 0x319C JUMP JUMPDEST PUSH1 0xA SLOAD PUSH1 0x40 MLOAD PUSH4 0xFAE43D15 PUSH1 0xE0 SHL DUP2 MSTORE PUSH1 0x0 SWAP2 PUSH1 0x1 PUSH1 0x1 PUSH1 0xA0 SHL SUB AND SWAP1 PUSH4 0xFAE43D15 SWAP1 PUSH2 0x1F36 SWAP1 DUP8 SWAP1 DUP8 SWAP1 DUP8 SWAP1 PUSH1 0x4 ADD PUSH2 0x3511 JUMP JUMPDEST PUSH1 0x20 PUSH1 0x40 MLOAD DUP1 DUP4 SUB DUP2 PUSH1 0x0 DUP8 DUP1 EXTCODESIZE ISZERO DUP1 ISZERO PUSH2 0x1F50 JUMPI PUSH1 0x0 DUP1 REVERT JUMPDEST POP GAS CALL ISZERO DUP1 ISZERO PUSH2 0x1F64 JUMPI RETURNDATASIZE PUSH1 0x0 DUP1 RETURNDATACOPY RETURNDATASIZE PUSH1 0x0 REVERT JUMPDEST POP POP POP POP PUSH1 0x40 MLOAD RETURNDATASIZE PUSH1 0x1F NOT PUSH1 0x1F DUP3 ADD AND DUP3 ADD DUP1 PUSH1 0x40 MSTORE POP DUP2 ADD SWAP1 PUSH2 0x157F SWAP2 SWAP1 PUSH2 0x2E61 JUMP JUMPDEST PUSH1 0xA SLOAD PUSH1 0x40 MLOAD PUSH4 0x18C882F3 PUSH1 0xE3 SHL DUP2 MSTORE PUSH1 0x4 DUP2 ADD DUP4 SWAP1 MSTORE PUSH1 0x1 PUSH1 0x1 PUSH1 0xA0 SHL SUB SWAP1 SWAP2 AND SWAP1 PUSH4 0xC6441798 SWAP1 PUSH1 0x24 ADD PUSH2 0x186C JUMP JUMPDEST PUSH2 0x1FF3 PUSH1 0x40 DUP1 MLOAD PUSH1 0xC0 DUP2 ADD SWAP1 SWAP2 MSTORE DUP1 PUSH1 0x0 DUP2 MSTORE PUSH1 0x20 ADD PUSH1 0x0 DUP2 MSTORE PUSH1 0x20 ADD PUSH1 0x0 DUP2 MSTORE PUSH1 0x20 ADD PUSH1 0x60 DUP2 MSTORE PUSH1 0x20 ADD PUSH1 0x0 DUP2 MSTORE PUSH1 0x20 ADD PUSH1 0x0 DUP2 MSTORE POP SWAP1 JUMP JUMPDEST PUSH1 0xB SLOAD PUSH1 0x40 MLOAD PUSH4 0x7F22C2D9 PUSH1 0xE0 SHL DUP2 MSTORE PUSH1 0x4 DUP2 ADD DUP6 SWAP1 MSTORE PUSH1 0x24 DUP2 ADD DUP5 SWAP1 MSTORE PUSH1 0x1 PUSH1 0x1 PUSH1 0xA0 SHL SUB SWAP1 SWAP2 AND SWAP1 PUSH4 0x7F22C2D9 SWAP1 PUSH1 0x44 ADD PUSH1 0x0 PUSH1 0x40 MLOAD DUP1 DUP4 SUB DUP2 DUP7 DUP1 EXTCODESIZE ISZERO DUP1 ISZERO PUSH2 0x203E JUMPI PUSH1 0x0 DUP1 REVERT JUMPDEST POP GAS STATICCALL ISZERO DUP1 ISZERO PUSH2 0x2052 JUMPI RETURNDATASIZE PUSH1 0x0 DUP1 RETURNDATACOPY RETURNDATASIZE PUSH1 0x0 REVERT JUMPDEST POP POP POP POP PUSH1 0x40 MLOAD RETURNDATASIZE PUSH1 0x0 DUP3 RETURNDATACOPY PUSH1 0x1F RETURNDATASIZE SWAP1 DUP2 ADD PUSH1 0x1F NOT AND DUP3 ADD PUSH1 0x40 MSTORE PUSH2 0xF63 SWAP2 SWAP1 DUP2 ADD SWAP1 PUSH2 0x2F4B JUMP JUMPDEST PUSH1 0xA SLOAD PUSH1 0x40 MLOAD PUSH4 0x4E02C63F PUSH1 0xE0 SHL DUP2 MSTORE PUSH1 0x4 DUP2 ADD DUP6 SWAP1 MSTORE PUSH1 0x24 DUP2 ADD DUP5 SWAP1 MSTORE PUSH1 0x44 DUP2 ADD DUP4 SWAP1 MSTORE PUSH1 0x1 PUSH1 0x1 PUSH1 0xA0 SHL SUB SWAP1 SWAP2 AND SWAP1 PUSH4 0x4E02C63F SWAP1 PUSH1 0x64 ADD PUSH1 0x0 PUSH1 0x40 MLOAD DUP1 DUP4 SUB DUP2 PUSH1 0x0 DUP8 DUP1 EXTCODESIZE ISZERO DUP1 ISZERO PUSH2 0x20CE JUMPI PUSH1 0x0 DUP1 REVERT JUMPDEST POP GAS CALL ISZERO DUP1 ISZERO PUSH2 0x20E2 JUMPI RETURNDATASIZE PUSH1 0x0 DUP1 RETURNDATACOPY RETURNDATASIZE PUSH1 0x0 REVERT JUMPDEST POP POP POP POP POP POP POP JUMP JUMPDEST PUSH1 0xA SLOAD PUSH1 0x40 MLOAD PUSH4 0x3C0EBC23 PUSH1 0xE1 SHL DUP2 MSTORE PUSH1 0x0 SWAP2 PUSH1 0x1 PUSH1 0x1 PUSH1 0xA0 SHL SUB AND SWAP1 PUSH4 0x781D7846 SWAP1 PUSH2 0x2122 SWAP1 DUP9 SWAP1 DUP9 SWAP1 DUP9 SWAP1 DUP9 SWAP1 PUSH1 0x4 ADD PUSH2 0x3530 JUMP JUMPDEST PUSH1 0x20 PUSH1 0x40 MLOAD DUP1 DUP4 SUB DUP2 PUSH1 0x0 DUP8 DUP1 EXTCODESIZE ISZERO DUP1 ISZERO PUSH2 0x213C JUMPI PUSH1 0x0 DUP1 REVERT JUMPDEST POP GAS CALL ISZERO DUP1 ISZERO PUSH2 0x2150 JUMPI RETURNDATASIZE PUSH1 0x0 DUP1 RETURNDATACOPY RETURNDATASIZE PUSH1 0x0 REVERT JUMPDEST POP POP POP POP PUSH1 0x40 MLOAD RETURNDATASIZE PUSH1 0x1F NOT PUSH1 0x1F DUP3 ADD AND DUP3 ADD DUP1 PUSH1 0x40 MSTORE POP DUP2 ADD SWAP1 PUSH2 0x2174 SWAP2 SWAP1 PUSH2 0x2E61 JUMP JUMPDEST SWAP6 SWAP5 POP POP POP POP POP JUMP JUMPDEST PUSH1 0xA SLOAD PUSH1 0x40 MLOAD PUSH4 0xFE64372B PUSH1 0xE0 SHL DUP2 MSTORE PUSH1 0x4 DUP2 ADD DUP5 SWAP1 MSTORE PUSH1 0x24 DUP2 ADD DUP4 SWAP1 MSTORE PUSH1 0x0 SWAP2 DUP3 SWAP2 PUSH1 0x1 PUSH1 0x1 PUSH1 0xA0 SHL SUB SWAP1 SWAP2 AND SWAP1 PUSH4 0xFE64372B SWAP1 PUSH1 0x44 ADD PUSH1 0x40 DUP1 MLOAD DUP1 DUP4 SUB DUP2 PUSH1 0x0 DUP8 DUP1 EXTCODESIZE ISZERO DUP1 ISZERO PUSH2 0x21CE JUMPI PUSH1 0x0 DUP1 REVERT JUMPDEST POP GAS CALL ISZERO DUP1 ISZERO PUSH2 0x21E2 JUMPI RETURNDATASIZE PUSH1 0x0 DUP1 RETURNDATACOPY RETURNDATASIZE PUSH1 0x0 REVERT JUMPDEST POP POP POP POP PUSH1 0x40 MLOAD RETURNDATASIZE PUSH1 0x1F NOT PUSH1 0x1F DUP3 ADD AND DUP3 ADD DUP1 PUSH1 0x40 MSTORE POP DUP2 ADD SWAP1 PUSH2 0x2206 SWAP2 SWAP1 PUSH2 0x3300 JUMP JUMPDEST SWAP1 SWAP6 SWAP1 SWAP5 POP SWAP3 POP POP POP JUMP JUMPDEST PUSH1 0xA SLOAD PUSH1 0x40 MLOAD PUSH4 0x4CDA0DE9 PUSH1 0xE0 SHL DUP2 MSTORE PUSH1 0x4 DUP2 ADD DUP5 SWAP1 MSTORE PUSH1 0x24 DUP2 ADD DUP4 SWAP1 MSTORE PUSH1 0x1 PUSH1 0x1 PUSH1 0xA0 SHL SUB SWAP1 SWAP2 AND SWAP1 PUSH4 0x4CDA0DE9 SWAP1 PUSH1 0x44 ADD PUSH2 0xB74 JUMP JUMPDEST PUSH1 0xA SLOAD PUSH1 0x40 MLOAD PUSH4 0x3F94EDD1 PUSH1 0xE1 SHL DUP2 MSTORE PUSH1 0x4 DUP2 ADD DUP5 SWAP1 MSTORE PUSH1 0x24 DUP2 ADD DUP4 SWAP1 MSTORE PUSH1 0x1 PUSH1 0x1 PUSH1 0xA0 SHL SUB SWAP1 SWAP2 AND SWAP1 PUSH4 0x7F29DBA2 SWAP1 PUSH1 0x44 ADD PUSH2 0xB74 JUMP JUMPDEST PUSH1 0xA SLOAD PUSH1 0x40 MLOAD PUSH4 0xE71E783 PUSH1 0xE2 SHL DUP2 MSTORE PUSH1 0x4 DUP2 ADD DUP4 SWAP1 MSTORE PUSH1 0x1 PUSH1 0x1 PUSH1 0xA0 SHL SUB SWAP1 SWAP2 AND SWAP1 PUSH4 0x39C79E0C SWAP1 PUSH1 0x24 ADD PUSH2 0x186C JUMP JUMPDEST PUSH1 0xA SLOAD PUSH1 0x40 MLOAD PUSH4 0x1B07B17F PUSH1 0xE0 SHL DUP2 MSTORE PUSH1 0x4 DUP2 ADD DUP4 SWAP1 MSTORE PUSH1 0x0 SWAP2 PUSH1 0x1 PUSH1 0x1 PUSH1 0xA0 SHL SUB AND SWAP1 PUSH4 0x1B07B17F SWAP1 PUSH1 0x24 ADD PUSH1 0x20 PUSH1 0x40 MLOAD DUP1 DUP4 SUB DUP2 PUSH1 0x0 DUP8 DUP1 EXTCODESIZE ISZERO DUP1 ISZERO PUSH2 0x22F9 JUMPI PUSH1 0x0 DUP1 REVERT JUMPDEST POP GAS CALL ISZERO DUP1 ISZERO PUSH2 0x230D JUMPI RETURNDATASIZE PUSH1 0x0 DUP1 RETURNDATACOPY RETURNDATASIZE PUSH1 0x0 REVERT JUMPDEST POP POP POP POP PUSH1 0x40 MLOAD RETURNDATASIZE PUSH1 0x1F NOT PUSH1 0x1F DUP3 ADD AND DUP3 ADD DUP1 PUSH1 0x40 MSTORE POP DUP2 ADD SWAP1 PUSH2 0x770 SWAP2 SWAP1 PUSH2 0x2B32 JUMP JUMPDEST PUSH1 0x0 PUSH2 0xF63 DUP4 DUP4 PUSH2 0x26AF JUMP JUMPDEST PUSH1 0x3 SLOAD PUSH1 0x40 MLOAD PUSH4 0x1C2D8FB3 PUSH1 0xE3 SHL DUP2 MSTORE PUSH1 0x4 DUP2 ADD DUP4 SWAP1 MSTORE PUSH1 0x0 SWAP2 PUSH2 0x100 SWAP1 DIV PUSH1 0x1 PUSH1 0x1 PUSH1 0xA0 SHL SUB AND SWAP1 PUSH4 0xE16C7D98 SWAP1 PUSH1 0x24 ADD PUSH1 0x20 PUSH1 0x40 MLOAD DUP1 DUP4 SUB DUP2 DUP7 DUP1 EXTCODESIZE ISZERO DUP1 ISZERO PUSH2 0x2387 JUMPI PUSH1 0x0 DUP1 REVERT JUMPDEST POP GAS STATICCALL ISZERO DUP1 ISZERO PUSH2 0x239B JUMPI RETURNDATASIZE PUSH1 0x0 DUP1 RETURNDATACOPY RETURNDATASIZE PUSH1 0x0 REVERT JUMPDEST POP POP POP POP PUSH1 0x40 MLOAD RETURNDATASIZE PUSH1 0x1F NOT PUSH1 0x1F DUP3 ADD AND DUP3 ADD DUP1 PUSH1 0x40 MSTORE POP DUP2 ADD SWAP1 PUSH2 0x770 SWAP2 SWAP1 PUSH2 0x2B16 JUMP JUMPDEST PUSH32 0xB79D34516B55D664B61192AA41FBC0625B132FB7129BD3B3A31F46D1BEFA7061 PUSH2 0x23E9 PUSH1 0x2 SLOAD SWAP1 JUMP JUMPDEST PUSH1 0x40 MLOAD SWAP1 DUP2 MSTORE PUSH1 0x20 ADD PUSH1 0x40 MLOAD DUP1 SWAP2 SUB SWAP1 LOG1 JUMP JUMPDEST PUSH2 0x72F DUP2 CALLER PUSH2 0x26FE JUMP JUMPDEST PUSH2 0x2410 DUP3 DUP3 PUSH2 0x165E JUMP JUMPDEST PUSH2 0xF47 JUMPI PUSH1 0x0 DUP3 DUP2 MSTORE PUSH1 0xC PUSH1 0x20 SWAP1 DUP2 MSTORE PUSH1 0x40 DUP1 DUP4 KECCAK256 PUSH1 0x1 PUSH1 0x1 PUSH1 0xA0 SHL SUB DUP6 AND DUP5 MSTORE SWAP1 SWAP2 MSTORE SWAP1 KECCAK256 DUP1 SLOAD PUSH1 0xFF NOT AND PUSH1 0x1 OR SWAP1 SSTORE PUSH2 0x2448 CALLER SWAP1 JUMP JUMPDEST PUSH1 0x1 PUSH1 0x1 PUSH1 0xA0 SHL SUB AND DUP2 PUSH1 0x1 PUSH1 0x1 PUSH1 0xA0 SHL SUB AND DUP4 PUSH32 0x2F8788117E7EFF1D82E926EC794901D17C78024A50270940304540A733656F0D PUSH1 0x40 MLOAD PUSH1 0x40 MLOAD DUP1 SWAP2 SUB SWAP1 LOG4 POP POP JUMP JUMPDEST PUSH2 0x2496 DUP3 DUP3 PUSH2 0x165E JUMP JUMPDEST ISZERO PUSH2 0xF47 JUMPI PUSH1 0x0 DUP3 DUP2 MSTORE PUSH1 0xC PUSH1 0x20 SWAP1 DUP2 MSTORE PUSH1 0x40 DUP1 DUP4 KECCAK256 PUSH1 0x1 PUSH1 0x1 PUSH1 0xA0 SHL SUB DUP6 AND DUP1 DUP6 MSTORE SWAP3 MSTORE DUP1 DUP4 KECCAK256 DUP1 SLOAD PUSH1 0xFF NOT AND SWAP1 SSTORE MLOAD CALLER SWAP3 DUP6 SWAP2 PUSH32 0xF6391F5C32D9C69D2A47EA670B442974B53935D1EDC7FD64EB21E047A839171B SWAP2 SWAP1 LOG4 POP POP JUMP JUMPDEST PUSH1 0x0 PUSH2 0xF63 DUP4 DUP4 PUSH2 0x2757 JUMP JUMPDEST PUSH32 0xCFF3B7B8B07D4D8F74BF41F05737717140D5916781B9DFF86EA0B996F2FDB9F9 PUSH2 0x23E9 PUSH1 0x2 SLOAD SWAP1 JUMP JUMPDEST PUSH1 0x0 DUP1 SLOAD PUSH1 0x1 PUSH1 0x1 PUSH1 0xA0 SHL SUB DUP4 DUP2 AND PUSH1 0x1 PUSH1 0x1 PUSH1 0xA0 SHL SUB NOT DUP4 AND DUP2 OR DUP5 SSTORE PUSH1 0x40 MLOAD SWAP2 SWAP1 SWAP3 AND SWAP3 DUP4 SWAP2 PUSH32 0x8BE0079C531659141344CD1FD0A4F28419497F9722A3DAAFE3B4186F6B6457E0 SWAP2 SWAP1 LOG3 POP POP JUMP JUMPDEST PUSH1 0xA SLOAD PUSH1 0x40 MLOAD PUSH4 0x8CC7D3D1 PUSH1 0xE0 SHL DUP2 MSTORE PUSH1 0x4 DUP2 ADD DUP4 SWAP1 MSTORE PUSH1 0x1 PUSH1 0x1 PUSH1 0xA0 SHL SUB SWAP1 SWAP2 AND SWAP1 PUSH4 0x8CC7D3D1 SWAP1 PUSH1 0x24 ADD PUSH2 0x186C JUMP JUMPDEST PUSH1 0x0 DUP1 PUSH1 0x0 DUP1 PUSH2 0x25B9 DUP6 PUSH2 0x1E34 JUMP JUMPDEST SWAP1 POP DUP1 PUSH1 0x20 ADD MLOAD DUP2 PUSH1 0x40 ADD MLOAD LT ISZERO PUSH2 0x25E8 JUMPI PUSH2 0x17A9 DUP6 DUP3 PUSH1 0x40 ADD MLOAD DUP4 PUSH1 0x20 ADD MLOAD PUSH2 0x25E3 SWAP2 SWAP1 PUSH2 0x3793 JUMP JUMPDEST PUSH2 0x278F JUMP JUMPDEST POP SWAP2 SWAP4 SWAP1 SWAP3 POP JUMP JUMPDEST PUSH32 0x38954B1D025D5A8FFCF9B42D431BE2745CDCD05D32B0E5AD33EE2DB025EF5B55 PUSH2 0x23E9 PUSH1 0x2 SLOAD SWAP1 JUMP JUMPDEST PUSH1 0xA SLOAD PUSH1 0x40 MLOAD PUSH4 0x49DC20A5 PUSH1 0xE1 SHL DUP2 MSTORE PUSH1 0x0 SWAP2 PUSH1 0x1 PUSH1 0x1 PUSH1 0xA0 SHL SUB AND SWAP1 PUSH4 0x93B8414A SWAP1 PUSH2 0x2653 SWAP1 DUP10 SWAP1 DUP10 SWAP1 DUP10 SWAP1 DUP10 SWAP1 DUP10 SWAP1 PUSH1 0x4 ADD PUSH2 0x33E0 JUMP JUMPDEST PUSH1 0x20 PUSH1 0x40 MLOAD DUP1 DUP4 SUB DUP2 PUSH1 0x0 DUP8 DUP1 EXTCODESIZE ISZERO DUP1 ISZERO PUSH2 0x266D JUMPI PUSH1 0x0 DUP1 REVERT JUMPDEST POP GAS CALL ISZERO DUP1 ISZERO PUSH2 0x2681 JUMPI RETURNDATASIZE PUSH1 0x0 DUP1 RETURNDATACOPY RETURNDATASIZE PUSH1 0x0 REVERT JUMPDEST POP POP POP POP PUSH1 0x40 MLOAD RETURNDATASIZE PUSH1 0x1F NOT PUSH1 0x1F DUP3 ADD AND DUP3 ADD DUP1 PUSH1 0x40 MSTORE POP DUP2 ADD SWAP1 PUSH2 0x12B7 SWAP2 SWAP1 PUSH2 0x2E61 JUMP JUMPDEST PUSH1 0x0 PUSH2 0x770 DUP3 SLOAD SWAP1 JUMP JUMPDEST PUSH1 0x0 DUP2 DUP2 MSTORE PUSH1 0x1 DUP4 ADD PUSH1 0x20 MSTORE PUSH1 0x40 DUP2 KECCAK256 SLOAD PUSH2 0x26F6 JUMPI POP DUP2 SLOAD PUSH1 0x1 DUP2 DUP2 ADD DUP5 SSTORE PUSH1 0x0 DUP5 DUP2 MSTORE PUSH1 0x20 DUP1 DUP3 KECCAK256 SWAP1 SWAP4 ADD DUP5 SWAP1 SSTORE DUP5 SLOAD DUP5 DUP3 MSTORE DUP3 DUP7 ADD SWAP1 SWAP4 MSTORE PUSH1 0x40 SWAP1 KECCAK256 SWAP2 SWAP1 SWAP2 SSTORE PUSH2 0xF66 JUMP JUMPDEST POP PUSH1 0x0 PUSH2 0xF66 JUMP JUMPDEST PUSH2 0x2708 DUP3 DUP3 PUSH2 0x165E JUMP JUMPDEST PUSH2 0xF47 JUMPI PUSH2 0x2715 DUP2 PUSH2 0x2819 JUMP JUMPDEST PUSH2 0x2720 DUP4 PUSH1 0x20 PUSH2 0x282B JUMP JUMPDEST PUSH1 0x40 MLOAD PUSH1 0x20 ADD PUSH2 0x2731 SWAP3 SWAP2 SWAP1 PUSH2 0x336B JUMP JUMPDEST PUSH1 0x40 DUP1 MLOAD PUSH1 0x1F NOT DUP2 DUP5 SUB ADD DUP2 MSTORE SWAP1 DUP3 SWAP1 MSTORE PUSH3 0x461BCD PUSH1 0xE5 SHL DUP3 MSTORE PUSH2 0x7DF SWAP2 PUSH1 0x4 ADD PUSH2 0x3555 JUMP JUMPDEST PUSH1 0x0 DUP3 PUSH1 0x0 ADD DUP3 DUP2 SLOAD DUP2 LT PUSH2 0x277C JUMPI PUSH4 0x4E487B71 PUSH1 0xE0 SHL PUSH1 0x0 MSTORE PUSH1 0x32 PUSH1 0x4 MSTORE PUSH1 0x24 PUSH1 0x0 REVERT JUMPDEST SWAP1 PUSH1 0x0 MSTORE PUSH1 0x20 PUSH1 0x0 KECCAK256 ADD SLOAD SWAP1 POP SWAP3 SWAP2 POP POP JUMP JUMPDEST PUSH1 0xA SLOAD PUSH1 0x40 MLOAD PUSH4 0xE3EBDEA5 PUSH1 0xE0 SHL DUP2 MSTORE PUSH1 0x4 DUP2 ADD DUP5 SWAP1 MSTORE PUSH1 0x24 DUP2 ADD DUP4 SWAP1 MSTORE PUSH1 0x0 SWAP2 DUP3 SWAP2 DUP3 SWAP2 PUSH1 0x1 PUSH1 0x1 PUSH1 0xA0 SHL SUB AND SWAP1 PUSH4 0xE3EBDEA5 SWAP1 PUSH1 0x44 ADD PUSH1 0x60 PUSH1 0x40 MLOAD DUP1 DUP4 SUB DUP2 PUSH1 0x0 DUP8 DUP1 EXTCODESIZE ISZERO DUP1 ISZERO PUSH2 0x27E1 JUMPI PUSH1 0x0 DUP1 REVERT JUMPDEST POP GAS CALL ISZERO DUP1 ISZERO PUSH2 0x27F5 JUMPI RETURNDATASIZE PUSH1 0x0 DUP1 RETURNDATACOPY RETURNDATASIZE PUSH1 0x0 REVERT JUMPDEST POP POP POP POP PUSH1 0x40 MLOAD RETURNDATASIZE PUSH1 0x1F NOT PUSH1 0x1F DUP3 ADD AND DUP3 ADD DUP1 PUSH1 0x40 MSTORE POP DUP2 ADD SWAP1 PUSH2 0x17A9 SWAP2 SWAP1 PUSH2 0x2B4E JUMP JUMPDEST PUSH1 0x60 PUSH2 0x770 PUSH1 0x1 PUSH1 0x1 PUSH1 0xA0 SHL SUB DUP4 AND PUSH1 0x14 JUMPDEST PUSH1 0x60 PUSH1 0x0 PUSH2 0x283A DUP4 PUSH1 0x2 PUSH2 0x3774 JUMP JUMPDEST PUSH2 0x2845 SWAP1 PUSH1 0x2 PUSH2 0x3626 JUMP JUMPDEST PUSH8 0xFFFFFFFFFFFFFFFF DUP2 GT ISZERO PUSH2 0x286B JUMPI PUSH4 0x4E487B71 PUSH1 0xE0 SHL PUSH1 0x0 MSTORE PUSH1 0x41 PUSH1 0x4 MSTORE PUSH1 0x24 PUSH1 0x0 REVERT JUMPDEST PUSH1 0x40 MLOAD SWAP1 DUP1 DUP3 MSTORE DUP1 PUSH1 0x1F ADD PUSH1 0x1F NOT AND PUSH1 0x20 ADD DUP3 ADD PUSH1 0x40 MSTORE DUP1 ISZERO PUSH2 0x2895 JUMPI PUSH1 0x20 DUP3 ADD DUP2 DUP1 CALLDATASIZE DUP4 CALLDATACOPY ADD SWAP1 POP JUMPDEST POP SWAP1 POP PUSH1 0x3 PUSH1 0xFC SHL DUP2 PUSH1 0x0 DUP2 MLOAD DUP2 LT PUSH2 0x28BE JUMPI PUSH4 0x4E487B71 PUSH1 0xE0 SHL PUSH1 0x0 MSTORE PUSH1 0x32 PUSH1 0x4 MSTORE PUSH1 0x24 PUSH1 0x0 REVERT JUMPDEST PUSH1 0x20 ADD ADD SWAP1 PUSH1 0x1 PUSH1 0x1 PUSH1 0xF8 SHL SUB NOT AND SWAP1 DUP2 PUSH1 0x0 BYTE SWAP1 MSTORE8 POP PUSH1 0xF PUSH1 0xFB SHL DUP2 PUSH1 0x1 DUP2 MLOAD DUP2 LT PUSH2 0x28FB JUMPI PUSH4 0x4E487B71 PUSH1 0xE0 SHL PUSH1 0x0 MSTORE PUSH1 0x32 PUSH1 0x4 MSTORE PUSH1 0x24 PUSH1 0x0 REVERT JUMPDEST PUSH1 0x20 ADD ADD SWAP1 PUSH1 0x1 PUSH1 0x1 PUSH1 0xF8 SHL SUB NOT AND SWAP1 DUP2 PUSH1 0x0 BYTE SWAP1 MSTORE8 POP PUSH1 0x0 PUSH2 0x291F DUP5 PUSH1 0x2 PUSH2 0x3774 JUMP JUMPDEST PUSH2 0x292A SWAP1 PUSH1 0x1 PUSH2 0x3626 JUMP JUMPDEST SWAP1 POP JUMPDEST PUSH1 0x1 DUP2 GT ISZERO PUSH2 0x29BE JUMPI PUSH16 0x181899199A1A9B1B9C1CB0B131B232B3 PUSH1 0x81 SHL DUP6 PUSH1 0xF AND PUSH1 0x10 DUP2 LT PUSH2 0x296C JUMPI PUSH4 0x4E487B71 PUSH1 0xE0 SHL PUSH1 0x0 MSTORE PUSH1 0x32 PUSH1 0x4 MSTORE PUSH1 0x24 PUSH1 0x0 REVERT JUMPDEST BYTE PUSH1 0xF8 SHL DUP3 DUP3 DUP2 MLOAD DUP2 LT PUSH2 0x2990 JUMPI PUSH4 0x4E487B71 PUSH1 0xE0 SHL PUSH1 0x0 MSTORE PUSH1 0x32 PUSH1 0x4 MSTORE PUSH1 0x24 PUSH1 0x0 REVERT JUMPDEST PUSH1 0x20 ADD ADD SWAP1 PUSH1 0x1 PUSH1 0x1 PUSH1 0xF8 SHL SUB NOT AND SWAP1 DUP2 PUSH1 0x0 BYTE SWAP1 MSTORE8 POP PUSH1 0x4 SWAP5 SWAP1 SWAP5 SHR SWAP4 PUSH2 0x29B7 DUP2 PUSH2 0x37DA JUMP JUMPDEST SWAP1 POP PUSH2 0x292D JUMP JUMPDEST POP DUP4 ISZERO PUSH2 0xF63 JUMPI PUSH1 0x40 MLOAD PUSH3 0x461BCD PUSH1 0xE5 SHL DUP2 MSTORE PUSH1 0x20 PUSH1 0x4 DUP3 ADD DUP2 SWAP1 MSTORE PUSH1 0x24 DUP3 ADD MSTORE PUSH32 0x537472696E67733A20686578206C656E67746820696E73756666696369656E74 PUSH1 0x44 DUP3 ADD MSTORE PUSH1 0x64 ADD PUSH2 0x7DF JUMP JUMPDEST PUSH1 0x0 PUSH2 0x2A20 PUSH2 0x2A1B DUP5 PUSH2 0x35FE JUMP JUMPDEST PUSH2 0x35CD JUMP JUMPDEST SWAP1 POP DUP3 DUP2 MSTORE DUP4 DUP4 DUP4 ADD GT ISZERO PUSH2 0x2A34 JUMPI PUSH1 0x0 DUP1 REVERT JUMPDEST DUP3 DUP3 PUSH1 0x20 DUP4 ADD CALLDATACOPY PUSH1 0x0 PUSH1 0x20 DUP5 DUP4 ADD ADD MSTORE SWAP4 SWAP3 POP POP POP JUMP JUMPDEST DUP1 MLOAD PUSH2 0x773 DUP2 PUSH2 0x3848 JUMP JUMPDEST DUP1 MLOAD PUSH2 0x773 DUP2 PUSH2 0x3856 JUMP JUMPDEST PUSH1 0x0 DUP3 PUSH1 0x1F DUP4 ADD SLT PUSH2 0x2A71 JUMPI DUP1 DUP2 REVERT JUMPDEST DUP2 MLOAD PUSH2 0x2A7F PUSH2 0x2A1B DUP3 PUSH2 0x35FE JUMP JUMPDEST DUP2 DUP2 MSTORE DUP5 PUSH1 0x20 DUP4 DUP7 ADD ADD GT ISZERO PUSH2 0x2A93 JUMPI DUP3 DUP4 REVERT JUMPDEST PUSH2 0x157F DUP3 PUSH1 0x20 DUP4 ADD PUSH1 0x20 DUP8 ADD PUSH2 0x37AA JUMP JUMPDEST DUP1 MLOAD PUSH1 0x3 DUP2 LT PUSH2 0x773 JUMPI PUSH1 0x0 DUP1 REVERT JUMPDEST PUSH1 0x0 DUP3 PUSH1 0x1F DUP4 ADD SLT PUSH2 0x2AC3 JUMPI DUP1 DUP2 REVERT JUMPDEST PUSH2 0xF63 DUP4 DUP4 CALLDATALOAD PUSH1 0x20 DUP6 ADD PUSH2 0x2A0D JUMP JUMPDEST DUP1 MLOAD PUSH2 0xFFFF DUP2 AND DUP2 EQ PUSH2 0x773 JUMPI PUSH1 0x0 DUP1 REVERT JUMPDEST DUP1 MLOAD PUSH2 0x773 DUP2 PUSH2 0x3879 JUMP JUMPDEST DUP1 MLOAD PUSH2 0x773 DUP2 PUSH2 0x388B JUMP JUMPDEST PUSH1 0x0 PUSH1 0x20 DUP3 DUP5 SUB SLT ISZERO PUSH2 0x2B0B JUMPI DUP1 DUP2 REVERT JUMPDEST DUP2 CALLDATALOAD PUSH2 0xF63 DUP2 PUSH2 0x3833 JUMP JUMPDEST PUSH1 0x0 PUSH1 0x20 DUP3 DUP5 SUB SLT ISZERO PUSH2 0x2B27 JUMPI DUP1 DUP2 REVERT JUMPDEST DUP2 MLOAD PUSH2 0xF63 DUP2 PUSH2 0x3833 JUMP JUMPDEST PUSH1 0x0 PUSH1 0x20 DUP3 DUP5 SUB SLT ISZERO PUSH2 0x2B43 JUMPI DUP1 DUP2 REVERT JUMPDEST DUP2 MLOAD PUSH2 0xF63 DUP2 PUSH2 0x3848 JUMP JUMPDEST PUSH1 0x0 DUP1 PUSH1 0x0 PUSH1 0x60 DUP5 DUP7 SUB SLT ISZERO PUSH2 0x2B62 JUMPI DUP2 DUP3 REVERT JUMPDEST DUP4 MLOAD PUSH2 0x2B6D DUP2 PUSH2 0x3848 JUMP JUMPDEST PUSH1 0x20 DUP6 ADD MLOAD PUSH1 0x40 SWAP1 SWAP6 ADD MLOAD SWAP1 SWAP7 SWAP5 SWAP6 POP SWAP4 SWAP3 POP POP POP JUMP JUMPDEST PUSH1 0x0 PUSH1 0x20 DUP3 DUP5 SUB SLT ISZERO PUSH2 0x2B95 JUMPI DUP1 DUP2 REVERT JUMPDEST DUP2 MLOAD PUSH2 0xF63 DUP2 PUSH2 0x3856 JUMP JUMPDEST PUSH1 0x0 DUP1 PUSH1 0x0 DUP1 PUSH1 0x0 DUP1 PUSH1 0x0 DUP1 PUSH2 0x100 DUP10 DUP12 SUB SLT ISZERO PUSH2 0x2BBC JUMPI DUP6 DUP7 REVERT JUMPDEST DUP9 CALLDATALOAD PUSH2 0x2BC7 DUP2 PUSH2 0x3856 JUMP JUMPDEST SWAP8 POP PUSH1 0x20 DUP10 ADD CALLDATALOAD PUSH2 0x2BD7 DUP2 PUSH2 0x3833 JUMP JUMPDEST SWAP7 POP PUSH1 0x40 DUP10 ADD CALLDATALOAD PUSH2 0x2BE7 DUP2 PUSH2 0x388B JUMP JUMPDEST SWAP6 POP PUSH1 0x60 DUP10 ADD CALLDATALOAD PUSH2 0x2BF7 DUP2 PUSH2 0x3856 JUMP JUMPDEST SWAP5 POP PUSH1 0x80 DUP10 ADD CALLDATALOAD SWAP4 POP PUSH1 0xA0 DUP10 ADD CALLDATALOAD SWAP3 POP PUSH1 0xC0 DUP10 ADD CALLDATALOAD PUSH2 0x2C15 DUP2 PUSH2 0x3879 JUMP JUMPDEST SWAP2 POP PUSH1 0xE0 DUP10 ADD CALLDATALOAD PUSH2 0x2C25 DUP2 PUSH2 0x3848 JUMP JUMPDEST DUP1 SWAP2 POP POP SWAP3 SWAP6 SWAP9 POP SWAP3 SWAP6 SWAP9 SWAP1 SWAP4 SWAP7 POP JUMP JUMPDEST PUSH1 0x0 DUP1 PUSH1 0x40 DUP4 DUP6 SUB SLT ISZERO PUSH2 0x2C48 JUMPI DUP2 DUP3 REVERT JUMPDEST DUP3 CALLDATALOAD PUSH2 0x2C53 DUP2 PUSH2 0x3856 JUMP JUMPDEST SWAP2 POP PUSH1 0x20 DUP4 ADD CALLDATALOAD PUSH2 0x2C63 DUP2 PUSH2 0x3848 JUMP JUMPDEST DUP1 SWAP2 POP POP SWAP3 POP SWAP3 SWAP1 POP JUMP JUMPDEST PUSH1 0x0 DUP1 PUSH1 0x0 DUP1 PUSH1 0x0 DUP1 PUSH1 0xC0 DUP8 DUP10 SUB SLT ISZERO PUSH2 0x2C86 JUMPI DUP4 DUP5 REVERT JUMPDEST DUP7 CALLDATALOAD PUSH2 0x2C91 DUP2 PUSH2 0x3856 JUMP JUMPDEST SWAP6 POP PUSH1 0x20 DUP8 ADD CALLDATALOAD PUSH2 0x2CA1 DUP2 PUSH2 0x3856 JUMP JUMPDEST SWAP5 POP PUSH1 0x40 DUP8 ADD CALLDATALOAD PUSH8 0xFFFFFFFFFFFFFFFF DUP2 GT ISZERO PUSH2 0x2CBC JUMPI DUP5 DUP6 REVERT JUMPDEST PUSH2 0x2CC8 DUP10 DUP3 DUP11 ADD PUSH2 0x2AB3 JUMP JUMPDEST SWAP5 POP POP PUSH1 0x60 DUP8 ADD CALLDATALOAD SWAP3 POP PUSH1 0x80 DUP8 ADD CALLDATALOAD SWAP2 POP PUSH1 0xA0 DUP8 ADD CALLDATALOAD PUSH2 0x2CE7 DUP2 PUSH2 0x3848 JUMP JUMPDEST DUP1 SWAP2 POP POP SWAP3 SWAP6 POP SWAP3 SWAP6 POP SWAP3 SWAP6 JUMP JUMPDEST PUSH1 0x0 DUP1 PUSH1 0x0 DUP1 PUSH1 0x0 DUP1 PUSH1 0xC0 DUP8 DUP10 SUB SLT ISZERO PUSH2 0x2D0D JUMPI DUP4 DUP5 REVERT JUMPDEST DUP7 CALLDATALOAD PUSH2 0x2D18 DUP2 PUSH2 0x3856 JUMP JUMPDEST SWAP6 POP PUSH1 0x20 DUP8 ADD CALLDATALOAD PUSH2 0x2D28 DUP2 PUSH2 0x3856 JUMP JUMPDEST SWAP5 POP PUSH1 0x40 DUP8 ADD CALLDATALOAD PUSH2 0x2D38 DUP2 PUSH2 0x388B JUMP JUMPDEST SWAP4 POP PUSH1 0x60 DUP8 ADD CALLDATALOAD PUSH2 0x2D48 DUP2 PUSH2 0x3856 JUMP JUMPDEST SWAP3 POP PUSH1 0x80 DUP8 ADD CALLDATALOAD PUSH8 0xFFFFFFFFFFFFFFFF DUP2 GT ISZERO PUSH2 0x2D63 JUMPI DUP3 DUP4 REVERT JUMPDEST PUSH2 0x2D6F DUP10 DUP3 DUP11 ADD PUSH2 0x2AB3 JUMP JUMPDEST SWAP3 POP POP PUSH1 0xA0 DUP8 ADD CALLDATALOAD PUSH2 0x2CE7 DUP2 PUSH2 0x3879 JUMP JUMPDEST PUSH1 0x0 DUP1 PUSH1 0x0 DUP1 PUSH1 0x0 DUP1 PUSH1 0xC0 DUP8 DUP10 SUB SLT ISZERO PUSH2 0x2D98 JUMPI DUP4 DUP5 REVERT JUMPDEST DUP7 MLOAD PUSH2 0x2DA3 DUP2 PUSH2 0x3856 JUMP JUMPDEST PUSH1 0x20 DUP9 ADD MLOAD SWAP1 SWAP7 POP PUSH2 0x2DB4 DUP2 PUSH2 0x3856 JUMP JUMPDEST PUSH1 0x40 DUP9 ADD MLOAD SWAP1 SWAP6 POP PUSH2 0x2DC5 DUP2 PUSH2 0x388B JUMP JUMPDEST PUSH1 0x60 DUP9 ADD MLOAD SWAP1 SWAP5 POP PUSH2 0x2DD6 DUP2 PUSH2 0x3856 JUMP JUMPDEST PUSH1 0x80 DUP9 ADD MLOAD SWAP1 SWAP4 POP PUSH8 0xFFFFFFFFFFFFFFFF DUP2 GT ISZERO PUSH2 0x2DF2 JUMPI DUP3 DUP4 REVERT JUMPDEST PUSH2 0x2DFE DUP10 DUP3 DUP11 ADD PUSH2 0x2A61 JUMP JUMPDEST SWAP3 POP POP PUSH1 0xA0 DUP8 ADD MLOAD PUSH2 0x2CE7 DUP2 PUSH2 0x3879 JUMP JUMPDEST PUSH1 0x0 DUP1 PUSH1 0x0 DUP1 PUSH1 0x80 DUP6 DUP8 SUB SLT ISZERO PUSH2 0x2E24 JUMPI DUP2 DUP3 REVERT JUMPDEST DUP5 CALLDATALOAD PUSH2 0x2E2F DUP2 PUSH2 0x3856 JUMP JUMPDEST SWAP7 PUSH1 0x20 DUP7 ADD CALLDATALOAD SWAP7 POP PUSH1 0x40 DUP7 ADD CALLDATALOAD SWAP6 PUSH1 0x60 ADD CALLDATALOAD SWAP5 POP SWAP3 POP POP POP JUMP JUMPDEST PUSH1 0x0 PUSH1 0x20 DUP3 DUP5 SUB SLT ISZERO PUSH2 0x2E5A JUMPI DUP1 DUP2 REVERT JUMPDEST POP CALLDATALOAD SWAP2 SWAP1 POP JUMP JUMPDEST PUSH1 0x0 PUSH1 0x20 DUP3 DUP5 SUB SLT ISZERO PUSH2 0x2E72 JUMPI DUP1 DUP2 REVERT JUMPDEST POP MLOAD SWAP2 SWAP1 POP JUMP JUMPDEST PUSH1 0x0 DUP1 PUSH1 0x40 DUP4 DUP6 SUB SLT ISZERO PUSH2 0x2E8B JUMPI DUP2 DUP3 REVERT JUMPDEST DUP3 CALLDATALOAD SWAP2 POP PUSH1 0x20 DUP4 ADD CALLDATALOAD PUSH2 0x2C63 DUP2 PUSH2 0x3833 JUMP JUMPDEST PUSH1 0x0 DUP1 PUSH1 0x40 DUP4 DUP6 SUB SLT ISZERO PUSH2 0x2EAF JUMPI DUP2 DUP3 REVERT JUMPDEST POP POP DUP1 CALLDATALOAD SWAP3 PUSH1 0x20 SWAP1 SWAP2 ADD CALLDATALOAD SWAP2 POP JUMP JUMPDEST PUSH1 0x0 PUSH1 0x20 DUP3 DUP5 SUB SLT ISZERO PUSH2 0x2ECF JUMPI DUP1 DUP2 REVERT JUMPDEST DUP2 CALLDATALOAD PUSH1 0x1 PUSH1 0x1 PUSH1 0xE0 SHL SUB NOT DUP2 AND DUP2 EQ PUSH2 0xF63 JUMPI DUP2 DUP3 REVERT JUMPDEST PUSH1 0x0 PUSH1 0x20 DUP3 DUP5 SUB SLT ISZERO PUSH2 0x2EF7 JUMPI DUP1 DUP2 REVERT JUMPDEST DUP2 CALLDATALOAD PUSH8 0xFFFFFFFFFFFFFFFF DUP2 GT ISZERO PUSH2 0x2F0D JUMPI DUP2 DUP3 REVERT JUMPDEST DUP3 ADD PUSH1 0x1F DUP2 ADD DUP5 SGT PUSH2 0x2F1D JUMPI DUP2 DUP3 REVERT JUMPDEST PUSH2 0x157F DUP5 DUP3 CALLDATALOAD PUSH1 0x20 DUP5 ADD PUSH2 0x2A0D JUMP JUMPDEST PUSH1 0x0 PUSH1 0x20 DUP3 DUP5 SUB SLT ISZERO PUSH2 0x2F3D JUMPI DUP1 DUP2 REVERT JUMPDEST DUP2 MLOAD PUSH1 0x7 DUP2 LT PUSH2 0xF63 JUMPI DUP2 DUP3 REVERT JUMPDEST PUSH1 0x0 PUSH1 0x20 DUP3 DUP5 SUB SLT ISZERO PUSH2 0x2F5C JUMPI DUP1 DUP2 REVERT JUMPDEST DUP2 MLOAD PUSH8 0xFFFFFFFFFFFFFFFF DUP1 DUP3 GT ISZERO PUSH2 0x2F73 JUMPI DUP3 DUP4 REVERT JUMPDEST SWAP1 DUP4 ADD SWAP1 PUSH1 0xC0 DUP3 DUP7 SUB SLT ISZERO PUSH2 0x2F86 JUMPI DUP3 DUP4 REVERT JUMPDEST PUSH2 0x2F90 PUSH1 0xC0 PUSH2 0x35CD JUMP JUMPDEST DUP3 MLOAD PUSH2 0x2F9B DUP2 PUSH2 0x386C JUMP JUMPDEST DUP1 DUP3 MSTORE POP PUSH1 0x20 DUP4 ADD MLOAD PUSH1 0x20 DUP3 ADD MSTORE PUSH1 0x40 DUP4 ADD MLOAD PUSH1 0x40 DUP3 ADD MSTORE PUSH1 0x60 DUP4 ADD MLOAD DUP3 DUP2 GT ISZERO PUSH2 0x2FC4 JUMPI DUP5 DUP6 REVERT JUMPDEST PUSH2 0x2FD0 DUP8 DUP3 DUP7 ADD PUSH2 0x2A61 JUMP JUMPDEST PUSH1 0x60 DUP4 ADD MSTORE POP PUSH1 0x80 DUP4 ADD MLOAD PUSH1 0x80 DUP3 ADD MSTORE PUSH1 0xA0 DUP4 ADD MLOAD PUSH1 0xA0 DUP3 ADD MSTORE DUP1 SWAP4 POP POP POP POP SWAP3 SWAP2 POP POP JUMP JUMPDEST PUSH1 0x0 PUSH1 0x40 DUP3 DUP5 SUB SLT ISZERO PUSH2 0x3007 JUMPI DUP1 DUP2 REVERT JUMPDEST PUSH2 0x3011 PUSH1 0x40 PUSH2 0x35CD JUMP JUMPDEST DUP3 MLOAD PUSH2 0x301C DUP2 PUSH2 0x3833 JUMP JUMPDEST DUP2 MSTORE PUSH1 0x20 DUP4 ADD MLOAD PUSH2 0x302C DUP2 PUSH2 0x388B JUMP JUMPDEST PUSH1 0x20 DUP3 ADD MSTORE SWAP4 SWAP3 POP POP POP JUMP JUMPDEST PUSH1 0x0 PUSH1 0x20 DUP3 DUP5 SUB SLT ISZERO PUSH2 0x3049 JUMPI DUP1 DUP2 REVERT JUMPDEST DUP2 MLOAD PUSH8 0xFFFFFFFFFFFFFFFF DUP1 DUP3 GT ISZERO PUSH2 0x3060 JUMPI DUP3 DUP4 REVERT JUMPDEST DUP2 DUP5 ADD SWAP2 POP PUSH2 0x1E0 DUP1 DUP4 DUP8 SUB SLT ISZERO PUSH2 0x3076 JUMPI DUP4 DUP5 REVERT JUMPDEST PUSH2 0x307F DUP2 PUSH2 0x35CD JUMP JUMPDEST SWAP1 POP PUSH2 0x308A DUP4 PUSH2 0x2A4B JUMP JUMPDEST DUP2 MSTORE PUSH1 0x20 DUP4 ADD MLOAD DUP3 DUP2 GT ISZERO PUSH2 0x309D JUMPI DUP5 DUP6 REVERT JUMPDEST PUSH2 0x30A9 DUP8 DUP3 DUP7 ADD PUSH2 0x2A61 JUMP JUMPDEST PUSH1 0x20 DUP4 ADD MSTORE POP PUSH2 0x30BB PUSH1 0x40 DUP5 ADD PUSH2 0x2AD2 JUMP JUMPDEST PUSH1 0x40 DUP3 ADD MSTORE PUSH2 0x30CC PUSH1 0x60 DUP5 ADD PUSH2 0x2AEF JUMP JUMPDEST PUSH1 0x60 DUP3 ADD MSTORE PUSH2 0x30DD PUSH1 0x80 DUP5 ADD PUSH2 0x2AEF JUMP JUMPDEST PUSH1 0x80 DUP3 ADD MSTORE PUSH1 0xA0 DUP4 ADD MLOAD DUP3 DUP2 GT ISZERO PUSH2 0x30F3 JUMPI DUP5 DUP6 REVERT JUMPDEST PUSH2 0x30FF DUP8 DUP3 DUP7 ADD PUSH2 0x2A61 JUMP JUMPDEST PUSH1 0xA0 DUP4 ADD MSTORE POP PUSH1 0xC0 DUP4 ADD MLOAD DUP3 DUP2 GT ISZERO PUSH2 0x3116 JUMPI DUP5 DUP6 REVERT JUMPDEST PUSH2 0x3122 DUP8 DUP3 DUP7 ADD PUSH2 0x2A61 JUMP JUMPDEST PUSH1 0xC0 DUP4 ADD MSTORE POP PUSH1 0xE0 DUP4 DUP2 ADD MLOAD SWAP1 DUP3 ADD MSTORE PUSH2 0x100 DUP1 DUP5 ADD MLOAD SWAP1 DUP3 ADD MSTORE PUSH2 0x120 DUP1 DUP5 ADD MLOAD SWAP1 DUP3 ADD MSTORE PUSH2 0x140 DUP1 DUP5 ADD MLOAD SWAP1 DUP3 ADD MSTORE PUSH2 0x160 DUP1 DUP5 ADD MLOAD SWAP1 DUP3 ADD MSTORE PUSH2 0x180 DUP1 DUP5 ADD MLOAD SWAP1 DUP3 ADD MSTORE PUSH2 0x1A0 SWAP2 POP PUSH2 0x3179 DUP3 DUP5 ADD PUSH2 0x2AE4 JUMP JUMPDEST DUP3 DUP3 ADD MSTORE PUSH2 0x1C0 SWAP2 POP PUSH2 0x318D DUP3 DUP5 ADD PUSH2 0x2AE4 JUMP JUMPDEST SWAP2 DUP2 ADD SWAP2 SWAP1 SWAP2 MSTORE SWAP5 SWAP4 POP POP POP POP JUMP JUMPDEST PUSH1 0x0 PUSH2 0x120 DUP1 DUP4 DUP6 SUB SLT ISZERO PUSH2 0x31AF JUMPI DUP2 DUP3 REVERT JUMPDEST PUSH2 0x31B8 DUP2 PUSH2 0x35CD JUMP JUMPDEST SWAP1 POP PUSH2 0x31C3 DUP4 PUSH2 0x2AA4 JUMP JUMPDEST DUP2 MSTORE PUSH1 0x20 DUP4 ADD MLOAD PUSH1 0x20 DUP3 ADD MSTORE PUSH1 0x40 DUP4 ADD MLOAD PUSH1 0x40 DUP3 ADD MSTORE PUSH1 0x60 DUP4 ADD MLOAD PUSH1 0x60 DUP3 ADD MSTORE PUSH1 0x80 DUP4 ADD MLOAD PUSH1 0x80 DUP3 ADD MSTORE PUSH1 0xA0 DUP4 ADD MLOAD PUSH1 0xA0 DUP3 ADD MSTORE PUSH1 0xC0 DUP4 ADD MLOAD PUSH1 0xC0 DUP3 ADD MSTORE PUSH1 0xE0 DUP4 ADD MLOAD PUSH1 0xE0 DUP3 ADD MSTORE PUSH2 0x100 DUP1 DUP5 ADD MLOAD DUP2 DUP4 ADD MSTORE POP DUP1 SWAP2 POP POP SWAP3 SWAP2 POP POP JUMP JUMPDEST PUSH1 0x0 PUSH1 0x20 DUP3 DUP5 SUB SLT ISZERO PUSH2 0x3232 JUMPI DUP1 DUP2 REVERT JUMPDEST DUP2 MLOAD PUSH8 0xFFFFFFFFFFFFFFFF DUP1 DUP3 GT ISZERO PUSH2 0x3249 JUMPI DUP3 DUP4 REVERT JUMPDEST DUP2 DUP5 ADD SWAP2 POP PUSH2 0x120 DUP1 DUP4 DUP8 SUB SLT ISZERO PUSH2 0x325F JUMPI DUP4 DUP5 REVERT JUMPDEST PUSH2 0x3268 DUP2 PUSH2 0x35CD JUMP JUMPDEST SWAP1 POP PUSH2 0x3273 DUP4 PUSH2 0x2A4B JUMP JUMPDEST DUP2 MSTORE PUSH2 0x3281 PUSH1 0x20 DUP5 ADD PUSH2 0x2A56 JUMP JUMPDEST PUSH1 0x20 DUP3 ADD MSTORE PUSH2 0x3292 PUSH1 0x40 DUP5 ADD PUSH2 0x2A56 JUMP JUMPDEST PUSH1 0x40 DUP3 ADD MSTORE PUSH1 0x60 DUP4 ADD MLOAD DUP3 DUP2 GT ISZERO PUSH2 0x32A8 JUMPI DUP5 DUP6 REVERT JUMPDEST PUSH2 0x32B4 DUP8 DUP3 DUP7 ADD PUSH2 0x2A61 JUMP JUMPDEST PUSH1 0x60 DUP4 ADD MSTORE POP PUSH1 0x80 DUP4 ADD MLOAD PUSH1 0x80 DUP3 ADD MSTORE PUSH1 0xA0 DUP4 ADD MLOAD PUSH1 0xA0 DUP3 ADD MSTORE PUSH2 0x32DA PUSH1 0xC0 DUP5 ADD PUSH2 0x2A4B JUMP JUMPDEST PUSH1 0xC0 DUP3 ADD MSTORE PUSH2 0x32EB PUSH1 0xE0 DUP5 ADD PUSH2 0x2AE4 JUMP JUMPDEST PUSH1 0xE0 DUP3 ADD MSTORE PUSH2 0x100 SWAP2 POP PUSH2 0x318D DUP3 DUP5 ADD PUSH2 0x2AE4 JUMP JUMPDEST PUSH1 0x0 DUP1 PUSH1 0x40 DUP4 DUP6 SUB SLT ISZERO PUSH2 0x3312 JUMPI DUP2 DUP3 REVERT JUMPDEST POP POP DUP1 MLOAD PUSH1 0x20 SWAP1 SWAP2 ADD MLOAD SWAP1 SWAP3 SWAP1 SWAP2 POP JUMP JUMPDEST PUSH1 0x0 PUSH1 0x20 DUP3 DUP5 SUB SLT ISZERO PUSH2 0x3334 JUMPI DUP1 DUP2 REVERT JUMPDEST DUP2 MLOAD PUSH2 0xF63 DUP2 PUSH2 0x388B JUMP JUMPDEST PUSH1 0x0 DUP2 MLOAD DUP1 DUP5 MSTORE PUSH2 0x3357 DUP2 PUSH1 0x20 DUP7 ADD PUSH1 0x20 DUP7 ADD PUSH2 0x37AA JUMP JUMPDEST PUSH1 0x1F ADD PUSH1 0x1F NOT AND SWAP3 SWAP1 SWAP3 ADD PUSH1 0x20 ADD SWAP3 SWAP2 POP POP JUMP JUMPDEST PUSH1 0x0 PUSH32 0x416363657373436F6E74726F6C3A206163636F756E7420000000000000000000 DUP3 MSTORE DUP4 MLOAD PUSH2 0x33A3 DUP2 PUSH1 0x17 DUP6 ADD PUSH1 0x20 DUP9 ADD PUSH2 0x37AA JUMP JUMPDEST PUSH17 0x1034B99036B4B9B9B4B733903937B6329 PUSH1 0x7D SHL PUSH1 0x17 SWAP2 DUP5 ADD SWAP2 DUP3 ADD MSTORE DUP4 MLOAD PUSH2 0x33D4 DUP2 PUSH1 0x28 DUP5 ADD PUSH1 0x20 DUP9 ADD PUSH2 0x37AA JUMP JUMPDEST ADD PUSH1 0x28 ADD SWAP5 SWAP4 POP POP POP POP JUMP JUMPDEST PUSH1 0x0 PUSH1 0x1 DUP1 PUSH1 0xA0 SHL SUB DUP8 AND DUP3 MSTORE DUP6 PUSH1 0x20 DUP4 ADD MSTORE DUP5 PUSH1 0x40 DUP4 ADD MSTORE PUSH1 0xA0 PUSH1 0x60 DUP4 ADD MSTORE PUSH2 0x340D PUSH1 0xA0 DUP4 ADD DUP6 PUSH2 0x333F JUMP JUMPDEST DUP3 DUP2 SUB PUSH1 0x80 DUP5 ADD MSTORE PUSH2 0x341F DUP2 DUP6 PUSH2 0x333F JUMP JUMPDEST SWAP9 SWAP8 POP POP POP POP POP POP POP POP JUMP JUMPDEST PUSH1 0x1 PUSH1 0x1 PUSH1 0x80 SHL SUB NOT SWAP2 SWAP1 SWAP2 AND DUP2 MSTORE PUSH1 0x20 ADD SWAP1 JUMP JUMPDEST PUSH1 0x0 PUSH1 0x1 PUSH1 0x1 PUSH1 0x80 SHL SUB NOT DUP1 DUP7 AND DUP4 MSTORE DUP1 DUP6 AND PUSH1 0x20 DUP5 ADD MSTORE POP PUSH1 0x60 PUSH1 0x40 DUP4 ADD MSTORE PUSH2 0x2174 PUSH1 0x60 DUP4 ADD DUP5 PUSH2 0x333F JUMP JUMPDEST PUSH1 0x0 PUSH1 0x1 PUSH1 0x1 PUSH1 0x80 SHL SUB NOT DUP1 DUP10 AND DUP4 MSTORE DUP1 DUP9 AND PUSH1 0x20 DUP5 ADD MSTORE POP PUSH1 0xC0 PUSH1 0x40 DUP4 ADD MSTORE PUSH2 0x349A PUSH1 0xC0 DUP4 ADD DUP8 PUSH2 0x333F JUMP JUMPDEST PUSH1 0x60 DUP4 ADD SWAP6 SWAP1 SWAP6 MSTORE POP PUSH1 0x80 DUP2 ADD SWAP3 SWAP1 SWAP3 MSTORE ISZERO ISZERO PUSH1 0xA0 SWAP1 SWAP2 ADD MSTORE SWAP4 SWAP3 POP POP POP JUMP JUMPDEST PUSH1 0x0 PUSH1 0x1 PUSH1 0x1 PUSH1 0x80 SHL SUB NOT DUP1 DUP10 AND DUP4 MSTORE DUP1 DUP9 AND PUSH1 0x20 DUP5 ADD MSTORE PUSH1 0xFF DUP8 AND PUSH1 0x40 DUP5 ADD MSTORE DUP1 DUP7 AND PUSH1 0x60 DUP5 ADD MSTORE POP PUSH1 0xC0 PUSH1 0x80 DUP4 ADD MSTORE PUSH2 0x34F8 PUSH1 0xC0 DUP4 ADD DUP6 PUSH2 0x333F JUMP JUMPDEST SWAP1 POP PUSH4 0xFFFFFFFF DUP4 AND PUSH1 0xA0 DUP4 ADD MSTORE SWAP8 SWAP7 POP POP POP POP POP POP POP JUMP JUMPDEST PUSH1 0x0 DUP5 DUP3 MSTORE DUP4 PUSH1 0x20 DUP4 ADD MSTORE PUSH1 0x60 PUSH1 0x40 DUP4 ADD MSTORE PUSH2 0x2174 PUSH1 0x60 DUP4 ADD DUP5 PUSH2 0x333F JUMP JUMPDEST PUSH1 0x0 DUP6 DUP3 MSTORE DUP5 PUSH1 0x20 DUP4 ADD MSTORE DUP4 PUSH1 0x40 DUP4 ADD MSTORE PUSH1 0x80 PUSH1 0x60 DUP4 ADD MSTORE PUSH2 0x12B7 PUSH1 0x80 DUP4 ADD DUP5 PUSH2 0x333F JUMP JUMPDEST PUSH1 0x0 PUSH1 0x20 DUP3 MSTORE PUSH2 0xF63 PUSH1 0x20 DUP4 ADD DUP5 PUSH2 0x333F JUMP JUMPDEST PUSH1 0x20 DUP2 ADD PUSH1 0x7 DUP4 LT PUSH2 0x357C JUMPI PUSH2 0x357C PUSH2 0x3807 JUMP JUMPDEST SWAP2 SWAP1 MSTORE SWAP1 JUMP JUMPDEST PUSH1 0x20 DUP2 ADD PUSH1 0x3 DUP4 LT PUSH2 0x357C JUMPI PUSH2 0x357C PUSH2 0x3807 JUMP JUMPDEST PUSH1 0x20 DUP1 DUP3 MSTORE PUSH1 0x1B SWAP1 DUP3 ADD MSTORE PUSH32 0x4552524F523A434D502D3030323A4E4F545F434F4D504F4E454E540000000000 PUSH1 0x40 DUP3 ADD MSTORE PUSH1 0x60 ADD SWAP1 JUMP JUMPDEST PUSH1 0x40 MLOAD PUSH1 0x1F DUP3 ADD PUSH1 0x1F NOT AND DUP2 ADD PUSH8 0xFFFFFFFFFFFFFFFF DUP2 GT DUP3 DUP3 LT OR ISZERO PUSH2 0x35F6 JUMPI PUSH2 0x35F6 PUSH2 0x381D JUMP JUMPDEST PUSH1 0x40 MSTORE SWAP2 SWAP1 POP JUMP JUMPDEST PUSH1 0x0 PUSH8 0xFFFFFFFFFFFFFFFF DUP3 GT ISZERO PUSH2 0x3618 JUMPI PUSH2 0x3618 PUSH2 0x381D JUMP JUMPDEST POP PUSH1 0x1F ADD PUSH1 0x1F NOT AND PUSH1 0x20 ADD SWAP1 JUMP JUMPDEST PUSH1 0x0 DUP3 NOT DUP3 GT ISZERO PUSH2 0x3639 JUMPI PUSH2 0x3639 PUSH2 0x37F1 JUMP JUMPDEST POP ADD SWAP1 JUMP JUMPDEST PUSH1 0x0 DUP3 PUSH2 0x3659 JUMPI PUSH4 0x4E487B71 PUSH1 0xE0 SHL DUP2 MSTORE PUSH1 0x12 PUSH1 0x4 MSTORE PUSH1 0x24 DUP2 REVERT JUMPDEST POP DIV SWAP1 JUMP JUMPDEST DUP1 DUP3 JUMPDEST PUSH1 0x1 DUP1 DUP7 GT PUSH2 0x3670 JUMPI POP PUSH2 0x369B JUMP JUMPDEST DUP2 DUP8 DIV DUP3 GT ISZERO PUSH2 0x3682 JUMPI PUSH2 0x3682 PUSH2 0x37F1 JUMP JUMPDEST DUP1 DUP7 AND ISZERO PUSH2 0x368F JUMPI SWAP2 DUP2 MUL SWAP2 JUMPDEST SWAP5 SWAP1 SWAP5 SHR SWAP4 DUP1 MUL PUSH2 0x3661 JUMP JUMPDEST SWAP5 POP SWAP5 SWAP3 POP POP POP JUMP JUMPDEST PUSH1 0x0 PUSH2 0xF63 PUSH1 0x0 NOT DUP5 DUP5 PUSH1 0x0 DUP3 PUSH2 0x36BD JUMPI POP PUSH1 0x1 PUSH2 0x376D JUMP JUMPDEST DUP2 PUSH2 0x36CA JUMPI POP PUSH1 0x0 PUSH2 0x376D JUMP JUMPDEST DUP2 PUSH1 0x1 DUP2 EQ PUSH2 0x36E0 JUMPI PUSH1 0x2 DUP2 EQ PUSH2 0x36EA JUMPI PUSH2 0x3717 JUMP JUMPDEST PUSH1 0x1 SWAP2 POP POP PUSH2 0x376D JUMP JUMPDEST PUSH1 0xFF DUP5 GT ISZERO PUSH2 0x36FB JUMPI PUSH2 0x36FB PUSH2 0x37F1 JUMP JUMPDEST PUSH1 0x1 DUP5 SHL SWAP2 POP DUP5 DUP3 GT ISZERO PUSH2 0x3711 JUMPI PUSH2 0x3711 PUSH2 0x37F1 JUMP JUMPDEST POP PUSH2 0x376D JUMP JUMPDEST POP PUSH1 0x20 DUP4 LT PUSH2 0x133 DUP4 LT AND PUSH1 0x4E DUP5 LT PUSH1 0xB DUP5 LT AND OR ISZERO PUSH2 0x374A JUMPI POP DUP2 DUP2 EXP DUP4 DUP2 GT ISZERO PUSH2 0x3745 JUMPI PUSH2 0x3745 PUSH2 0x37F1 JUMP JUMPDEST PUSH2 0x376D JUMP JUMPDEST PUSH2 0x3757 DUP5 DUP5 DUP5 PUSH1 0x1 PUSH2 0x365E JUMP JUMPDEST DUP1 DUP7 DIV DUP3 GT ISZERO PUSH2 0x3769 JUMPI PUSH2 0x3769 PUSH2 0x37F1 JUMP JUMPDEST MUL SWAP1 POP JUMPDEST SWAP4 SWAP3 POP POP POP JUMP JUMPDEST PUSH1 0x0 DUP2 PUSH1 0x0 NOT DIV DUP4 GT DUP3 ISZERO ISZERO AND ISZERO PUSH2 0x378E JUMPI PUSH2 0x378E PUSH2 0x37F1 JUMP JUMPDEST POP MUL SWAP1 JUMP JUMPDEST PUSH1 0x0 DUP3 DUP3 LT ISZERO PUSH2 0x37A5 JUMPI PUSH2 0x37A5 PUSH2 0x37F1 JUMP JUMPDEST POP SUB SWAP1 JUMP JUMPDEST PUSH1 0x0 JUMPDEST DUP4 DUP2 LT ISZERO PUSH2 0x37C5 JUMPI DUP2 DUP2 ADD MLOAD DUP4 DUP3 ADD MSTORE PUSH1 0x20 ADD PUSH2 0x37AD JUMP JUMPDEST DUP4 DUP2 GT ISZERO PUSH2 0x37D4 JUMPI PUSH1 0x0 DUP5 DUP5 ADD MSTORE JUMPDEST POP POP POP POP JUMP JUMPDEST PUSH1 0x0 DUP2 PUSH2 0x37E9 JUMPI PUSH2 0x37E9 PUSH2 0x37F1 JUMP JUMPDEST POP PUSH1 0x0 NOT ADD SWAP1 JUMP JUMPDEST PUSH4 0x4E487B71 PUSH1 0xE0 SHL PUSH1 0x0 MSTORE PUSH1 0x11 PUSH1 0x4 MSTORE PUSH1 0x24 PUSH1 0x0 REVERT JUMPDEST PUSH4 0x4E487B71 PUSH1 0xE0 SHL PUSH1 0x0 MSTORE PUSH1 0x21 PUSH1 0x4 MSTORE PUSH1 0x24 PUSH1 0x0 REVERT JUMPDEST PUSH4 0x4E487B71 PUSH1 0xE0 SHL PUSH1 0x0 MSTORE PUSH1 0x41 PUSH1 0x4 MSTORE PUSH1 0x24 PUSH1 0x0 REVERT JUMPDEST PUSH1 0x1 PUSH1 0x1 PUSH1 0xA0 SHL SUB DUP2 AND DUP2 EQ PUSH2 0x72F JUMPI PUSH1 0x0 DUP1 REVERT JUMPDEST DUP1 ISZERO ISZERO DUP2 EQ PUSH2 0x72F JUMPI PUSH1 0x0 DUP1 REVERT JUMPDEST PUSH1 0x1 PUSH1 0x1 PUSH1 0x80 SHL SUB NOT DUP2 AND DUP2 EQ PUSH2 0x72F JUMPI PUSH1 0x0 DUP1 REVERT JUMPDEST PUSH1 0x4 DUP2 LT PUSH2 0x72F JUMPI PUSH1 0x0 DUP1 REVERT JUMPDEST PUSH4 0xFFFFFFFF DUP2 AND DUP2 EQ PUSH2 0x72F JUMPI PUSH1 0x0 DUP1 REVERT JUMPDEST PUSH1 0xFF DUP2 AND DUP2 EQ PUSH2 0x72F JUMPI PUSH1 0x0 DUP1 REVERT INVALID LOG2 PUSH5 0x6970667358 0x22 SLT KECCAK256 PUSH4 0x2FD0BFB4 DUP9 NUMBER AND 0xE6 DUP9 0xAA DUP15 SWAP1 EQ XOR DUP12 0x28 PUSH12 0xF40446BF0BB2F818E0EF2BF8 SHL 0xE6 PUSH5 0x736F6C6343 STOP ADDMOD MUL STOP CALLER ",
  "sha1": "97da72cf9f068d63256ff77cf001e6cd32cc3420",
  "source": "// SPDX-License-Identifier: MIT\npragma solidity 0.8.2;\n\nimport {AccessControl} from \"@openzeppelin/contracts/access/AccessControl.sol\";\nimport {IERC20Metadata} from \"@openzeppelin/contracts/token/ERC20/extensions/IERC20Metadata.sol\";\nimport {EnumerableSet} from \"@openzeppelin/contracts/utils/structs/EnumerableSet.sol\";\n\nimport {Product} from \"@etherisc/gif-interface/contracts/components/Product.sol\";\nimport {IPolicy} from \"@etherisc/gif-interface/contracts/modules/IPolicy.sol\";\n\nimport {ArcModel} from \"./ArcModel.sol\";\n\ncontract ArcProduct is \n    Product, \n    AccessControl\n{\n    using EnumerableSet for EnumerableSet.Bytes32Set;\n\n    bytes32 public constant NAME = \"ArcIndexProduct\";\n    bytes32 public constant VERSION = \"0.1\";\n    bytes32 public constant POLICY_FLOW = \"PolicyDefaultFlow\";\n\n    mapping(bytes32 /* riskId */ => EnumerableSet.Bytes32Set /* processIds */) private _policies;\n    bytes32 [] private _processIds; // useful for debugging, might need to get rid of this\n\n    ArcModel private _model;\n    IERC20Metadata private _token;\n\n    event LogArcApplicationCreated(bytes32 processId, bytes32 beneficiaryId, address policyHolder, uint256 premiumAmount, uint256 sumInsuredAmount);\n    event LogArcApplicationDeclined(bytes32 processId);\n\n    event LogArcPolicyCreated(bytes32 policyId, bytes32 beneficiaryId, bytes32 riskId, uint256 premiumAmount);\n    event LogArcPolicyProcessed(bytes32 policyId, uint256 claimId, uint256 payoutAmount);\n    event LogArcPolicyClosed(bytes32 policyId);\n    \n    event LogArcClaimCreated(bytes32 policyId, uint256 claimId, uint256 payoutAmount);\n    event LogArcPayoutCreated(bytes32 policyId, uint256 payoutAmount);\n\n    constructor(\n        bytes32 productName,\n        address token,\n        uint256 riskpoolId,\n        address registry,\n        address model\n    )\n        Product(productName, token, POLICY_FLOW, riskpoolId, registry)\n    {\n        _token = IERC20Metadata(token);\n        _model = ArcModel(model);\n    }\n\n\n    function transferModel(\n        address newOwner\n    )\n        external\n        onlyOwner()\n    {\n        _model.transferOwnership(newOwner);\n    }\n\n    function setLocation(\n        bytes16 locationId,\n        bool isValid\n    )\n        external\n        onlyOwner()\n    {\n        _model.setLocation(locationId, isValid);\n    }\n\n    function createRisk(\n        bytes16 configId,\n        bytes16 locationId,\n        string memory crop,\n        uint256 indexReferenceValue,\n        uint256 indexSeasonValue,\n        bool riskIsFinal\n    )\n        external\n        onlyOwner()\n        returns (bytes16 riskId)\n    {\n        // check if we have to add location\n        if(!_model.isValidLocation(locationId)) {\n            _model.setLocation(locationId, true);\n        }\n\n        riskId = _model.toRiskId(configId, locationId, crop);\n        if (_model.getRisk(riskId).createdAt == 0) {\n            _model.createRisk(\n                configId, \n                locationId, \n                crop,\n                indexReferenceValue,\n                indexSeasonValue,\n                riskIsFinal);\n        }\n    }\n\n\n    function createPolicy(\n        bytes16 beneficiaryId,\n        address wallet,\n        uint8 sex,\n        bytes16 riskId,\n        uint256 premiumAmount,\n        uint256 sumInsuredAmount,\n        uint32 subscriptionDate,\n        bool underwriteApplication\n    )\n        external \n        onlyOwner()\n        returns(\n            bytes32 processId\n        )\n    {\n        // deal with beneficiary\n        if (_model.getBeneficiary(beneficiaryId).wallet == address(0)) {\n            _model.createBeneficiary(beneficiaryId, wallet, sex);\n        }\n        ArcModel.Beneficiary memory beneficiary = _model.getBeneficiary(beneficiaryId);\n\n        // get risk\n        ArcModel.Risk memory risk = _model.getRisk(riskId);\n        require(risk.valid, \"ERROR:ARC-020:RISK_INVALID\");\n\n        address policyHolder = beneficiary.wallet;\n        bytes memory applicationData = encodeApplicationData(\n            riskId,\n            beneficiaryId,\n            beneficiary.sex,\n            risk.locationId,\n            risk.crop,\n            subscriptionDate);\n\n        processId = _newApplication(\n            policyHolder, \n            premiumAmount, \n            sumInsuredAmount,\n            \"\",\n            applicationData);\n\n        _processIds.push(processId);\n\n        emit LogArcApplicationCreated(\n            processId, \n            beneficiaryId, \n            policyHolder, \n            premiumAmount, \n            sumInsuredAmount);\n\n        if (underwriteApplication) {\n            underwrite(processId);\n        } else {\n            decline(processId);\n        }\n    }\n\n\n    function underwrite(bytes32 processId) \n        public \n        onlyOwner()\n        returns(bool success)\n    {\n        // ensure the application for processId exists and has the correct state\n        IPolicy.Application memory application = _getApplication(processId);\n        require(application.state == IPolicy.ApplicationState.Applied, \"ERROR:ARC-060:STATE_NOT_APPLIED\");\n\n        success = _underwrite(processId);\n\n        if (success) {\n            (bytes16 riskId, bytes16 beneficiaryId,,,,) = decodeApplicationData(application.data);\n            EnumerableSet.add(_policies[riskId], processId);\n\n            emit LogArcPolicyCreated(\n                processId, \n                beneficiaryId, \n                riskId, \n                application.premiumAmount);\n        }\n    }\n\n\n    function decline(bytes32 processId) \n        public \n        onlyOwner()\n    {\n        // ensure the application for processId exists and has the correct state\n        IPolicy.Application memory application = _getApplication(processId);\n        require(application.state == IPolicy.ApplicationState.Applied, \"ERROR:ARC-070:STATE_NOT_APPLIED\");\n\n        _decline(processId);\n\n        emit LogArcApplicationDeclined(processId);\n    }\n\n\n    function collectPremium(bytes32 processId) \n        external\n        onlyOwner()\n        returns(bool success, uint256 fee, uint256 netPremium)\n    {\n        // ensure the policy for processId exists and has the correct state\n        IPolicy.Policy memory policy = _getPolicy(processId);\n        require(policy.state == IPolicy.PolicyState.Active, \"ERROR:ARC-080:STATE_NOT_ACTIVE\");\n\n        (success, fee, netPremium) = _collectPremium(processId);\n    }\n\n    function processPolicy(bytes32 policyId)\n        external\n        onlyOwner()\n        returns (uint256 claimId)\n    {\n        IPolicy.Application memory application = _getApplication(policyId);\n        require(application.createdAt > 0, \"ERROR:ARC-100:PROCESS_ID_INVALID\");\n\n        (bytes16 riskId,,,,,) = decodeApplicationData(application.data);\n        ArcModel.Risk memory risk = _model.getRisk(riskId);\n        require(risk.valid, \"ERROR:ARC-101:RISK_ID_INVALID\");\n\n        IPolicy.Policy memory policy = _getPolicy(policyId);\n        require(policy.createdAt > 0, \"ERROR:ARC-102:POLICY_UNAVAILABLE\");\n\n        // check if claim needs to be created (will create a claim even if there is not payout)\n        if(policy.claimsCount == 0) {\n            bytes memory claimData = \"\";\n            uint256 claimAmount = calculatePayoutAmount(\n                risk.configId, \n                risk.indexReferenceValue, \n                risk.indexSeasonValue, \n                application.sumInsuredAmount);\n\n            claimId = _newClaim(policyId, claimAmount, claimData);\n\n            // once the end of season claim is created no new claims will be acceptable\n            // we can expire the policy\n            _expire(policyId);\n        } else {\n            // we will only have one claim (which will has claimId = 0)\n            claimId = 0;\n        }\n\n        IPolicy.Claim memory claim = _getClaim(policyId, claimId);\n        require(claim.createdAt > 0, \"ERROR:ARC-103:CLAIM_UNAVAILABLE\");\n\n        // shortcut, nothing to do\n        if(claim.state == IPolicy.ClaimState.Closed) {\n            return claimId;\n        }\n\n        // confirm claim if risk status is final (decline if payout is 0)\n        if(claim.state == IPolicy.ClaimState.Applied && risk.isFinal) {\n            // (re)calculate payout amount based on final season index\n            uint256 payoutAmount = calculatePayoutAmount(\n                risk.configId, \n                risk.indexReferenceValue, \n                risk.indexSeasonValue, \n                application.sumInsuredAmount);\n\n            if(payoutAmount > 0) {\n                _confirmClaim(policyId, claimId, payoutAmount);\n\n                bytes memory payoutData = \"\";\n                uint256 payoutId = _newPayout(policyId, claimId, payoutAmount, payoutData);\n                _processPayout(policyId, payoutId);\n            } else {\n                _declineClaim(policyId, claimId);\n                _closeClaim(policyId, claimId);\n            }\n\n            // we have now eiter declined a claim (when no payout was to be made)\n            // or the payout has been made -> we can now close the policy\n            _close(policyId);\n\n            emit LogArcPolicyProcessed(policyId, claimId, payoutAmount);\n        }\n    }\n\n\n    function closePolicy(bytes32 processId) \n        external\n        onlyOwner()\n    {\n        _expire(processId);\n        _close(processId);\n\n        emit LogArcPolicyClosed(processId);\n    }\n\n\n    function isProcessed(bytes32 policyId)\n        external\n        view\n        returns (bool)\n    {\n        return _getClaim(policyId, 0).state == IPolicy.ClaimState.Closed;\n    }\n\n\n    function encodeApplicationData(\n        bytes16 riskId,\n        bytes16 beneficiaryId,\n        uint8 sex,\n        bytes16 locationId,\n        string memory crop,\n        uint32 subscriptionDate\n    )\n        public\n        pure\n        returns(bytes memory data)\n    {\n        return abi.encode(\n            riskId,\n            beneficiaryId,\n            sex,\n            locationId,\n            crop,\n            subscriptionDate);\n    }\n\n\n    function decodeApplicationData(\n        bytes memory data\n    )\n        public\n        pure\n        returns(\n            bytes16 riskId,\n            bytes16 beneficiaryId,\n            uint8 sex,\n            bytes16 locationId,\n            string memory crop,\n            uint32 subscriptionDate\n        )\n    {\n        (\n            riskId,\n            beneficiaryId,\n            sex,\n            locationId,\n            crop,\n            subscriptionDate\n        ) = abi.decode(data, (bytes16, bytes16, uint8, bytes16, string, uint32));\n    }\n\n    function getModel() external view returns (ArcModel model) { return _model; }\n\n\n    function calculatePayoutAmount(\n        bytes16 configId,\n        uint256 indexReferenceValue,\n        uint256 indexSeasonValue,\n        uint256 sumInsuredAmount\n    )\n        public\n        view\n        returns(uint256 payoutAmount)\n    {\n        ArcModel.Config memory config = _model.getConfig(configId);\n        require(config.valid, \"ERROR:ARC-200:CONFIG_INVALID\");\n\n        uint256 indexRatio = (10 ** _model.UFIXED_DECIMALS() * indexSeasonValue) / indexReferenceValue;\n        uint256 payoutRatio = 0;\n\n        // check index ratio against trigger levels\n        if(indexRatio <= config.triggerSevereLevel) { payoutRatio = config.triggerSeverePayout; }\n        else if(indexRatio <= config.triggerMediumLevel) { payoutRatio = config.triggerMediumPayout; }\n        else if(indexRatio <= config.triggerWeakLevel) { payoutRatio = config.triggerWeakPayout; }\n\n        // for index ratios > config.triggerWeakLevel\n        if(payoutRatio == 0) {\n            return 0;\n        }\n\n        return (payoutRatio * sumInsuredAmount) / 10 ** _model.UFIXED_DECIMALS();\n    }\n\n    function getTokenDecimals() external view returns(uint256) {\n        return _token.decimals();\n    }\n\n    function processIds() external view returns(uint256 applicationCount) {\n        return _processIds.length;\n    }\n\n    function getProcessId(uint256 index) external view returns(bytes32 processId) {\n        return _processIds[index];\n    }\n\n    function policies(bytes32 riskId) external view returns(uint256 count) {\n        return EnumerableSet.length(_policies[riskId]);\n    }\n\n    function getPolicyId(bytes32 riskId, uint256 policyIdx) external view returns(bytes32 processId) {\n        return EnumerableSet.at(_policies[riskId], policyIdx);\n    }\n}",
  "sourcePath": "contracts/ArcProduct.sol",
  "type": "contract"
}