{
  "abi": [
    {
      "inputs": [
        {
          "internalType": "bytes32",
          "name": "processId",
          "type": "bytes32"
        }
      ],
      "name": "claims",
      "outputs": [
        {
          "internalType": "uint256",
          "name": "numberOfClaims",
          "type": "uint256"
        }
      ],
      "stateMutability": "view",
      "type": "function"
    },
    {
      "inputs": [
        {
          "internalType": "bytes32",
          "name": "processId",
          "type": "bytes32"
        }
      ],
      "name": "getApplication",
      "outputs": [
        {
          "components": [
            {
              "internalType": "enum InstanceServiceV2.ApplicationState",
              "name": "state",
              "type": "uint8"
            },
            {
              "internalType": "uint256",
              "name": "premiumAmount",
              "type": "uint256"
            },
            {
              "internalType": "uint256",
              "name": "sumInsuredAmount",
              "type": "uint256"
            },
            {
              "internalType": "bytes",
              "name": "data",
              "type": "bytes"
            },
            {
              "internalType": "uint256",
              "name": "createdAt",
              "type": "uint256"
            },
            {
              "internalType": "uint256",
              "name": "updatedAt",
              "type": "uint256"
            }
          ],
          "internalType": "struct InstanceServiceV2.Application",
          "name": "application",
          "type": "tuple"
        }
      ],
      "stateMutability": "view",
      "type": "function"
    },
    {
      "inputs": [
        {
          "internalType": "bytes32",
          "name": "processId",
          "type": "bytes32"
        },
        {
          "internalType": "uint256",
          "name": "claimId",
          "type": "uint256"
        }
      ],
      "name": "getClaim",
      "outputs": [
        {
          "components": [
            {
              "internalType": "enum InstanceServiceV2.ClaimState",
              "name": "state",
              "type": "uint8"
            },
            {
              "internalType": "uint256",
              "name": "claimAmount",
              "type": "uint256"
            },
            {
              "internalType": "uint256",
              "name": "paidAmount",
              "type": "uint256"
            },
            {
              "internalType": "bytes",
              "name": "data",
              "type": "bytes"
            },
            {
              "internalType": "uint256",
              "name": "createdAt",
              "type": "uint256"
            },
            {
              "internalType": "uint256",
              "name": "updatedAt",
              "type": "uint256"
            }
          ],
          "internalType": "struct InstanceServiceV2.Claim",
          "name": "claim",
          "type": "tuple"
        }
      ],
      "stateMutability": "view",
      "type": "function"
    },
    {
      "inputs": [
        {
          "internalType": "bytes32",
          "name": "processId",
          "type": "bytes32"
        }
      ],
      "name": "getMetadata",
      "outputs": [
        {
          "components": [
            {
              "internalType": "address",
              "name": "owner",
              "type": "address"
            },
            {
              "internalType": "uint256",
              "name": "productId",
              "type": "uint256"
            },
            {
              "internalType": "enum InstanceServiceV2.PolicyFlowState",
              "name": "state",
              "type": "uint8"
            },
            {
              "internalType": "bytes",
              "name": "data",
              "type": "bytes"
            },
            {
              "internalType": "uint256",
              "name": "createdAt",
              "type": "uint256"
            },
            {
              "internalType": "uint256",
              "name": "updatedAt",
              "type": "uint256"
            }
          ],
          "internalType": "struct InstanceServiceV2.Metadata",
          "name": "metadata",
          "type": "tuple"
        }
      ],
      "stateMutability": "view",
      "type": "function"
    },
    {
      "inputs": [
        {
          "internalType": "bytes32",
          "name": "processId",
          "type": "bytes32"
        },
        {
          "internalType": "uint256",
          "name": "payoutId",
          "type": "uint256"
        }
      ],
      "name": "getPayout",
      "outputs": [
        {
          "components": [
            {
              "internalType": "uint256",
              "name": "claimId",
              "type": "uint256"
            },
            {
              "internalType": "enum InstanceServiceV2.PayoutState",
              "name": "state",
              "type": "uint8"
            },
            {
              "internalType": "uint256",
              "name": "amount",
              "type": "uint256"
            },
            {
              "internalType": "bytes",
              "name": "data",
              "type": "bytes"
            },
            {
              "internalType": "uint256",
              "name": "createdAt",
              "type": "uint256"
            },
            {
              "internalType": "uint256",
              "name": "updatedAt",
              "type": "uint256"
            }
          ],
          "internalType": "struct InstanceServiceV2.Payout",
          "name": "payout",
          "type": "tuple"
        }
      ],
      "stateMutability": "view",
      "type": "function"
    },
    {
      "inputs": [
        {
          "internalType": "bytes32",
          "name": "processId",
          "type": "bytes32"
        }
      ],
      "name": "getPolicy",
      "outputs": [
        {
          "components": [
            {
              "internalType": "enum InstanceServiceV2.PolicyState",
              "name": "state",
              "type": "uint8"
            },
            {
              "internalType": "uint256",
              "name": "premiumExpectedAmount",
              "type": "uint256"
            },
            {
              "internalType": "uint256",
              "name": "premiumPaidAmount",
              "type": "uint256"
            },
            {
              "internalType": "uint256",
              "name": "claimsCount",
              "type": "uint256"
            },
            {
              "internalType": "uint256",
              "name": "openClaimsCount",
              "type": "uint256"
            },
            {
              "internalType": "uint256",
              "name": "payoutMaxAmount",
              "type": "uint256"
            },
            {
              "internalType": "uint256",
              "name": "payoutAmount",
              "type": "uint256"
            },
            {
              "internalType": "uint256",
              "name": "createdAt",
              "type": "uint256"
            },
            {
              "internalType": "uint256",
              "name": "updatedAt",
              "type": "uint256"
            }
          ],
          "internalType": "struct InstanceServiceV2.Policy",
          "name": "policy",
          "type": "tuple"
        }
      ],
      "stateMutability": "view",
      "type": "function"
    },
    {
      "inputs": [
        {
          "internalType": "bytes32",
          "name": "processId",
          "type": "bytes32"
        }
      ],
      "name": "payouts",
      "outputs": [
        {
          "internalType": "uint256",
          "name": "numberOfPayouts",
          "type": "uint256"
        }
      ],
      "stateMutability": "view",
      "type": "function"
    }
  ],
  "bytecode": "608060405234801561001057600080fd5b506104e0806100206000396000f3fe608060405234801561001057600080fd5b506004361061007d5760003560e01c8063aeddb9051161005b578063aeddb905146100eb578063bc506f641461010d578063cef58f1314610120578063eff0f592146100eb5761007d565b80637f22c2d914610082578063a3f685f9146100ab578063a5961b4c146100cb575b600080fd5b61009561009036600461029a565b610140565b6040516100a29190610306565b60405180910390f35b6100be6100b9366004610282565b610180565b6040516100a29190610404565b6100de6100d9366004610282565b6101d5565b6040516100a2919061036b565b6100ff6100f9366004610282565b50600090565b6040519081526020016100a2565b61009561011b366004610282565b61020e565b61013361012e36600461029a565b610248565b6040516100a291906103b8565b61017a6040805160c08101909152806000815260200160008152602001600081526020016060815260200160008152602001600081525090565b92915050565b6101d0604080516101208101909152806000815260200160008152602001600081526020016000815260200160008152602001600081526020016000815260200160008152602001600081525090565b919050565b6101d06040805160c081018252600080825260208201819052909182019081526020016060815260200160008152602001600081525090565b6101d06040805160c08101909152806000815260200160008152602001600081526020016060815260200160008152602001600081525090565b61017a6040805160c08101909152600080825260208201908152602001600081526020016060815260200160008152602001600081525090565b600060208284031215610293578081fd5b5035919050565b600080604083850312156102ac578081fd5b50508035926020909101359150565b60008151808452815b818110156102e0576020818501810151868301820152016102c4565b818111156102f15782602083870101525b50601f01601f19169290920160200192915050565b600060208252825161031781610487565b806020840152506020830151604083015260408301516060830152606083015160c0608084015261034b60e08401826102bb565b9050608084015160a084015260a084015160c08401528091505092915050565b60006020825260018060a01b0383511660208301526020830151604083015260408301516103988161049a565b80606084015250606083015160c0608084015261034b60e08401826102bb565b600060208252825160208301526020830151600281106103da576103da610471565b8060408401525060408301516060830152606083015160c0608084015261034b60e08401826102bb565b81516101208201906104158161049a565b808352506020830151602083015260408301516040830152606083015160608301526080830151608083015260a083015160a083015260c083015160c083015260e083015160e083015261010080840151818401525092915050565b634e487b7160e01b600052602160045260246000fd5b6004811061049757610497610471565b50565b600381106104975761049761047156fea264697066735822122048b8018881bc5cd3245b70f5f7f9f54dd051f8ce6c42551eb29d6f0a128b850664736f6c63430008020033",
  "bytecodeSha1": "af1cddd17650472502f6e79766b380b0f2ab6a97",
  "compiler": {
    "evm_version": "istanbul",
    "optimizer": {
      "enabled": true,
      "runs": 200
    },
    "version": "0.8.2+commit.661d1103"
  },
  "contractName": "InstanceServiceV2",
  "language": "Solidity",
  "natspec": {
    "kind": "dev",
    "methods": {},
    "version": 1
  },
  "opcodes": "PUSH1 0x80 PUSH1 0x40 MSTORE CALLVALUE DUP1 ISZERO PUSH2 0x10 JUMPI PUSH1 0x0 DUP1 REVERT JUMPDEST POP PUSH1 0x4 CALLDATASIZE LT PUSH2 0x7D JUMPI PUSH1 0x0 CALLDATALOAD PUSH1 0xE0 SHR DUP1 PUSH4 0xAEDDB905 GT PUSH2 0x5B JUMPI DUP1 PUSH4 0xAEDDB905 EQ PUSH2 0xEB JUMPI DUP1 PUSH4 0xBC506F64 EQ PUSH2 0x10D JUMPI DUP1 PUSH4 0xCEF58F13 EQ PUSH2 0x120 JUMPI DUP1 PUSH4 0xEFF0F592 EQ PUSH2 0xEB JUMPI PUSH2 0x7D JUMP JUMPDEST DUP1 PUSH4 0x7F22C2D9 EQ PUSH2 0x82 JUMPI DUP1 PUSH4 0xA3F685F9 EQ PUSH2 0xAB JUMPI DUP1 PUSH4 0xA5961B4C EQ PUSH2 0xCB JUMPI JUMPDEST PUSH1 0x0 DUP1 REVERT JUMPDEST PUSH2 0x95 PUSH2 0x90 CALLDATASIZE PUSH1 0x4 PUSH2 0x29A JUMP JUMPDEST PUSH2 0x140 JUMP JUMPDEST PUSH1 0x40 MLOAD PUSH2 0xA2 SWAP2 SWAP1 PUSH2 0x306 JUMP JUMPDEST PUSH1 0x40 MLOAD DUP1 SWAP2 SUB SWAP1 RETURN JUMPDEST PUSH2 0xBE PUSH2 0xB9 CALLDATASIZE PUSH1 0x4 PUSH2 0x282 JUMP JUMPDEST PUSH2 0x180 JUMP JUMPDEST PUSH1 0x40 MLOAD PUSH2 0xA2 SWAP2 SWAP1 PUSH2 0x404 JUMP JUMPDEST PUSH2 0xDE PUSH2 0xD9 CALLDATASIZE PUSH1 0x4 PUSH2 0x282 JUMP JUMPDEST PUSH2 0x1D5 JUMP JUMPDEST PUSH1 0x40 MLOAD PUSH2 0xA2 SWAP2 SWAP1 PUSH2 0x36B JUMP JUMPDEST PUSH2 0xFF PUSH2 0xF9 CALLDATASIZE PUSH1 0x4 PUSH2 0x282 JUMP JUMPDEST POP PUSH1 0x0 SWAP1 JUMP JUMPDEST PUSH1 0x40 MLOAD SWAP1 DUP2 MSTORE PUSH1 0x20 ADD PUSH2 0xA2 JUMP JUMPDEST PUSH2 0x95 PUSH2 0x11B CALLDATASIZE PUSH1 0x4 PUSH2 0x282 JUMP JUMPDEST PUSH2 0x20E JUMP JUMPDEST PUSH2 0x133 PUSH2 0x12E CALLDATASIZE PUSH1 0x4 PUSH2 0x29A JUMP JUMPDEST PUSH2 0x248 JUMP JUMPDEST PUSH1 0x40 MLOAD PUSH2 0xA2 SWAP2 SWAP1 PUSH2 0x3B8 JUMP JUMPDEST PUSH2 0x17A PUSH1 0x40 DUP1 MLOAD PUSH1 0xC0 DUP2 ADD SWAP1 SWAP2 MSTORE DUP1 PUSH1 0x0 DUP2 MSTORE PUSH1 0x20 ADD PUSH1 0x0 DUP2 MSTORE PUSH1 0x20 ADD PUSH1 0x0 DUP2 MSTORE PUSH1 0x20 ADD PUSH1 0x60 DUP2 MSTORE PUSH1 0x20 ADD PUSH1 0x0 DUP2 MSTORE PUSH1 0x20 ADD PUSH1 0x0 DUP2 MSTORE POP SWAP1 JUMP JUMPDEST SWAP3 SWAP2 POP POP JUMP JUMPDEST PUSH2 0x1D0 PUSH1 0x40 DUP1 MLOAD PUSH2 0x120 DUP2 ADD SWAP1 SWAP2 MSTORE DUP1 PUSH1 0x0 DUP2 MSTORE PUSH1 0x20 ADD PUSH1 0x0 DUP2 MSTORE PUSH1 0x20 ADD PUSH1 0x0 DUP2 MSTORE PUSH1 0x20 ADD PUSH1 0x0 DUP2 MSTORE PUSH1 0x20 ADD PUSH1 0x0 DUP2 MSTORE PUSH1 0x20 ADD PUSH1 0x0 DUP2 MSTORE PUSH1 0x20 ADD PUSH1 0x0 DUP2 MSTORE PUSH1 0x20 ADD PUSH1 0x0 DUP2 MSTORE PUSH1 0x20 ADD PUSH1 0x0 DUP2 MSTORE POP SWAP1 JUMP JUMPDEST SWAP2 SWAP1 POP JUMP JUMPDEST PUSH2 0x1D0 PUSH1 0x40 DUP1 MLOAD PUSH1 0xC0 DUP2 ADD DUP3 MSTORE PUSH1 0x0 DUP1 DUP3 MSTORE PUSH1 0x20 DUP3 ADD DUP2 SWAP1 MSTORE SWAP1 SWAP2 DUP3 ADD SWAP1 DUP2 MSTORE PUSH1 0x20 ADD PUSH1 0x60 DUP2 MSTORE PUSH1 0x20 ADD PUSH1 0x0 DUP2 MSTORE PUSH1 0x20 ADD PUSH1 0x0 DUP2 MSTORE POP SWAP1 JUMP JUMPDEST PUSH2 0x1D0 PUSH1 0x40 DUP1 MLOAD PUSH1 0xC0 DUP2 ADD SWAP1 SWAP2 MSTORE DUP1 PUSH1 0x0 DUP2 MSTORE PUSH1 0x20 ADD PUSH1 0x0 DUP2 MSTORE PUSH1 0x20 ADD PUSH1 0x0 DUP2 MSTORE PUSH1 0x20 ADD PUSH1 0x60 DUP2 MSTORE PUSH1 0x20 ADD PUSH1 0x0 DUP2 MSTORE PUSH1 0x20 ADD PUSH1 0x0 DUP2 MSTORE POP SWAP1 JUMP JUMPDEST PUSH2 0x17A PUSH1 0x40 DUP1 MLOAD PUSH1 0xC0 DUP2 ADD SWAP1 SWAP2 MSTORE PUSH1 0x0 DUP1 DUP3 MSTORE PUSH1 0x20 DUP3 ADD SWAP1 DUP2 MSTORE PUSH1 0x20 ADD PUSH1 0x0 DUP2 MSTORE PUSH1 0x20 ADD PUSH1 0x60 DUP2 MSTORE PUSH1 0x20 ADD PUSH1 0x0 DUP2 MSTORE PUSH1 0x20 ADD PUSH1 0x0 DUP2 MSTORE POP SWAP1 JUMP JUMPDEST PUSH1 0x0 PUSH1 0x20 DUP3 DUP5 SUB SLT ISZERO PUSH2 0x293 JUMPI DUP1 DUP2 REVERT JUMPDEST POP CALLDATALOAD SWAP2 SWAP1 POP JUMP JUMPDEST PUSH1 0x0 DUP1 PUSH1 0x40 DUP4 DUP6 SUB SLT ISZERO PUSH2 0x2AC JUMPI DUP1 DUP2 REVERT JUMPDEST POP POP DUP1 CALLDATALOAD SWAP3 PUSH1 0x20 SWAP1 SWAP2 ADD CALLDATALOAD SWAP2 POP JUMP JUMPDEST PUSH1 0x0 DUP2 MLOAD DUP1 DUP5 MSTORE DUP2 JUMPDEST DUP2 DUP2 LT ISZERO PUSH2 0x2E0 JUMPI PUSH1 0x20 DUP2 DUP6 ADD DUP2 ADD MLOAD DUP7 DUP4 ADD DUP3 ADD MSTORE ADD PUSH2 0x2C4 JUMP JUMPDEST DUP2 DUP2 GT ISZERO PUSH2 0x2F1 JUMPI DUP3 PUSH1 0x20 DUP4 DUP8 ADD ADD MSTORE JUMPDEST POP PUSH1 0x1F ADD PUSH1 0x1F NOT AND SWAP3 SWAP1 SWAP3 ADD PUSH1 0x20 ADD SWAP3 SWAP2 POP POP JUMP JUMPDEST PUSH1 0x0 PUSH1 0x20 DUP3 MSTORE DUP3 MLOAD PUSH2 0x317 DUP2 PUSH2 0x487 JUMP JUMPDEST DUP1 PUSH1 0x20 DUP5 ADD MSTORE POP PUSH1 0x20 DUP4 ADD MLOAD PUSH1 0x40 DUP4 ADD MSTORE PUSH1 0x40 DUP4 ADD MLOAD PUSH1 0x60 DUP4 ADD MSTORE PUSH1 0x60 DUP4 ADD MLOAD PUSH1 0xC0 PUSH1 0x80 DUP5 ADD MSTORE PUSH2 0x34B PUSH1 0xE0 DUP5 ADD DUP3 PUSH2 0x2BB JUMP JUMPDEST SWAP1 POP PUSH1 0x80 DUP5 ADD MLOAD PUSH1 0xA0 DUP5 ADD MSTORE PUSH1 0xA0 DUP5 ADD MLOAD PUSH1 0xC0 DUP5 ADD MSTORE DUP1 SWAP2 POP POP SWAP3 SWAP2 POP POP JUMP JUMPDEST PUSH1 0x0 PUSH1 0x20 DUP3 MSTORE PUSH1 0x1 DUP1 PUSH1 0xA0 SHL SUB DUP4 MLOAD AND PUSH1 0x20 DUP4 ADD MSTORE PUSH1 0x20 DUP4 ADD MLOAD PUSH1 0x40 DUP4 ADD MSTORE PUSH1 0x40 DUP4 ADD MLOAD PUSH2 0x398 DUP2 PUSH2 0x49A JUMP JUMPDEST DUP1 PUSH1 0x60 DUP5 ADD MSTORE POP PUSH1 0x60 DUP4 ADD MLOAD PUSH1 0xC0 PUSH1 0x80 DUP5 ADD MSTORE PUSH2 0x34B PUSH1 0xE0 DUP5 ADD DUP3 PUSH2 0x2BB JUMP JUMPDEST PUSH1 0x0 PUSH1 0x20 DUP3 MSTORE DUP3 MLOAD PUSH1 0x20 DUP4 ADD MSTORE PUSH1 0x20 DUP4 ADD MLOAD PUSH1 0x2 DUP2 LT PUSH2 0x3DA JUMPI PUSH2 0x3DA PUSH2 0x471 JUMP JUMPDEST DUP1 PUSH1 0x40 DUP5 ADD MSTORE POP PUSH1 0x40 DUP4 ADD MLOAD PUSH1 0x60 DUP4 ADD MSTORE PUSH1 0x60 DUP4 ADD MLOAD PUSH1 0xC0 PUSH1 0x80 DUP5 ADD MSTORE PUSH2 0x34B PUSH1 0xE0 DUP5 ADD DUP3 PUSH2 0x2BB JUMP JUMPDEST DUP2 MLOAD PUSH2 0x120 DUP3 ADD SWAP1 PUSH2 0x415 DUP2 PUSH2 0x49A JUMP JUMPDEST DUP1 DUP4 MSTORE POP PUSH1 0x20 DUP4 ADD MLOAD PUSH1 0x20 DUP4 ADD MSTORE PUSH1 0x40 DUP4 ADD MLOAD PUSH1 0x40 DUP4 ADD MSTORE PUSH1 0x60 DUP4 ADD MLOAD PUSH1 0x60 DUP4 ADD MSTORE PUSH1 0x80 DUP4 ADD MLOAD PUSH1 0x80 DUP4 ADD MSTORE PUSH1 0xA0 DUP4 ADD MLOAD PUSH1 0xA0 DUP4 ADD MSTORE PUSH1 0xC0 DUP4 ADD MLOAD PUSH1 0xC0 DUP4 ADD MSTORE PUSH1 0xE0 DUP4 ADD MLOAD PUSH1 0xE0 DUP4 ADD MSTORE PUSH2 0x100 DUP1 DUP5 ADD MLOAD DUP2 DUP5 ADD MSTORE POP SWAP3 SWAP2 POP POP JUMP JUMPDEST PUSH4 0x4E487B71 PUSH1 0xE0 SHL PUSH1 0x0 MSTORE PUSH1 0x21 PUSH1 0x4 MSTORE PUSH1 0x24 PUSH1 0x0 REVERT JUMPDEST PUSH1 0x4 DUP2 LT PUSH2 0x497 JUMPI PUSH2 0x497 PUSH2 0x471 JUMP JUMPDEST POP JUMP JUMPDEST PUSH1 0x3 DUP2 LT PUSH2 0x497 JUMPI PUSH2 0x497 PUSH2 0x471 JUMP INVALID LOG2 PUSH5 0x6970667358 0x22 SLT KECCAK256 0x48 0xB8 ADD DUP9 DUP2 0xBC 0x5C 0xD3 0x24 JUMPDEST PUSH17 0xF5F7F9F54DD051F8CE6C42551EB29D6F0A SLT DUP12 DUP6 MOD PUSH5 0x736F6C6343 STOP ADDMOD MUL STOP CALLER ",
  "sha1": "9154c5fa97ecfa0b64c762caf7de64df2a2ec262",
  "source": "// SPDX-License-Identifier: MIT\npragma solidity 0.8.2;\n\n// dummy contract to access instance service using web3.py\ncontract InstanceServiceV2 {\n    // States\n    enum PolicyFlowState {Started, Active, Finished}\n    enum ApplicationState {Applied, Revoked, Underwritten, Declined}\n    enum PolicyState {Active, Expired, Closed}\n    enum ClaimState {Applied, Confirmed, Declined, Closed}\n    enum PayoutState {Expected, PaidOut}\n\n    // Objects\n    struct Metadata {\n        address owner;\n        uint256 productId;\n        PolicyFlowState state;\n        bytes data;\n        uint256 createdAt;\n        uint256 updatedAt;\n    }\n\n    struct Application {\n        ApplicationState state;\n        uint256 premiumAmount;\n        uint256 sumInsuredAmount;\n        bytes data; \n        uint256 createdAt;\n        uint256 updatedAt;\n    }\n\n    struct Policy {\n        PolicyState state;\n        uint256 premiumExpectedAmount;\n        uint256 premiumPaidAmount;\n        uint256 claimsCount;\n        uint256 openClaimsCount;\n        uint256 payoutMaxAmount;\n        uint256 payoutAmount;\n        uint256 createdAt;\n        uint256 updatedAt;\n    }\n\n    struct Claim {\n        ClaimState state;\n        uint256 claimAmount;\n        uint256 paidAmount;\n        bytes data;\n        uint256 createdAt;\n        uint256 updatedAt;\n    }\n\n    struct Payout {\n        uint256 claimId;\n        PayoutState state;\n        uint256 amount;\n        bytes data;\n        uint256 createdAt;\n        uint256 updatedAt;\n    }\n\n    function getMetadata(bytes32 processId) external view returns(Metadata memory metadata) {}\n    function getApplication(bytes32 processId) external view returns(Application memory application) {}\n    function getPolicy(bytes32 processId) external view returns(Policy memory policy) {}\n\n    function claims(bytes32 processId) external view returns(uint256 numberOfClaims) {}\n    function getClaim(bytes32 processId, uint256 claimId) external view returns (Claim memory claim) {}\n\n    function payouts(bytes32 processId) external view returns(uint256 numberOfPayouts) {}\n    function getPayout(bytes32 processId, uint256 payoutId) external view returns (Payout memory payout) {}\n}",
  "sourcePath": "contracts/gif/InstanceServiceV2.sol",
  "type": "contract"
}